:060000008831AB2B00006B
:0800080083018031200077081C
:10001000A0007808A1007908A2007A08A3003100A6
:1000200011082000A400310012082000A5003100B2
:1000300013082000A600310014082000A700850145
:1000400091308400801D262891193F282008F70050
:100050002108F8002208F9002308FA0024083100DA
:100060009100200025083100920020002608310070
:1000700093002000270831009400090020008031FF
:1000800041282400941A4728FB011419FB177B0808
:10009000FB0AA800A808031D5E281513141C4E288F
:1000A00011081516F201F0185B287014FE302000BC
:1000B000D7005D2824002000D70124002808803CB8
:1000C0000319F10128087F3C031882287108283C95
:1000D000031C812837307107840020308500031805
:1000E000850A0008AA002A08AB002B089100151603
:1000F00020009111240014187B28F801161FF80A1B
:10010000F10A9728A808031997287208283C031CAD
:1001100097280E3072078400203085000318850A66
:100120001513141C9128110815168000F20A2000DE
:10013000911180312628BF34AC275228AC122E19D9
:100140006600BF29F430F43A7316A531AC122E19AB
:100150006600BF29F430F43A7316A531AC122E199B
:100160006600BF29F430F43A7316A531AC122E198B
:100170006600BF29F430F43A7316A531AC122E197B
:100180006600BF29F430F43A7316A531AC122E196B
:100190006600BF29F430F43A7316A531AC122E195B
:1001A0006600BF216136AC126400320011171115D0
:1001B00012141317931613159314941714179416F7
:1001C0001416941514159414141416169615161561
:1001D000961416142000080024009D13200092118C
:1001E000230067082400990002309D1BFE28200090
:1001F000921DF828003024001E1B0130F80020005A
:100200000800320011131111121013139312193038
:10021000210097009115C0308B040E148E14240019
:10022000171097109711C4309200363095001614AD
:10023000961721000E168E1624001F109F109F1176
:1002400009309A0028309D009C131C132300C00124
:1002500024001E141E182A2903102300400DD03834
:10026000C100E7002000EC201C302300E700200044
:10027000EC2024001E151E193B2922009717971405
:10028000171021001E169E161E139E171D141E10F9
:100290009E101E11043023008C0000308E000830A8
:1002A000F80021001D08033978049D001E149E14D7
:1002B0001E119030200097004B30980021008C10C8
:1002C0008530F700F70B6229013031009100703062
:1002D00092001517151413081513F40022008C1042
:1002E00074188C140A303100910070309200151788
:1002F0001514130815132300B3000B3031009100BF
:100300007030920015171514130815132300B4004C
:100310000C3031009100703092001517151413083D
:1003200015132300B5000D3031009100703092009C
:1003300015171514130815132300B6003100910189
:10034000703092001517151413081513F3000330BD
:100350009100703092001517151413081513F5004D
:100360007508003C0318BF2975087F3C031CBF2992
:100370000310750D2300C0002400920031002300FB
:10038000BF013F08283C031CCF290E303F078400E3
:10039000203085000318850A8001BF0AC12920008A
:1003A00008002300C001C30143083E078400003059
:1003B0003F3D850080080319372A43083E07F800AF
:1003C00000303F3DFA007808C9007A08CA004308A7
:1003D0003E07840000303F3D85000008CB00603CB4
:1003E0000318F9294B087A3C031CF9294B08DF391B
:1003F000FA294B08CB004A088500490884004B08BD
:10040000800043083E07840000303F3D850000081F
:10041000C9003F30310092008F30910021308500BB
:100420001A30840001302300CC004C08F700031080
:10043000310015131514000000001308800001316D
:10044000910A0319920AF70B1A2A23004A08490253
:10045000031D352AC00A400B2F2A4308C10040085B
:10046000023C031D352A4308C200C30AD4294008B0
:10047000003A20000319432A013A03196D2A033A6E
:100480000319CD2A5F2B2300C4014408073C031C39
:10049000642A60304407F8002030FA000318FA0A92
:1004A0007808C9007A08CA0044083E078400003072
:1004B0003F3D85000008CB004A08850049088400BC
:1004C0004B088000C40A452A60304407840020306D
:1004D00085000318850A8001652B2300C5014508A6
:1004E0003E07840000303F3D850080080319C22A82
:1004F000410845020318952A60304507F80020306E
:10050000FA000318FA0A7808C9007A08CA004508F0
:100510003E07840000303F3D85000008CB004A08BC
:100520008500490884004B08800041084502031DEE
:10053000A12A603045078400203085000318850A11
:100540008001450841020318C02A013041074502D5
:100550006E3EF8002030FA000318FA0A7808C90045
:100560007A08CA0045083E07840000303F3D8500F8
:100570000008CB004A088500490884004B08800029
:10058000C50A6F2A0130410745026E3E84002030C3
:1005900085000318850A8001652B2300C6014608E3
:1005A0003E07840000303F3D850080080319532B2F
:1005B000410846020318F52A60304607F80020304B
:1005C000FA000318FA0A7808C9007A08CA0046082F
:1005D0003E07840000303F3D85000008CB004A08FC
:1005E0008500490884004B08800041084602031D2D
:1005F000012B603046078400203085000318850AEF
:100600008001460841020318242B420846020318C1
:10061000242B013041074602683EF8002030FA00E2
:100620000318FA0A7808C9007A08CA0046083E0783
:10063000840000303F3D85000008CB004A0885005B
:10064000490884004B08800042084602031D322BF3
:10065000013041074602683E8400203085000318BF
:10066000850A8001460842020318512B01304207D7
:1006700046026E3EF8002030FA000318FA0A7808A5
:10068000C9007A08CA0046083E07840000303F3D92
:1006900085000008CB004A088500490884004B0803
:1006A0008000C60ACF2A0130420746026E3E84000F
:1006B000203085000318850A8001652B2000023058
:1006C000D7000030F800682B23000130F80020002C
:1006D0008831002D23004D08FA004C0884007A0868
:1006E00085000008D0004F08FA004E0884007A0800
:1006F000850000085002031D932B4D08FA004C089A
:1007000084007A0885008008031D892B0030F800DA
:10071000A92B4D08FA004C08CC0A0319CD0ACE0AC1
:100720000319CF0A6B2B4D08FA004C0884004D08C2
:1007300085000008D0004F08FA004E0884004F08DA
:100740008500000850020318A72BFF30A82B0130AA
:10075000F800200008002300C00140080E3C031CE4
:10076000D72B400DF700F70DF70DF830F705770898
:100770008B3EF8002030FA000318FA0A7808C2000D
:100780007A08C3003F08CD003E08CC004308CF00E4
:100790004208CE0020006A23F808031DD42B230052
:1007A0004008F800D92B20002300C00AAD2B0030F0
:1007B000F800883120000E2D23005208D400510883
:1007C000D3005408FA00530884007A088500800892
:1007D0000319EE2BD30A0319D40AE12B5108530253
:1007E000F7005208543BFA007708F8002000080090
:1007F0002300640803198D2C2400A000230068083E
:1008000003198D2C2400A0070318112C7F30A0029F
:1008100003180C2C23008D2C031D102C23008D2C71
:10082000172C8130A007031C172C23008D2C2008C7
:10083000F700F801F901FA01230065082400A4007B
:10084000A417230066082400A300230067082400DF
:10085000A2001830A000A101221C512C23006B081B
:10086000FA07031C3C2CF90A031D3C2CF80A031D53
:100870003C2C2400A11723006A08F907031C462C0E
:10088000F80A031D462C2400A11723006908E6007E
:10089000E6176608F807031C502C2400A117230054
:1008A0002400A10DF80CF90CFA0CA40CA30CA20C5A
:1008B0000310A00B2B2C0130F707031C612C230025
:1008C0008D2CF81B6B2CA40DFA0DF90DF80DF70B00
:1008D0006B2C23008D2CA41F7E2CFA0A031D7E2C6A
:1008E000F90A031D7E2CF80A031D7E2CF80CF90C66
:1008F000FA0CF70A031D7E2C23008D2C23006508BB
:100900002400A100230069082400A106A11F8A2C4D
:10091000F817922CF813922C2300F701F801F90133
:10092000FA012400200008008E30F700230061083F
:10093000F8006008F900FA01F808031DA92C7908ED
:10094000F800F9010830F702F808031DA92CF70197
:10095000B12C0310F81BB02CF90DF80DF703A92CDE
:10096000F81320000800230060080319792DEE0019
:1009700064080319792DEE02031CC32C7F30EE07A7
:100980000318792DC92C8130EE02031C792D03192F
:10099000792D6E08F700F801F901FA01ED016108FF
:1009A000EC00EC176208EB006308EA001930EE0077
:1009B0006708EA020318EC2C0130EB020318EC2C58
:1009C000EC020318EC2CED020318EC2CED0AEC0AF7
:1009D000EB0A6708EA071E2D6608EB020318072DCD
:1009E0000130EC020318072DED020318072DED0A64
:1009F000EC0A6608EB076708EA07031C1E2DEB0AE2
:100A0000031D1E2DEC0A031D1E2DED0A1E2D65086B
:100A10008038EC0203181D2D0130ED0203181D2D46
:100A2000ED0A65088038EC076608EB07031CFB2C11
:100A3000EC0A031DFB2CED0AFB2C7A14EE0B212D86
:100A40002C2D0310EA0DEB0DEC0DED0D0310FA0D3E
:100A5000F90DF80DEF0DD82C6F1C342D0310F80C88
:100A6000F90CFA0CEF0C372DF7030319792DEF1B56
:100A7000602D0310EA0DEB0DEC0DED0D6708EA0299
:100A800003184C2D0130EB0203184C2DEC02031817
:100A90004C2DED02031C6F2D6608EB020318572D39
:100AA0000130EC020318572DED02031C6F2D650871
:100AB0008038EC020318602D0130ED02031C6F2D0D
:100AC000FA0A031D6F2DF90A031D6F2DF80A031D85
:100AD0006F2DF70A0319792DF80CF90CFA0C61083F
:100AE000EE006508EE06EE1F772DF8177D2DF81342
:100AF0007D2DF701F801F901FA012000080080308E
:100B0000831C852D2300E50620002300EA01EB016C
:100B10006108E9006508E90660080319762EE80017
:100B2000F700640803197F2EE80203191A2E031C2C
:100B3000D72D6508EE00EE176608ED006708EC009B
:100B4000EB010310EE0CED0CEC0CEB0CE80BA02D04
:100B5000E91FAD2D6A14932E6A1068106A162130B1
:100B6000850033308400A82E6A12E91BC12D681C51
:100B7000CC2DEE0CED0CEC0CEB0CF70A03198E2EC1
:100B8000CC2DEE1BCF2D0310EB0DEC0DED0DEE0D6E
:100B9000F70303198E2EC12D6A173B2E6A136108C5
:100BA000E900E91FD52DEE17872EEE13872E640876
:100BB000E800F7006008E8026108EE00EE1762083E
:100BC000ED006308EC00EB010310EE0CED0CEC0CF7
:100BD000EB0CE80BE32DE91FF02DEA14932EEA103D
:100BE0006810EA162130850037308400A82EEA12FA
:100BF000E91B042E681C0F2EEE0CED0CEC0CEB0C1C
:100C0000F70A03198E2E0F2EEE1B122E0310EB0D7A
:100C1000EC0DED0DEE0DF70303198E2E042EEA17E1
:100C20003B2EEA136508E900E91F182EEE17872E00
:100C3000EE13872E6508EE00EE176608ED006708D4
:100C4000EC00E91F272EEE136A15932E6A11EB01B3
:100C500068102130850033308400A82EE91B512E06
:100C60006108E900681C3B2EEE0CED0CEC0CEB0C63
:100C7000F70A03198E2EEB1F4C2EEC0A031D4C2E87
:100C8000ED0A031D4C2EEE0A031D4C2EEE0CED0C4E
:100C9000EC0CF70A03198E2E6A1BCE2DEA1B112EBF
:100CA000702E8030EE06EE1F592E932E6508E90057
:100CB000662E6108E900EE08031D662EED08031D8F
:100CC000662EEC08031D662EF701872EEE1B702E94
:100CD0000310EB0DEC0DED0DEE0DF70B662E8E2EC9
:100CE000E91F742EEE17872EEE13872E6408F70087
:100CF0006508EE006608ED006708EC00872E6008C6
:100D0000F7006108EE006208ED006308EC006E0871
:100D1000F8006D08F9006C08FA00C42EF701F8011C
:100D2000F901FA01C42EEB01EC09ED09EE09EB091A
:100D3000EB0A031DA12EEC0A031DA12EED0A0319D7
:100D4000EE0A6A18AC2DEA18EF2D6A19262E562ED7
:100D50000008EC07031CB22EED0A031DB22EEE0AAA
:100D6000031968141100ED07031CB92EEE0A0319CC
:100D700068141100801F803AEE07031868146A1A7D
:100D8000B42DEA1AF72D2E2E2000080024001D1382
:100D90009E159E19C92E77189E12771C9E161E1638
:100DA0001E1AD02E1908F800200008002300D401D4
:100DB0005408E0008030E50024001E141E18DE2ECA
:100DC00003102300600DD0380138E600E700200052
:100DD000EC200130F700C62678082300E30001303C
:100DE000F7002000C62678082300E2000130F70053
:100DF0002000C62678082300E1000130F70020001B
:100E0000C62678082300E500E51F392F0130F700DA
:100E10002000C62678082300E500E51B062FF70111
:100E20002000C62678082300E50024001E151E19A0
:100E3000172F1E141E181A2F03102300600DD03810
:100E40000138E600E7002000EC200130F700C6265C
:100E500078082300E3000130F7002000C626780858
:100E60002300E2000130F7002000C62678082300A6
:100E7000E100F7012000C62678082300E5002400E1
:100E80001E151E19412F2300E31C492FFF30E400DB
:100E90004A2FE4016108F7006208F8006308F900CE
:100EA0006408FA007A08D8007908D7007808D600D4
:100EB0007708D5005808E3005708E2005608E1001B
:100EC0005508E000B630F700FA01F901F8016410A6
:100ED000E31F782F6414E009E109E209E309E00A5D
:100EE000031D782FE10A031D782FE20A0319E30A94
:100EF0006008610462046304031D802FF7018F2FD3
:100F00000310F81B8C2FE00DE10DE20DE30DFA0D3F
:100F1000F90DF80DF70B802FF8136418F8177A08FD
:100F2000E3007908E2007808E1007708E000630850
:100F3000E7006208E6006108E5006008E4006F3041
:100F4000EB001230EA000330E9006F30E8002000C7
:100F5000F8237A082300DC007908DB007808DA003F
:100F60007708D9005908F7005A08F8005B08F9001B
:100F70005C08FA007A08D7007908D6007808D5000E
:100F80007708D4005708E7005608E6005508E50042
:100F90005408E400EB01EA017A30E9008830E80007
:100FA0002000F8237A082300D3007908D2007808BB
:100FB000D1007708D0005008F7005108F800520817
:100FC000F9005308FA0020000800230038088500C3
:100FD0003708840058081A008001B70A0319B80AB4
:040FE00020000800E5
:101000000B088B1331001513151400000000891B09
:101010008B170318352813087F392300CF003100C0
:1010200011082300D000310012082300D1004F081E
:10103000D80080312000E527883123005008310096
:10104000910023005108310092000B088B131513F7
:10105000151400000000891B8B172300CC0B3128CE
:101060003328310035285A283100130D140D7F39EB
:101070002300CF00310011082300D00031001208F6
:101080002300D1004F08D80080312000E5278831A7
:1010900023005008310091002300510831009200D4
:1010A000910A0319920A03102300CC0B58285A28DE
:1010B000200000282000080023005508F8015402F1
:1010C000031865285408F7007128F7010830D60086
:1010D000D40DF70D550877020318F700F80DD60B5D
:1010E000682820000800203023004D1E3030D0003A
:1010F0004C08F700CC1F8428F709F70A7708CC00C2
:101100002D30D000CD174D144C08D4006430D500DC
:1011100020005C2077082300CC0030307807D10015
:101120004C08D4000A30D50020005C20303077070E
:101130002300D30030307807D2005008F700303059
:1011400051020319A728CD14CD1B4D15BB285008FB
:10115000D1002030D000303052020319B3284D1492
:10116000CD1BCD14BB28031D4D14031DBB285108F6
:10117000D2002030D1004D19C228CD18C9284D18F1
:10118000D028D7285008D80080312000E5278831A2
:1011900023005108D80080312000E5278831230042
:1011A0005208D80080312000E527883123005308F9
:1011B000D80080312000E527883108008318E42812
:1011C0002130850031308400F701F801F901FA017E
:1011D0002300E101E201E301E4015F085E045D0434
:1011E0005C04031923292030E5000310D80DD90D24
:1011F000DA0DDB0DE10DE20DE30DE40D5F08640295
:10120000031D0C295E086302031D0C295D086202A0
:10121000031D0C295C086102031C1D295C08E10206
:101220005D08031C5D0FE2025E08031C5E0FE30213
:101230005F08031C5F0FE4020314F70DF80DF90DAE
:10124000FA0DE50BF528610880006208813F63080C
:10125000823F6408833F2000080004082300D00078
:101260004A08D200031951294908E7004808E60056
:101270004708E5004608E400EB01EA012030E900F8
:101280008230E80080312000F82388317A0823007A
:10129000C9007908C8007808C7007708C600D20BD3
:1012A00034294908DB004808DA004708D900460815
:1012B000D8005808B63CD800FA015908DC00D91704
:1012C0000310D90CDA0CDB0CFA0CF90CF80CF70C47
:1012D000D80B6029DC1F7729F709F809F909FA0901
:1012E000F70A0319F80A0319F90A0319FA0A7A081E
:1012F000C9007908C8007808C7007708C600C91F68
:101300008E29D003D016C609C709C809C909C60A5B
:101310000319C70A0319C80A0319C90A3B30D700C1
:101320009A30D600CA30D500D4010A30D2004A081B
:101330000319D00A8314213085001630840049082F
:10134000DB004808DA004708D9004608D8005708EB
:10135000DF005608DE005508DD005408DC002000E0
:10136000DE207808F708031DCC2923004A0A520220
:10137000031DBC292000CC2950080319CF290F399F
:1013800052020319C52903180F2AD01B0F2A501B1C
:10139000CF292030072A200020302300D005D01E7E
:1013A000E129D0124A08031DD0037708D0002D3060
:1013B000D80080312000E527883123005008F7004D
:1013C000D0014A085202031DF3297708D0002E30BD
:1013D000D80080312000E527883123005008F7002D
:1013E0002030D00500303030D01E072AD0124A08F5
:1013F000031DD0037708D0002D30D80080312000A5
:10140000E527883123005008F700D0013030F70776
:101410007708D80080312000E52788312300831029
:101420005708DB005608DA005508D9005408D800E0
:10143000DF01DE01DD010A30DC002000DE207A0859
:101440002300D7007908D6007808D5007708D400A3
:10145000D20B9A2920000800213085000F3084002B
:1014600000080319412A0530F800F701F70B362A66
:10147000F80B352A2E30F700F70B3C2A3F2A800B59
:10148000332A08002100B808031DA42BBE08031945
:10149000A42B2300BE016E303E078400203085005F
:1014A0000318850A80080319732A6E303E078400EA
:1014B000203085000318850A0008BF003F082F3C34
:1014C0000318662A3F08393C0318682A0030692A45
:1014D0000130003A031D712A02302000D700A72BEB
:1014E0002300BE0A4B2A2030C0006E30BF00C4016A
:1014F000C2010A30C300C1013F084004031D832A12
:101500000030F800762B4408C40A3F0784000030FE
:10151000403D85000008C50045082D3C031D9C2A60
:101520000130C2004408C40A3F0784000030403D37
:1015300085000008C500A92A45082B3C031DA92ADF
:101540004408C40A3F0784000030403D850000087D
:10155000C50045082F3C03186C2B4508393C031C7B
:101560006C2B4508303C031DD52A44083F078400F6
:101570000030403D85000008783C0319C92A440822
:101580003F0784000030403D85000008583C031DA3
:10159000D52A1030C300C40A4408C40A3F07840097
:1015A0000030403D85000008C50043080A3C031D8B
:1015B0001A2B45082F3C0318192B4508393C031CEE
:1015C000192B0A30C6004108C700F701F801460888
:1015D00003104718F707F70CF80CC718F707F70CB4
:1015E000F80C4719F707F70CF80CC719F707F70CB1
:1015F000F80C471AF707F70CF80CC71AF707F70C9F
:10160000F80C471BF707F70CF80CC71BF707F70C8C
:10161000F80C7808C600303045024607C10044087F
:10162000C40A3F0784000030403D85000008C50023
:10163000D92A6C2B4308103C031D6C2B4508603CD9
:101640000318292B45087A3C031C292B4508DF3950
:101650002A2B4508C50045082F3C0318332B4508A5
:10166000393C03183B2B4508403C03186C2B4508BC
:10167000463C031C6C2B45082F3C03184C2B45089B
:10168000393C031C4C2B410EC600F030C6053030EF
:1016900045024607C100552B410EC600F030C60575
:1016A000413045020A3E4607C1004408C40A3F07CC
:1016B00084000030403D85000008C5004508603CBE
:1016C0000318692B45087A3C031C692B4508DF3950
:1016D0006A2B4508C5002B2B420B742B43080A3C90
:1016E000031D742BC109C10A4108F8007808F500F0
:1016F0007508003C03189E2B75087F3C031C9E2B2D
:101700000310750DBF00240092000B08F7008B1327
:101710000330310091007030920075089300151766
:10172000151555309600AA30960095149518962BED
:101730001511151377088B04A22B2300023020000B
:10174000D7003100A82B210002302000D700310043
:10175000883120001F2D55303C008F00AA308F00AB
:101760000F1014309D0015309E001030A000113075
:10177000A10018303D00A0001930A1001A30A400CB
:101780001B30A50055303C008F00AA308F000F148D
:1017900032009E019B019D0106309F006030990040
:1017A0007010F01070110330FB002300B801B70176
:1017B0008C018E0122009201910194019301652C0C
:1017C000023400342834003400342B344034B03434
:1017D0000034033480344534523452340534C03438
:1017E00000340434803442344134553444340434B5
:1017F000C034003405348034433441344C34003434
:1018000000341734013420340034003400344534BB
:10181000583450344F345234543400340034463445
:101820004134433454344F34523459340034463400
:1018300049344E3444340434C034003401348034E8
:1018400049340734C03400340334803449343234EA
:1018500043340534C03400340934803449344D34C1
:1018600050344F3452345434003400344C34073440
:10187000C03400340934803450344C344F34433451
:101880004B3400340034003452340734C034003454
:101890000534803453344C34453445345034123498
:1018A0000134A03400340034003453344C344F3409
:1018B000503445340034003400345334543441340B
:1018C000543455345334003400340B308500E03048
:1018D000840085171200F700003A03197F2C1200CC
:1018E000F800F81B772C0F39870012008600781B50
:1018F0001200781F12001E00F70B792C6A2C3100A1
:101900001B08CF39F700030818390310890D770435
:10191000891C0910091D8916891D8916091B89163C
:10192000891B8916F7001F309B0077086400F600BA
:1019300080312000D5208831803101218831230079
:1019400039106400701CC32C2000171A96019501F1
:101950001508F700171A1608FA00171EFA0177087B
:101960002300BE007A08BF00BF08031DBE2C3E083E
:101970003B3C031CBE2C2000A82C23003914200063
:10198000D60170102300391C2F2D3910BA013A08E6
:10199000283C031CF92C37303A078400203085009E
:1019A0000318850A80013A08073C031CDF2C6030CD
:1019B0003A078400203085000318850A80013A0820
:1019C000053C031CEB2C68303A078400203085006E
:1019D0000318850A80013A081C3C031CF72C6E3062
:1019E0003A078400203085000318850A8001BA0A6E
:1019F000C72C2030BF000E30BE0080312000D1291E
:101A000088312300B9107818B914B91C202D203062
:101A1000BF006030BE0080312000AB2B88317808D9
:101A20002300BB003B08BE00903120000028883115
:101A300023003B08073C031D202D2000422A2300E1
:101A4000BC013C08283C031C2F2D0E303C078400B1
:101A5000203085000318850A8001BC0A212DA12CA5
:021A6000630021
:1020000023003E08F13E0318962F0F3E2000992F23
:1020100043302300BF004C30C0004530C100413088
:10202000C2005230C300C4013F30C500C6012100C8
:10203000B808031D892BBE080319892B2030230003
:10204000CD006E30CC00CE01CF01D00150084C073E
:10205000840000304D3D850080080319D128D00848
:10206000031D5A284C0884004D08850000310008E3
:10207000D10051082F3C031841285108393C03185E
:102080004A284C0884004D088500003100082D3C8A
:10209000031D56284C0884004D08850000310008B7
:1020A0002D3C031D5428CF0ACF2859280030F800B2
:1020B000D328CF2850084C07840000304D3D8500C0
:1020C0000008D10051082F3C03186A285108393CF8
:1020D00003186C2800306D280130013C0319842856
:1020E00050084C07840000304D3D850000082E3C10
:1020F0000319842850084C07840000304D3D8500AA
:1021000000082D3C031DCC2850084C0784000030EB
:102110004D3D850000082E3C031D9628CE0A4E0832
:10212000013C031896280030F800D32850084C07CB
:10213000840000304D3D850000082D3C031DA32880
:102140000030F800D3284D08D2004C08D10080316F
:102150002000DC2390310130780223004C078400FA
:1021600000304D3D850000082E3C031DBA2800308C
:10217000F800D32850084C07840000304D3D8500FE
:102180000008D10051082F3C0318CB285108393CD6
:10219000031CCB28CF28CF280030F800D328D00A42
:1021A00026280130F800F8080319C82A2030CD008D
:1021B0006E30CC00CF01CE01D301D201D1017F30EE
:1021C000D000D701D601D501D4015814D810581128
:1021D000DA014C084D04031DF228F701F801F9015A
:1021E000FA01182A5A08DA0A4C07840000304D3DDB
:1021F00085000008D900D9080319D829581C1229CC
:102200005908203C03191229581059082B3C031D6A
:102210000C29D810CE29122959082D3C031D12294A
:10222000D814CE2958181C2959082E3C031D1C29E6
:1022300058191C295815CE295818CB2959082F3C54
:102240000318CB295908393C031CCB293030D9025B
:10225000581D89295308E7005208E6005108E50097
:102260005008E400EB01EA012030E9008230E80088
:1022700080312000F82390317A082300D3007908B8
:10228000D2007808D1007708D000E1015908E000B9
:1022900080312000942490317A082300DF007908EF
:1022A000DE007808DD007708DC005F08E3005E08E8
:1022B000E2005D08E1005C08E0005308E700520816
:1022C000E6005108E5005008E40080312000B32406
:1022D0009031831023005708E3005608E2005508A8
:1022E000E1005408E0007A08E7007908E600780881
:1022F000E5007708E400803120007F2590317A08DE
:102300002300D7007908D6007808D5007708D400D4
:10231000CA29E701E6012030E5008230E4005708D1
:10232000EB005608EA005508E9005408E80080313F
:102330002000F82390317A082300DF007908DE00BE
:102340007808DD007708DC00E1015908E000803101
:10235000200094249031831023005F08E3005E087E
:10236000E2005D08E1005C08E0007A08E700790817
:10237000E6007808E5007708E400803120007F253A
:1023800090317A082300D7007908D6007808D50064
:102390007708D400CE295818CE29D8295A08DA0A45
:1023A0004C07840000304D3D85000008D900FB2813
:1023B000D81CF529E701E6018030E5007F30E40014
:1023C0005708EB005608EA005508E9005408E800F1
:1023D00080312000F82390317A082300D700790853
:1023E000D6007808D5007708D4004E084F040319AA
:1023F000102ADA080319082ADA034E0884004F0865
:1024000085005A084C07800000304D3D813F102A5E
:102410004E0884004F0885004C0880004D08813F1D
:102420005408F7005508F8005608F9005708FA0054
:102430007A08CF007908CE007808CD007708CC0064
:1024400080312000D626903105082300D1000408F1
:10245000D00083144F08E3004E08E2004D08E1006D
:102460004C08E0007A08E7007908E6007808E50003
:102470007708E400803120007F2590312300510847
:102480008500500884007A08B6007908B5007808FD
:10249000B4007708B3000B08F7008B130A30310043
:1024A000910070309200230033083100930015171B
:1024B000151555309600AA309600951495185E2A89
:1024C0001511151377088B040B08F7008B130B30CD
:1024D00091007030920023003408310093001517EA
:1024E000151555309600AA30960095149518762A41
:1024F0001511151377088B040B08F7008B130C309C
:1025000091007030920023003508310093001517B8
:10251000151555309600AA309600951495188E2AF8
:102520001511151377088B040B08F7008B130D306A
:102530009100703092002300360831009300151787
:10254000151555309600AA30960095149518A62AB0
:102550001511151377088B040130F3000B08F700F1
:102560008B139101703092007308930015171515A5
:1025700055309600AA30960095149518BD2A15116D
:10258000151377088B0401302000D700872B230018
:102590002030CD006E30CC002130CF000F30CE0087
:1025A000803120006A239031F808031D572B230047
:1025B000B601B501B401B3010B08F7008B130A3063
:1025C00031009100703092002300330831009300F5
:1025D0001517151555309600AA30960095149518C4
:1025E000EF2A1511151377088B040B08F7008B13CE
:1025F0000B309100703092002300340831009300BA
:102600001517151555309600AA3096009514951893
:10261000072B1511151377088B040B08F7008B1384
:102620000C30910070309200230035083100930087
:102630001517151555309600AA3096009514951863
:102640001F2B1511151377088B040B08F7008B133C
:102650000D30910070309200230036083100930055
:102660001517151555309600AA3096009514951833
:10267000372B1511151377088B04F3010B08F7009E
:102680008B13910170309200730893001517151584
:1026900055309600AA309600951495184D2B1511BB
:1026A000151377088B0401302000D700872B2030CA
:1026B0002300CD006E30CC002130CF001530CE008D
:1026C000803120006A239031F808031D852B0130EA
:1026D000D70020302300B8003830B700D1303100A7
:1026E000910000309200031005302300CC008831A7
:1026F00020000020903173082300CC001830CD005A
:102700008831200073209031872B0230D7008C2B2A
:10271000210002302000D7002300962F2030230014
:10272000CD006030CC002030CF000E30CE008031A4
:1027300020006A239031F808031D442C2100B808BA
:102740000319A42B2000442CBE080319A92B200038
:10275000442C2300B601B501B401B3010B08F70006
:102760008B130A303100910070309200230033083F
:10277000310093001517151555309600AA309600B4
:1027800095149518C12B1511151377088B040B0898
:10279000F7008B130B309100703092002300340847
:1027A000310093001517151555309600AA30960084
:1027B00095149518D92B1511151377088B040B0850
:1027C000F7008B130C309100703092002300350815
:1027D000310093001517151555309600AA30960054
:1027E00095149518F12B1511151377088B040B0808
:1027F000F7008B130D3091007030920023003608E3
:10280000310093001517151555309600AA30960023
:1028100095149518092C1511151377088B04F301DD
:102820000B08F7008B13910170309200730893002E
:102830001517151555309600AA3096009514951861
:102840001F2C1511151377088B0422008C140130EE
:10285000F4000B08F7008B13013031009100703049
:102860009200740893001517151555309600AA307C
:102870009600951495183A2C1511151377088B04AA
:1028800001302000D700462C0230D7002300962FBD
:102890000130D70020302300B8003830B7009B301B
:1028A0003100910000309200031007302300CC006B
:1028B0008831200000209031893084002300C90134
:1028C000C801C7017F30C6000230CA00883120002D
:1028D0002D2190312300962F2300962F20302300A6
:1028E000CD006030CC002030CF000E30CE008031E3
:1028F00020006A239031F808031DD52C2100B80868
:102900000319842C2000D52CBE080319892C200023
:10291000D52C80312000D62690317A082300C900BA
:102920007908C8007808C7007708C6000508CB00FA
:102930000408CA0083104908E3004808E200470879
:10294000E1004608E0003608E7003508E6003408F4
:10295000E5003308E400803120007F25903123001A
:102960004B0885004A0884007A08C2007908C10033
:102970007808C0007708BF0001302000D700203061
:102980002300B8003830B700893084004208C900FD
:102990004108C8004008C7003F08C6000230CA000E
:1029A000883120002D219031D72C0230D700230010
:1029B000962F20302300CD006030CC002030CF0097
:1029C0000E30CE00803120006A239031F808031DBC
:1029D000132D2100B8080319EF2C2000132DBE0879
:1029E0000319F42C2000132DF01401302000D7001F
:1029F000AE01AE08031D122D023022008C06643099
:102A00002300BF00883120002C22903102302200A8
:102A10008C0664302300BF00883120002C229031C6
:102A20006400F92C152D0230D700F0102300962FEA
:102A30002100B808031DA92DBE080319A92D2030B7
:102A40002300D2006E30D10080312000DC23903191
:102A5000780BA42D21003E08313A20000319372DB0
:102A6000013A0319552D0F3A0319732D9E2D22009B
:102A70008C1401302000D700F4000B08F7008B13F2
:102A800001303100910070309200740893001517E6
:102A9000151555309600AA309600951495184E2DB0
:102AA0001511151377088B04A22D22008C1001300C
:102AB0002000D700F4010B08F7008B130130310020
:102AC0009100703092007408930015171515553059
:102AD0009600AA309600951495186C2D15111513B3
:102AE00077088B04A22D0130D70000308C180130FC
:102AF0002300BF002030B8003830B7004C30D80079
:102B000080312000E52790312C302300D80080311F
:102B10002000E52790313F302300D800803120008D
:102B2000E527903123003F08CC001830CD008831D4
:102B30002000732090313100A22D20000230D700F8
:102B40003100A22DA72D20000230D7003100AD2D7D
:102B5000210002302000D70031002300962F2030C2
:102B60002300CD006030CC002030CF000E30CE00EE
:102B7000803120006A239031F808031D612F210065
:102B8000B8080319C52D2000612FBE080319CA2DEE
:102B90002000612F9D149D18CB2D1C08FA001B08E6
:102BA0002300C4007A08C500E1004408E000803139
:102BB0002000942490317A082300E3007908E20091
:102BC0007808E1007708E000E701C030E6007F30D8
:102BD000E5008830E40080312000B32490316F306C
:102BE0002300E7001230E6000330E5008030E40007
:102BF0007A08EB007908EA007808E9007708E8002D
:102C000080312000F823903193302300E7002B30EF
:102C1000E6004830E5008030E4007A08EB007908EF
:102C2000EA007808E9007708E80080312000F823FE
:102C300090317A082300C2007908C1007808C000EA
:102C40007708BF0001302000D70076083C3A03190E
:102C5000362E023A0319682E213A03199A2E103A99
:102C60000319CB2E343A0319FD2E2F2F20302300C9
:102C7000B8003830B700A130310091000030920028
:102C8000031008302300CC00883120000020903150
:102C900050302300D80080312000E52790312C30BF
:102CA0002300D80080312000E5279031893084004E
:102CB00023004208C9004108C8004008C7003F0877
:102CC000C6000230CA00883120002D219031602FCB
:102CD00020302300B8003830B700A930310091000F
:102CE00000309200031008302300CC00883120000F
:102CF0000020903142302300D80080312000E527A9
:102D000090312C302300D80080312000E52790310D
:102D10008930840023004208C9004108C8004008E7
:102D2000C7003F08C6000230CA00883120002D21AC
:102D30009031602F20302300B8003830B700B13018
:102D40003100910000309200031008302300CC00C5
:102D5000883120000020903157302300D800803186
:102D60002000E52790312C302300D800803120004E
:102D7000E52790318930840023004208C9004108CA
:102D8000C8004008C7003F08C6000230CA008831AA
:102D900020002D21903120302300B8003830B700BA
:102DA000B930310091000030920003100830230048
:102DB000CC00883120000020903157302300D8000B
:102DC00080312000E52790312C302300D80080315D
:102DD0002000E52790318930840023004208C90093
:102DE0004108C8004008C7003F08C6000230CA00BA
:102DF000883120002D219031602F20302300B80031
:102E00003830B700C130310091000030920003101B
:102E100008302300CC00883120000020903153304E
:102E20002300D80080312000E52790312C3023008A
:102E3000D80080312000E5279031893084002300BC
:102E40004208C9004108C8004008C7003F08C60042
:102E50000230CA00883120002D219031602F2030AF
:102E60002300B8003830B700C9303100910000307D
:102E70009200031008302300CC008831200000208D
:102E8000903155302300D80080312000E527903163
:102E90002C302300D80080312000E5279031893084
:102EA000840023004208C9004108C8004008C70048
:102EB0003F08C6000230CA00883120002D21903121
:102EC000632F0230D7002300962F20302300CD003F
:102ED0006030CC002030CF000E30CE00803120009A
:102EE0006A239031F808031D8D2F2100B8080319BB
:102EF0007B2F20008D2FBE080319802F20008D2FDF
:102F0000701522008C1080312000D5209031630094
:102F100070118031012190318F2F0230D7002300B2
:102F2000962F0230D7002300962F230088312000EF
:102F3000172D0A148A140A158207912F952F082835
:102F4000952F8E2BD92C482C6C2C952F182D952F26
:082F50006E2C652F952FAF2DAB
:027F1E002C3401
:107F20007F3400340034003482343534E4341B347C
:107F300083346734DB34A43483341E348C343334D8
:107F40007C34343489340A348134353479347C34A3
:107F50008334333402343F3483341E348C3433342A
:107F60007F340034003400348134B1348D340A3429
:107F7000813433345034EE347D347D34BF3437347F
:107F800081349334AA343D34813433345034EE3464
:107F90007B343A34F3344C347E34DF349D342B3428
:107FA0000034003400340034003400340034003431
:107FB0007F348A34473499348034003400340034B8
:107FC0000034003400340034003400340034003411
:107FD0007234593488347C34753426349734E03420
:107FE00078341E341D34C4347A34633450345E34EF
:107FF0007C347534FE341A347E343134723418349F
:020000040001F9
:08000E00EC3FF83DFC1FFC3F34
:00000001FF
;PIC16F18326
;CRC=4A3B  CREATED="12-jul-19 12:58"
