:060000008831442D0000D0
:0800080083018031200077081C
:10001000A0007808A1007908A2007A08A300850151
:1000200091308400801D162891191F282008F700A0
:100030002108F8002208F9002308FA00090080319D
:1000400021282400941A2728F3011419F3177308A0
:10005000F30AB000B008031D38281513141C2E280D
:10006000110815167014FE302000D300F201240090
:100070003008803C0319F10130087F3C03185C28EC
:100080007108283C031C5B28333071078400203042
:1000900085000318850A0008B2003208B30033084F
:1000A0009100151620009111240014185528F8010C
:1000B000161FF80AF10A7128B0080319712872088E
:1000C000283C031C71280A30720784002030850008
:1000D0000318850A1513141C6B28110815168000C7
:1000E000F20A200091118031162824009D1320006F
:1000F000921123006B082400990002309D1B872871
:100100002000921D8128003024001E1B0130F800C1
:100110002000080021009115C0308B040E148E14AD
:100120002400171097109711C430920036309500B4
:100130001614961721000E168E1624001F109F10FD
:100140009F1109309A0028309D009C131C13230036
:10015000CC0124001E141E18AB28031023004C0DE4
:10016000D038CD00EB00200075201C302300EB00C0
:100170002000752024001E151E19BC289030200078
:1001800097004B30980021008C1022008C10230027
:10019000CA014A08283C031CD7280A304A078400B1
:1001A000203085000318850A8001CA0AC9288831D1
:1001B0002000292E2300CC01CF014F084A078400DC
:1001C00000304B3D85008008031921294F084A075C
:1001D000F80000304B3DFA007808D5007A08D600C8
:1001E0004F084A07840000304B3D85000008D700C7
:1001F000603C0318022957087A3C031C022957085F
:10020000DF3903295708D7005608850055088400B0
:10021000570880004F084A07840000304B3D850096
:1002200000082C3C031D1F29CC0A4C0B19294F0830
:10023000CD004C08023C031D1F294F08CE00CF0AF9
:10024000DD284C08003A200003192D29013A031932
:100250005729033A0319B729492A2300D001500826
:10026000073C031C4E295C305007F8002030FA0090
:100270000318FA0A7808D5007A08D60050084A0709
:10028000840000304B3D85000008D70056088500EB
:100290005508840057088000D00A2F295C30500789
:1002A0008400203085000318850A80014F2A23002E
:1002B000D10151084A07840000304B3D8500800879
:1002C0000319AC294D08510203187F295C305107EE
:1002D000F8002030FA000318FA0A7808D5007A08E6
:1002E000D60051084A07840000304B3D85000008C5
:1002F000D7005608850055088400570880004D082F
:100300005102031D8B295C30510784002030850089
:100310000318850A800151084D020318AA290130EB
:100320004D0751026A3EF8002030FA000318FA0A1D
:100330007808D5007A08D60051084A0784000030B2
:100340004B3D85000008D7005608850055088400FD
:1003500057088000D10A592901304D0751026A3EE1
:100360008400203085000318850A80014F2A23006D
:10037000D20152084A07840000304B3D85008008B6
:1003800003193D2A4D0852020318DF295C30520739
:10039000F8002030FA000318FA0A7808D5007A0825
:1003A000D60052084A07840000304B3D8500000803
:1003B000D7005608850055088400570880004D086E
:1003C0005202031DEB295C30520784002030850067
:1003D0000318850A800152084D0203180E2A4E08A0
:1003E000520203180E2A01304D075202643EF800F3
:1003F0002030FA000318FA0A7808D5007A08D600E7
:1004000052084A07840000304B3D85000008D700A1
:100410005608850055088400570880004E0852028F
:10042000031D1C2A01304D075202643E8400203017
:1004300085000318850A800152084E0203183B2AE2
:1004400001304E0752026A3EF8002030FA000318CD
:10045000FA0A7808D5007A08D60052084A078400BC
:1004600000304B3D85000008D70056088500550830
:10047000840057088000D20AB92901304E07520281
:100480006A3E8400203085000318850A80014F2AC7
:1004900020000230D3000030F800522A230001303F
:1004A000F800200088318D2E23005108FA005008F2
:1004B00084007A0885000008D4005308FA00520826
:1004C00084007A08850000085402031D7D2A510823
:1004D000FA00500884007A0885008008031D732AFA
:1004E0000030F800932A5108FA005008D00A031986
:1004F000D10AD20A0319D30A552A5108FA00500822
:100500008400510885000008D4005308FA005208FE
:10051000840053088500000854020318912AFF3014
:10052000922A0130F800200008002300CC014C087A
:10053000103C031CC12A4C0DF700F70DF70DF830E5
:10054000F7057708873EF8002030FA000318FA0A0A
:100550007808CE007A08CF004B08D1004A08D000B6
:100560004F08D3004E08D20020005422F808031D83
:10057000BE2A23004C08F800C32A20002300CC0A1E
:10058000972A0030F800883120009B2E24001D138C
:100590009E159E19C92A77189E12771C9E161E1644
:1005A0001E1AD02A1908F800200008002300680845
:1005B00003196B2B2400A00023006C0803196B2B7C
:1005C0002400A0070318EF2A7F30A0020318EA2AAC
:1005D00023006B2B031DEE2A23006B2BF52A8130A1
:1005E000A007031CF52A23006B2B2008F700F80155
:1005F000F901FA01230069082400A400A4172300CC
:100600006A082400A30023006B082400A20018300D
:10061000A000A101221C2F2B23006F08FA07031C46
:100620001A2BF90A031D1A2BF80A031D1A2B240092
:10063000A11723006E08F907031C242BF80A031DD9
:10064000242B2400A11723006D08EA00EA176A088A
:10065000F807031C2E2B2400A11723002400A10D52
:10066000F80CF90CFA0CA40CA30CA20C0310A00BB0
:10067000092B0130F707031C3F2B23006B2BF81BC2
:10068000492BA40DFA0DF90DF80DF70B492B23009A
:100690006B2BA41F5C2BFA0A031D5C2BF90A031DAC
:1006A0005C2BF80A031D5C2BF80CF90CFA0CF70A0A
:1006B000031D5C2B23006B2B230069082400A10081
:1006C00023006D082400A106A11F682BF817702BCA
:1006D000F813702B2300F701F801F901FA01240047
:1006E0002000080023005808E4008030E9002400BE
:1006F0001E141E18792B03102300640DD038013806
:10070000EA00EB00200075200130F700C6227808CF
:100710002300E7000130F7002000C62278082300FC
:10072000E6000130F7002000C62278082300E5002B
:100730000130F7002000C62278082300E900E91FF5
:10074000D42B0130F7002000C62278082300E900EE
:10075000E91BA12BF7012000C62278082300E9003D
:1007600024001E151E19B22B1E141E18B52B0310C3
:100770002300640DD0380138EA00EB00200075201A
:100780000130F700C62278082300E7000130F700A7
:100790002000C62278082300E6000130F700200080
:1007A000C62278082300E500F7012000C622780859
:1007B0002300E90024001E151E19DC2B2300E71C72
:1007C000E42BFF30E800E52BE8016508F700660838
:1007D000F8006708F9006808FA007A08DC00790870
:1007E000DB007808DA007708D9005C08E7005B08CE
:1007F000E6005A08E5005908E400B630F700FA01AF
:10080000F901F8016810E71F132C6814E409E509E1
:10081000E609E709E40A031D132CE50A031D132C5E
:10082000E60A0319E70A6408650466046704031D01
:100830001B2CF7012A2C0310F81B272CE40DE50DC7
:10084000E60DE70DFA0DF90DF80DF70B1B2CF8135B
:100850006818F8177A08E7007908E6007808E500D4
:100860007708E4006708EB006608EA006508E9001D
:100870006408E8006F30EF001230EE000330ED0046
:100880006F30EC002000D6227A082300E0007908BF
:10089000DF007808DE007708DD005D08F7005E08FD
:1008A000F8005F08F9006008FA00200008008318CB
:1008B0005D2C213085003B308400F701F801F901FF
:1008C000FA012300EB01EC01ED01EE01670866047B
:1008D0006504640403199C2C2030EF000310E00D24
:1008E000E10DE20DE30DEB0DEC0DED0DEE0D6708E6
:1008F0006E02031D852C66086D02031D852C65089C
:100900006C02031D852C64086B02031C962C640882
:10091000EB026508031C650FEC026608031C660FFA
:10092000ED026708031C670FEE020314F70DF80DC4
:10093000F90DFA0DEF0B6E2C6B0880006C08813FEF
:100940006D08823F6E08833F2000080023004408A2
:1009500085004308840060081A008001C30A031957
:10096000C40A2000080004082300D8005408DA0054
:100970000319D52C5308EB005208EA005108E9008E
:100980005008E800EF01EE012030ED008230EC006D
:100990002000D6227A082300D3007908D2007808F4
:1009A000D1007708D000DA0BBA2C5308E3005208C4
:1009B000E2005108E1005008E0006008B63CE000A9
:1009C000FA016108E400E1170310E10CE20CE30C0A
:1009D000FA0CF90CF80CF70CE00BE42CE41FFB2CE0
:1009E000F709F809F909FA09F70A0319F80A0319C6
:1009F000F90A0319FA0A7A08D3007908D2007808AC
:100A0000D1007708D000D31F122DD803D816D009F3
:100A1000D109D209D309D00A0319D10A0319D20A7C
:100A20000319D30A3B30DF009A30DE00CA30DD0004
:100A3000DC010A30DA0054080319D80A8314213083
:100A40008500203084005308E3005208E20051087A
:100A5000E1005008E0005F08E7005E08E6005D087E
:100A6000E5005C08E400200057247808F708031D1F
:100A7000502D2300540A5A02031D402D2000502DF2
:100A800058080319532D0F395A020319492D031819
:100A90008B2DD81B8B2D581B532D2030852D2000DE
:100AA00020302300D805D81E632DD8125408031D0A
:100AB000D8037708D8002D30E0002000A6242300BA
:100AC0005808F700D80154085A02031D732D7708FF
:100AD000D8002E30E0002000A62423005808F7009C
:100AE0002030D80500303030D81E852DD81254085B
:100AF000031DD8037708D8002D30E0002000A6247D
:100B000023005808F700D8013030F7077708E000D5
:100B10002000A624230083105F08E3005E08E200A3
:100B20005D08E1005C08E000E701E601E5010A304C
:100B3000E400200057247A082300DF007908DE0053
:100B40007808DD007708DC00DA0B1E2D2000080095
:100B50002300CD01CE01CF014F084B0784000030A8
:100B60004C3D850080080319692ECF08031DDF2D39
:100B70004B0884004C08850000310008D000500864
:100B80002F3C0318C72D5008393C0318D02D4B08B3
:100B900084004C088500003100082D3C031DDB2D2E
:100BA0004B0884004C088500003100082D3C0319D7
:100BB000CE0A672EDE2D0030F8006B2E672E4F0810
:100BC0004B07840000304C3D85000008D0005008E1
:100BD0002F3C0318EF2D5008393C0318F12D00303D
:100BE000F22D0130013C0319092E4F084B078400F8
:100BF00000304C3D850000082E3C0319092E4F089B
:100C00004B07840000304C3D850000082D3C031D3F
:100C1000642E4F084B07840000304C3D85000008CF
:100C20002E3C031D1B2ECD0A4D08013C03181B2E24
:100C30000030F8006B2E4F084B07840000304C3D0D
:100C4000850000082D3C031D282E0030F8006B2E77
:100C50004C08D2004B08D1005208D4005108D300F0
:100C60005408FA00530884007A08850080080319A4
:100C70003D2ED30A0319D40A302E51085302F7002F
:100C80005208543BFA007708F800013078024B070D
:100C9000840000304C3D850000082E3C031D532E7F
:100CA0000030F8006B2E4F084B07840000304C3D9D
:100CB00085000008D00050082F3C0318632E500810
:100CC000393C0318672E672E0030F8006B2ECF0AD0
:100CD000AC2D0130F800200008008E30F700230012
:100CE0006208F8006108F900FA01F808031D822E75
:100CF0007908F800F9010830F702F808031D822E80
:100D0000F7018A2E0310F81B892EF90DF80DF70351
:100D1000822EF81320000800230061080319522FC7
:100D2000EE0065080319522FEE02031C9C2E7F3043
:100D3000EE070318522FA22E8130EE02031C522F11
:100D40000319522F6E08F700F801F901FA01ED01BD
:100D50006208EC00EC176308EB006408EA00193045
:100D6000EE006808EA020318C52E0130EB020318F2
:100D7000C52EEC020318C52EED020318C52EED0A90
:100D8000EC0AEB0A6808EA07F72E6708EB0203187B
:100D9000E02E0130EC020318E02EED020318E02EE5
:100DA000ED0AEC0A6708EB076808EA07031CF72E50
:100DB000EB0A031DF72EEC0A031DF72EED0AF72EA2
:100DC00066088038EC020318F62E0130ED02031895
:100DD000F62EED0A66088038EC076708EB07031C5F
:100DE000D42EEC0A031DD42EED0AD42E7A14EE0B69
:100DF000FA2E052F0310EA0DEB0DEC0DED0D03108F
:100E0000FA0DF90DF80DEF0DB12E6F1C0D2F03101B
:100E1000F80CF90CFA0CEF0C102FF7030319522FF2
:100E2000EF1B392F0310EA0DEB0DEC0DED0D6808EB
:100E3000EA020318252F0130EB020318252FEC02DC
:100E40000318252FED02031C482F6708EB02031837
:100E5000302F0130EC020318302FED02031C482F15
:100E600066088038EC020318392F0130ED02031CAC
:100E7000482FFA0A031D482FF90A031D482FF80AC4
:100E8000031D482FF70A0319522FF80CF90CFA0C1E
:100E90006208EE006608EE06EE1F502FF817562F78
:100EA000F813562FF701F801F901FA0120000800A4
:100EB000213085001B308400000803196D2F053098
:100EC000F800F701F70B622FF80B612F2E30F700B7
:0C0ED000F70B682F6B2F800B5F2F0800C2
:101000008030831C06282300E60620002400A2016D
:10101000A301230062082400A10023006608240025
:10102000A10623006108031921292400A000F7006C
:1010300023006508031930292400A0020319B828E9
:10104000031823286928230066082400A600A61791
:10105000230067082400A500230068082400A400DA
:10106000A3010310A60CA50CA40CA30CA00B302804
:10107000A11F3D28221449292210201022162130B8
:101080008500343084005F292212A11B5128201CC6
:101090005C28A60CA50CA40CA30CF70A0319442980
:1010A0005C28A61B5F280310A30DA40DA50DA60D9B
:1010B000F7030319442951282217E128221323009A
:1010C00062082400A100A11F6728A6173D29A613C6
:1010D0003D29230065082400A000F70023006108D3
:1010E0002400A002230062082400A600A617230003
:1010F00063082400A500230064082400A400A301C1
:101100000310A60CA50CA40CA30CA00B7F28A11FF8
:101110008C28A2144929A2102010A2162130850083
:10112000383084005F29A212A11BA028201CAB2804
:10113000A60CA50CA40CA30CF70A03194429AB2890
:10114000A61BAE280310A30DA40DA50DA60DF70335
:1011500003194429A028A217E128A2132300660836
:101160002400A100A11FB628A6173D29A6133D29DA
:10117000230066082400A600A617230067082400A1
:10118000A500230068082400A400A11FCB28A613F3
:10119000221549292211A301201021308500343065
:1011A00084005F29A11BF728230062082400A10006
:1011B000201CE128A60CA50CA40CA30CF70A03190B
:1011C0004429A31FF228A40A031DF228A50A031D1F
:1011D000F228A60A031DF228A60CA50CA40CF70AF7
:1011E00003194429221B5E28A21BAD281A2980302E
:1011F000A606A61F01294929230066082400A1008C
:101200001029230062082400A100A608031D10294C
:10121000A508031D1029A408031D1029F7013D2965
:10122000A61B1A290310A30DA40DA50DA60DF70BDF
:1012300010294429A11F1E29A6173D29A6133D29BF
:1012400023006508F70066082400A600230067084D
:101250002400A500230068082400A4003D292300E1
:101260006108F70062082400A60023006308240038
:10127000A500230064082400A4002608F80025081F
:10128000F9002408FA007C29F701F801F901FA01B4
:101290007C29A301A409A509A609A309A30A031D82
:1012A0005829A40A031D5829A50A031D5829A60A6E
:1012B00022183C28A2188B282219CA28FC280008CA
:1012C000A407031C6929A50A031D6929A60A031995
:1012D00020141100A507031C7029A60A0319201465
:1012E0001100801B7429803AA60703182014221AC3
:1012F0004428A21A9328D228200008002300D201F3
:10130000D101D0017F30CF00D601D501D401D30166
:101310005714D7105711D9014B084C04031D9529B8
:10132000F701F801F901FA01B62A5908D90A4B0761
:10133000840000304C3D85000008D800D80803190F
:10134000762A571CB5295808203C0319B52957108F
:1013500058082B3C031DAF29D7106C2AB529580813
:101360002D3C031DB529D7146C2A5718BF295808DE
:101370002E3C031DBF295719BF2957156C2A571832
:101380006A2A58082F3C03186A2A5808393C031C5B
:101390006A2A3030D802571D2A2A5208EB00510819
:1013A000EA005008E9004F08E800EF01EE012030A4
:1013B000ED008230EC0080312000D62288317A089E
:1013C0002300D2007908D1007808D0007708CF0038
:1013D000E2015808E100803120006D2688317A084A
:1013E0002300DF007908DE007808DD007708DC00E4
:1013F0005F08E4005E08E3005D08E2005C08E100CD
:101400005208E8005108E7005008E6004F08E500E0
:10141000803120008C268831831023005608E40098
:101420005508E3005408E2005308E1007A08E80098
:101430007908E7007808E6007708E500200000203A
:101440007A082300D6007908D5007808D4007708F8
:10145000D300692AEB01EA012030E9008230E8007C
:101460005608EF005508EE005408ED005308EC0054
:1014700080312000D62288317A082300DF007908E5
:10148000DE007808DD007708DC00E2015808E100A2
:10149000803120006D268831831023005F08E4002E
:1014A0005E08E3005D08E2005C08E1007A08E800FD
:1014B0007908E7007808E6007708E50020000020BA
:1014C0007A082300D6007908D5007808D400770878
:1014D000D3006C2A571C762A5908D90A4B07840076
:1014E00000304C3D85000008D8009E29D71C932A67
:1014F000EB01EA018030E9007F30E8005608EF0098
:101500005508EE005408ED005308EC00803120002F
:10151000D62288317A082300D6007908D5007808C9
:10152000D4007708D3004D084E040319AE2AD90819
:101530000319A62AD9034D0884004E0885005908CE
:101540004B07800000304C3D813FAE2A4D0884009F
:101550004E0885004B0880004C08813F5308F70077
:101560005408F8005508F9005608FA002000080051
:1015700023004A08EF3E03182C2D113E20002F2D8A
:1015800023002C2D23002C2D20302300D1005C3093
:10159000D0002030D3000A30D20080312000542205
:1015A0008831F808031D1E2B2100B4080319DA2A1C
:1015B00020001E2BBA080319DF2A20001E2B23004F
:1015C000D80180312000722388317A082300CF00AF
:1015D0007908CE007808CD007708CC004F08EB00E2
:1015E0004E08EA004D08E9004C08E800EF01EE0162
:1015F0007A30ED008830EC0080312000D62288312E
:101600007A082300CF007908CE007808CD0077084B
:10161000CC002030C4003330C300893084004F0830
:10162000D3004E08D2004D08D1004C08D000023043
:10163000D40080312000B3248831202B0230D30025
:1016400023002C2D2100B408031D5D2BBA080319BB
:101650005D2B20302300CC006A30CB00803120008D
:10166000A8258831F8080319592B20302300CC0015
:101670006A30CB00CE01CD0120007E217A08230004
:10168000C2007908C1007808C0007708BF00203088
:10169000C4003330C3004F30E00080312000A62466
:1016A00088314B302300E00080312000A6248831AF
:1016B0005B2B0230D300602B210002302000D300CE
:1016C00023002C2D2100B408031DD92CBA080319BE
:1016D000D92C20302300CC006A30CB008031200090
:1016E000A8258831F8080319D52C20302300CC0018
:1016F0006A30CB00CE01CD0120007E217A08230084
:10170000C2007908C1007808C0007708BF0042080D
:10171000CF004108CE004008CD003F08CC00D801E2
:1017200080312000722388317A082300DB00790899
:10173000DA007808D9007708D8005B08EB005A086F
:10174000EA005908E9005808E800EF01EE017A3094
:10175000ED008830EC0080312000D62288317A08F4
:101760002300D3007908D2007808D1007708D00090
:101770006230EB00F830EA008830E9007930E800A8
:101780005308EF005208EE005108ED005008EC003D
:1017900080312000D62288317A082300DB007908C6
:1017A000DA007808D9007708D8000508DD000408B9
:1017B000DC0083105B08E4005A08E3005908E200EB
:1017C0005808E1005E30E800BA30E7005930E60022
:1017D0008130E5002000002023005D0885005C08C2
:1017E00084007A08D7007908D6007808D5007708F1
:1017F000D4008314E401E3016030E2008130E100B1
:101800005708E8005608E7005508E6005408E500C8
:10181000200000207A082300DB007908DA0078082D
:10182000D9007708D8005B08EB005A08EA0059088D
:10183000E9005808E8004F08EF004E08EE004D0898
:10184000ED004C08EC0080312000D62288317A0867
:101850002300DB007908DA007808D9007708D8007F
:101860005B08E4005A08E3005908E2005808E10068
:10187000E801E7011630E6008730E50080312000FE
:101880008C2688317A082300DB007908DA00780892
:10189000D9007708D8008314E401E3016030E20046
:1018A0008130E1005708E8005608E7005508E600D7
:1018B0005408E500200000207A082300DF007908A2
:1018C000DE007808DD007708DC005F08E4005E08D1
:1018D000E3005D08E2005C08E100E801E701403058
:1018E000E6008230E500803120008C2688318314A8
:1018F00023005B08E4005A08E3005908E200580896
:10190000E1007A08E8007908E7007808E60077083F
:10191000E500200000207A082300DB007908DA00C7
:101920007808D9007708D80083105B08E4005A08CB
:10193000E3005908E2005808E1005708E80056089B
:10194000E7005508E6005408E500200000207A086A
:101950002300D7007908D6007808D5007708D4008E
:101960005408F7005508F8005608F9005708FA001F
:101970007A08CF007908CE007808CD007708CC002F
:101980002030C4003330C300893084004F08D300B6
:101990004E08D2004D08D1004C08D0000230D400CF
:1019A00080312000B3248831D72C0230D300DC2CC6
:1019B000210002302000D30023002C2D20302300F2
:1019C000D1005C30D0002030D3000A30D20080310A
:1019D000200054228831F808031D162D2100B40878
:1019E0000319F42C2000162DBA080319F92C200035
:1019F000162D01302000D300AA01AA08031D152DC1
:101A0000023022008C0664302300CB00803120009D
:101A100058278831023022008C0664302300CB0026
:101A20008031200058278831FD2C182D0230D3003A
:101A300023002C2D2100B408031D212DBA08031DFD
:101A4000252D02302000D300210023002C2D023050
:101A5000D30023002C2D230088312000A32E0A144C
:101A60008A100A158207272DC02AC22A2B2D2B2D5A
:101A7000DE2C2B2D2B2D2B2D1A2D2B2DC42A2B2D6F
:101A80002B2D2B2D222B622B55303C008F00AA30A2
:101A90008F000F1014309D0015309E001030A000F4
:101AA0001130A10018303D00A0001930A1001A30FB
:101AB000A4001B30A50055303C008F00AA308F00D9
:101AC0000F1432009E019B019D0106309F00603083
:101AD000990070102300C201C1014830C00083305A
:101AE000BF000330F300C401C3018C018E0122004A
:101AF00092019101940193010C2E0234003424349C
:101B0000003400342B344034AC340034033480349B
:101B10004534523452340534C034003404348034F3
:101B200042344134553444340434C0340034033432
:101B30008034433441344C340534C03400340134EF
:101B400080344534133401342034583450344F3405
:101B50005234543400340034463441344334543421
:101B60004F34523459340034463449344E344434BA
:101B70000434C03400340134803449340734C03470
:101B80000034033480344934323443340534C034AF
:101B900000340934803449344D3450344F34523495
:101BA0005434003400344C340734C0340034093425
:101BB000803450344C344F3443344B34003400348C
:101BC000003452340734C034003409348034533480
:101BD0004C344534453450340034003400345334EC
:101BE00010340134A0344C344F3450344534003474
:101BF0000034003453345434413454345534533461
:101C00000034003454340734C03400340334803496
:101C100052345434003400340D3085007D3084005B
:101C200085171200F700003A0319262E1200F8005B
:101C3000F81B1E2E0F39870012008600781B120039
:101C4000781F12001E00F70B202E112E803120006D
:101C50008A288831230045102000AA080319B42ED1
:101C6000701C4F2E171A960195011508F700171AC8
:101C70001608FA00171EFA0177082300CA007A082E
:101C8000CB00CB08031D4B2E4A083B3C031C4B2EBC
:101C90002000352E230045142000D20170102300AF
:101CA000451CB32E4510C6014608283C031C862E51
:101CB000333046078400203085000318850A8001F0
:101CC0004608073C031C6C2E5C304607840020301D
:101CD00085000318850A80014608053C031C782E00
:101CE000643046078400203085000318850A80018F
:101CF00046081C3C031C842E6A30460784002030B2
:101D000085000318850A8001C60A542E2030CB00B6
:101D10000A30CA0080312000DA2888312300C5103B
:101D20007818C514C51CA42E2030CB005C30CA0026
:101D300080312000952A883178082300C7004708A1
:101D4000CA002000B82A2300C8014808283C031C08
:101D5000B32E0A3048078400203085000318850A16
:0C1D60008001C80AA52E20002D2E630073
:020000040001F9
:08000E00EC3FF13FFC1FFC3F39
:00000001FF
;PIC16F18326
;CRC=6986  CREATED="19-jun-19 16:01"
