:0600000080317A2D0000A2
:0800080083018031200077081C
:10001000A0007808A1007908A2007A08A3003100A6
:1000200011082000A400310012082000A5003100B2
:1000300013082000A600310014082000A700850145
:1000400091308400801D262891193F282008F70050
:100050002108F8002208F9002308FA0024083100DA
:100060009100200025083100920020002608310070
:1000700093002000270831009400090020008031FF
:1000800041282400941A4728F3011419F317730820
:10009000F30A2300E700E708031D5E282400151378
:1000A000141C5028110815167014F0185928FE3029
:1000B0005A2800302000D700F20123006708803C56
:1000C0000319F10167087F3C031887287108283C51
:1000D000031C862837307107840020308500031800
:1000E000850A0008E8006808E900240011082300D8
:1000F000690824009100151620009111240014189D
:100100007F28F801161FF80AF10A23009E28E70845
:1001100003199E287208283C031C9E280E30720783
:100120008400203085000318850A24001513141C50
:100130009728110815168000F20A2300200091115B
:1001400080312628BF34AC275228AC122E19660005
:10015000BF29F430F43A7316A531AC122E1966009B
:1001600024009D132000921123004C0824009900C4
:1001700002309D1BC2282000921DBC2800302400A4
:100180001E1B0130F8002000080021009115C0302E
:100190008B040E148E142400171097109711C4307E
:1001A0009200363095001614961721000E168E1602
:1001B00024001F109F109F1109309A0028309D00C5
:1001C0009C131C132300BC0124001E141E18E628D7
:1001D000031023003C0DD038BD00CC002000B0201F
:1001E0001C302300CC002000B02024001E151E1956
:1001F000F728220097179714171021001E169E1635
:100200001E139E171D141E109E101E110430230075
:100210008C0000308E000830F80021001D080339E2
:1002200078049D001E149E141E119030200097002B
:100230004B30980021008C1022008C102300BA0152
:100240003A08283C031C2E290E303A07840020303F
:1002500085000318850A8001BA0A20298031200010
:100260004F2E2300BC01BF013F083A078400003035
:100270003B3D85008008031978293F083A07F800BC
:1002800000303B3DFA007808C3007A08C4003F08FC
:100290003A07840000303B3D85000008C500603C03
:1002A0000318592945087A3C031C59294508DF39A8
:1002B0005A294508C50044088500430884004508BC
:1002C00080003F083A07840000303B3D850000086D
:1002D0002C3C031D7629BC0A3C0B70293F08BD004D
:1002E0003C08023C031D76293F08BE00BF0A3429A2
:1002F0003C08003A200003198429013A0319AE2969
:10030000033A03190E2AA02A2300C0014008073C23
:10031000031CA52960304007F8002030FA000318BC
:10032000FA0A7808C3007A08C40040083A07840033
:1003300000303B3D85000008C500440885004308A7
:10034000840045088000C00A862960304007840088
:10035000203085000318850A8001A62A2300C101E8
:1003600041083A07840000303B3D850080080319AE
:10037000032A3D0841020318D62960304107F800DE
:100380002030FA000318FA0A7808C3007A08C4007B
:1003900041083A07840000303B3D85000008C50055
:1003A0004408850043088400450880003D08410258
:1003B000031DE229603041078400203085000318C6
:1003C000850A800141083D020318012A01303D07DA
:1003D00041026E3EF8002030FA000318FA0A78084D
:1003E000C3007A08C40041083A07840000303B3D4E
:1003F00085000008C50044088500430884004508BE
:100400008000C10AB02901303D0741026E3E8400E0
:10041000203085000318850A8001A62A2300C20126
:1004200042083A07840000303B3D850080080319EC
:10043000942A3D0842020318362A60304207F80029
:100440002030FA000318FA0A7808C3007A08C400BA
:1004500042083A07840000303B3D85000008C50093
:100460004408850043088400450880003D08420296
:10047000031D422A603042078400203085000318A3
:10048000850A800142083D020318652A3E0842029F
:100490000318652A01303D074202683EF80020300B
:1004A000FA000318FA0A7808C3007A08C400420860
:1004B0003A07840000303B3D85000008C500440831
:1004C000850043088400450880003E084202031D61
:1004D000732A01303D074202683E840020308500C7
:1004E0000318850A800142083E020318922A01304F
:1004F0003E0742026E3EF8002030FA000318FA0A66
:100500007808C3007A08C40042083A078400003023
:100510003B3D85000008C500440885004308840071
:1005200045088000C20A102A01303E0742026E3E92
:100530008400203085000318850A8001A62A200047
:100540000230D7000030F800A92A23000130F8005B
:1005500020008031B12E23004108FA0040088400B9
:100560007A0885000008C4004308FA0042088400A5
:100570007A08850000084402031DD42A4108FA00C5
:10058000400884007A0885008008031DCA2A0030CC
:10059000F800EA2A4108FA004008C00A0319C10A13
:1005A000C20A0319C30AAC2A4108FA0040088400B1
:1005B000410885000008C4004308FA00420884008E
:1005C00043088500000844020318E82AFF30E92A9E
:1005D0000130F800200008002300BC013C080E3C5C
:1005E000031C182B3C0DF700F70DF70DF830F7053D
:1005F00077088B3EF8002030FA000318FA0A7808D2
:10060000BE007A08BF003B08C1003A08C0003F089E
:10061000C3003E08C2002000AB22F808031D152BC2
:1006200023003C08F8001A2B20002300BC0AEE2A05
:100630000030F80080312000BD2E230034088500F2
:100640003308840050081A008001B30A0319B40A61
:10065000200008000B088B1331001513151400003F
:100660000000891B8B1703185D2B13087F392300AB
:10067000C300310011082300C40031001208230018
:10068000C5004308D00020001D232300440831008A
:10069000910023004508310092000B088B131513BD
:1006A000151400000000891B8B172300C00B592B69
:1006B0005B2B31005D2B802B3100130D140D7F3926
:1006C0002300C300310011082300C40031001208C8
:1006D0002300C5004308D00020001D232300440848
:1006E000310091002300450831009200910A03195E
:1006F000920A03102300C00B7E2B802B20002A2B94
:1007000020000800230050080319F32BDC005408D4
:100710000319F32BDC070318942B7F30DC02031C36
:10072000F32B0319F32B982B8130DC070318F32BE1
:100730005C08F700F801F901FA015108E000E01740
:100740005208DF005308DE001830DC00DD015E1CBB
:10075000C12B5708FA07031CB32BF90A031DB32B4F
:10076000F80A0319DD175608F907031CBA2BF80A13
:100770000319DD175508D200D2175208F8070318DD
:10078000DD17DD0DF80CF90CFA0CE00CDF0CDE0CBB
:100790000310DC0BA62B0130F7070318F32BF81B13
:1007A000D82BE00DFA0DF90DF80DF7030319F32B13
:1007B000E01FE92BFA0A031DE92BF90A031DE92BB7
:1007C000F80A031DE92BF80CF90CFA0CF70A0319C7
:1007D000F32B5108DD005508DD06DD1FF12BF8175E
:1007E000F72BF813F72BF701F801F901FA012000B4
:1007F00008008318FF2B213085002C308400F7017E
:10080000F801F901FA012300DC01DD01DE01DF015D
:10081000570856045504540403193E2C2030E000B8
:100820000310D00DD10DD20DD30DDC0DDD0DDE0D7D
:10083000DF0D57085F02031D272C56085E02031DBB
:10084000272C55085D02031D272C54085C02031C4D
:10085000382C5408DC025508031C550FDD025608DD
:10086000031C560FDE025708031C570FDF02031448
:10087000F70DF80DF90DFA0DE00B102C5C08800057
:100880005D08813F5E08823F5F08833F20000800CB
:1008900004082300C8004408CA0003196A2C43084E
:1008A000D3004208D2004108D1004008D000D7014F
:1008B000D6012030D5008230D400200082237A086F
:1008C0002300C3007908C2007808C1007708C0007F
:1008D000CA0B4F2C4308D3004208D2004108D10074
:1008E0004008D0005008B63CD000FA015108D400AE
:1008F000D1170310D10CD20CD30CFA0CF90CF80C54
:10090000F70CD00B792CD41F902CF709F809F909B2
:10091000FA09F70A0319F80A0319F90A0319FA0A76
:100920007A08C3007908C2007808C1007708C000BF
:10093000C31FA72CC803C816C009C109C209C3092F
:10094000C00A0319C10A0319C20A0319C30A3B30BA
:10095000CF009A30CE00CA30CD00CC010A30CA0098
:1009600044080319C80A831421308500103084001C
:100970004308D3004208D2004108D1004008D0000B
:100980004F08D7004E08D6004D08D5004C08D400BB
:100990002000F9237808F708031DE52C2300440AFA
:1009A0004A02031DD52C2000E52C48080319E82C29
:1009B0000F394A020319DE2C0318202DC81B202DE5
:1009C000481BE82C20301A2D200020302300C805B9
:1009D000C81EF82CC8124408031DC8037708C800B5
:1009E0002D30D00020001D2323004808F700C80147
:1009F00044084A02031D082D7708C8002E30D00095
:100A000020001D2323004808F7002030C8050030CF
:100A10003030C81E1A2DC8124408031DC8037708B9
:100A2000C8002D30D00020001D2323004808F70007
:100A3000C8013030F7077708D00020001D232300BD
:100A400083104F08D3004E08D2004D08D1004C0847
:100A5000D000D701D601D5010A30D4002000F923F7
:100A60007A082300CF007908CE007808CD007708F7
:100A7000CC00CA0BB32C2000080024001D139E15C7
:100A80009E19402D77189E12771C9E161E161E1A50
:100A9000472D1908F80020000800213085000B3090
:100AA000840000080319622D0530F800F701F70BE8
:100AB000572DF80B562D2E30F700F70B5D2D602DBE
:100AC000800B542D080023004508F8014402031848
:100AD0006C2D4408F700782DF7010830C600C40DCE
:100AE000F70D450877020318F700F80DC60B6F2DB8
:100AF0002000080055303C008F00AA308F000F10F6
:100B000014309D0015309E001030A0001130A1005F
:100B100018303D00A0001930A1001A30A4001B308D
:100B2000A50055303C008F00AA308F000F14320012
:100B30009E019B019D0106309F006030990070105E
:100B4000F0100330F3002300B401B3018C018E01D7
:100B500022009201910194019301332E023400345A
:100B60002834003400342B344034B034003403349F
:100B700080344534523452340534C03400340434A3
:100B8000803442344134553444340434C034003465
:100B900005348034433441344C3400340034173449
:100BA0000134203400340034003445345834503497
:100BB0004F345234543400340034463441344334D6
:100BC00054344F34523459340034463449344E345A
:100BD00044340434C034003401348034493407349C
:100BE000C03400340334803449343234433405345F
:100BF000C03400340934803449344D3450344F34D7
:100C000052345434003400344C340734C03400348B
:100C10000934803450344C344F3443344B34003432
:100C20000034003452340734C03400340534803486
:100C300053344C3445344534503412340134A034E8
:100C400000340034003453344C344F345034453481
:100C50000034003400345334543441345434553463
:100C600053340034003405308500AE3084008517DD
:100C70001200F700003A03194D2E1200F800F81B7D
:100C8000452E0F39870012008600781B1200781F4E
:100C900012001E00F70B472E382E2000C528230017
:100CA00035102000AE080319D72E701C742E171AA9
:100CB000960195011508F700171A1608FA00171E75
:100CC000FA0177082300BA007A08BB00BB08031DAD
:100CD000702E3A083B3C031C702E20005A2E230035
:100CE00035142000D60170102300351CD62E351087
:100CF000B6013608283C031CAB2E3730360784007B
:100D0000203085000318850A80013608073C031C43
:100D1000912E603036078400203085000318850A44
:100D200080013608053C031C9D2E68303607840080
:100D3000203085000318850A800136081C3C031CFE
:100D4000A92E6E3036078400203085000318850AEE
:100D50008001B60A792E2030BB000E30BA00200088
:100D600031292300B5107818B514B51CC72E2030D2
:100D7000BB006030BA002000EC2A78082300B700DE
:100D80003708BA0088312000002880312300B801DC
:100D90003808283C031CD62E0E303807840020303B
:100DA00085000318850A8001B80AC82E2000522E3B
:020DB0006300DE
:1010000023003A08F13E0318322C0F3E2000352C05
:101010002300322C2300322C0130D7002030230053
:10102000B4003830B300A23031009100003092009B
:10103000031007302300C000803120002A238831AC
:10104000893084002300C301C201C1017F30C00088
:101050000230C40080312000482488312300322C23
:1010600020302300C1006030C0002030C3000E30AB
:10107000C20080312000AB228831F808031D81298D
:101080002100B8080319462820008129BE08031949
:101090004B28200081292300BB013B08C50080307C
:1010A000CA0024001E141E18532803102300450DE7
:1010B000D0380138CB00CC0080312000B0208831FE
:1010C0000130F70080313D25883178082300C800C1
:1010D0000130F700803120003D2588317808230059
:1010E000C7000130F700803120003D2588317808A5
:1010F0002300C6000130F700803120003D258831F3
:1011000078082300CA00CA1FC4280130F7008031C4
:1011100020003D25883178082300CA00CA1B852895
:10112000F701803120003D25883178082300CA006E
:1011300024001E151E199A281E141E189D2803101F
:101140002300450DD0380138CB00CC008031200081
:10115000B02088310130F70080313D258831780892
:101160002300C8000130F700803120003D25883180
:1011700078082300C7000130F700803120003D25AA
:10118000883178082300C600F701803120003D2512
:10119000883178082300CA0024001E151E19CE28A5
:1011A0002300C81CD628FF30C900D728C90146082B
:1011B000F7004708F8004808F9004908FA007A08DB
:1011C000BF007908BE007808BD007708BC003F0862
:1011D000C8003E08C7003D08C6003C08C500B63040
:1011E000F700FA01F901F8014910C81F052949144F
:1011F000C509C609C709C809C50A031D0529C60AC4
:10120000031D0529C70A0319C80A450846044704EF
:101210004804031D0D29F7011C290310F81B192987
:10122000C50DC60DC70DC80DFA0DF90DF80DF70B5C
:101230000D29F8134918F8177A08C7007908C6006D
:101240007808C5007708C4004708D3004608D200D4
:101250004508D1004408D0006F30D7001230D600C6
:101260000330D5006F30D4008031200082238831D4
:101270007A082300C3007908C2007808C100770803
:10128000C0004008F7004108F8004208F900430890
:10129000FA007A08BF007908BE007808BD00770818
:1012A000BC003F08D3003E08D2003D08D1003C08F6
:1012B000D000D701D6017A30D5008830D4008031F3
:1012C0002000822388317A082300BF007908BE00FD
:1012D0007808BD007708BC002030B4003730B30078
:1012E000893084003F08C3003E08C2003D08C100A9
:1012F0003C08C0000230C4008031200048248831FE
:1013000083290230D7002300322C20302300C10073
:101310006030C0002030C3000E30C2008031200099
:10132000AB228831F808031DBE292100B808031933
:101330009B292000BE29BE080319A0292000BE2930
:10134000F01401302000D700AE01AE08031DBD2906
:10135000023022008C0664302300BB008031200064
:101360004D258831023022008C0664302300BB00FA
:10137000803120004D258831A529C0290230D700B1
:10138000F0102300322C2100B808031D9F2ABE084C
:1013900003199F2A20302300BC006E30BB003C089C
:1013A000BE003B08BD003E08FA003D0884007A08F4
:1013B000850080080319E029BD0A0319BE0AD32954
:1013C0003B083D02F7003C083E3BFA007708F80076
:1013D000780B9A2A21003E08313A20000319F72998
:1013E000013A0319FD290F3A0319032A952A22000D
:1013F0008C1401302000D700982A22008C10013074
:101400002000D700982A0130D70000308C18013016
:101410002300BB002030B4003830B3004C30D00083
:10142000803120001D2388312C302300D0008031F2
:1014300020001D2388313F302300D0008031200060
:101440001D23883123003B08BC001830BD0020302C
:101450003D1E3030C0003C08F700BC1F372AF7099A
:10146000F70A7708BC002D30C000BD173D143C08BA
:10147000C4006430C50080312000632588317708BE
:101480002300BC0030307807C1003C08C4000A309B
:10149000C500803120006325883130307707230074
:1014A000C30030307807C2004008F70030304102F6
:1014B00003195E2ABD14BD1B3D15722A4008C100E8
:1014C0002030C0003030420203196A2A3D14BD1B8F
:1014D000BD14722A031D3D14031D722A4108C20067
:1014E0002030C1003D19792ABD18802A3D18872A6D
:1014F0008E2A4008D000803120001D23883123002F
:101500004108D000803120001D238831230042088B
:10151000D000803120001D23883123004308D000F3
:10152000803120001D238831982A0230D700982A64
:101530009D2A230002302000D700A22A2100023079
:101540002000D7002300322C20302300C10060305F
:10155000C0002030C3000E30C20080312000AB221A
:101560008831F808031D292C2100B8080319BA2A6C
:101570002000292CBE080319BF2A2000292C9D1405
:101580009D18C02A1C08FA001B082300C0007A0816
:10159000C1004108C3004008C2008E30F700430874
:1015A000F8004208F900FA01F808031DE12A790859
:1015B000F800F9010830F702F808031DE12AF701E5
:1015C000E92A0310F81BE82AF90DF80DF703E12AC0
:1015D000F8137A08C5007908C4007808C3007708B2
:1015E000C200C901C030C8007F30C7008830C600C3
:1015F00042080319BE2BD00046080319BE2BD002A7
:101600000318032B082B7F30D0070318BE2B0E2B9B
:101610008130D002031CBE2B0319BE2B5008F700EB
:10162000F801F901FA01CF014308CE00CE174408B2
:10163000CD004508CC001930D0004908CC02031871
:10164000312B0130CD020318312BCE020318312B80
:10165000CF020318312BCF0ACE0ACD0A4908CC0796
:10166000632B4808CD0203184C2B0130CE0203181F
:101670004C2BCF0203184C2BCF0ACE0A4808CD07BB
:101680004908CC07031C632BCD0A031D632BCE0A2C
:10169000031D632BCF0A632B47088038CE02031843
:1016A000622B0130CF020318622BCF0A4708803823
:1016B000CE074808CD07031C402BCE0A031D402B44
:1016C000CF0A402B7A14D00B662B712B0310CC0D54
:1016D000CD0DCE0DCF0D0310FA0DF90DF80DD10D76
:1016E0001D2B511C792B0310F80CF90CFA0CD10CA2
:1016F0007C2BF7030319BE2BD11BA52B0310CC0D9C
:10170000CD0DCE0DCF0D4908CC020318912B013021
:10171000CD020318912BCE020318912BCF02031C8C
:10172000B42B4808CD0203189C2B0130CE020318BD
:101730009C2BCF02031CB42B47088038CE02031821
:10174000A52B0130CF02031CB42BFA0A031DB42BC6
:10175000F90A031DB42BF80A031DB42BF70A031969
:10176000BE2BF80CF90CFA0C4308D0004708D00641
:10177000D01FBC2BF817C22BF813C22BF701F801AE
:10178000F901FA016F30D3001230D2000330D100DA
:101790008030D0007A08D7007908D6007808D500C4
:1017A0007708D400803120008223883193302300D1
:1017B000D3002B30D2004830D1008030D0007A08DE
:1017C000D7007908D6007808D5007708D400803192
:1017D0002000822388317A082300BE007908BD00EA
:1017E0007808BC007708BB0001302000D70020300B
:1017F0002300B4003830B300A8303100910000302D
:101800009200031008302300C000803120002A23FA
:10181000883155302300D000803120001D238831CD
:101820002C302300D000803120001D2388318930E6
:10183000840023003E08C3003D08C2003C08C100EC
:101840003B08C0000230C4008031200048248831A9
:101850002B2C0230D7002300322C0230D70023007B
:10186000322C230080312000C52E0A108A100A1560
:1018700082072D2C08280A28312C312C85290C2888
:10188000312C312CC329312C3028312C312CA42A75
:020000040001F9
:08000E00EC3FF13FFC1FFC3F39
:00000001FF
;PIC16F18326
;CRC=C922  CREATED="26-jun-19 18:02"
