:0600000090314E2A0000C1
:0800080083018031200077081C
:10001000A0007808A1007908A2007A08A3003100A6
:1000200011082000A400310012082000A5003100B2
:1000300013082000A600310014082000A700850145
:1000400091308400801D262891193F282008F70050
:100050002108F8002208F9002308FA0024083100DA
:100060009100200025083100920020002608310070
:1000700093002000270831009400090020008031FF
:1000800041282400941A4728FB011419FB177B0808
:10009000FB0AA800A808031D5E281513141C4E288F
:1000A00011081516F201F0185B287014FE302000BC
:1000B000D7005D2824002000D70124002808803CB8
:1000C0000319F10128087F3C031882287108283C95
:1000D000031C812837307107840020308500031805
:1000E000850A0008AA002A08AB002B089100151603
:1000F00020009111240014187B28F801161FF80A1B
:10010000F10A9728A808031997287208283C031CAD
:1001100097280E3072078400203085000318850A66
:100120001513141C9128110815168000F20A2000DE
:10013000911180312628BF34AC275228AC122E19D9
:100140006600BF29F430F43A7316A531AC122E19AB
:100150006600BF29F430F43A7316A531AC122E199B
:100160006600BF29F430F43A7316A531AC122E198B
:100170006600BF29F430F43A7316A531AC122E197B
:100180006600BF29F430F43A7316A531AC122E196B
:100190006600BF29F430F43A7316A531AC122E195B
:1001A0006600BF216136AC126400320011171115D0
:1001B00012141317931613159314941714179416F7
:1001C0001416941514159414141416169615161561
:1001D000961416142000080024009D13200092118C
:1001E00023006B082400990002309D1BFE2820008C
:1001F000921DF828003024001E1B0130F80020005A
:1002000008001930210097009115C0308B040E149E
:100210008E142400171097109711C43092003630B6
:1002200095001614961721000E168E1624001F1026
:100230009F109F1109309A0028309D009C131C13B9
:100240002300C00124001E141E18242903102300BB
:10025000400DD038C100EB002000EC201C30230002
:10026000EB002000EC2024001E151E193529220069
:1002700097179714171021001E169E161E139E170F
:100280001D141E109E101E11043023008C0000301F
:100290008E000830F80021001D08033978049D0005
:1002A0001E149E141E119030200097004B309800B1
:1002B00021008C108530F700F70B5C2901303100EC
:1002C0009100703092001517151413081513F400DF
:1002D00022008C1074188C140A3031009100703098
:1002E000920015171514130815132300B3000B30D3
:1002F0003100910070309200151715141308151372
:100300002300B4000C3031009100703092001517BA
:100310001514130815132300B5000D30310091009A
:100320007030920015171514130815132300B6002A
:100330003100910170309200151715141308151330
:10034000F300033091007030920015171514130854
:100350001513F5007508003C0318B92975087F3C92
:10036000031CB9290310750D2300C000240092005E
:1003700031002300BF013F08283C031CC9290E306F
:100380003F078400203085000318850A8001BF0ADA
:10039000BB2980312000D429320011131111121011
:1003A000131393122000012908002300C001C30188
:1003B00043083E07840000303F3D85008008031954
:1003C0003B2A43083E07F80000303F3DFA0078081A
:1003D000C9007A08CA0043083E07840000303F3D48
:1003E00085000008CB00603C0318FD294B087A3CCF
:1003F000031CFD294B08DF39FE294B08CB004A08B6
:100400008500490884004B08800043083E078400AB
:1004100000303F3D85000008C9003F3031009200A8
:10042000FF309100213085001A3084000130230014
:10043000CC004C08F7000310310015131514000010
:100440000000130880000131910A0319920AF70B8A
:100450001E2A23004A084902031D392AC00A400BFC
:10046000332A4308C1004008023C031D392A4308CF
:10047000C200C30AD8294008003A20000319472ABD
:10048000013A0319712A033A0319D12A632B230075
:10049000C4014408073C031C682A60304407F80084
:1004A0002030FA000318FA0A7808C9007A08CA004E
:1004B00044083E07840000303F3D85000008CB0023
:1004C0004A088500490884004B088000C40A492A6C
:1004D000603044078400203085000318850A8001BD
:1004E000692B2300C50145083E07840000303F3DCD
:1004F000850080080319C62A410845020318992A75
:1005000060304507F8002030FA000318FA0A78082E
:10051000C9007A08CA0045083E07840000303F3D04
:1005200085000008CB004A088500490884004B0874
:10053000800041084502031DA52A6030450784005C
:10054000203085000318850A800145084102031800
:10055000C42A0130410745026E3EF8002030FA00FF
:100560000318FA0A7808C9007A08CA0045083E0745
:10057000840000303F3D85000008CB004A0885001C
:10058000490884004B088000C50A732A01304107DE
:1005900045026E3E8400203085000318850A8001E4
:1005A000692B2300C60146083E07840000303F3D0A
:1005B000850080080319572B410846020318F92AC1
:1005C00060304607F8002030FA000318FA0A78086D
:1005D000C9007A08CA0046083E07840000303F3D43
:1005E00085000008CB004A088500490884004B08B4
:1005F000800041084602031D052B60304607840039
:10060000203085000318850A80014608410203183E
:10061000282B420846020318282B013041074602C6
:10062000683EF8002030FA000318FA0A7808C9007A
:100630007A08CA0046083E07840000303F3D850026
:100640000008CB004A088500490884004B08800058
:1006500042084602031D362B013041074602683E20
:100660008400203085000318850A80014608420274
:100670000318552B0130420746026E3EF800203029
:10068000FA000318FA0A7808C9007A08CA0046086E
:100690003E07840000303F3D85000008CB004A083B
:1006A0008500490884004B088000C60AD32A01301F
:1006B000420746026E3E8400203085000318850AFA
:1006C0008001692B20000230D7000030F8006C2B2D
:1006D00023000130F80020009031A32B23004D08A7
:1006E000FA004C0884007A0885000008D0004F0802
:1006F000FA004E0884007A08850000085002031DA5
:10070000972B4D08FA004C0884007A088500800871
:10071000031D8D2B0030F800AD2B4D08FA004C085E
:10072000CC0A0319CD0ACE0A0319CF0A6F2B4D0844
:10073000FA004C0884004D0885000008D0004F08DE
:10074000FA004E0884004F08850000085002031884
:10075000AB2BFF30AC2B0130F80020000800230049
:100760005208D4005108D3005408FA0053088400FA
:100770007A08850080080319C12BD30A0319D40A0B
:10078000B42B51085302F7005208543BFA00770883
:10079000F800200008002300CE01CF01D00150084E
:1007A0004C07840000304D3D850080080319762CED
:1007B000D008031D022C4C0884004D088500003130
:1007C0000008D10051082F3C0318EA2B5108393C8E
:1007D0000318F32B4C0884004D08850000310008F5
:1007E0002D3C031DFE2B4C0884004D088500003174
:1007F00000082D3C0319CF0A742C012C0030F8009E
:10080000782C742C50084C07840000304D3D850036
:100810000008D10051082F3C0318122C5108393C14
:100820000318142C0030152C0130013C03192C2C1A
:1008300050084C07840000304D3D850000082E3CD8
:1008400003192C2C50084C07840000304D3D8500C6
:1008500000082D3C031D712C50084C07840000300B
:100860004D3D850000082E3C031D3E2CCE0A4E084F
:10087000013C03183E2C0030F800782C50084C073F
:10088000840000304D3D850000082D3C031D4B2C9D
:100890000030F800782C4D08D2004C08D100200020
:1008A000AF230130780223004C07840000304D3D17
:1008B000850000082E3C031D602C0030F800782CC9
:1008C00050084C07840000304D3D85000008D100E1
:1008D00051082F3C0318702C5108393C0318742C14
:1008E000742C0030F800782CD00ACF2B0130F8009F
:1008F000883120005D29230068080319102D240089
:10090000A00023006C080319102D2400A007031871
:10091000942C7F30A00203188F2C2300102D031D70
:10092000932C2300102D9A2C8130A007031C9A2CA5
:100930002300102D2008F700F801F901FA01230027
:1009400069082400A400A41723006A082400A30057
:1009500023006B082400A2001830A000A101221C73
:10096000D42C23006F08FA07031CBF2CF90A031DBF
:10097000BF2CF80A031DBF2C2400A11723006E080A
:10098000F907031CC92CF80A031DC92C2400A11760
:1009900023006D08EA00EA176A08F807031CD32C45
:1009A0002400A11723002400A10DF80CF90CFA0C67
:1009B000A40CA30CA20C0310A00BAE2C0130F70763
:1009C000031CE42C2300102DF81BEE2CA40DFA0DB3
:1009D000F90DF80DF70BEE2C2300102DA41F012D9F
:1009E000FA0A031D012DF90A031D012DF80A031D42
:1009F000012DF80CF90CFA0CF70A031D012D230048
:100A0000102D230069082400A10023006D08240094
:100A1000A106A11F0D2DF817152DF813152D230074
:100A2000F701F801F901FA012400200008008E30D6
:100A3000F70023006108F8006008F900FA01F808DF
:100A4000031D2C2D7908F800F9010830F702F80889
:100A5000031D2C2DF701342D0310F81B332DF90D38
:100A6000F80DF7032C2DF813200008002300600870
:100A70000319FC2DEE0064080319FC2DEE02031C83
:100A8000462D7F30EE070318FC2D4C2D8130EE02F1
:100A9000031CFC2D0319FC2D6E08F700F801F90169
:100AA000FA01ED016108EC00EC176208EB00630845
:100AB000EA001930EE006708EA0203186F2D0130D2
:100AC000EB0203186F2DEC0203186F2DED020318D3
:100AD0006F2DED0AEC0AEB0A6708EA07A12D6608FC
:100AE000EB0203188A2D0130EC0203188A2DED0267
:100AF00003188A2DED0AEC0A6608EB076708EA0777
:100B0000031CA12DEB0A031DA12DEC0A031DA12D31
:100B1000ED0AA12D65088038EC020318A02D0130E4
:100B2000ED020318A02DED0A65088038EC07660871
:100B3000EB07031C7E2DEC0A031D7E2DED0A7E2D96
:100B40007A14EE0BA42DAF2D0310EA0DEB0DEC0D76
:100B5000ED0D0310FA0DF90DF80DEF0D5B2D6F1C67
:100B6000B72D0310F80CF90CFA0CEF0CBA2DF703A3
:100B70000319FC2DEF1BE32D0310EA0DEB0DEC0D1B
:100B8000ED0D6708EA020318CF2D0130EB020318C0
:100B9000CF2DEC020318CF2DED02031CF22D6608B9
:100BA000EB020318DA2D0130EC020318DA2DED0206
:100BB000031CF22D65088038EC020318E32D013088
:100BC000ED02031CF22DFA0A031DF22DF90A031D92
:100BD000F22DF80A031DF22DF70A0319FC2DF80C6B
:100BE000F90CFA0C6108EE006508EE06EE1FFA2D0E
:100BF000F817002EF813002EF701F801F901FA0199
:100C0000200008008030831C082E2300E506200009
:100C10002300EA01EB016108E9006508E9066008C4
:100C20000319F92EE800F70064080319022FE802FF
:100C300003199D2E031C5A2E6508EE00EE17660858
:100C4000ED006708EC00EB010310EE0CED0CEC0C72
:100C5000EB0CE80B232EE91F302E6A14162F6A10B6
:100C600068106A1621308500333084002B2F6A12F9
:100C7000E91B442E681C4F2EEE0CED0CEC0CEB0C1B
:100C8000F70A0319112F4F2EEE1B522E0310EB0DF6
:100C9000EC0DED0DEE0DF7030319112F442E6A171D
:100CA000BE2E6A136108E900E91F582EEE170A2FBD
:100CB000EE130A2F6408E800F7006008E8026108F4
:100CC000EE00EE176208ED006308EC00EB01031084
:100CD000EE0CED0CEC0CEB0CE80B662EE91F732E02
:100CE000EA14162FEA106810EA1621308500373012
:100CF00084002B2FEA12E91B872E681C922EEE0C23
:100D0000ED0CEC0CEB0CF70A0319112F922EEE1BD5
:100D1000952E0310EB0DEC0DED0DEE0DF703031901
:100D2000112F872EEA17BE2EEA136508E900E91F86
:100D30009B2EEE170A2FEE130A2F6508EE00EE1712
:100D40006608ED006708EC00E91FAA2EEE136A158D
:100D5000162F6A11EB0168102130850033308400B2
:100D60002B2FE91BD42E6108E900681CBE2EEE0C67
:100D7000ED0CEC0CEB0CF70A0319112FEB1FCF2E27
:100D8000EC0A031DCF2EED0A031DCF2EEE0A031D24
:100D9000CF2EEE0CED0CEC0CF70A0319112F6A1B89
:100DA000512EEA1B942EF32E8030EE06EE1FDC2E21
:100DB000162F6508E900E92E6108E900EE08031D19
:100DC000E92EED08031DE92EEC08031DE92EF701BD
:100DD0000A2FEE1BF32E0310EB0DEC0DED0DEE0DB7
:100DE000F70BE92E112FE91FF72EEE170A2FEE133E
:100DF0000A2F6408F7006508EE006608ED00670832
:100E0000EC000A2F6008F7006108EE006208ED00B0
:100E10006308EC006E08F8006D08F9006C08FA0031
:100E2000472FF701F801F901FA01472FEB01EC090F
:100E3000ED09EE09EB09EB0A031D242FEC0A031D53
:100E4000242FED0A0319EE0A6A182F2EEA18722EC3
:100E50006A19A92ED92E0008EC07031C352FED0ABC
:100E6000031D352FEE0A031968141100ED07031C4A
:100E70003C2FEE0A031968141100801F803AEE0718
:100E8000031868146A1A372EEA1A7A2EB12E200037
:100E9000080024001D139E159E194C2F77189E12D2
:100EA000771C9E161E161E1A532F1908F8002000D4
:100EB000080080302300E90024001E141E185E2F55
:100EC00003102300640DD0380138EA00EB00200045
:100ED000EC200130F700492778082300E7000130B3
:100EE000F7002000492778082300E6000130F700CA
:100EF0002000492778082300E5000130F700200092
:100F0000492778082300E900E91FB92F0130F700CD
:100F10002000492778082300E900E91B862FF70104
:100F20002000492778082300E90024001E151E1917
:100F3000972F1E141E189A2F03102300640DD0380B
:100F40000138EA00EB002000EC200130F7004927CF
:100F500078082300E7000130F700200049277808CF
:100F60002300E6000130F70020004927780823001D
:100F7000E500F7012000492778082300E900240054
:100F80001E151E19C12F2300E71CC92FFF30E800D2
:100F9000CA2FE8016508F7006608F8006708F9003D
:100FA0006808FA00883120000628230038088500E8
:100FB0003708840058081A008001B70A0319B80AD4
:100FC0002000080023005508F80154020318EB2FF5
:100FD0005408F700F72FF7010830D600D40DF70DAD
:100FE000550877020318F700F80DD60BEE2F2000F6
:020FF0000800F7
:1010000023005808E40080312000592F88317A08E5
:101010002300DC007908DB007808DA007708D900C3
:101020005C08E7005B08E6005A08E5005908E400A0
:10103000B630F700FA01F901F8016810E71F2E2811
:101040006814E409E509E609E709E40A031D2E2806
:10105000E50A031D2E28E60A0319E70A6408650459
:1010600066046704031D3628F70145280310F81BA2
:101070004228E40DE50DE60DE70DFA0DF90DF80D2A
:10108000F70B3628F8136818F8177A08E70079087C
:10109000E6007808E5007708E4006708EB006608DA
:1010A000EA006508E9006408E8006F30EF001230DC
:1010B000EE000330ED006F30EC00803120007B2427
:1010C00088317A082300E0007908DF007808DE0024
:1010D0007708DD005D08F7005E08F8005F08F9009A
:1010E0006008FA00200008000B088B13310015136C
:1010F000151400000000891B8B170318A92813087A
:101100007F392300CF00310011082300D0003100C7
:1011100012082300D1004F08D80080312000D527C5
:10112000883123005008310091002300510831001C
:1011300092000B088B131513151400000000891B77
:101140008B172300CC0BA528A7283100A928CE286F
:101150003100130D140D7F392300CF003100110829
:101160002300D000310012082300D1004F08D8001E
:1011700080312000D52788312300500831009100AC
:101180002300510831009200910A0319920A0310BA
:101190002300CC0BCC28CE28200074282000080087
:1011A000203023004D1E3030D0004C08F700CC1FFB
:1011B000E128F709F70A7708CC002D30D000CD17C9
:1011C0004D144C08D4006430D50080312000E22753
:1011D000883177082300CC0030307807D1004C08E4
:1011E000D4000A30D50080312000E2278831303029
:1011F00077072300D30030307807D2005008F7007B
:101200003030510203190829CD14CD1B4D151C296E
:101210005008D1002030D000303052020319142978
:101220004D14CD1BCD141C29031D4D14031D1C2969
:101230005108D2002030D1004D192329CD182A2978
:101240004D18312938295008D80080312000D52781
:10125000883123005108D80080312000D5278831FB
:1012600023005208D80080312000D5278831230080
:101270005308D80080312000D5278831080043303A
:101280002300BF004C30C0004530C1004130C200D7
:101290005230C300C4013F30C500C6012100B80868
:1012A000031D602CBE080319602C20302300CD00E4
:1012B0006E30CC0080312000CB2B8831F808031928
:1012C000A22B20302300CD006E30CC00CF01CE0108
:1012D000D301D201D1017F30D000D701D601D50191
:1012E000D4015814D8105811DA014C084D04031DCC
:1012F0007E29F701F801F901FA01A32A5A08DA0A4E
:101300004C07840000304D3D85000008D900D90805
:101310000319632A581C9E295908203C03199E2949
:10132000581059082B3C031D9829D810592A9E297A
:1013300059082D3C031D9E29D814592A5818A8294C
:1013400059082E3C031DA8295819A8295815592AAF
:101350005818572A59082F3C0318572A5908393C5E
:10136000031C572A3030D902581D152A5308EB00A8
:101370005208EA005108E9005008E800EF01EE01C8
:101380002030ED008230EC00803120007B24883159
:101390007A082300D3007908D2007808D1007708B2
:1013A000D000E1015908E000803120001725883184
:1013B0007A082300DF007908DE007808DD0077086E
:1013C000DC005F08E3005E08E2005D08E1005C0805
:1013D000E0005308E7005208E6005108E500500815
:1013E000E40080312000362588318310230057081F
:1013F000E3005608E2005508E1005408E0007A08CE
:10140000E7007908E6007808E5007708E400803115
:101410002000022688317A082300D7007908D600F8
:101420007808D5007708D400562AEB01EA0120306D
:10143000E9008230E8005708EF005608EE00550832
:10144000ED005408EC00803120007B2488317A08BC
:101450002300DF007908DE007808DD007708DC0073
:10146000E1015908E0008031200017258831831000
:1014700023005F08E3005E08E2005D08E1005C080D
:10148000E0007A08E7007908E6007808E5007708C8
:10149000E40080312000022688317A082300D7003A
:1014A0007908D6007808D5007708D400592A581C46
:1014B000632A5A08DA0A4C07840000304D3D850043
:1014C0000008D9008729D81C802AEB01EA01803066
:1014D000E9007F30E8005708EF005608EE00550895
:1014E000ED005408EC00803120007B2488317A081C
:1014F0002300D7007908D6007808D5007708D400F3
:101500004E084F0403199B2ADA080319932ADA03B9
:101510004E0884004F0885005A084C0780000030B0
:101520004D3D813F9B2A4E0884004F0885004C08A2
:1015300080004D08813F5408F7005508F800560810
:10154000F9005708FA007A08CF007908CE00780829
:10155000CD007708CC00D801200000207A082300B5
:10156000DB007908DA007808D9007708D8005B0832
:10157000EB005A08EA005908E9005808E800EF01B2
:10158000EE017A30ED008830EC00803120007B24C1
:1015900088317A082300DB007908DA007808D9005E
:1015A0007708D8000508DD000408DC0083145B0818
:1015B000E3005A08E2005908E1005808E0000A3048
:1015C000E700D730E6008330E5007F30E40080316B
:1015D00020000226883123005D0885005C08840015
:1015E0007A08D3007908D2007808D1007708D000B3
:1015F0005008F7005108F8005208F9005308FA00A3
:101600000508D1000408D00083144F08E3004E08F9
:10161000E2004D08E1004C08E0007A08E700790894
:10162000E6007808E5007708E40080312000022613
:101630008831230051088500500884007A08B600DC
:101640007908B5007808B4007708B3000B08F700F4
:101650008B130A3031009100703092002300330860
:10166000310093001517151555309600AA309600D5
:1016700095149518392B1511151377088B040B0841
:10168000F7008B130B309100703092002300340868
:10169000310093001517151555309600AA309600A5
:1016A00095149518512B1511151377088B040B08F9
:1016B000F7008B130C309100703092002300350836
:1016C000310093001517151555309600AA30960075
:1016D00095149518692B1511151377088B040B08B1
:1016E000F7008B130D309100703092002300360804
:1016F000310093001517151555309600AA30960045
:1017000095149518812B1511151377088B0401304A
:10171000F3000B08F7008B139101703092007308EF
:1017200093001517151555309600AA30960095149C
:101730009518982B1511151377088B04013020008C
:10174000D7005E2C20302300CD006E30CC0021303D
:10175000CF000F30CE00803120006E238831F80892
:10176000031D322C2300B601B501B401B3010B08EF
:10177000F7008B130A303100910070309200230083
:101780003308310093001517151555309600AA300F
:10179000960095149518CA2B1511151377088B040C
:1017A0000B08F7008B130B30910070309200230070
:1017B0003408310093001517151555309600AA30DE
:1017C000960095149518E22B1511151377088B04C4
:1017D0000B08F7008B130C3091007030920023003F
:1017E0003508310093001517151555309600AA30AD
:1017F000960095149518FA2B1511151377088B047C
:101800000B08F7008B130D3091007030920023000D
:101810003608310093001517151555309600AA307B
:10182000960095149518122C1511151377088B0432
:10183000F3010B08F7008B139101703092007308CD
:1018400093001517151555309600AA30960095147B
:101850009518282C1511151377088B0401302000DA
:10186000D7005E2C20302300CD006E30CC0021301C
:10187000CF001530CE00803120006E238831F8086B
:10188000031D5C2C0130D70020302300B800383015
:10189000B700D130310091000030920003100530C4
:1018A0002300CC002000742073082300CC001830E3
:1018B000CD002000D0205E2C0230D700632C210008
:1018C00002302000D70090315D2D20302300CD0064
:1018D0006030CC002030CF000E30CE0080312000B0
:1018E0006E238831F808031D1A2D2100B80803194A
:1018F0007B2C20001A2DBE080319802C20001A2DE5
:101900002300B601B501B401B3010B08F7008B1336
:101910000A3031009100703092002300330831000A
:1019200093001517151555309600AA30960095149A
:101930009518982C1511151377088B040B08F700D0
:101940008B130B309100703092002300340831006B
:1019500093001517151555309600AA30960095146A
:101960009518B02C1511151377088B040B08F70088
:101970008B130C3091007030920023003508310039
:1019800093001517151555309600AA30960095143A
:101990009518C82C1511151377088B040B08F70040
:1019A0008B130D3091007030920023003608310007
:1019B00093001517151555309600AA30960095140A
:1019C0009518E02C1511151377088B04F3010B08FB
:1019D000F7008B1391017030920073089300151774
:1019E000151555309600AA30960095149518F62CCA
:1019F0001511151377088B0422008C140130F400A4
:101A00000B08F7008B130130310091007030920009
:101A1000740893001517151555309600AA309600D6
:101A200095149518112D1511151377088B040100C5
:101A30001D2D20000230D7003100903120005D2D97
:101A40008318262D2130850031308400F701F801FC
:101A5000F901FA012300E101E201E301E4015F0879
:101A60005E045D045C040319652D2030E50003105D
:101A7000D80DD90DDA0DDB0DE10DE20DE30DE40D0E
:101A80005F086402031D4E2D5E086302031D4E2D88
:101A90005D086202031D4E2D5C086102031C5F2D70
:101AA0005C08E1025D08031C5D0FE2025E08031C96
:101AB0005E0FE3025F08031C5F0FE4020314F70DDF
:101AC000F80DF90DFA0DE50B372D6108800062085D
:101AD000813F6308823F6408833F200008000408B8
:101AE0002300D0004A08D2000319932D4908EB00C7
:101AF0004808EA004708E9004608E800EF01EE015F
:101B00002030ED008230EC00803120007B248831D1
:101B10007A082300C9007908C8007808C700770848
:101B2000C600D20B762D4908DB004808DA004708CA
:101B3000D9004608D8005808B63CD800FA01590820
:101B4000DC00D9170310D90CDA0CDB0CFA0CF90CF9
:101B5000F80CF70CD80BA22DDC1FB92DF709F809EA
:101B6000F909FA09F70A0319F80A0319F90A031916
:101B7000FA0A7A08C9007908C8007808C700770807
:101B8000C600C91FD02DD003D016C609C709C80981
:101B9000C909C60A0319C70A0319C80A0319C90AD9
:101BA0003B30D7009A30D600CA30D500D4010A3075
:101BB000D2004A080319D00A831421308500163058
:101BC00084004908DB004808DA004708D9004608C5
:101BD000D8005708DF005608DE005508DD0054081D
:101BE000DC00200020257808F708031D0E2E2300B6
:101BF0004A0A5202031DFE2D20000E2E5008031922
:101C0000112E0F3952020319072E0318512ED01B23
:101C1000512E501B112E2030492E20002030230041
:101C2000D005D01E232ED0124A08031DD0037708FA
:101C3000D0002D30D80080312000D52788312300F6
:101C40005008F700D0014A085202031D352E7708CC
:101C5000D0002E30D80080312000D52788312300D5
:101C60005008F7002030D00500303030D01E492E0B
:101C7000D0124A08031DD0037708D0002D30D800B9
:101C800080312000D527883123005008F700D0018B
:101C90003030F7077708D80080312000D527883109
:101CA000230083105708DB005608DA005508D900D6
:101CB0005408D800DF01DE01DD010A30DC0020001D
:101CC00020257A082300D7007908D6007808D500A7
:101CD0007708D400D20BDC2D200008002100B808C2
:101CE000031DD12FBE080319D12F2300BF016E3071
:101CF0003F078400203085000318850A80080319F7
:101D00009F2E6E303F078400203085000318850A1F
:101D10000008C00040082F3C0318922E4008393CB0
:101D20000318942E0030952E0130003A031D9D2E8D
:101D300002302000D700D42F2300BF0A772E203096
:101D4000C1006E30C000C501C3010A30C400C20129
:101D500040084104031DAF2E0030F800A22F4508B3
:101D6000C50A400784000030413D85000008C600D8
:101D700046082D3C031DC82E0130C3004508C50A86
:101D8000400784000030413D85000008C600D52E84
:101D900046082B3C031DD52E4508C50A4007840084
:101DA0000030413D85000008C60046082F3C03185E
:101DB000982F4608393C031C982F4608303C031DD9
:101DC000012F4508400784000030413D8500000890
:101DD000783C0319F52E4508400784000030413D4A
:101DE00085000008583C031D012F1030C400C50AAF
:101DF0004508C50A400784000030413D85000008C1
:101E0000C60044080A3C031D462F46082F3C031811
:101E1000452F4608393C031C452F0A30C8004208AC
:101E2000C900F701F801480803104918F707F70C33
:101E3000F80CC918F707F70CF80C4919F707F70C55
:101E4000F80CC919F707F70CF80C491AF707F70C43
:101E5000F80CC91AF707F70CF80C491BF707F70C31
:101E6000F80CC91BF707F70CF80C7808C8003030DD
:101E700046024807C2004508C50A400784000030F2
:101E8000413D85000008C600052F982F4408103CEE
:101E9000031D982F4608603C0318552F46087A3CCE
:101EA000031C552F4608DF39562F4608C600460842
:101EB0002F3C03185F2F4608393C0318672F46084C
:101EC000403C0318982F4608463C031C982F4608B0
:101ED0002F3C0318782F4608393C031C782F420EFC
:101EE000C800F030C805303046024807C200812FD4
:101EF000420EC800F030C805413046020A3E48078D
:101F0000C2004508C50A400784000030413D8500F5
:101F10000008C6004608603C0318952F46087A3C26
:101F2000031C952F4608DF39962F4608C600572F09
:101F3000430BA02F44080A3C031DA02FC209C20A6C
:101F40004208F8007808F5007508003C0318CB2F0C
:101F500075087F3C031CCB2F0310750DC0002400B7
:101F600092000B08F7008B130330310091007030A2
:101F70009200750893001517151555309600AA3074
:101F8000960095149518C22F1511151377088B0418
:101F90000100CF2F230002302000D7003100D52FC1
:101FA000210002302000D7003100903120005D2D4B
:101FB000213085000F30840000080319ED2F053013
:101FC000F800F701F70BE22FF80BE12F2E30F700A6
:0C1FD000F70BE82FEB2F800BDF2F080031
:102000002100B808031D9128BE080319912820302B
:102010002300D2006E30D10080312000AF239031F8
:10202000780B8C2821003E08313A200003191F2824
:10203000013A03193D280F3A03195B28862822002C
:102040008C1401302000D700F4000B08F7008B132C
:102050000130310091007030920074089300151720
:10206000151555309600AA30960095149518362807
:102070001511151377088B048A2822008C10013063
:102080002000D700F4010B08F7008B13013031005A
:102090009100703092007408930015171515553093
:1020A0009600AA309600951495185428151115130A
:1020B00077088B048A280130D70000308C18013053
:1020C0002300BF002030B8003830B7004C30D800B3
:1020D00080312000D52790312C302300D80080316A
:1020E0002000D52790313F302300D80080312000D8
:1020F000D527903123003F08CC001830CD0088311F
:102100002000D020903131008A2820000230D700F2
:1021100031008A288F2820000230D700310095280E
:10212000210002302000D7003100903120005D2DC9
:1021300020302300CD006030CC002030CF000E30A6
:10214000CE00803120006E239031F808031D4A2A0A
:102150002100B8080319AE2820004A2ABE08031936
:10216000B32820004A2A9D149D18B4281C08FA00A0
:102170001B082300C4007A08C500E1004408E00001
:1021800080312000172590317A082300E300790878
:10219000E2007808E1007708E000E701C030E600DF
:1021A0007F30E5008830E400803120003625903112
:1021B0006F302300EB001230EA000330E90080307A
:1021C000E8007A08EF007908EE007808ED0077085B
:1021D000EC00803120007B24903193302300EB0011
:1021E0002B30EA004830E9008030E8007A08EF0040
:1021F0007908EE007808ED007708EC0080312000C7
:102200007B2490317A082300C2007908C100780845
:10221000C0007708BF0001302000D70076083C3AA4
:1022200003191F29023A03195129213A0319832955
:10223000103A0319B429343A0319E629182A203030
:102240002300B8003830B700A130310091000030D1
:102250009200031008302300CC0088312000742045
:10226000903150302300D80080312000D5279031A4
:102270002C302300D80080312000D52790318930C0
:10228000840023004208C9004108C8004008C70074
:102290003F08C6000230CA00883120006F25903107
:1022A000492A20302300B8003830B700A930310067
:1022B000910000309200031008302300CC008831D8
:1022C00020007420903142302300D800803120005B
:1022D000D52790312C302300D80080312000D5271D
:1022E00090318930840023004208C9004108C800A9
:1022F0004008C7003F08C6000230CA0088312000ED
:102300006F259031492A20302300B8003830B700BB
:10231000B1303100910000309200031008302300EA
:10232000CC00883120007420903157302300D80031
:1023300080312000D52790312C302300D800803107
:102340002000D52790318930840023004208C9003D
:102350004108C8004008C7003F08C6000230CA0054
:10236000883120006F25903120302300B8003830AC
:10237000B700B930310091000030920003100830EE
:102380002300CC0088312000742090315730230086
:10239000D80080312000D52790312C302300D80080
:1023A00080312000D52790318930840023004208F5
:1023B000C9004108C8004008C7003F08C6000230F5
:1023C000CA00883120006F259031492A203023002F
:1023D000B8003830B700C1303100910000309200B1
:1023E000031008302300CC00883120007420903185
:1023F00053302300D80080312000D52790312C3075
:102400002300D80080312000D52790318930840006
:1024100023004208C9004108C8004008C7003F081F
:10242000C6000230CA00883120006F259031492A49
:1024300020302300B8003830B700C9303100910097
:1024400000309200031008302300CC0088312000B7
:102450007420903155302300D80080312000D527DA
:1024600090312C302300D80080312000D5279031C6
:102470008930840023004208C9004108C800400890
:10248000C7003F08C6000230CA00883120006F250F
:1024900090314C2A0230D70090315D2D55303C00F0
:1024A0008F00AA308F000F1014309D0015309E0051
:1024B0001030A0001130A10018303D00A0001930EC
:1024C000A1001A30A4001B30A50055303C008F003D
:1024D000AA308F000F1432009E019B019D0106302F
:1024E0009F00603099007010F01070110330FB00F5
:1024F0002300B801B7018C018E01220092019101E5
:1025000094019301082B0234003428340034003441
:102510002B344034B03400340334803445345234E6
:1025200052340534C03400340434803442344134ED
:10253000553444340434C0340034053480344334D6
:1025400041344C3400340034173401342034003426
:10255000003400344534583450344F3452345434F9
:102560000034003446344134433454344F3452340C
:1025700059340034463449344E3444340434C0347D
:1025800000340134803449340734C0340034033417
:1025900080344934323443340534C034003409348F
:1025A000803449344D3450344F3452345434003430
:1025B00000344C340734C03400340934803450348F
:1025C0004C344F3443344B340034003400345234F0
:1025D0000734C03400340534803453344C3445342B
:1025E0004534503412340134A03400340034003403
:1025F00053344C344F3450344534003400340034B8
:102600005334543441345434553453340034003446
:10261000123085008330840085171200F700003ADD
:102620000319222B1200F800F81B1A2B0F39870010
:1026300012008600781B1200781F12001E00F70B94
:102640001C2B0D2B31001B08CF39F700030818395C
:102650000310890D7704891C0910091D8916891D2D
:102660008916091B8916891B8916F7001F309B00E4
:1026700077086400F60080312000D5209031803149
:10268000CC219031230039106400701C662B20008F
:10269000171A960195011508F700171A1608FA007F
:1026A000171EFA0177082300BE007A08BF00BF0892
:1026B000031D612B3E083B3C031C612B20004B2B70
:1026C000230039142000D60170102300391C6D2D11
:1026D0003910BA013A08283C031C9C2B37303A07C2
:1026E0008400203085000318850A80013A08073CE1
:1026F000031C822B60303A078400203085000318C9
:10270000850A80013A08053C031C8E2B68303A0785
:102710008400203085000318850A80013A081C3C9B
:10272000031C9A2B6E303A07840020308500031872
:10273000850A8001BA0A6A2B2030BF000E30BE0025
:1027400080312000D52990312300B9107818B914B0
:10275000B91C5E2D2030BF006030BE00C0014008B3
:102760000E3C031CDB2B400DF700F70DF70DF83086
:10277000F70577088B3EF8002030FA000318FA0AB4
:102780007808C2007A08C3003F08CD003E08CC009C
:102790004308CF004208CE00803120006E239031E4
:1027A000F808031DD82B23004008F800DD2B20007B
:1027B0002300C00AAF2B0030F8007808BB003B08AC
:1027C000BE003E08023A20000319022C063A031903
:1027D000062C023A03190A2C013A03192D2C0C3A43
:1027E0000319312C0E3A0319EE2C0C3A03192C2D37
:1027F000073A03192E2D023A0319302D0C3A03190A
:102800005B2D5D2D88313F2990315D2D8831652C00
:1028100090315D2D0130D70020302300B8003830D2
:10282000B7009B3031009100003092000310073058
:102830002300CC008831200074209031893084003E
:102840002300C901C801C7017F30C6000230CA0099
:10285000883120006F2590315D2D88316E2E9031AA
:102860005D2D20302300CD006030CC002030CF0023
:102870000E30CE00803120006E239031F808031D09
:10288000EB2C2100B8080319472C2000EB2CBE08C4
:1028900003194C2C2000EB2C2300D8018831200098
:1028A000002090317A082300DB007908DA007808EC
:1028B000D9007708D8005B08EB005A08EA005908ED
:1028C000E9005808E800EF01EE017A30ED008830A9
:1028D000EC00803120007B2490317A082300DB005B
:1028E0007908DA007808D9007708D8000508DD00F3
:1028F0000408DC0083145B08E3005A08E20059086E
:10290000E1005808E0000A30E700D730E6008330E5
:10291000E5007F30E4008031200002269031230062
:102920005D0885005C0884007A08D3007908D2002D
:102930007808D1007708D0005008F7005108F80057
:102940005208F9005308FA007A08C9007908C8004B
:102950007808C7007708C6000508CB000408CA003D
:1029600083104908E3004808E2004708E1004608F0
:10297000E0003608E7003508E6003408E5003308D3
:10298000E400803120000226903123004B088500AE
:102990004A0884007A08C2007908C1007808C0009B
:1029A0007708BF0001302000D70020302300B80096
:1029B0003830B700893084004208C9004108C80097
:1029C0004008C7003F08C6000230CA008831200016
:1029D0006F259031ED2C0230D7005D2D2030230083
:1029E000CD006030CC002030CF000E30CE008031E2
:1029F00020006E239031F808031D282D2100B8080F
:102A00000319042D2000282DBE080319092D2000CC
:102A1000282DF01401302000D700AE01AE08031DB0
:102A2000272D023022008C0664302300BF0088313D
:102A30002000D8279031023022008C066430230019
:102A4000BF0088312000D827903164000E2D2A2D38
:102A50000230D700F0105D2D00285D2D98285D2DE7
:102A600020302300CD006030CC002030CF000E306D
:102A7000CE00803120006E239031F808031D582DC0
:102A80002100B8080319462D2000582DBE0803194F
:102A90004B2D2000582D701522008C108031200005
:102AA000D5209031630070118031CC2190315A2DA6
:102AB0000230D7005D2D0230D7002300BC013C0856
:102AC000283C031C6D2D0E303C078400203085000F
:0E2AD0000318850A8001BC0A5F2D442B6300A9
:027FFE002C3421
:020000040001F9
:08000E00EC3FF83DFC1FFC3F34
:00000001FF
;PIC16F18326
;CRC=97CF  CREATED="22-jul-19 17:12"
