:0600000080319B2D000081
:0800080083018031200077081C
:10001000A0007808A1007908A2007A08A3003100A6
:1000200011082000A400310012082000A5003100B2
:1000300013082000A600310014082000A700850145
:1000400091308400801D262891193F282008F70050
:100050002108F8002208F9002308FA0024083100DA
:100060009100200025083100920020002608310070
:1000700093002000270831009400090020008031FF
:1000800041282400941A4728F3011419F317730820
:10009000F30A2300E700E708031D60282400151376
:1000A000141C502811081516F0185C287014FE3026
:1000B0002000D7005E2824002000D701F201230091
:1000C0006708803C0319F10167087F3C0318892801
:1000D0007108283C031C88283730710784002030C1
:1000E00085000318850A0008E8006808E900240074
:1000F00011082300690824009100151620009111B1
:10010000240014188128F801161FF80AF10A2300A8
:10011000A028E7080319A0287208283C031CA0287F
:100120000E3072078400203085000318850A2400F1
:100130001513141C9928110815168000F20A2300C3
:100140002000911180312628BF34AC275228AC12F0
:100150002E196600BF29F430F43A7316A531AC129B
:100160002E19660024009D132000921123005308CD
:100170002400990002309D1BC4282000921DBE2837
:10018000003024001E1B0130F80020000800210070
:100190009115C0308B040E148E1424001710971084
:1001A0009711C4309200363095001614961721002E
:1001B0000E168E1624001F109F109F1109309A00F2
:1001C00028309D009C131C132300BC0124001E1426
:1001D0001E18E828031023003C0DD038BD00D300C2
:1001E0002000B2201C302300D3002000B2202400C5
:1001F0001E151E19F92822009717971417102100B1
:100200001E169E161E139E171D141E109E101E11E4
:10021000043023008C0000308E000830F8002100EC
:100220001D08033978049D001E149E141E11903081
:10023000200097004B30980021008C1022008C1079
:100240002300BA013A08283C031C30290E303A0733
:100250008400203085000318850A8001BA0A22290B
:1002600080312000702E2300BC01BF013F083A07F7
:10027000840000303B3D85008008031999293F0820
:100280003A07F80000303B3DFA007808C3007A08CE
:10029000C4003F083A07840000303B3D8500000859
:1002A000C500603C03185B2945087A3C031C5B29A8
:1002B0004508DF395C294508C50044088500430826
:1002C0008400450880003F083A07840000303B3D29
:1002D00085000008C3003F30310092008F3091004C
:1002E000213085001430840001302300C600460808
:1002F000F700031031001513151400000000130857
:1003000080000131910A0319920AF70B7C2923001E
:1003100044084302031D9729BC0A3C0B91293F085E
:10032000BD003C08023C031D97293F08BE00BF0AE0
:1003300036293C08003A20000319A529013A03197F
:10034000CF29033A03192F2AC12A2300C0014008EC
:10035000073C031CC62960304007F8002030FA0033
:100360000318FA0A7808C3007A08C40040083A075C
:10037000840000303B3D85000008C500440885002E
:100380004308840045088000C00AA7296030400760
:100390008400203085000318850A8001C72A2300C5
:1003A000C10141083A07840000303B3D85008008C8
:1003B0000319242A3D0841020318F7296030410738
:1003C000F8002030FA000318FA0A7808C3007A0807
:1003D000C40041083A07840000303B3D8500000816
:1003E000C5004408850043088400450880003D0896
:1003F0004102031D032A603041078400203085003C
:100400000318850A800141083D020318222A0130A1
:100410003D0741026E3EF8002030FA000318FA0A48
:100420007808C3007A08C40041083A078400003005
:100430003B3D85000008C500440885004308840052
:1004400045088000C10AD12901303D0741026E3EB6
:100450008400203085000318850A8001C72A230004
:10046000C20142083A07840000303B3D8500800805
:100470000319B52A3D0842020318572A6030420783
:10048000F8002030FA000318FA0A7808C3007A0846
:10049000C40042083A07840000303B3D8500000854
:1004A000C5004408850043088400450880003D08D5
:1004B0004202031D632A6030420784002030850019
:1004C0000318850A800142083D020318862A3E0867
:1004D00042020318862A01303D074202683EF800B6
:1004E0002030FA000318FA0A7808C3007A08C4001A
:1004F00042083A07840000303B3D85000008C500F3
:100500004408850043088400450880003E084202F4
:10051000031D942A01303D074202683E84002030CA
:1005200085000318850A800142083E020318B32A99
:1005300001303E0742026E3EF8002030FA000318F8
:10054000FA0A7808C3007A08C40042083A0784000F
:1005500000303B3D85000008C50044088500430885
:10056000840045088000C20A312A01303E07420259
:100570006E3E8400203085000318850A8001C72A5A
:1005800020000230D7000030F800CA2A23000130D2
:10059000F80020008031CF2E23004108FA004008E7
:1005A00084007A0885000008C4004308FA00420865
:1005B00084007A08850000084402031DF52A4108DA
:1005C000FA00400884007A0885008008031DEB2AA1
:1005D0000030F8000B2B4108FA004008C00A03194C
:1005E000C10AC20A0319C30ACD2A4108FA00400809
:1005F0008400410885000008C4004308FA0042084E
:10060000840043088500000844020318092BFF30CA
:100610000A2B0130F800200008002300BC013C0830
:100620000E3C031C392B3C0DF700F70DF70DF8308D
:10063000F70577088B3EF8002030FA000318FA0A15
:100640007808BE007A08BF003B08C1003A08C00025
:100650003F08C3003E08C2002000CC22F808031D5A
:10066000362B23003C08F8003B2B20002300BC0A5B
:100670000F2B0030F80080312000DB2E23003408DF
:1006800085003308840050081A008001B30A03195A
:10069000B40A200008000B088B1331001513151441
:1006A00000000000891B8B1703187E2B13087F396D
:1006B0002300C300310011082300C40031001208D8
:1006C0002300C5004308D00020003E232300440837
:1006D0003100910023004508310092000B088B1374
:1006E0001513151400000000891B8B172300C00B85
:1006F0007A2B7C2B31007E2BA12B3100130D140D96
:100700007F392300C300310011082300C4003100E9
:1007100012082300C5004308D00020003E23230018
:100720004408310091002300450831009200910AED
:100730000319920A03102300C00B9F2BA12B20004A
:100740004B2B20000800230050080319142CDC0058
:1007500054080319142CDC070318B52B7F30DC0276
:10076000031C142C0319142CB92B8130DC0703183B
:10077000142C5C08F700F801F901FA015108E000B7
:10078000E0175208DF005308DE001830DC00DD01FE
:100790005E1CE22B5708FA07031CD42BF90A031D31
:1007A000D42BF80A0319DD175608F907031CDB2BB5
:1007B000F80A0319DD175508D200D2175208F807B6
:1007C0000318DD17DD0DF80CF90CFA0CE00CDF0C4A
:1007D000DE0C0310DC0BC72B0130F7070318142CB9
:1007E000F81BF92BE00DFA0DF90DF80DF7030319BD
:1007F000142CE01F0A2CFA0A031D0A2CF90A031D07
:100800000A2CF80A031D0A2CF80CF90CFA0CF70A4A
:100810000319142C5108DD005508DD06DD1F122CCC
:10082000F817182CF813182CF701F801F901FA0140
:10083000200008008318202C213085002C308400F3
:10084000F701F801F901FA012300DC01DD01DE0105
:10085000DF01570856045504540403195F2C203057
:10086000E0000310D00DD10DD20DD30DDC0DDD0D48
:10087000DE0DDF0D57085F02031D482C56085E028F
:10088000031D482C55085D02031D482C54085C02CA
:10089000031C592C5408DC025508031C550FDD02BB
:1008A0005608031C560FDE025708031C570FDF02C1
:1008B0000314F70DF80DF90DFA0DE00B312C5C085F
:1008C00080005D08813F5E08823F5F08833F200013
:1008D000080004082300C8004408CA0003198B2C30
:1008E0004308D3004208D2004108D1004008D0009C
:1008F000D701D6012030D5008230D4002000A323B8
:100900007A082300C3007908C2007808C10077087C
:10091000C000CA0B702C4308D3004208D200410823
:10092000D1004008D0005008B63CD000FA01510870
:10093000D400D1170310D10CD20CD30CFA0CF90C43
:10094000F80CF70CD00B9A2CD41FB12CF709F8092E
:10095000F909FA09F70A0319F80A0319F90A031938
:10096000FA0A7A08C3007908C2007808C10077083B
:10097000C000C31FC82CC803C816C009C109C209DA
:10098000C309C00A0319C10A0319C20A0319C30A19
:100990003B30CF009A30CE00CA30CD00CC010A30B7
:1009A000CA0044080319C80A831421308500103096
:1009B00084004308D3004208D2004108D100400817
:1009C000D0004F08D7004E08D6004D08D5004C087F
:1009D000D40020001A247808F708031D062D2300F0
:1009E000440A4A02031DF62C2000062D480803196C
:1009F000092D0F394A020319FF2C0318412DC81B7A
:100A0000412D481B092D20303B2D20002030230094
:100A1000C805C81E192DC8124408031DC80377084D
:100A2000C8002D30D00020003E2323004808F700E6
:100A3000C80144084A02031D292D7708C8002E303A
:100A4000D00020003E2323004808F7002030C805CE
:100A500000303030C81E3B2DC8124408031DC803A7
:100A60007708C8002D30D00020003E23230048081E
:100A7000F700C8013030F7077708D00020003E2388
:100A8000230083104F08D3004E08D2004D08D10038
:100A90004C08D000D701D601D5010A30D40020007F
:100AA0001A247A082300CF007908CE007808CD00F8
:100AB0007708CC00CA0BD42C2000080024001D139A
:100AC0009E159E19612D77189E12771C9E161E1674
:100AD0001E1A682D1908F800200008002130850032
:100AE0000B30840000080319832D0530F800F7014E
:100AF000F70B782DF80B772D2E30F700F70B7E2DA6
:100B0000812D800B752D080023004508F801440253
:100B100003188D2D4408F700992DF7010830C60001
:100B2000C40DF70D450877020318F700F80DC60B42
:100B3000902D2000080055303C008F00AA308F0017
:100B40000F1014309D0015309E001030A0001130A1
:100B5000A10018303D00A0001930A1001A30A400F7
:100B60001B30A50055303C008F00AA308F000F14B9
:100B700032009E019B019D0106309F00603099006C
:100B80007010F0100330F3002300B401B3018C01A6
:100B90008E0122009201910194019301542E02349E
:100BA00000342834003400342B344034B034003462
:100BB000033480344534523452340534C034003464
:100BC0000434803442344134553444340434C03421
:100BD000003405348034433441344C340034003420
:100BE0001734013420340034003400344534583490
:100BF00050344F3452345434003400344634413489
:100C0000433454344F345234593400344634493424
:100C10004E3444340434C034003401348034493414
:100C20000734C0340034033480344934323443341C
:100C30000534C03400340934803449344D345034E0
:100C40004F3452345434003400344C340734C034FC
:100C500000340934803450344C344F3443344B34F2
:100C600000340034003452340734C03400340534C6
:100C7000803453344C3445344534503412340134C8
:100C8000A03400340034003453344C344F345034E6
:100C90004534003400340034533454344134543433
:100CA000553453340034003405308500CF3084008F
:100CB00085171200F700003A03196E2E1200F80093
:100CC000F81B662E0F39870012008600781B120071
:100CD000781F12001E00F70B682E592E2000C7281F
:100CE00023003510701C932E2000171A96019501D1
:100CF0001508F700171A1608FA00171EFA017708E8
:100D00002300BA007A08BB00BB08031D8E2E3A08E8
:100D10003B3C031C8E2E2000782E2300351420002F
:100D2000D60170102300351CF42E3510B60136089C
:100D3000283C031CC92E373036078400203085003C
:100D40000318850A80013608073C031CAF2E60306B
:100D500036078400203085000318850A8001360894
:100D6000053C031CBB2E683036078400203085000C
:100D70000318850A800136081C3C031CC72E6E3000
:100D800036078400203085000318850A8001B60AE2
:100D9000972E2030BB000E30BA00200033292300EC
:100DA000B5107818B514B51CE52E2030BB006030A6
:100DB000BA0020000D2B78082300B7003708BA00CE
:100DC00088312000002880312300B8013808283CF1
:100DD000031CF42E0E3038078400203085000318E1
:0C0DE000850A8001B80AE62E722E63001E
:1010000023003A08F13E0318682C0F3E20006B2C99
:101010002300682C2300682C0130D70020302300E7
:10102000B4003830B300A430310091000030920099
:10103000031007302300C000803120004B2388318B
:10104000893084002300C301C201C1017F30C00088
:101050000230C40080312000692488312300682CCC
:1010600020302300C1006030C0002030C3000E30AB
:10107000C20080312000CC228831F808031D942959
:101080002100B8080319462820009429BE08031936
:101090004B282000942901302000D7002300C101F3
:1010A0004108CC008030D10024001E141E185628A0
:1010B000031023004C0DD0380138D200D30080310A
:1010C0002000B22088310130F70080315E25883160
:1010D00078082300CF000130F700803120005E2522
:1010E000883178082300CE000130F70080312000DD
:1010F0005E25883178082300CD000130F70080316B
:1011000020005E25883178082300D100D11FC72830
:101110000130F700803120005E25883178082300F7
:10112000D100D11B8828F701803120005E2588314D
:1011300078082300D10024001E151E199D281E14B6
:101140001E18A028031023004C0DD0380138D200FF
:10115000D30080312000B22088310130F700803187
:101160005E25883178082300CF000130F7008031F8
:1011700020005E25883178082300CE000130F7007A
:10118000803120005E25883178082300CD00F701EA
:10119000803120005E25883178082300D1002400AA
:1011A0001E151E19D1282300CF1CD928FF30D000CE
:1011B000DA28D0014D08F7004E08F8004F08F90072
:1011C0005008FA007A08C5007908C4007808C300FE
:1011D0007708C2004508CF004408CE004308CD0080
:1011E0004208CC00B630F700FA01F901F8015010BE
:1011F000CF1F08295014CC09CD09CE09CF09CC0A3C
:10120000031D0829CD0A031D0829CE0A0319CF0A98
:101210004C084D044E044F04031D1029F7011F29EB
:101220000310F81B1C29CC0DCD0DCE0DCF0DFA0DE2
:10123000F90DF80DF70B1029F8135018F8177A0864
:10124000CF007908CE007808CD007708CC004F0891
:10125000D3004E08D2004D08D1004C08D0006F30AA
:10126000D7001230D6000330D5006F30D400803163
:101270002000A32388317A082300C9007908C80018
:101280007808C7007708C6004608F7004708F80046
:101290004808F9004908FA007A08C3007908C20032
:1012A0007808C1007708C0004308D3004208D20084
:1012B0004108D1004008D000D701D6017A30D500CE
:1012C0008830D40080312000A32388317A0823009D
:1012D000BE007908BD007808BC007708BB003B0859
:1012E000F7003C08F8003D08F9003E08FA007A08CB
:1012F000BF007908BE007808BD007708BC00203028
:10130000B4003830B300893084003F08C3003E0881
:10131000C2003D08C1003C08C0000230C40080315A
:1013200020006924883196290230D7002300682CD8
:1013300020302300C1006030C0002030C3000E30D8
:10134000C20080312000CC228831F808031DD12949
:101350002100B8080319AE292000D129BE080319BD
:10136000B3292000D129F01401302000D700AE01AC
:10137000AE08031DD029023022008C066430230001
:10138000BB00803120006E258831023022008C069F
:1013900064302300BB00803120006E258831B829DD
:1013A000D3290230D700F0102300682C2100B808A0
:1013B000031DB22ABE080319B22A20302300BC0044
:1013C0006E30BB003C08BE003B08BD003E08FA0082
:1013D0003D0884007A08850080080319F329BD0AB6
:1013E0000319BE0AE6293B083D02F7003C083E3BD4
:1013F000FA007708F800780BAD2A21003E08313A50
:10140000200003190A2A013A0319102A0F3A031976
:10141000162AA82A22008C1401302000D700AB2AFB
:1014200022008C1001302000D700AB2A0130D700F9
:1014300000308C1801302300BB002030B40038305D
:10144000B3004C30D000803120003E2388312C3056
:101450002300D000803120003E2388313F3023001C
:10146000D000803120003E23883123003B08BC009F
:101470001830BD0020303D1E3030C0003C08F70061
:10148000BC1F4A2AF709F70A7708BC002D30C000B4
:10149000BD173D143C08C4006430C50080312000F5
:1014A0008425883177082300BC0030307807C100DC
:1014B0003C08C4000A30C5008031200084258831F2
:1014C000303077072300C30030307807C20040086F
:1014D000F700303041020319712ABD14BD1B3D15C0
:1014E000852A4008C1002030C00030304202031974
:1014F0007D2A3D14BD1BBD14852A031D3D14031D0B
:10150000852A4108C2002030C1003D198C2ABD182F
:10151000932A3D189A2AA12A4008D0008031200041
:101520003E23883123004108D000803120003E2333
:10153000883123004208D000803120003E238831CA
:1015400023004308D000803120003E238831AB2A9D
:101550000230D700AB2AB02A230002302000D70087
:10156000B52A210002302000D7002300682C20304B
:101570002300C1006030C0002030C3000E30C20024
:1015800080312000CC228831F808031D3C2C21003A
:10159000B8080319CD2A20003C2CBE080319D22A12
:1015A00020003C2C9D149D18D32A1C08FA001B080F
:1015B0002300C0007A08C1004108C3004008C200EF
:1015C0008E30F7004308F8004208F900FA01F808E5
:1015D000031DF42A7908F800F9010830F702F80829
:1015E000031DF42AF701FC2A0310F81BFB2AF90D4E
:1015F000F80DF703F42AF8137A08C5007908C40037
:101600007808C3007708C200C901C030C8007F3025
:10161000C7008830C60042080319D12BD000460805
:101620000319D12BD0020318162B1B2B7F30D007A8
:101630000318D12B212B8130D002031CD12B03198D
:10164000D12B5008F700F801F901FA01CF01430846
:10165000CE00CE174408CD004508CC001930D0008C
:101660004908CC020318442B0130CD020318442B47
:10167000CE020318442BCF020318442BCF0ACE0A04
:10168000CD0A4908CC07762B4808CD0203185F2BFA
:101690000130CE0203185F2BCF0203185F2BCF0A55
:1016A000CE0A4808CD074908CC07031C762BCD0A83
:1016B000031D762BCE0A031D762BCF0A762B470807
:1016C0008038CE020318752B0130CF020318752B1A
:1016D000CF0A47088038CE074808CD07031C532B94
:1016E000CE0A031D532BCF0A532B7A14D00B792B20
:1016F000842B0310CC0DCD0DCE0DCF0D0310FA0DA4
:10170000F90DF80DD10D302B511C8C2B0310F80C5A
:10171000F90CFA0CD10C8F2BF7030319D12BD11B29
:10172000B82B0310CC0DCD0DCE0DCF0D4908CC023A
:101730000318A42B0130CD020318A42BCE020318EA
:10174000A42BCF02031CC72B4808CD020318AF2BD4
:101750000130CE020318AF2BCF02031CC72B470862
:101760008038CE020318B82B0130CF02031CC72BE0
:10177000FA0A031DC72BF90A031DC72BF80A031D1C
:10178000C72BF70A0319D12BF80CF90CFA0C4308F4
:10179000D0004708D006D01FCF2BF817D52BF81351
:1017A000D52BF701F801F901FA016F30D30012309F
:1017B000D2000330D1008030D0007A08D7007908F9
:1017C000D6007808D5007708D40080312000A32304
:1017D000883193302300D3002B30D2004830D10021
:1017E0008030D0007A08D7007908D6007808D50074
:1017F0007708D40080312000A32388317A082300A1
:10180000BE007908BD007808BC007708BB00013035
:101810002000D70020302300B4003830B300AA30B5
:101820003100910000309200031008302300C00006
:10183000803120004B23883155302300D000803187
:1018400020003E2388312C302300D000803120003E
:101850003E2388318930840023003E08C3003D08C0
:10186000C2003C08C1003B08C0000230C400803107
:101870002000692488313E2C0230D7002300682CD8
:1018800020302300C1006030C0002030C3000E3083
:10189000C20080312000CC228831F808031D5E2C64
:1018A0002100B8080319562C20005E2CBE0803192D
:1018B0005B2C20005E2C6300612C20000230D700DE
:1018C00021002300682C0230D7002300682C23005D
:1018D00080312000E32E0A108A100A158207632C3B
:1018E00008280A28672C672C98290C28672C672C55
:0C18F000D629672C3028402C672CB72A22
:027F1E002C3401
:107F20007F3400340034003482343534E4341B347C
:107F300083346734DB34A43483341E348C343334D8
:107F40007C34343489340A348134353479347C34A3
:107F50008334333402343F3483341E348C3433342A
:107F60007F340034003400348134B1348D340A3429
:107F7000813433345034EE347D347D34BF3437347F
:107F800081349334AA343D34813433345034EE3464
:107F90007B343A34F3344C347E34DF349D342B3428
:107FA0000034003400340034003400340034003431
:107FB0007F348A34473499348034003400340034B8
:107FC0000034003400340034003400340034003411
:107FD0007234593488347C34753426349734E03420
:107FE00078341E341D34C4347A34633450345E34EF
:107FF0007C347534FE341A347E343134723418349F
:020000040001F9
:08000E00EC3FF13FFC1FFC3F39
:00000001FF
;PIC16F18326
;CRC=5EB6  CREATED="28-jun-19 13:03"
