:0600000080317C2D0000A0
:0800080083018031200077081C
:10001000A0007808A1007908A2007A08A3003100A6
:1000200011082000A400310012082000A5003100B2
:1000300013082000A600310014082000A700850145
:1000400091308400801D262891193F282008F70050
:100050002108F8002208F9002308FA0024083100DA
:100060009100200025083100920020002608310070
:1000700093002000270831009400090020008031FF
:1000800041282400941A4728F3011419F317730820
:10009000F30A2300E700E708031D60282400151376
:1000A000141C502811081516F0185C287014FE3026
:1000B0002000D7005E2824002000D701F201230091
:1000C0006708803C0319F10167087F3C0318892801
:1000D0007108283C031C88283730710784002030C1
:1000E00085000318850A0008E8006808E900240074
:1000F00011082300690824009100151620009111B1
:10010000240014188128F801161FF80AF10A2300A8
:10011000A028E7080319A0287208283C031CA0287F
:100120000E3072078400203085000318850A2400F1
:100130001513141C9928110815168000F20A2300C3
:100140002000911180312628BF34AC275228AC12F0
:100150002E196600BF29F430F43A7316A531AC129B
:100160002E19660024009D132000921123005308CD
:100170002400990002309D1BC4282000921DBE2837
:10018000003024001E1B0130F80020000800210070
:100190009115C0308B040E148E1424001710971084
:1001A0009711C4309200363095001614961721002E
:1001B0000E168E1624001F109F109F1109309A00F2
:1001C00028309D009C131C132300BC0124001E1426
:1001D0001E18E828031023003C0DD038BD00D300C2
:1001E0002000B2201C302300D3002000B2202400C5
:1001F0001E151E19F92822009717971417102100B1
:100200001E169E161E139E171D141E109E101E11E4
:10021000043023008C0000308E000830F8002100EC
:100220001D08033978049D001E149E141E11903081
:10023000200097004B30980021008C1022008C1079
:100240002300BA013A08283C031C30290E303A0733
:100250008400203085000318850A8001BA0A22290B
:1002600080312000512E2300BC01BF013F083A0716
:10027000840000303B3D8500800803197A293F083F
:100280003A07F80000303B3DFA007808C3007A08CE
:10029000C4003F083A07840000303B3D8500000859
:1002A000C500603C03185B2945087A3C031C5B29A8
:1002B0004508DF395C294508C50044088500430826
:1002C0008400450880003F083A07840000303B3D29
:1002D000850000082C3C031D7829BC0A3C0B7229C0
:1002E0003F08BD003C08023C031D78293F08BE00C2
:1002F000BF0A36293C08003A200003198629013A32
:100300000319B029033A0319102AA22A2300C001B5
:100310004008073C031CA72960304007F800203044
:10032000FA000318FA0A7808C3007A08C4004008E3
:100330003A07840000303B3D85000008C5004408B2
:1003400085004308840045088000C00A8829603081
:1003500040078400203085000318850A8001A82A00
:100360002300C10141083A07840000303B3D85006D
:1003700080080319052A3D0841020318D829603076
:100380004107F8002030FA000318FA0A7808C30081
:100390007A08C40041083A07840000303B3D8500DC
:1003A0000008C50044088500430884004508800013
:1003B0003D084102031DE4296030410784002030DC
:1003C00085000318850A800141083D020318032AAD
:1003D00001303D0741026E3EF8002030FA0003185C
:1003E000FA0A7808C3007A08C40041083A07840072
:1003F00000303B3D85000008C500440885004308E7
:10040000840045088000C10AB22901303D0741023D
:100410006E3E8400203085000318850A8001A82ADA
:100420002300C20142083A07840000303B3D8500AA
:1004300080080319962A3D0842020318382A6030C2
:100440004207F8002030FA000318FA0A7808C300BF
:100450007A08C40042083A07840000303B3D85001A
:100460000008C50044088500430884004508800052
:100470003D084202031D442A6030420784002030B8
:1004800085000318850A800142083D020318672A87
:100490003E0842020318672A01303D074202683EC7
:1004A000F8002030FA000318FA0A7808C3007A0826
:1004B000C40042083A07840000303B3D8500000834
:1004C000C5004408850043088400450880003E08B4
:1004D0004202031D752A01303D074202683E840036
:1004E000203085000318850A800142083E02031867
:1004F000942A01303E0742026E3EF8002030FA0096
:100500000318FA0A7808C3007A08C40042083A07B8
:10051000840000303B3D85000008C500440885008C
:100520004308840045088000C20A122A01303E07B1
:1005300042026E3E8400203085000318850A800147
:10054000A82A20000230D7000030F800AB2A230090
:100550000130F80020008031B02E23004108FA005D
:10056000400884007A0885000008C4004308FA00A7
:10057000420884007A08850000084402031DD62A38
:100580004108FA00400884007A0885008008031DAD
:10059000CC2A0030F800EC2A4108FA004008C00AD2
:1005A0000319C10AC20A0319C30AAE2A4108FA0094
:1005B00040088400410885000008C4004308FA0090
:1005C0004208840043088500000844020318EA2A10
:1005D000FF30EB2A0130F800200008002300BC01A6
:1005E0003C080E3C031C1A2B3C0DF700F70DF70DD1
:1005F000F830F70577088B3EF8002030FA00031832
:10060000FA0A7808BE007A08BF003B08C1003A0821
:10061000C0003F08C3003E08C2002000AD22F80819
:10062000031D172B23003C08F8001C2B200023007F
:10063000BC0AF02A0030F80080312000BC2E2300D4
:10064000340885003308840050081A008001B30A7A
:100650000319B40A200008000B088B13310015138E
:10066000151400000000891B8B1703185F2B13085B
:100670007F392300C300310011082300C40031007A
:1006800012082300C5004308D00020001F232300C8
:1006900044083100910023004508310092000B0806
:1006A0008B131513151400000000891B8B172300F2
:1006B000C00B5B2B5D2B31005F2B822B3100130DA8
:1006C000140D7F392300C300310011082300C4003A
:1006D000310012082300C5004308D00020001F236A
:1006E00023004408310091002300450831009200A6
:1006F000910A0319920A03102300C00B802B822B4E
:1007000020002C2B20000800230050080319F52B93
:10071000DC0054080319F52BDC070318962B7F30F7
:10072000DC02031CF52B0319F52B9A2B8130DC0717
:100730000318F52B5C08F700F801F901FA015108DC
:10074000E000E0175208DF005308DE001830DC003C
:10075000DD015E1CC32B5708FA07031CB52BF90AF1
:10076000031DB52BF80A0319DD175608F907031CFA
:10077000BC2BF80A0319DD175508D200D21752080E
:10078000F8070318DD17DD0DF80CF90CFA0CE00C76
:10079000DF0CDE0C0310DC0BA82B0130F70703186D
:1007A000F52BF81BDA2BE00DFA0DF90DF80DF70318
:1007B0000319F52BE01FEB2BFA0A031DEB2BF90AAB
:1007C000031DEB2BF80A031DEB2BF80CF90CFA0CAC
:1007D000F70A0319F52B5108DD005508DD06DD1F6A
:1007E000F32BF817F92BF813F92BF701F801F9019E
:1007F000FA01200008008318012C213085002C30DC
:100800008400F701F801F901FA012300DC01DD01A0
:10081000DE01DF0157085604550454040319402C27
:100820002030E0000310D00DD10DD20DD30DDC0D22
:10083000DD0DDE0DDF0D57085F02031D292C560864
:100840005E02031D292C55085D02031D292C540846
:100850005C02031C3A2C5408DC025508031C550F9B
:10086000DD025608031C560FDE025708031C570F03
:10087000DF020314F70DF80DF90DFA0DE00B122C41
:100880005C0880005D08813F5E08823F5F08833F0F
:100890002000080004082300C8004408CA00031907
:1008A0006C2C4308D3004208D2004108D100400814
:1008B000D000D701D6012030D5008230D4002000EE
:1008C00084237A082300C3007908C2007808C10095
:1008D0007708C000CA0B512C4308D3004208D2004D
:1008E0004108D1004008D0005008B63CD000FA01C1
:1008F0005108D400D1170310D10CD20CD30CFA0C30
:10090000F90CF80CF70CD00B7B2CD41F922CF709A8
:10091000F809F909FA09F70A0319F80A0319F90A93
:100920000319FA0A7A08C3007908C2007808C100DE
:100930007708C000C31FA92CC803C816C009C10985
:10094000C209C309C00A0319C10A0319C20A03195B
:10095000C30A3B30CF009A30CE00CA30CD00CC0164
:100960000A30CA0044080319C80A831421308500DC
:10097000103084004308D3004208D2004108D1005F
:100980004008D0004F08D7004E08D6004D08D500CB
:100990004C08D4002000FB237808F708031DE72C3F
:1009A0002300440A4A02031DD72C2000E72C4808E4
:1009B0000319EA2C0F394A020319E02C0318222DDF
:1009C000C81B222D481BEA2C20301C2D2000203073
:1009D0002300C805C81EFA2CC8124408031DC8030A
:1009E0007708C8002D30D00020001F2323004808BE
:1009F000F700C80144084A02031D0A2D7708C80001
:100A00002E30D00020001F2323004808F70020309C
:100A1000C80500303030C81E1C2DC8124408031D04
:100A2000C8037708C8002D30D00020001F23230002
:100A30004808F700C8013030F7077708D0002000D9
:100A40001F23230083104F08D3004E08D2004D0807
:100A5000D1004C08D000D701D601D5010A30D4000E
:100A60002000FB237A082300CF007908CE00780805
:100A7000CD007708CC00CA0BB52C2000080024005C
:100A80001D139E159E19422D77189E12771C9E16D7
:100A90001E161E1A492D1908F800200008002130E2
:100AA00085000B30840000080319642D0530F80020
:100AB000F701F70B592DF80B582D2E30F700F70BD7
:100AC0005F2D622D800B562D080023004508F8018C
:100AD000440203186E2D4408F7007A2DF701083000
:100AE000C600C40DF70D450877020318F700F80D8E
:100AF000C60B712D2000080055303C008F00AA3035
:100B00008F000F1014309D0015309E001030A00093
:100B10001130A10018303D00A0001930A1001A309A
:100B2000A4001B30A50055303C008F00AA308F0078
:100B30000F1432009E019B019D0106309F00603022
:100B400099007010F0100330F3002300B401B301DA
:100B50008C018E0122009201910194019301352EA6
:100B6000023400342834003400342B344034B034A0
:100B70000034033480344534523452340534C034A4
:100B80000034043480344234413455344434043421
:100B9000C034003405348034433441344C340034A0
:100BA0000034173401342034003400340034453428
:100BB000583450344F3452345434003400344634B2
:100BC0004134433454344F3452345934003446346D
:100BD00049344E3444340434C03400340134803455
:100BE00049340734C0340034033480344934323457
:100BF00043340534C03400340934803449344D342E
:100C000050344F3452345434003400344C340734AC
:100C1000C03400340934803450344C344F344334BD
:100C20004B3400340034003452340734C0340034C0
:100C30000534803453344C34453445345034123404
:100C40000134A03400340034003453344C344F3475
:100C50005034453400340034003453345434413477
:100C60005434553453340034003405308500B030EA
:100C7000840085171200F700003A03194F2E120066
:100C8000F800F81B472E0F39870012008600781BEA
:100C90001200781F12001E00F70B492E3A2E20007A
:100CA000C72823003510701C742E2000171A9601D7
:100CB00095011508F700171A1608FA00171EFA0111
:100CC00077082300BA007A08BB00BB08031D6F2E0B
:100CD0003A083B3C031C6F2E2000592E230035148C
:100CE0002000D60170102300351CD52E3510B6011A
:100CF0003608283C031CAA2E3730360784002030E3
:100D000085000318850A80013608073C031C902ED5
:100D1000603036078400203085000318850A800182
:100D20003608053C031C9C2E6830360784002030B2
:100D300085000318850A800136081C3C031CA82E78
:100D40006E3036078400203085000318850A800144
:100D5000B60A782E2030BB000E30BA0020003329AE
:100D60002300B5107818B514B51CC62E2030BB0072
:100D70006030BA002000EE2A78082300B700370858
:100D8000BA0088312000002880312300B8013808DB
:100D9000283C031CD52E0E303807840020308500F7
:0E0DA0000318850A8001B80AC72E532E63007F
:1010000023003A08F13E0318452C0F3E2000482CDF
:101010002300452C2300452C0130D700203023002D
:10102000B4003830B300A430310091000030920099
:10103000031007302300C000803120002C238831AA
:10104000893084002300C301C201C1017F30C00088
:101050000230C400803120004A2488312300452C0E
:1010600020302300C1006030C0002030C3000E30AB
:10107000C20080312000AD228831F808031D942978
:101080002100B8080319462820009429BE08031936
:101090004B282000942901302000D7002300C101F3
:1010A0004108CC008030D10024001E141E185628A0
:1010B000031023004C0DD0380138D200D30080310A
:1010C0002000B22088310130F70080313F2588317F
:1010D00078082300CF000130F700803120003F2541
:1010E000883178082300CE000130F70080312000DD
:1010F0003F25883178082300CD000130F70080318A
:1011000020003F25883178082300D100D11FC7284F
:101110000130F700803120003F2588317808230016
:10112000D100D11B8828F701803120003F2588316C
:1011300078082300D10024001E151E199D281E14B6
:101140001E18A028031023004C0DD0380138D200FF
:10115000D30080312000B22088310130F700803187
:101160003F25883178082300CF000130F700803117
:1011700020003F25883178082300CE000130F70099
:10118000803120003F25883178082300CD00F70109
:10119000803120003F25883178082300D1002400C9
:1011A0001E151E19D1282300CF1CD928FF30D000CE
:1011B000DA28D0014D08F7004E08F8004F08F90072
:1011C0005008FA007A08C5007908C4007808C300FE
:1011D0007708C2004508CF004408CE004308CD0080
:1011E0004208CC00B630F700FA01F901F8015010BE
:1011F000CF1F08295014CC09CD09CE09CF09CC0A3C
:10120000031D0829CD0A031D0829CE0A0319CF0A98
:101210004C084D044E044F04031D1029F7011F29EB
:101220000310F81B1C29CC0DCD0DCE0DCF0DFA0DE2
:10123000F90DF80DF70B1029F8135018F8177A0864
:10124000CF007908CE007808CD007708CC004F0891
:10125000D3004E08D2004D08D1004C08D0006F30AA
:10126000D7001230D6000330D5006F30D400803163
:101270002000842388317A082300C9007908C80037
:101280007808C7007708C6004608F7004708F80046
:101290004808F9004908FA007A08C3007908C20032
:1012A0007808C1007708C0004308D3004208D20084
:1012B0004108D1004008D000D701D6017A30D500CE
:1012C0008830D40080312000842388317A082300BC
:1012D000BE007908BD007808BC007708BB003B0859
:1012E000F7003C08F8003D08F9003E08FA007A08CB
:1012F000BF007908BE007808BD007708BC00203028
:10130000B4003830B300893084003F08C3003E0881
:10131000C2003D08C1003C08C0000230C40080315A
:1013200020004A24883196290230D7002300452C1A
:1013300020302300C1006030C0002030C3000E30D8
:10134000C20080312000AD228831F808031DD12968
:101350002100B8080319AE292000D129BE080319BD
:10136000B3292000D129F01401302000D700AE01AC
:10137000AE08031DD029023022008C066430230001
:10138000BB00803120004F258831023022008C06BE
:1013900064302300BB00803120004F258831B829FC
:1013A000D3290230D700F0102300452C2100B808C3
:1013B000031DB22ABE080319B22A20302300BC0044
:1013C0006E30BB003C08BE003B08BD003E08FA0082
:1013D0003D0884007A08850080080319F329BD0AB6
:1013E0000319BE0AE6293B083D02F7003C083E3BD4
:1013F000FA007708F800780BAD2A21003E08313A50
:10140000200003190A2A013A0319102A0F3A031976
:10141000162AA82A22008C1401302000D700AB2AFB
:1014200022008C1001302000D700AB2A0130D700F9
:1014300000308C1801302300BB002030B40038305D
:10144000B3004C30D000803120001F2388312C3075
:101450002300D000803120001F2388313F3023003B
:10146000D000803120001F23883123003B08BC00BE
:101470001830BD0020303D1E3030C0003C08F70061
:10148000BC1F4A2AF709F70A7708BC002D30C000B4
:10149000BD173D143C08C4006430C50080312000F5
:1014A0006525883177082300BC0030307807C100FB
:1014B0003C08C4000A30C500803120006525883111
:1014C000303077072300C30030307807C20040086F
:1014D000F700303041020319712ABD14BD1B3D15C0
:1014E000852A4008C1002030C00030304202031974
:1014F0007D2A3D14BD1BBD14852A031D3D14031D0B
:10150000852A4108C2002030C1003D198C2ABD182F
:10151000932A3D189A2AA12A4008D0008031200041
:101520001F23883123004108D000803120001F2371
:10153000883123004208D000803120001F238831E9
:1015400023004308D000803120001F238831AB2ABC
:101550000230D700AB2AB02A230002302000D70087
:10156000B52A210002302000D7002300452C20306E
:101570002300C1006030C0002030C3000E30C20024
:1015800080312000AD228831F808031D3C2C210059
:10159000B8080319CD2A20003C2CBE080319D22A12
:1015A00020003C2C9D149D18D32A1C08FA001B080F
:1015B0002300C0007A08C1004108C3004008C200EF
:1015C0008E30F7004308F8004208F900FA01F808E5
:1015D000031DF42A7908F800F9010830F702F80829
:1015E000031DF42AF701FC2A0310F81BFB2AF90D4E
:1015F000F80DF703F42AF8137A08C5007908C40037
:101600007808C3007708C200C901C030C8007F3025
:10161000C7008830C60042080319D12BD000460805
:101620000319D12BD0020318162B1B2B7F30D007A8
:101630000318D12B212B8130D002031CD12B03198D
:10164000D12B5008F700F801F901FA01CF01430846
:10165000CE00CE174408CD004508CC001930D0008C
:101660004908CC020318442B0130CD020318442B47
:10167000CE020318442BCF020318442BCF0ACE0A04
:10168000CD0A4908CC07762B4808CD0203185F2BFA
:101690000130CE0203185F2BCF0203185F2BCF0A55
:1016A000CE0A4808CD074908CC07031C762BCD0A83
:1016B000031D762BCE0A031D762BCF0A762B470807
:1016C0008038CE020318752B0130CF020318752B1A
:1016D000CF0A47088038CE074808CD07031C532B94
:1016E000CE0A031D532BCF0A532B7A14D00B792B20
:1016F000842B0310CC0DCD0DCE0DCF0D0310FA0DA4
:10170000F90DF80DD10D302B511C8C2B0310F80C5A
:10171000F90CFA0CD10C8F2BF7030319D12BD11B29
:10172000B82B0310CC0DCD0DCE0DCF0D4908CC023A
:101730000318A42B0130CD020318A42BCE020318EA
:10174000A42BCF02031CC72B4808CD020318AF2BD4
:101750000130CE020318AF2BCF02031CC72B470862
:101760008038CE020318B82B0130CF02031CC72BE0
:10177000FA0A031DC72BF90A031DC72BF80A031D1C
:10178000C72BF70A0319D12BF80CF90CFA0C4308F4
:10179000D0004708D006D01FCF2BF817D52BF81351
:1017A000D52BF701F801F901FA016F30D30012309F
:1017B000D2000330D1008030D0007A08D7007908F9
:1017C000D6007808D5007708D40080312000842323
:1017D000883193302300D3002B30D2004830D10021
:1017E0008030D0007A08D7007908D6007808D50074
:1017F0007708D40080312000842388317A082300C0
:10180000BE007908BD007808BC007708BB00013035
:101810002000D70020302300B4003830B300AA30B5
:101820003100910000309200031008302300C00006
:10183000803120002C23883155302300D0008031A6
:1018400020001F2388312C302300D000803120005D
:101850001F2388318930840023003E08C3003D08DF
:10186000C2003C08C1003B08C0000230C400803107
:1018700020004A2488313E2C0230D7002300452C1A
:101880000230D7002300452C230080312000C42ED5
:101890000A108A100A158207402C08280A28442CAE
:1018A000442C98290C28442C442CD629442C30282C
:0618B000442C442CB72A71
:020000040001F9
:08000E00EC3FF13FFC1FFC3F39
:00000001FF
;PIC16F18326
;CRC=1AA4  CREATED="27-jun-19 17:59"
