:0600000088310028000019
:0800080083018031200077081C
:10001000A0007808A1007908A2007A08A300850151
:1000200091308400801D162891191F282008F700A0
:100030002108F8002208F9002308FA00090080319D
:1000400021282400941A2728F3011419F3177308A0
:10005000F30A2300E500E508031D3A2824001513E0
:10006000141C3028110815167014FE302000D3001F
:10007000F20123006508803C0319F10165087F3C0B
:10008000031863287108283C031C62283330710769
:100090008400203085000318850A0008E600660801
:1000A000E7002400110823006708240091001516BA
:1000B00020009111240014185B28F801161FF80A7B
:1000C000F10A23007A28E50803197A287208283CE7
:1000D000031C7A280A307207840020308500031838
:1000E000850A24001513141C7328110815168000A6
:1000F000F20A2300200091118031162824009D135C
:100100002000921123004B082400990002309D1B0F
:1001100090282000921D8A28003024001E1B0130E8
:10012000F8002000080021009115C0308B040E1447
:100130008E142400171097109711C4309200363097
:1001400095001614961721000E168E1624001F1007
:100150009F109F1109309A0028309D009C131C139A
:100160002300B80124001E141E18B4280310230015
:10017000380DD038B900CB0020007E201C30230081
:10018000CB0020007E2024001E151E19C5289030AB
:10019000200097004B30980021008C1022008C101A
:1001A0002300B6013608283C031CE0280A30360735
:1001B0008400203085000318850A8001B60AD22801
:1001C00088312000D5282300B801BB013B08360741
:1001D00084000030373D8500800803192A293B0838
:1001E0003607F8000030373DFA007808C0007A087A
:1001F000C1003B08360784000030373D8500000809
:10020000C200603C03180B2942087A3C031C0B29EE
:100210004208DF390C294208C20041088500400825
:100220008400420880003B08360784000030373DD8
:10023000850000082C3C031D2829B80A380B222908
:100240003B08B9003808023C031D28293B08BA00C6
:10025000BB0AE6283808003A200003193629013A7B
:1002600003196029033A0319C029522A2300BC014B
:100270003C08073C031C57295C303C07F800203041
:10028000FA000318FA0A7808C0007A08C1003C088E
:10029000360784000030373D85000008C200410861
:1002A00085004008840042088000BC0A38295C3080
:1002B0003C078400203085000318850A8001582AF5
:1002C0002300BD013D08360784000030373D85001E
:1002D00080080319B52939083D02031888295C30C4
:1002E0003D07F8002030FA000318FA0A7808C00029
:1002F0007A08C1003D08360784000030373D85008C
:100300000008C200410885004008840042088000BF
:1003100039083D02031D94295C303D0784002030DC
:1003200085000318850A80013D0839020318B329A6
:10033000013039073D026A3EF8002030FA00031808
:10034000FA0A7808C0007A08C1003D083607840020
:100350000030373D85000008C20041088500400894
:10036000840042088000BD0A6229013039073D023D
:100370006A3E8400203085000318850A8001582ACF
:100380002300BE013E08360784000030373D85005B
:1003900080080319462A39083E020318E8295C3010
:1003A0003E07F8002030FA000318FA0A7808C00067
:1003B0007A08C1003E08360784000030373D8500CA
:1003C0000008C200410885004008840042088000FF
:1003D00039083E02031DF4295C303E0784002030BA
:1003E00085000318850A80013E0839020318172A80
:1003F0003A083E020318172A013039073E02643ECC
:10040000F8002030FA000318FA0A7808C0007A08C9
:10041000C1003E08360784000030373D85000008E3
:10042000C2004108850040088400420880003A0864
:100430003E02031D252A013039073E02643E840036
:10044000203085000318850A80013E083A0203180F
:10045000442A01303A073E026A3EF8002030FA0092
:100460000318FA0A7808C0007A08C1003E08360767
:1004700084000030373D85000008C2004108850037
:100480004008840042088000BE0AC22901303A07B1
:100490003E026A3E8400203085000318850A8001F0
:1004A000582A20000230D3000030F8005B2A2300D5
:1004B0000130F800200088313A2923003D08FA0075
:1004C0003C0884007A0885000008C0003F08FA0054
:1004D0003E0884007A08850000084002031D862A31
:1004E0003D08FA003C0884007A0885008008031D56
:1004F0007C2A0030F8009C2A3D08FA003C08BC0A1F
:100500000319BD0ABE0A0319BF0A5E2A3D08FA0094
:100510003C0884003D0885000008C0003F08FA0040
:100520003E0884003F0885000008400203189A2A0C
:10053000FF309B2A0130F800200008002300B8019A
:1005400038080E3C031CCA2A380DF700F70DF70DCA
:10055000F830F7057708873EF8002030FA000318D6
:10056000FA0A7808BA007A08BB003708BD003608D6
:10057000BC003B08BF003A08BE0020005D22F8081E
:10058000031DC72A23003808F800CC2A20002300C6
:10059000B80AA02A0030F800883120004829240039
:1005A0001D139E159E19D22A77189E12771C9E162F
:1005B0001E161E1AD92A1908F80020000800230068
:1005C00050080319502BDC0054080319502BDC078A
:1005D0000318F12A7F30DC02031C502B0319502B27
:1005E000F52A8130DC070318502B5C08F700F8016E
:1005F000F901FA015108E000E0175208DF00530842
:10060000DE001830DC00DD015E1C1E2B5708FA07E7
:10061000031C102BF90A031D102BF80A0319DD1710
:100620005608F907031C172BF80A0319DD1755089C
:10063000D200D2175208F8070318DD17DD0DF80CA9
:10064000F90CFA0CE00CDF0CDE0C0310DC0B032BB6
:100650000130F7070318502BF81B352BE00DFA0D6E
:10066000F90DF80DF7030319502BE01F462BFA0A7A
:10067000031D462BF90A031D462BF80A031D462BC2
:10068000F80CF90CFA0CF70A0319502B5108DD008D
:100690005508DD06DD1F4E2BF817542BF813542B8D
:1006A000F701F801F901FA012000080083185C2B1A
:1006B000213085002C308400F701F801F901FA019E
:1006C0002300DC01DD01DE01DF015708560455047B
:1006D000540403199B2B2030E0000310D00DD10DE2
:1006E000D20DD30DDC0DDD0DDE0DDF0D57085F02E1
:1006F000031D842B56085E02031D842B55085D02E2
:10070000031D842B54085C02031C952B5408DC0247
:100710005508031C550FDD025608031C560FDE0258
:100720005708031C570FDF020314F70DF80DF90DDE
:10073000FA0DE00B6D2B5C0880005D08813F5E08C0
:10074000823F5F08833F20000800230030088500B7
:100750002F08840050081A008001AF0A0319B00A5C
:100760002000080004082300C8004008CA0003193C
:10077000D42B3F08D3003E08D2003D08D1003C08EE
:10078000D000D701D6012030D5008230D40020001F
:10079000DF227A082300BF007908BE007808BD0078
:1007A0007708BC00CA0BB92B3F08D3003E08D20023
:1007B0003D08D1003C08D0005008B63CD000FA01FA
:1007C0005108D400D1170310D10CD20CD30CFA0C61
:1007D000F90CF80CF70CD00BE32BD41FFA2BF7090C
:1007E000F809F909FA09F70A0319F80A0319F90AC5
:1007F0000319FA0A7A08BF007908BE007808BD001C
:100800007708BC00BF1F112CC803C816BC09BD095E
:10081000BE09BF09BC0A0319BD0A0319BE0A0319A0
:10082000BF0A3B30CF009A30CE00CA30CD00CC0199
:100830000A30CA0040080319C80A83142130850011
:100840000C3084003F08D3003E08D2003D08D100A0
:100850003C08D0004F08D7004E08D6004D08D50000
:100860004C08D400200056237808F708031D4F2CAD
:100870002300400A4A02031D3F2C20004F2C480849
:100880000319522C0F394A020319482C03188A2CD9
:10089000C81B8A2C481B522C2030842C200020306E
:1008A0002300C805C81E622CC8124008031DC803D7
:1008B0007708C8002D30D0002000A5232300480869
:1008C000F700C80140084A02031D722C7708C800CF
:1008D0002E30D0002000A52323004808F700203048
:1008E000C80500303030C81E842CC8124008031DD3
:1008F000C8037708C8002D30D0002000A5232300AE
:100900004808F700C8013030F7077708D00020000A
:10091000A523230083104F08D3004E08D2004D08B2
:10092000D1004C08D000D701D601D5010A30D4003F
:10093000200056237A082300CF007908CE007808DB
:10094000CD007708CC00CA0B1D2C80312000112E61
:10095000213085000730840000080319BD2C0530C4
:10096000F800F701F70BB22CF80BB12C2E30F70082
:10097000F70BB82CBB2C800BAF2C080023004108D0
:10098000F80140020318C72C4008F700D32CF701E8
:100990000830C200C00DF70D410877020318F700B8
:1009A000F80DC20BCA2C2000080023003608F43EC4
:1009B00003181F2F0C3E2000222F23001F2F23007F
:1009C0001F2F20302300BD005C30BC002030BF0052
:1009D0000A30BE0020005D22F808031D122E2100FF
:1009E000B4080319F52C2000122EBA080319FA2CAA
:1009F0002000122E2300B8013808C4008030C9003E
:100A000024001E141E18022D03102300440DD0389C
:100A10000138CA00CB0020007E200130F700CF2231
:100A200078082300C7000130F7002000CF227808A3
:100A30002300C6000130F7002000CF2278082300F1
:100A4000C5000130F7002000CF2278082300C9003C
:100A5000C91F5D2D0130F7002000CF227808230048
:100A6000C900C91B2A2DF7012000CF2278082300D6
:100A7000C90024001E151E193B2D1E141E183E2DE4
:100A800003102300440DD0380138CA00CB002000E9
:100A90007E200130F700CF2278082300C700013004
:100AA000F7002000CF2278082300C6000130F700AD
:100AB0002000CF2278082300C500F7012000CF22B4
:100AC00078082300C90024001E151E19652D230077
:100AD000C71C6D2DFF30C8006E2DC8014508F700FA
:100AE0004608F8004708F9004808FA007A08BC00F0
:100AF0007908BB007808BA007708B9003C08C7003D
:100B00003B08C6003A08C5003908C400B630F700F3
:100B1000FA01F901F8014810C71F9C2D4814C409B7
:100B2000C509C609C709C40A031D9C2DC50A031DB2
:100B30009C2DC60A0319C70A440845044604470405
:100B4000031DA42DF701B32D0310F81BB02DC40D08
:100B5000C50DC60DC70DFA0DF90DF80DF70BA42D37
:100B6000F8134818F8177A08C7007908C6007808FB
:100B7000C5007708C4004708D3004608D2004508DE
:100B8000D1004408D0006F30D7001230D6000330B7
:100B9000D5006F30D4002000DF227A082300C00087
:100BA0007908BF007808BE007708BD003D08F7004F
:100BB0003E08F8003F08F9004008FA007A08BB0038
:100BC0007908BA007808B9007708B8003B08D30064
:100BD0003A08D2003908D1003808D000D701D60130
:100BE0007A30D5008830D4002000DF227A08230034
:100BF000BB007908BA007808B9007708B80020303F
:100C0000B0003330AF00893084003B08BF003A08A1
:100C1000BE003908BD003808BC000230C00020000A
:100C2000B22B142E0230D30023001F2F20302300BC
:100C3000BD005C30BC002030BF000A30BE00200088
:100C40005D22F808031D482E2100B40803192A2E3E
:100C50002000482EBA0803192F2E2000482E0130FC
:100C60002000D300AA01AA08031D472E023022004B
:100C70008C0664302300B7002000A8240230220034
:100C80008C0664302300B7002000A824332E4A2E9F
:100C90000230D30023001F2F2100B408031D152F9D
:100CA000BA080319152F20302300B8006A30B700A6
:100CB0003808BA003708B9003A08FA003908840041
:100CC0007A08850080080319692EB90A0319BA0A3F
:100CD0005C2E37083902F70038083A3BFA007708EB
:100CE000F800780B102F21003A08313A2000031940
:100CF000802E013A0319862E0F3A03198C2E0C2FE1
:100D000022008C1401302000D3000E2F22008C1002
:100D100001302000D3000E2F0130D30000308C189A
:100D200001302300B7002030B0003430AF004C3029
:100D3000D0002000A5232C302300D0002000A523C4
:100D40003F302300D0002000A52323003708B8003F
:100D50001830B9002030391E3030BC003808F70098
:100D6000B81FBA2EF709F70A7708B8002D30BC0073
:100D7000B91739143808C0006430C1002000BE24FF
:100D800077082300B80030307807BD003808C0006D
:100D90000A30C1002000BE24303077072300BF0096
:100DA00030307807BE003C08F70030303D020319B0
:100DB000DD2EB914B91B3915F12E3C08BD002030C9
:100DC000BC0030303E020319E92E3914B91BB914A6
:100DD000F12E031D3914031DF12E3D08BE002030F5
:100DE000BD003919F82EB918FD2E3918022F072F1A
:100DF0003C08D0002000A52323003D08D00020009F
:100E0000A52323003E08D0002000A52323003F088F
:100E1000D0002000A5230E2F0230D300132F230073
:100E200002302000D300182F210002302000D30010
:100E300023001F2F0230D30023001F2F23008831EF
:100E4000200051290A148A140A1582071A2FDD2C52
:100E5000DF2C1E2F1E2F162E1E2F1E2F1E2F4C2E48
:040E60001E2FE12C34
:1010000055303C008F00AA308F000F1014309D0027
:1010100015309E001030A0001130A10018303D00A6
:10102000A0001930A1001A30A4001B30A5005530D3
:101030003C008F00AA308F000F1432009E019B01EC
:101040009D0106309F006030990070100330F3005E
:101050002300B001AF018C018E01220092019101A9
:1010600094019301B828023400342434003400344D
:101070002B344034AC34003403348034453452349F
:1010800052340534C03400340434803442344134A2
:10109000553444340434C03400340334803443348D
:1010A00041344C340534C034003401348034453488
:1010B000133401342034583450344F3452345434BF
:1010C0000034003446344134433454344F345234C1
:1010D00059340034463449344E3444340434C03432
:1010E00000340134803449340734C03400340334CC
:1010F00080344934323443340534C0340034093444
:10110000803449344D3450344F34523454340034E4
:1011100000344C340734C034003409348034503443
:101120004C344F3443344B340034003400345234A4
:101130000734C03400340934803453344C344534DB
:101140004534503400340034003453340E34013408
:10115000A0344C344F34503445340034003400341F
:1011600053345434413454345534533400340034FB
:10117000083085003330840085171200F700003AEC
:101180000319D2281200F800F81BCA280F3987006B
:1011900012008600781B1200781F12001E00F70B49
:1011A000CC28BD28803120009328883123003110BD
:1011B0002000AA0803196329701CFC28171EE128C7
:1011C000960195011508F700171A1608FA00171E60
:1011D000FA0177082300B6007A08B700B708031DA4
:1011E000F82836083B3C031CF8282000E22823009E
:1011F00031142000D20170102300311C62293110FB
:10120000B2013208283C031C3329333032078400F2
:10121000203085000318850A80013208073C031C32
:1012200019295C3032078400203085000318850AB4
:1012300080013208053C031C2529643032078400F4
:10124000203085000318850A800132081C3C031CED
:1012500031296A3032078400203085000318850A5E
:101260008001B20A01292030B7000A30B60080316F
:101270002000E32888312300B1107818B114B11C84
:1012800053292030B7005C30B600803120009E2A00
:10129000883178082300B3003308B600803120007D
:1012A000D52C88312300B4013408283C031C622962
:1012B0000A3034078400203085000318850A800135
:0A12C000B40A54292000D928630065
:020000040001F9
:08000E00EC3FF13FFC1FFC3F39
:00000001FF
;PIC16F18326
;CRC=1A4F  CREATED="19-jun-19 17:00"
