:0600000088310028000019
:0800080083018031200077081C
:10001000A0007808A1007908A2007A08A3003100A6
:1000200011082000A400310012082000A5003100B2
:1000300013082000A600310014082000A700850145
:1000400091308400801D262891193F282008F70050
:100050002108F8002208F9002308FA0024083100DA
:100060009100200025083100920020002608310070
:1000700093002000270831009400090020008031FF
:1000800041282400941A4728F3011419F317730820
:10009000F30A2300E500E508031D5A282400151380
:1000A000141C5028110815167014FE302000D700BB
:1000B000F20123006508803C0319F10165087F3CCB
:1000C000031883287108283C031C822837307107E5
:1000D0008400203085000318850A0008E6006608C1
:1000E000E70024001108230067082400910015167A
:1000F00020009111240014187B28F801161FF80A1B
:10010000F10A23009A28E50803199A287208283C66
:10011000031C9A280E3072078400203085000318D3
:10012000850A24001513141C932811081516800045
:10013000F20A23002000911180312628BF34AC2719
:100140005228AC122E19660024009D132000921133
:1001500023004F082400990002309D1BB628200080
:10016000921DB028003024001E1B0130F800200032
:10017000080021009115C0308B040E148E14240049
:10018000171097109711C43092003630950016144E
:10019000961721000E168E1624001F109F109F1117
:1001A00009309A0028309D009C131C132300BC01C9
:1001B00024001E141E18DA28031023003C0DD0382A
:1001C000BD00CF002000A4201C302300CF00200061
:1001D000A42024001E151E19EB2821001E169E16B1
:1001E0001E139E131D14F430F8001D080339780403
:1001F0009D00220097179716171290302000970045
:100200004B3098002200971721008C1022008C1090
:100210002300BA013A08283C031C18290E303A077B
:100220008400203085000318850A8001BA0A0A2953
:1002300088312000D5282300BC01BF013F083A07C0
:10024000840000303B3D85008008031962293F0887
:100250003A07F80000303B3DFA007808C3007A08FE
:10026000C4003F083A07840000303B3D8500000889
:10027000C500603C0318432945087A3C031C432908
:100280004508DF3944294508C5004408850043086E
:100290008400450880003F083A07840000303B3D59
:1002A000850000082C3C031D6029BC0A3C0B5A2920
:1002B0003F08BD003C08023C031D60293F08BE000A
:1002C000BF0A1E293C08003A200003196E29013A92
:1002D00003199829033A0319F8298A2A2300C0012F
:1002E0004008073C031C8F2960304007F80020308D
:1002F000FA000318FA0A7808C3007A08C400400814
:100300003A07840000303B3D85000008C5004408E2
:1003100085004308840045088000C00A70296030C9
:1003200040078400203085000318850A8001902A48
:100330002300C10141083A07840000303B3D85009D
:1003400080080319ED293D0841020318C0296030D7
:100350004107F8002030FA000318FA0A7808C300B1
:100360007A08C40041083A07840000303B3D85000C
:100370000008C50044088500430884004508800043
:100380003D084102031DCC29603041078400203024
:1003900085000318850A800141083D020318EB29F6
:1003A00001303D0741026E3EF8002030FA0003188C
:1003B000FA0A7808C3007A08C40041083A078400A2
:1003C00000303B3D85000008C50044088500430817
:1003D000840045088000C10A9A2901303D07410286
:1003E0006E3E8400203085000318850A8001902A23
:1003F0002300C20142083A07840000303B3D8500DB
:10040000800803197E2A3D0842020318202A603022
:100410004207F8002030FA000318FA0A7808C300EF
:100420007A08C40042083A07840000303B3D85004A
:100430000008C50044088500430884004508800082
:100440003D084202031D2C2A603042078400203000
:1004500085000318850A800142083D0203184F2ACF
:100460003E08420203184F2A01303D074202683E0F
:10047000F8002030FA000318FA0A7808C3007A0856
:10048000C40042083A07840000303B3D8500000864
:10049000C5004408850043088400450880003E08E4
:1004A0004202031D5D2A01303D074202683E84007E
:1004B000203085000318850A800142083E02031897
:1004C0007C2A01303E0742026E3EF8002030FA00DE
:1004D0000318FA0A7808C3007A08C40042083A07E9
:1004E000840000303B3D85000008C50044088500BD
:1004F0004308840045088000C20AFA2901303E07FB
:1005000042026E3E8400203085000318850A800177
:10051000902A20000230D7000030F800932A2300F0
:100520000130F800200088313A2923004108FA0000
:10053000400884007A0885000008C4004308FA00D7
:10054000420884007A08850000084402031DBE2A80
:100550004108FA00400884007A0885008008031DDD
:10056000B42A0030F800D42A4108FA004008C00A32
:100570000319C10AC20A0319C30A962A4108FA00DC
:1005800040088400410885000008C4004308FA00C0
:100590004208840043088500000844020318D22A58
:1005A000FF30D32A0130F800200008002300BC01EE
:1005B0003C080E3C031C022B3C0DF700F70DF70D19
:1005C000F830F70577088B3EF8002030FA00031862
:1005D000FA0A7808BE007A08BF003B08C1003A0852
:1005E000C0003F08C3003E08C20020009522F80862
:1005F000031DFF2A23003C08F800042B20002300E1
:10060000BC0AD82A0030F80088312000482923008D
:10061000340885003308840050081A008001B30AAA
:100620000319B40A20000800230050080319852B81
:10063000DC0054080319852BDC070318262B7F30B8
:10064000DC02031C852B0319852B2A2B8130DC0748
:100650000318852B5C08F700F801F901FA0151082D
:10066000E000E0175208DF005308DE001830DC001D
:10067000DD015E1C532B5708FA07031C452BF90AB2
:10068000031D452BF80A0319DD175608F907031C4B
:100690004C2BF80A0319DD175508D200D21752085F
:1006A000F8070318DD17DD0DF80CF90CFA0CE00C57
:1006B000DF0CDE0C0310DC0B382B0130F7070318BE
:1006C000852BF81B6A2BE00DFA0DF90DF80DF703D9
:1006D0000319852BE01F7B2BFA0A031D7B2BF90ADC
:1006E000031D7B2BF80A031D7B2BF80CF90CFA0C6D
:1006F000F70A0319852B5108DD005508DD06DD1FBB
:10070000832BF817892BF813892BF701F801F901CE
:10071000FA01200008008318912B213085002C302D
:100720008400F701F801F901FA012300DC01DD0181
:10073000DE01DF0157085604550454040319D02B79
:100740002030E0000310D00DD10DD20DD30DDC0D03
:10075000DD0DDE0DDF0D57085F02031DB92B5608B6
:100760005E02031DB92B55085D02031DB92B540809
:100770005C02031CCA2B5408DC025508031C550FED
:10078000DD025608031C560FDE025708031C570FE4
:10079000DF020314F70DF80DF90DFA0DE00BA22B93
:1007A0005C0880005D08813F5E08823F5F08833FF0
:1007B0002000080004082300C8004408CA000319E8
:1007C000FC2B4308D3004208D2004108D100400866
:1007D000D000D701D6012030D5008230D4002000CF
:1007E00014237A082300C3007908C2007808C100E6
:1007F0007708C000CA0BE12B4308D3004208D2009F
:100800004108D1004008D0005008B63CD000FA01A1
:100810005108D400D1170310D10CD20CD30CFA0C10
:10082000F90CF80CF70CD00B0B2CD41F222CF70969
:10083000F809F909FA09F70A0319F80A0319F90A74
:100840000319FA0A7A08C3007908C2007808C100BF
:100850007708C000C31F392CC803C816C009C109D6
:10086000C209C309C00A0319C10A0319C20A03193C
:10087000C30A3B30CF009A30CE00CA30CD00CC0145
:100880000A30CA0044080319C80A831421308500BD
:10089000103084004308D3004208D2004108D10040
:1008A0004008D0004F08D7004E08D6004D08D500AC
:1008B0004C08D40020008B237808F708031D772C00
:1008C0002300440A4A02031D672C2000772C4808A5
:1008D00003197A2C0F394A020319702C0318B22C11
:1008E000C81BB22C481B7A2C2030AC2C20002030A6
:1008F0002300C805C81E8A2CC8124408031DC8035B
:100900007708C8002D30D0002000072323004808B6
:10091000F700C80144084A02031D9A2C7708C80052
:100920002E30D0002000072323004808F700203095
:10093000C80500303030C81EAC2CC8124408031D56
:10094000C8037708C8002D30D000200007232300FB
:100950004808F700C8013030F7077708D0002000BA
:100960000723230083104F08D3004E08D2004D0800
:10097000D1004C08D000D701D601D5010A30D400EF
:1009800020008B237A082300CF007908CE00780856
:10099000CD007708CC00CA0B452C200008002400AD
:1009A0001D139E159E19D22C77189E12771C9E1629
:1009B0001E161E1AD92C1908F80020000800213034
:1009C00085000B30840000080319F42C0530F80072
:1009D000F701F70BE92CF80BE82C2E30F700F70B9A
:1009E000EF2CF22C800BE62C080023004508F801C0
:1009F00044020318FE2C4408F7000A2DF7010830C2
:100A0000C600C40DF70D450877020318F700F80D6E
:100A1000C60B012D2000080023003A08F43E0318FD
:100A2000C62F0C3E2000C92F2300C62F2300C62F3F
:100A30000130D70020302300B4003830B3009E309E
:100A40003100910000309200031007302300BB00FA
:100A50000B088B1331001513151400000000891BBF
:100A60008B1703185B2D13087F392300BD0031005D
:100A700011082300BE00310012082300BF003D080A
:100A8000D0002000072323003E08310091002300FE
:100A90003F08310092000B088B131513151400004A
:100AA0000000891B8B172300BB0B572D592D3100DC
:100AB0005B2D7B2D3100130D140D7F392300BD00FC
:100AC000310011082300BE00310012082300BF00CE
:100AD0003D08D0002000072323003E08310091008C
:100AE00023003F0831009200910A0319920A031073
:100AF0002300BB0B282D89308400C301C201C10132
:100B00007F30C0000230C4002000DA232300C62F4B
:100B100020302300C1006030C0002030C3000E3000
:100B2000C20020009522F808031DB92E2100B80844
:100B300003199C2D2000B92EBE080319A12D2000F9
:100B4000B92E2300BC013C08C8008030CD00240031
:100B50001E141E18A92D03102300480DD03801388B
:100B6000CE00CF002000A4200130F700CF24780869
:100B70002300CB000130F7002000CF2478082300A9
:100B8000CA000130F7002000CF2478082300C900F4
:100B90000130F7002000CF2478082300CD00CD1FBE
:100BA000042E0130F7002000CF2478082300CD0068
:100BB000CD1BD12DF7012000CF2478082300CD00D4
:100BC00024001E151E19E22D1E141E18E52D0310FB
:100BD0002300480DD0380138CE00CF002000A420DB
:100BE0000130F700CF2478082300CB000130F70054
:100BF0002000CF2478082300CA000130F70020002D
:100C0000CF2478082300C900F7012000CF247808FA
:100C10002300CD0024001E151E190C2E2300CB1C12
:100C2000142EFF30CC00152ECC014908F7004A08DD
:100C3000F8004B08F9004C08FA007A08C00079085F
:100C4000BF007808BE007708BD004008CB003F0811
:100C5000CA003E08C9003D08C800B630F700FA01D6
:100C6000F901F8014C10CB1F432E4C14C809C909D7
:100C7000CA09CB09C80A031D432EC90A031D432E06
:100C8000CA0A0319CB0A480849044A044B04031D45
:100C90004B2EF7015A2E0310F81B572EC80DC90D05
:100CA000CA0DCB0DFA0DF90DF80DF70B4B2EF813FD
:100CB0004C18F8177A08CB007908CA007808C900E0
:100CC0007708C8004B08D3004A08D2004908D10071
:100CD0004808D0006F30D7001230D6000330D5005E
:100CE0006F30D400200014237A082300C400790850
:100CF000C3007808C2007708C1004108F700420825
:100D0000F8004308F9004408FA007A08BF0079089F
:100D1000BE007808BD007708BC003F08D3003E083D
:100D2000D2003D08D1003C08D000D701D6017A306E
:100D3000D5008830D400200014237A082300BF0097
:100D40007908BE007808BD007708BC002030B400E8
:100D50003730B300893084003F08C3003E08C2002A
:100D60003D08C1003C08C0000230C4002000DA2366
:100D7000BB2E0230D7002300C62F20302300C10035
:100D80006030C0002030C3000E30C2002000952229
:100D9000F808031DEF2E2100B8080319D12E2000FA
:100DA000EF2EBE080319D62E2000EF2E01302000B2
:100DB000D700AE01AE08031DEE2E023022008C06D5
:100DC00064302300BB002000DF24023022008C06A8
:100DD00064302300BB002000DF24DA2EF12E023025
:100DE000D7002300C62F2100B808031DBC2FBE0862
:100DF0000319BC2F20302300BC006E30BB003C0820
:100E0000BE003B08BD003E08FA003D0884007A0899
:100E1000850080080319102FBD0A0319BE0A032F8D
:100E20003B083D02F7003C083E3BFA007708F8001B
:100E3000780BB72F21003E08313A20000319272FE5
:100E4000013A03192D2F0F3A0319332FB32F220024
:100E50008C1401302000D700B52F22008C100130F7
:100E60002000D700B52F0130D70000308C1801309A
:100E70002300BB002030B4003830B3004C30D00029
:100E8000200007232C302300D000200007233F3010
:100E90002300D0002000072323003B08BC001830AB
:100EA000BD0020303D1E3030C0003C08F700BC1FA4
:100EB000612FF709F70A7708BC002D30C000BD1775
:100EC0003D143C08C4006430C5002000F5247708B8
:100ED0002300BC0030307807C1003C08C4000A3051
:100EE000C5002000F524303077072300C3003030E0
:100EF0007807C2004008F700303041020319842F00
:100F0000BD14BD1B3D15982F4008C1002030C00006
:100F1000303042020319902F3D14BD1BBD14982F91
:100F2000031D3D14031D982F4108C2002030C1004D
:100F30003D199F2FBD18A42F3D18A92FAE2F400893
:100F4000D0002000072323004108D0002000072301
:100F500023004208D0002000072323004308D000CC
:100F600020000723B52F0230D700BA2F230002300C
:100F70002000D700BF2F210002302000D70023001F
:100F8000C62F0230D7002300C62F2300883120004F
:100F900051290A148A140A158207C12F142D162DFF
:100FA000C52FC52FBD2E182DC52FC52FF32EC52F2C
:020FB000882D8A
:1010000055303C008F00AA308F000F1014309D0027
:1010100015309E001030A0001130A10018303D00A6
:10102000A0001930A1001A30A4001B30A5005530D3
:101030003C008F00AA308F000F1432009E019B01EC
:101040009D0106309F006030990070100330F3005E
:101050002300B401B3018C018E01220092019101A1
:1010600094019301B8280234003428340034003449
:101070002B344034B034003403348034453452349B
:1010800052340534C03400340434803442344134A2
:10109000553444340434C03400340534803443348B
:1010A00041344C34003400341734013420340034DB
:1010B000003400344534583450344F3452345434AE
:1010C0000034003446344134433454344F345234C1
:1010D00059340034463449344E3444340434C03432
:1010E00000340134803449340734C03400340334CC
:1010F00080344934323443340534C0340034093444
:10110000803449344D3450344F34523454340034E4
:1011100000344C340734C034003409348034503443
:101120004C344F3443344B340034003400345234A4
:101130000734C03400340534803453344C344534DF
:101140004534503412340134A034003400340034B7
:1011500053344C344F34503445340034003400346C
:1011600053345434413454345534533400340034FB
:10117000083085003330840085171200F700003AEC
:101180000319D2281200F800F81BCA280F3987006B
:1011900012008600781B1200781F12001E00F70B49
:1011A000CC28BD2880312000B92888312300351093
:1011B0002000AE0803196329701CFC28171EE128C3
:1011C000960195011508F700171A1608FA00171E60
:1011D000FA0177082300BA007A08BB00BB08031D98
:1011E000F8283A083B3C031CF8282000E22823009A
:1011F00035142000D60170102300351C62293510EB
:10120000B6013608283C031C3329373036078400E2
:10121000203085000318850A80013608073C031C2E
:101220001929603036078400203085000318850AAC
:1012300080013608053C031C2529683036078400E8
:10124000203085000318850A800136081C3C031CE9
:1012500031296E3036078400203085000318850A56
:101260008001B60A01292030BB000E30BA0080315F
:1012700020001B2988312300B5107818B514B51C3F
:1012800053292030BB006030BA0080312000D62ABC
:10129000883178082300B7003708BA008031200071
:1012A0000C2D88312300B8013808283C031C622922
:1012B0000E3038078400203085000318850A80012D
:0A12C000B80A54292000D928630061
:020000040001F9
:08000E00EC3FF13FFC1FFC3F39
:00000001FF
;PIC16F18326
;CRC=972F  CREATED="26-jun-19 14:43"
