:0600000088310028000019
:0800080083018031200077081C
:10001000A0007808A1007908A2007A08A3003100A6
:1000200011082000A400310012082000A5003100B2
:1000300013082000A600310014082000A700850145
:1000400091308400801D262891193F282008F70050
:100050002108F8002208F9002308FA0024083100DA
:100060009100200025083100920020002608310070
:1000700093002000270831009400090020008031FF
:1000800041282400941A4728F3011419F317730820
:10009000F30A2300E500E508031D5A282400151380
:1000A000141C5028110815167014FE302000D700BB
:1000B000F20123006508803C0319F10165087F3CCB
:1000C000031883287108283C031C822837307107E5
:1000D0008400203085000318850A0008E6006608C1
:1000E000E70024001108230067082400910015167A
:1000F00020009111240014187B28F801161FF80A1B
:10010000F10A23009A28E50803199A287208283C66
:10011000031C9A280E3072078400203085000318D3
:10012000850A24001513141C932811081516800045
:10013000F20A23002000911180312628BF34AC2719
:100140005228AC122E19660024009D132000921133
:1001500023004F082400990002309D1BB628200080
:10016000921DB028003024001E1B0130F800200032
:10017000080021009115C0308B040E148E14240049
:10018000171097109711C43092003630950016144E
:10019000961721000E168E1624001F109F109F1117
:1001A00009309A0028309D009C131C132300BC01C9
:1001B00024001E141E18DA28031023003C0DD0382A
:1001C000BD00CF002000A4201C302300CF00200061
:1001D000A42024001E151E19EB2890302000970043
:1001E0004B30980021008C1022008C102300BA01A3
:1001F0003A08283C031C06290E303A0784002030B8
:1002000085000318850A8001BA0AF8288831200081
:10021000D5282300BC01BF013F083A078400003005
:100220003B3D85008008031950293F083A07F80034
:1002300000303B3DFA007808C3007A08C4003F084C
:100240003A07840000303B3D85000008C500603C53
:100250000318312945087A3C031C31294508DF3948
:1002600032294508C5004408850043088400450834
:1002700080003F083A07840000303B3D85000008BD
:100280002C3C031D4E29BC0A3C0B48293F08BD00ED
:100290003C08023C031D4E293F08BE00BF0A0C2942
:1002A0003C08003A200003195C29013A0319862909
:1002B000033A0319E629782A2300C0014008073CC5
:1002C000031C7D2960304007F8002030FA00031835
:1002D000FA0A7808C3007A08C40040083A07840084
:1002E00000303B3D85000008C500440885004308F8
:1002F000840045088000C00A5E2960304007840001
:10030000203085000318850A80017E2A2300C10160
:1003100041083A07840000303B3D850080080319FE
:10032000DB293D0841020318AE2960304107F8007F
:100330002030FA000318FA0A7808C3007A08C400CB
:1003400041083A07840000303B3D85000008C500A5
:100350004408850043088400450880003D084102A8
:10036000031DBA296030410784002030850003183E
:10037000850A800141083D020318D92901303D0753
:1003800041026E3EF8002030FA000318FA0A78089D
:10039000C3007A08C40041083A07840000303B3D9E
:1003A00085000008C500440885004308840045080E
:1003B0008000C10A882901303D0741026E3E840059
:1003C000203085000318850A80017E2A2300C2019F
:1003D00042083A07840000303B3D8500800803193D
:1003E0006C2A3D08420203180E2A60304207F800CA
:1003F0002030FA000318FA0A7808C3007A08C4000B
:1004000042083A07840000303B3D85000008C500E3
:100410004408850043088400450880003D084202E6
:10042000031D1A2A6030420784002030850003181B
:10043000850A800142083D0203183D2A3E08420217
:1004400003183D2A01303D074202683EF800203083
:10045000FA000318FA0A7808C3007A08C4004208B0
:100460003A07840000303B3D85000008C500440881
:10047000850043088400450880003E084202031DB1
:100480004B2A01303D074202683E8400203085003F
:100490000318850A800142083E0203186A2A0130C7
:1004A0003E0742026E3EF8002030FA000318FA0AB6
:1004B0007808C3007A08C40042083A078400003074
:1004C0003B3D85000008C5004408850043088400C2
:1004D00045088000C20AE82901303E0742026E3E0C
:1004E0008400203085000318850A80017E2A2000C0
:1004F0000230D7000030F800812A23000130F800D4
:10050000200088313A2923004108FA00400884007D
:100510007A0885000008C4004308FA0042088400F5
:100520007A08850000084402031DAC2A4108FA003D
:10053000400884007A0885008008031DA22A003044
:10054000F800C22A4108FA004008C00A0319C10A8B
:10055000C20A0319C30A842A4108FA004008840029
:10056000410885000008C4004308FA0042088400DE
:1005700043088500000844020318C02AFF30C12A3E
:100580000130F800200008002300BC013C080E3CAC
:10059000031CF02A3C0DF700F70DF70DF830F705B6
:1005A00077088B3EF8002030FA000318FA0A780822
:1005B000BE007A08BF003B08C1003A08C0003F08EF
:1005C000C3003E08C20020008322F808031DED2A64
:1005D00023003C08F800F22A20002300BC0AC62AA7
:1005E0000030F800883120004829230034088500B5
:1005F0003308840050081A008001B30A0319B40AB2
:1006000020000800230050080319732BDC00540855
:100610000319732BDC070318142B7F30DC02031C37
:10062000732B0319732B182B8130DC070318732BE2
:100630005C08F700F801F901FA015108E000E01741
:100640005208DF005308DE001830DC00DD015E1CBC
:10065000412B5708FA07031C332BF90A031D332BD0
:10066000F80A0319DD175608F907031C3A2BF80A94
:100670000319DD175508D200D2175208F8070318DE
:10068000DD17DD0DF80CF90CFA0CE00CDF0CDE0CBC
:100690000310DC0B262B0130F7070318732BF81B14
:1006A000582BE00DFA0DF90DF80DF7030319732B14
:1006B000E01F692BFA0A031D692BF90A031D692B38
:1006C000F80A031D692BF80CF90CFA0CF70A031948
:1006D000732B5108DD005508DD06DD1F712BF8175F
:1006E000772BF813772BF701F801F901FA012000B5
:1006F000080083187F2B213085002C308400F701FF
:10070000F801F901FA012300DC01DD01DE01DF015E
:1007100057085604550454040319BE2B2030E0003A
:100720000310D00DD10DD20DD30DDC0DDD0DDE0D7E
:10073000DF0D57085F02031DA72B56085E02031D3D
:10074000A72B55085D02031DA72B54085C02031C50
:10075000B82B5408DC025508031C550FDD0256085F
:10076000031C560FDE025708031C570FDF02031449
:10077000F70DF80DF90DFA0DE00B902B5C088000D9
:100780005D08813F5E08823F5F08833F20000800CC
:1007900004082300C8004408CA000319EA2B4308D0
:1007A000D3004208D2004108D1004008D000D70150
:1007B000D6012030D5008230D400200002237A08F0
:1007C0002300C3007908C2007808C1007708C00080
:1007D000CA0BCF2B4308D3004208D2004108D100F6
:1007E0004008D0005008B63CD000FA015108D400AF
:1007F000D1170310D10CD20CD30CFA0CF90CF80C55
:10080000F70CD00BF92BD41F102CF709F809F909B4
:10081000FA09F70A0319F80A0319F90A0319FA0A77
:100820007A08C3007908C2007808C1007708C000C0
:10083000C31F272CC803C816C009C109C209C309B0
:10084000C00A0319C10A0319C20A0319C30A3B30BB
:10085000CF009A30CE00CA30CD00CC010A30CA0099
:1008600044080319C80A831421308500103084001D
:100870004308D3004208D2004108D1004008D0000C
:100880004F08D7004E08D6004D08D5004C08D400BC
:10089000200079237808F708031D652C2300440AFB
:1008A0004A02031D552C2000652C48080319682CAA
:1008B0000F394A0203195E2C0318A02CC81BA02C68
:1008C000481B682C20309A2C200020302300C805BB
:1008D000C81E782CC8124408031DC8037708C80036
:1008E0002D30D0002000F52223004808F700C80171
:1008F00044084A02031D882C7708C8002E30D00017
:100900002000F52223004808F7002030C8050030F9
:100910003030C81E9A2CC8124408031DC80377083B
:10092000C8002D30D0002000F52223004808F70031
:10093000C8013030F7077708D0002000F5222300E7
:1009400083104F08D3004E08D2004D08D1004C0848
:10095000D000D701D601D5010A30D4002000792378
:100960007A082300CF007908CE007808CD007708F8
:10097000CC00CA0B332C2000080024001D139E1548
:100980009E19C02C77189E12771C9E161E161E1AD2
:10099000C72C1908F80020000800213085000B3012
:1009A000840000080319E22C0530F800F701F70B6A
:1009B000D72CF80BD62C2E30F700F70BDD2CE02CC3
:1009C000800BD42C080023004508F80144020318CA
:1009D000EC2C4408F700F82CF7010830C600C40DD1
:1009E000F70D450877020318F700F80DC60BEF2C3A
:1009F0002000080023003A08F43E0318B42F0C3EF0
:100A00002000B72F2300B42F2300B42F0130D700CC
:100A100020302300B4003830B3009E303100910004
:100A200000309200031007302300BB000B088B132B
:100A300031001513151400000000891B8B170318D3
:100A4000492D13087F392300BD0031001108230010
:100A5000BE00310012082300BF003D08D000200076
:100A6000F52223003E083100910023003F083100A9
:100A700092000B088B131513151400000000891B3E
:100A80008B172300BB0B452D472D3100492D692DB8
:100A90003100130D140D7F392300BD003100110802
:100AA0002300BE00310012082300BF003D08D00023
:100AB0002000F52223003E083100910023003F086A
:100AC00031009200910A0319920A03102300BB0B14
:100AD000162D89308400C301C201C1017F30C000DE
:100AE0000230C4002000C8232300B42F203023008C
:100AF000C1006030C0002030C3000E30C2002000B2
:100B00008322F808031DA72E2100B80803198A2D97
:100B10002000A72EBE0803198F2D2000A72E23002A
:100B2000BC013C08C8008030CD0024001E141E18F3
:100B3000972D03102300480DD0380138CE00CF0088
:100B40002000A4200130F700BD2478082300CB004A
:100B50000130F7002000BD2478082300CA000130CE
:100B6000F7002000BD2478082300C9000130F700F9
:100B70002000BD2478082300CD00CD1FF22D0130C8
:100B8000F7002000BD2478082300CD00CD1BBF2D29
:100B9000F7012000BD2478082300CD0024001E1595
:100BA0001E19D02D1E141E18D32D03102300480D1E
:100BB000D0380138CE00CF002000A4200130F7004B
:100BC000BD2478082300CB000130F7002000BD24AD
:100BD00078082300CA000130F7002000BD247808FF
:100BE0002300C900F7012000BD2478082300CD00B0
:100BF00024001E151E19FA2D2300CB1C022EFF30D7
:100C0000CC00032ECC014908F7004A08F8004B0835
:100C1000F9004C08FA007A08C0007908BF0078088B
:100C2000BE007708BD004008CB003F08CA003E0860
:100C3000C9003D08C800B630F700FA01F901F80113
:100C40004C10CB1F312E4C14C809C909CA09CB0955
:100C5000C80A031D312EC90A031D312ECA0A031901
:100C6000CB0A480849044A044B04031D392EF701F6
:100C7000482E0310F81B452EC80DC90DCA0DCB0D0B
:100C8000FA0DF90DF80DF70B392EF8134C18F8176B
:100C90007A08CB007908CA007808C9007708C8002C
:100CA0004B08D3004A08D2004908D1004808D000B8
:100CB0006F30D7001230D6000330D5006F30D4002B
:100CC000200002237A082300C4007908C3007808B2
:100CD000C2007708C1004108F7004208F800430845
:100CE000F9004408FA007A08BF007908BE007808C5
:100CF000BD007708BC003F08D3003E08D2003D0885
:100D0000D1003C08D000D701D6017A30D500883018
:100D1000D400200002237A082300BF007908BE0017
:100D20007808BD007708BC002030B4003730B3002D
:100D3000893084003F08C3003E08C2003D08C1005E
:100D40003C08C0000230C4002000C823A92E023095
:100D5000D7002300B42F20302300C1006030C00032
:100D60002030C3000E30C20020008322F808031D8B
:100D7000DD2E2100B8080319BF2E2000DD2EBE088D
:100D80000319C42E2000DD2E01302000D700AE0153
:100D9000AE08031DDC2E023022008C0664302300D6
:100DA000BB002000CD24023022008C0664302300DA
:100DB000BB002000CD24C82EDF2E0230D700230038
:100DC000B42F2100B808031DAA2FBE080319AA2FAB
:100DD00020302300BC006E30BB003C08BE003B0846
:100DE000BD003E08FA003D0884007A0885008008AE
:100DF0000319FE2EBD0A0319BE0AF12E3B083D025F
:100E0000F7003C083E3BFA007708F800780BA52F66
:100E100021003E08313A20000319152F013A031929
:100E20001B2F0F3A0319212FA12F22008C14013000
:100E30002000D700A32F22008C1001302000D70003
:100E4000A32F0130D70000308C1801302300BB00E5
:100E50002030B4003830B3004C30D0002000F522F0
:100E60002C302300D0002000F5223F302300D0009A
:100E70002000F52223003B08BC001830BD002030C4
:100E80003D1E3030C0003C08F700BC1F4F2FF70953
:100E9000F70A7708BC002D30C000BD173D143C0890
:100EA000C4006430C5002000E32477082300BC00A0
:100EB00030307807C1003C08C4000A30C50020006B
:100EC000E324303077072300C30030307807C200B6
:100ED0004008F700303041020319722FBD14BD1BCA
:100EE0003D15862F4008C1002030C000303042023E
:100EF00003197E2F3D14BD1BBD14862F031D3D1409
:100F0000031D862F4108C2002030C1003D198D2FDE
:100F1000BD18922F3D18972F9C2F4008D00020001D
:100F2000F52223004108D0002000F52223004208CA
:100F3000D0002000F52223004308D0002000F52235
:100F4000A32F0230D700A82F230002302000D700A3
:100F5000AD2F210002302000D7002300B42F023033
:100F6000D7002300B42F23008831200051290A1410
:100F70008A140A158207AF2F022D042DB32FB32F29
:0E0F8000AB2E062DB32FB32FE12EB32F762DFF
:1010000055303C008F00AA308F000F1014309D0027
:1010100015309E001030A0001130A10018303D00A6
:10102000A0001930A1001A30A4001B30A5005530D3
:101030003C008F00AA308F000F1432009E019B01EC
:101040009D0106309F006030990070100330F3005E
:101050002300B401B3018C018E01220092019101A1
:1010600094019301B8280234003428340034003449
:101070002B344034B034003403348034453452349B
:1010800052340534C03400340434803442344134A2
:10109000553444340434C03400340534803443348B
:1010A00041344C34003400341734013420340034DB
:1010B000003400344534583450344F3452345434AE
:1010C0000034003446344134433454344F345234C1
:1010D00059340034463449344E3444340434C03432
:1010E00000340134803449340734C03400340334CC
:1010F00080344934323443340534C0340034093444
:10110000803449344D3450344F34523454340034E4
:1011100000344C340734C034003409348034503443
:101120004C344F3443344B340034003400345234A4
:101130000734C03400340534803453344C344534DF
:101140004534503412340134A034003400340034B7
:1011500053344C344F34503445340034003400346C
:1011600053345434413454345534533400340034FB
:10117000083085003330840085171200F700003AEC
:101180000319D2281200F800F81BCA280F3987006B
:1011900012008600781B1200781F12001E00F70B49
:1011A000CC28BD2880312000B92888312300351093
:1011B0002000AE0803196329701CFC28171EE128C3
:1011C000960195011508F700171A1608FA00171E60
:1011D000FA0177082300BA007A08BB00BB08031D98
:1011E000F8283A083B3C031CF8282000E22823009A
:1011F00035142000D60170102300351C62293510EB
:10120000B6013608283C031C3329373036078400E2
:10121000203085000318850A80013608073C031C2E
:101220001929603036078400203085000318850AAC
:1012300080013608053C031C2529683036078400E8
:10124000203085000318850A800136081C3C031CE9
:1012500031296E3036078400203085000318850A56
:101260008001B60A01292030BB000E30BA0080315F
:101270002000092988312300B5107818B514B51C51
:1012800053292030BB006030BA0080312000C42ACE
:10129000883178082300B7003708BA008031200071
:1012A000FA2C88312300B8013808283C031C622935
:1012B0000E3038078400203085000318850A80012D
:0A12C000B80A54292000D928630061
:020000040001F9
:08000E00EC3FF13FFC1FFC3F39
:00000001FF
;PIC16F18326
;CRC=4DF6  CREATED="19-jun-19 17:16"
