:060000009031202B0000EE
:0800080083018031200077081C
:10001000A0007808A1007908A2007A08A3003100A6
:1000200011082000A400310012082000A5003100B2
:1000300013082000A600310014082000A700850145
:1000400091308400801D262891193F282008F70050
:100050002108F8002208F9002308FA0024083100DA
:100060009100200025083100920020002608310070
:1000700093002000270831009400090020008031FF
:1000800041282400941A4728FB011419FB177B0808
:10009000FB0AA800A808031D5E281513141C4E288F
:1000A00011081516F201F0185B287014FE302000BC
:1000B000D7005D2824002000D70124002808803CB8
:1000C000031D6528F101F019F01128087F3C031881
:1000D00085287108283C031C842837307107840068
:1000E000203085000318850A0008AA002A08AB0002
:1000F0002B089100151620009111240014187E2859
:10010000F801161FF80AF10A9A28A80803199A2874
:100110007208283C031C9A280E3072078400203095
:1001200085000318850A1513141C94281108151648
:100130008000F20A2000911180312628BF34AC27BC
:100140005228AC122E196600BF29F430F43A731607
:10015000A531AC122E196600BF29F430F43A73169B
:10016000A531AC122E196600BF29F430F43A73168B
:10017000A531AC122E196600BF29F430F43A73167B
:10018000A531AC122E196600BF29F430F43A73166B
:10019000A531AC122E196600BF29F430F43A73165B
:1001A000A531AC122E196600BF216136AC12640075
:1001B00032001117111512141317931613159314F7
:1001C00094171417941614169415141594141414E3
:1001D00016169615161596141614200008002400FD
:1001E0009D132000921123006B0824009900023017
:1001F0009D1B01292000921DFB28003024001E1B9E
:100200000130F800200008001930210097009115F6
:10021000C0308B040E148E14240017109710971101
:10022000C4309200363095001614961721000E1631
:100230008E1624001F109F109F1113309A00283033
:100240009D009C131C1301302300C00024001E14C9
:100250001E18282903102300400DD038C100EB00E0
:100260002000EF201C302300EB002000EF202400B2
:100270001E151E19392922009717971417102100EF
:100280001E169E161E139E171D141E109E101E1164
:10029000043023008C0000308E000830F80021006C
:1002A0001D08033978049D001E149E141E11903001
:1002B000200097004C30980021008C1023008C10F7
:1002C00024008C1025008C1426008C1027008C1024
:1002D00021000E118E1123000E118E1124000E111B
:1002E0008E1125000E158E1526000E118E11270079
:1002F0000E118E1164302300C0000230C002031CB6
:100300008E292130850010308400000803198E29C1
:100310008C298A298B290000800B89290130310022
:100320009100703092001517151413081513F4007E
:10033000F4080319A12922008C140E118E11A5298D
:10034000310022008C140E158E150A3031009100F8
:100350007030920015171514130815132300B300FD
:100360000B303100910070309200151715141308EE
:1003700015132300B4000C3031009100703092004E
:1003800015171514130815132300B5000D3031008F
:1003900091007030920015171514130815132300DF
:1003A000B600310091017030920015171514130832
:1003B0001513F300033091007030920015171514D7
:1003C00013081513F5007508003C0318F229750889
:1003D0007F3C031CF2290310750D2300C00024008C
:1003E000920031002300BF013F08283C031C022A71
:1003F0000E303F078400203085000318850A8001F5
:10040000BF0AF429803120000D2A32001113111186
:100410001210131393122000042908002300C001B6
:10042000C30143083E07840000303F3D850080083B
:100430000319742A43083E07F80000303F3DFA00D4
:100440007808C9007A08CA0043083E0784000030D3
:100450003F3D85000008CB00603C0318362A4B085E
:100460007A3C031C362A4B08DF39372A4B08CB006D
:100470004A088500490884004B08800043083E076D
:10048000840000303F3D85000008C9003F30310046
:100490009200FF309100213085001A308400013035
:1004A0002300CC004C08F70003103100151315147D
:1004B00000000000130880000131910A0319920A1C
:1004C000F70B572A23004A084902031D722AC00A63
:1004D000400B6C2A4308C1004008023C031D722AED
:1004E0004308C200C30A112A4008003A2000031939
:1004F000802A013A0319AA2A033A03190A2B9C2BD2
:100500002300C4014408073C031CA12A60304407AF
:10051000F8002030FA000318FA0A7808C9007A08AF
:10052000CA0044083E07840000303F3D85000008B3
:10053000CB004A088500490884004B088000C40AA3
:10054000822A603044078400203085000318850A21
:100550008001A22B2300C50145083E07840000301E
:100560003F3D850080080319FF2A41084502031812
:10057000D22A60304507F8002030FA000318FA0A42
:100580007808C9007A08CA0045083E078400003090
:100590003F3D85000008CB004A08850049088400DB
:1005A0004B08800041084502031DDE2A60304507E4
:1005B0008400203085000318850A80014508410227
:1005C0000318FD2A0130410745026E3EF800203035
:1005D000FA000318FA0A7808C9007A08CA00450820
:1005E0003E07840000303F3D85000008CB004A08EC
:1005F0008500490884004B088000C50AAC2A0130F8
:10060000410745026E3E8400203085000318850AAC
:100610008001A22B2300C60146083E07840000305B
:100620003F3D850080080319902B410846020318BE
:10063000322B60304607F8002030FA000318FA0A1F
:100640007808C9007A08CA0046083E0784000030CE
:100650003F3D85000008CB004A088500490884001A
:100660004B08800041084602031D3E2B60304607C0
:100670008400203085000318850A80014608410265
:100680000318612B420846020318612B0130410711
:100690004602683EF8002030FA000318FA0A78088B
:1006A000C9007A08CA0046083E07840000303F3D72
:1006B00085000008CB004A088500490884004B08E3
:1006C000800042084602031D6F2B0130410746029D
:1006D000683E8400203085000318850A80014608A2
:1006E000420203188E2B0130420746026E3EF8008C
:1006F0002030FA000318FA0A7808C9007A08CA00FC
:1007000046083E07840000303F3D85000008CB00CE
:100710004A088500490884004B088000C60A0C2B53
:100720000130420746026E3E8400203085000318E7
:10073000850A8001A22B20000230D7000030F8008B
:10074000A52B23000130F80020009031752C2300E8
:100750004D08FA004C0884007A0885000008D00093
:100760004F08FA004E0884007A08850000085002FD
:10077000031DD02B4D08FA004C0884007A08850030
:100780008008031DC62B0030F800E62B4D08FA0048
:100790004C08CC0A0319CD0ACE0A0319CF0AA82B9C
:1007A0004D08FA004C0884004D0885000008D00070
:1007B0004F08FA004E0884004F08850000085002D8
:1007C0000318E42BFF30E52B0130F800200008006F
:1007D00023005208D4005108D3005408FA005308EB
:1007E00084007A08850080080319FA2BD30A0319BC
:1007F000D40AED2B51085302F7005208543BFA007B
:100800007708F800200008002300CE01CF01D001B6
:1008100050084C07840000304D3D850080080319C6
:10082000AF2CD008031D3B2C4C0884004D088500DC
:1008300000310008D10051082F3C0318232C510827
:10084000393C03182C2C4C0884004D0885000031DD
:1008500000082D3C031D372C4C0884004D088500F2
:10086000003100082D3C0319CF0AAD2C3A2C003082
:10087000F800B12CAD2C50084C07840000304D3DE1
:1008800085000008D10051082F3C03184B2C51085B
:10089000393C03184D2C00304E2C0130013C03191B
:1008A000652C50084C07840000304D3D8500000841
:1008B0002E3C0319652C50084C07840000304D3D38
:1008C000850000082D3C031DAA2C50084C0784000D
:1008D00000304D3D850000082E3C031D772CCE0ACC
:1008E0004E08013C0318772C0030F800B12C50085A
:1008F0004C07840000304D3D850000082D3C031D51
:10090000842C0030F800B12C4D08D2004C08D100E6
:100910002000E8230130780223004C0784000030D7
:100920004D3D850000082E3C031D992C0030F80039
:10093000B12C50084C07840000304D3D8500000864
:10094000D10051082F3C0318A92C5108393C031839
:10095000AD2CAD2C0030F800B12CD00A082C0130A1
:10096000F80088312000A629230068080319492DC2
:100970002400A00023006C080319492D2400A007BF
:100980000318CD2C7F30A0020318C82C2300492D5A
:10099000031DCC2C2300492DD32C8130A007031C30
:1009A000D32C2300492D2008F700F801F901FA01A2
:1009B000230069082400A400A41723006A08240067
:1009C000A30023006B082400A2001830A000A1019E
:1009D000221C0D2D23006F08FA07031CF82CF90ABE
:1009E000031DF82CF80A031DF82C2400A11723007E
:1009F0006E08F907031C022DF80A031D022D2400BE
:100A0000A11723006D08EA00EA176A08F807031C1B
:100A10000C2D2400A11723002400A10DF80CF90CC3
:100A2000FA0CA40CA30CA20C0310A00BE72C0130B1
:100A3000F707031C1D2D2300492DF81B272DA40D9E
:100A4000FA0DF90DF80DF70B272D2300492DA41FE2
:100A50003A2DFA0A031D3A2DF90A031D3A2DF80A18
:100A6000031D3A2DF80CF90CFA0CF70A031D3A2D68
:100A70002300492D230069082400A10023006D08EC
:100A80002400A106A11F462DF8174E2DF8134E2D58
:100A90002300F701F801F901FA0124002000080001
:100AA0008E30F70023006108F8006008F900FA01B1
:100AB000F808031D652D7908F800F9010830F702E0
:100AC000F808031D652DF7016D2D0310F81B6C2D23
:100AD000F90DF80DF703652DF81320000800230029
:100AE00060080319352EEE0064080319352EEE0256
:100AF000031C7F2D7F30EE070318352E852D8130A6
:100B0000EE02031C352E0319352E6E08F700F8018E
:100B1000F901FA01ED016108EC00EC176208EB0045
:100B20006308EA001930EE006708EA020318A82DEE
:100B30000130EB020318A82DEC020318A82DED02DA
:100B40000318A82DED0AEC0AEB0A6708EA07DA2D6C
:100B50006608EB020318C32D0130EC020318C32D05
:100B6000ED020318C32DED0AEC0A6608EB076708CF
:100B7000EA07031CDA2DEB0A031DDA2DEC0A031D2C
:100B8000DA2DED0ADA2D65088038EC020318D92D2C
:100B90000130ED020318D92DED0A65088038EC0705
:100BA0006608EB07031CB72DEC0A031DB72DED0AF1
:100BB000B72D7A14EE0BDD2DE82D0310EA0DEB0DA9
:100BC000EC0DED0D0310FA0DF90DF80DEF0D942D50
:100BD0006F1CF02D0310F80CF90CFA0CEF0CF32D30
:100BE000F7030319352EEF1B1C2E0310EA0DEB0D36
:100BF000EC0DED0D6708EA020318082E0130EB0238
:100C00000318082EEC020318082EED02031C2B2EED
:100C10006608EB020318132E0130EC020318132EA2
:100C2000ED02031C2B2E65088038EC0203181C2EE5
:100C30000130ED02031C2B2EFA0A031D2B2EF90A9C
:100C4000031D2B2EF80A031D2B2EF70A0319352E30
:100C5000F80CF90CFA0C6108EE006508EE06EE1FC0
:100C6000332EF817392EF813392EF701F801F90150
:100C7000FA01200008008030831C412E2300E50685
:100C800020002300EA01EB016108E9006508E9069C
:100C900060080319322FE800F700640803193B2F9E
:100CA000E8020319D62E031C932E6508EE00EE17FA
:100CB0006608ED006708EC00EB010310EE0CED0C8C
:100CC000EC0CEB0CE80B5C2EE91F692E6A144F2F1D
:100CD0006A1068106A162130850033308400642F52
:100CE0006A12E91B7D2E681C882EEE0CED0CEC0CB4
:100CF000EB0CF70A03194A2F882EEE1B8B2E0310DC
:100D0000EB0DEC0DED0DEE0DF70303194A2F7D2EC3
:100D10006A17F72E6A136108E900E91F912EEE1792
:100D2000432FEE13432F6408E800F7006008E80241
:100D30006108EE00EE176208ED006308EC00EB01BD
:100D40000310EE0CED0CEC0CEB0CE80B9F2EE91FE6
:100D5000AC2EEA144F2FEA106810EA1621308500F5
:100D600037308400642FEA12E91BC02E681CCB2E9A
:100D7000EE0CED0CEC0CEB0CF70A03194A2FCB2E02
:100D8000EE1BCE2E0310EB0DEC0DED0DEE0DF7036B
:100D900003194A2FC02EEA17F72EEA136508E90057
:100DA000E91FD42EEE17432FEE13432F6508EE00F4
:100DB000EE176608ED006708EC00E91FE32EEE135E
:100DC0006A154F2F6A11EB0168102130850033300E
:100DD0008400642FE91B0D2F6108E900681CF72EC1
:100DE000EE0CED0CEC0CEB0CF70A03194A2FEB1F81
:100DF000082FEC0A031D082FED0A031D082FEE0A29
:100E0000031D082FEE0CED0CEC0CF70A03194A2F0A
:100E10006A1B8A2EEA1BCD2E2C2F8030EE06EE1F89
:100E2000152F4F2F6508E900222F6108E900EE0811
:100E3000031D222FED08031D222FEC08031D222F76
:100E4000F701432FEE1B2C2F0310EB0DEC0DED0DD6
:100E5000EE0DF70B222F4A2FE91F302FEE17432FED
:100E6000EE13432F6408F7006508EE006608ED00F6
:100E70006708EC00432F6008F7006108EE00620885
:100E8000ED006308EC006E08F8006D08F9006C08CE
:100E9000FA00802FF701F801F901FA01802FEB0128
:100EA000EC09ED09EE09EB09EB0A031D5D2FEC0AD5
:100EB000031D5D2FED0A0319EE0A6A18682EEA1861
:100EC000AB2E6A19E22E122F0008EC07031C6E2FBE
:100ED000ED0A031D6E2FEE0A031968141100ED07C9
:100EE000031C752FEE0A031968141100801F803A45
:100EF000EE07031868146A1A702EEA1AB32EEA2E47
:100F00002000080024001D139E159E19852F7718B8
:100F10009E12771C9E161E161E1A8C2F1908F8009A
:100F2000200008002300380885003708840058088E
:100F30001A008001B70A0319B80A200008000B083C
:100F40008B1331001513151400000000891B8B173B
:100F50000318D22F13087F392300CF003100110866
:100F60002300D000310012082300D1004F08D80020
:100F700020009227230050083100910023005108DF
:100F8000310092000B088B1315131514000000009C
:100F9000891B8B172300CC0BCE2FD02F3100D22FE3
:100FA000F52F3100130D140D7F392300CF003100D0
:100FB00011082300D000310012082300D1004F088F
:100FC000D800200092272300500831009100230010
:100FD000510831009200910A0319920A031023006C
:0E0FE000CC0BF32FF52F20009F2F20000800D0
:1010000080302300E90024001E141E180528031058
:101010002300640DD0380138EA00EB008031200055
:10102000EF2088310130F70080318227883178083D
:101030002300E7000130F70080312000822788314B
:1010400078082300E6000130F70080312000822775
:10105000883178082300E5000130F7008031200056
:101060008227883178082300E900E91F76280130BB
:10107000F700803120008227883178082300E900BA
:10108000E91B3728F7018031200082278831780852
:101090002300E90024001E151E194C281E141E18DA
:1010A0004F2803102300640DD0380138EA00EB000C
:1010B00080312000EF2088310130F7008031822715
:1010C000883178082300E7000130F70080312000E4
:1010D0008227883178082300E6000130F70080314C
:1010E00020008227883178082300E500F70180314D
:1010F00020008227883178082300E90024001E158B
:101100001E1980282300E71C8828FF30E800892862
:10111000E8016508F7006608F8006708F900680844
:10112000FA0088312000992823005808E4002000A4
:1011300000287A082300DC007908DB007808DA0050
:101140007708D9005C08E7005B08E6005A08E5006C
:101150005908E400B630F700FA01F901F801681007
:10116000E71FC0286814E409E509E609E709E40A6D
:10117000031DC028E50A031DC028E60A0319E70A73
:101180006408650466046704031DC828F701D728AE
:101190000310F81BD428E40DE50DE60DE70DFA0D5C
:1011A000F90DF80DF70BC828F8136818F8177A0826
:1011B000E7007908E6007808E5007708E4006708AA
:1011C000EB006608EA006508E9006408E8006F3093
:1011D000EF001230EE000330ED006F30EC00803194
:1011E0002000B42488317A082300E0007908DF0069
:1011F0007808DE007708DD005D08F7005E08F8007B
:101200005F08F9006008FA00200008002300550874
:10121000F801540203180F295408F7001B29F7019D
:101220000830D600D40DF70D550877020318F700E3
:10123000F80DD60B122920000800203023004D1E87
:101240003030D0004C08F700CC1F2E29F709F70AE0
:101250007708CC002D30D000CD174D144C08D400A9
:101260006430D5002000062177082300CC00303000
:101270007807D1004C08D4000A30D50020000621A0
:10128000303077072300D30030307807D200500881
:10129000F7003030510203195129CD14CD1B4D15E3
:1012A00065295008D1002030D00030305202031997
:1012B0005D294D14CD1BCD146529031D4D14031D4F
:1012C00065295108D2002030D1004D196C29CD1864
:1012D00073294D187A2981295008D80080312000BF
:1012E0009227883123005108D800803120009227AE
:1012F000883123005208D80080312000922788319D
:1013000023005308D800803120009227883108003C
:1013100043302300BF004C30C0004530C100413095
:10132000C2005230C300C4013F30C500C6012100D5
:10133000B808031DAC2CBE080319AC2C20302300C8
:10134000CD006E30CC0080312000042C8831F808AC
:101350000319EC2B20302300CD006E30CC00CF01E0
:10136000CE01D301D201D1017F30D000D701D60107
:10137000D501D4015814D8105811DA014C084D0485
:10138000031DC729F701F801F901FA01EC2A5A08EF
:10139000DA0A4C07840000304D3D85000008D90072
:1013A000D9080319AC2A581CE7295908203C03190D
:1013B000E729581059082B3C031DE129D810A22A0F
:1013C000E72959082D3C031DE729D814A22A5818EB
:1013D000F12959082E3C031DF1295819F1295815F6
:1013E000A22A5818A02A59082F3C0318A02A5908E5
:1013F000393C031CA02A3030D902581D5E2A5308FC
:10140000EB005208EA005108E9005008E800EF013B
:10141000EE012030ED008230EC0080312000B42459
:1014200088317A082300D3007908D2007808D100E7
:101430007708D000E1015908E000803120005025F4
:1014400088317A082300DF007908DE007808DD00A3
:101450007708DC005F08E3005E08E2005D08E10059
:101460005C08E0005308E7005208E6005108E50078
:101470005008E400803120006F258831831023005C
:101480005708E3005608E2005508E1005408E00060
:101490007A08E7007908E6007808E5007708E400B4
:1014A000803120003B2688317A082300D700790854
:1014B000D6007808D5007708D4009F2AEB01EA010E
:1014C0002030E9008230E8005708EF005608EE00AF
:1014D0005508ED005408EC0080312000B424883118
:1014E0007A082300DF007908DE007808DD0077083D
:1014F000DC00E1015908E0008031200050258831EE
:10150000831023005F08E3005E08E2005D08E1004D
:101510005C08E0007A08E7007908E6007808E50052
:101520007708E400803120003B2688317A082300C8
:10153000D7007908D6007808D5007708D400A22A09
:10154000581CAC2A5A08DA0A4C07840000304D3D7A
:1015500085000008D900D029D81CC92AEB01EA016E
:101560008030E9007F30E8005708EF005608EE00B1
:101570005508ED005408EC0080312000B424883177
:101580007A082300D7007908D6007808D5007708B4
:10159000D4004E084F040319E42ADA080319DC2AA0
:1015A000DA034E0884004F0885005A084C07800073
:1015B00000304D3D813FE42A4E0884004F088500ED
:1015C0004C0880004D08813F5408F7005508F8008A
:1015D0005608F9005708FA007A08CF007908CE00BB
:1015E0007808CD007708CC000130D8002000942086
:1015F0007A082300DB007908DA007808D900770838
:10160000D8005B08EB005A08EA005908E9005808BE
:10161000E800EF01EE017A30ED008830EC00803117
:101620002000B42488317A082300DB007908DA002E
:101630007808D9007708D8000508DD000408DC0028
:1016400083145B08E3005A08E2005908E1005808D7
:10165000E0000A30E700D730E6008330E5007F3055
:10166000E400803120003B26883123005D0885009E
:101670005C0884007A08D3007908D2007808D10089
:101680007708D0005008F7005108F8005208F90018
:101690005308FA000508D1000408D00083144F084D
:1016A000E3004E08E2004D08E1004C08E0007A0833
:1016B000E7007908E6007808E5007708E400803163
:1016C00020003B2688312300510885005008840003
:1016D0007A08B6007908B5007808B4007708B30036
:1016E0000B08F7008B130A30310091007030920024
:1016F0002300330831009300151715155530960057
:10170000AA30960095149518832B15111513770898
:101710008B040B08F7008B130B3091007030920094
:101720002300340831009300151715155530960025
:10173000AA309600951495189B2B15111513770850
:101740008B040B08F7008B130C3091007030920063
:1017500023003508310093001517151555309600F4
:10176000AA30960095149518B32B15111513770808
:101770008B040B08F7008B130D3091007030920032
:1017800023003608310093001517151555309600C3
:10179000AA30960095149518CB2B151115137708C0
:1017A0008B040130F3000B08F7008B1391017030AC
:1017B0009200730893001517151555309600AA303E
:1017C000960095149518E22B1511151377088B04C4
:1017D00001302000D700AA2C20302300CD006E302D
:1017E000CC002130CF000F30CE0080312000A72365
:1017F0008831F808031D7C2C2300B601B501B40123
:10180000B3010B08F7008B130A30310091007030E0
:101810009200230033083100930015171515553039
:101820009600AA30960095149518142C15111513CE
:1018300077088B040B08F7008B130B309100703086
:101840009200230034083100930015171515553008
:101850009600AA309600951495182C2C1511151386
:1018600077088B040B08F7008B130C309100703055
:1018700092002300350831009300151715155530D7
:101880009600AA30960095149518442C151115133E
:1018900077088B040B08F7008B130D309100703024
:1018A00092002300360831009300151715155530A6
:1018B0009600AA309600951495185C2C15111513F6
:1018C00077088B04F3010B08F7008B13910170303C
:1018D0009200730893001517151555309600AA301D
:1018E000960095149518722C1511151377088B0412
:1018F00001302000D700AA2C20302300CD006E300C
:10190000CC002130CF001530CE0080312000A7233D
:101910008831F808031DA82C0130D700203023009F
:10192000B8003830B700D430310091000030920058
:10193000031005302300CC00803120009F27883120
:1019400073082300CC001830CD0020001D21AA2CE4
:101950000230D700AF2C210002302000D700903198
:10196000462E20302300CD006030CC002030CF0048
:101970000E30CE0080312000A7238831F808031DE7
:10198000682D2100B8080319C72C2000682DBE0857
:101990000319CC2C2000682D2300B601B501B40139
:1019A000B3010B08F7008B130A303100910070303F
:1019B0009200230033083100930015171515553098
:1019C0009600AA30960095149518E42C151115135D
:1019D00077088B040B08F7008B130B3091007030E5
:1019E0009200230034083100930015171515553067
:1019F0009600AA30960095149518FC2C1511151315
:101A000077088B040B08F7008B130C3091007030B3
:101A10009200230035083100930015171515553035
:101A20009600AA30960095149518142D15111513CB
:101A300077088B040B08F7008B130D309100703082
:101A40009200230036083100930015171515553004
:101A50009600AA309600951495182C2D1511151383
:101A600077088B04F3010B08F7008B13910170309A
:101A70009200730893001517151555309600AA307B
:101A8000960095149518422D1511151377088B049F
:101A900022008C140E118E110130F4000B08F70097
:101AA0008B13013031009100703092007408930064
:101AB0001517151555309600AA30960095149518EF
:101AC0005F2D1511151377088B0401006B2D200075
:101AD0000230D700310090312000462E8318742D3B
:101AE0002130850031308400F701F801F901FA0155
:101AF0002300E101E201E301E4015F085E045D040B
:101B00005C040319B32D2030E5000310D80DD90D66
:101B1000DA0DDB0DE10DE20DE30DE40D5F0864026B
:101B2000031D9C2D5E086302031D9C2D5D0862024F
:101B3000031D9C2D5C086102031CAD2D5C08E102B5
:101B40005D08031C5D0FE2025E08031C5E0FE302EA
:101B50005F08031C5F0FE4020314F70DF80DF90D85
:101B6000FA0DE50B852D610880006208813F63084E
:101B7000823F6408833F2000080004082300D0004F
:101B80004A08D2000319E12D4908EB004808EA0091
:101B90004708E9004608E800EF01EE012030ED00BB
:101BA0008230EC0080312000B42488317A08230090
:101BB000C9007908C8007808C7007708C600D20BAA
:101BC000C42D4908DB004808DA004708D900460858
:101BD000D8005808B63CD800FA015908DC00D917DB
:101BE0000310D90CDA0CDB0CFA0CF90CF80CF70C1E
:101BF000D80BF02DDC1F072EF709F809F909FA09AF
:101C0000F70A0319F80A0319F90A0319FA0A7A08F4
:101C1000C9007908C8007808C7007708C600C91F3E
:101C20001E2ED003D016C609C709C809C909C60A9D
:101C30000319C70A0319C80A0319C90A3B30D70098
:101C40009A30D600CA30D500D4010A30D2004A08F2
:101C50000319D00A83142130850016308400490806
:101C6000DB004808DA004708D9004608D8005708C2
:101C7000DF005608DE005508DD005408DC002000B7
:101C80006E257808F708031D5C2E23004A0A5202CD
:101C9000031D4C2E20005C2E500803195F2E0F39B7
:101CA00052020319552E03189F2ED01B9F2E501B36
:101CB0005F2E2030972E200020302300D005D01E2C
:101CC000712ED0124A08031DD0037708D0002D30A2
:101CD000D800803120009227883123005008F70077
:101CE000D0014A085202031D832E7708D0002E30FF
:101CF000D800803120009227883123005008F70057
:101D00002030D00500303030D01E972ED0124A0837
:101D1000031DD0037708D0002D30D800803120007B
:101D20009227883123005008F700D0013030F707A0
:101D30007708D80080312000922788312300831053
:101D40005708DB005608DA005508D9005408D800B7
:101D5000DF01DE01DD010A30DC0020006E257A089B
:101D60002300D7007908D6007808D5007708D4007A
:101D7000D20B2A2E20000800213085000F3084006D
:101D800000080319D02E0A30F800F701F70BC62E11
:101D9000F80BC52E5F30F700F70BCC2E800BC32E4F
:101DA00008002100B808031D5F2FBE0803195F2F2C
:101DB00020302300D2006E30D10080312000E82393
:101DC0008831780B5A2F21003E08313A2000031940
:101DD000F02E013A0319102F0F3A0319302F552F07
:101DE00022008C140E118E1101302000D700F40057
:101DF0000B08F7008B130130310091007030920016
:101E0000740893001517151555309600AA309600E2
:101E100095149518092F1511151377088B04582F51
:101E200022008C140E158E1501302000D700F4010D
:101E30000B08F7008B1301303100910070309200D5
:101E4000740893001517151555309600AA309600A2
:101E500095149518292F1511151377088B04582FF1
:101E60000130D70020302300B8003830B7004C30A4
:101E7000D80080312000922788312C302300D800F0
:101E800080312000922788313F302300D8008031F4
:101E900020009227883174082300CC001830CD0030
:101EA00020001D213100582F20000230D7003100C2
:101EB0005D2F20000230D7003100632F2100023057
:0C1EC0002000D700310090312000462E99
:102000002100B808031D6329BE08031963292300B2
:10201000BF016E303F078400203085000318850A19
:102020008008031931286E303F0784002030850076
:102030000318850A0008C00040082F3C0318242814
:102040004008393C03182628003027280130003A80
:10205000031D2F2802302000D70066292300BF0A65
:1020600009282030C1006E30C000C501C3010A300C
:10207000C400C20140084104031D41280030F8009B
:1020800034294508C50A400784000030413D8500D9
:102090000008C60046082D3C031D5A280130C30025
:1020A0004508C50A400784000030413D850000080E
:1020B000C600672846082B3C031D67284508C50A4B
:1020C000400784000030413D85000008C6004608F6
:1020D0002F3C03182A294608393C031C2A294608A4
:1020E000303C031D93284508400784000030413DE3
:1020F00085000008783C03198728450840078400BC
:102100000030413D85000008583C031D93281030E5
:10211000C400C50A4508C50A400784000030413D97
:1021200085000008C60044080A3C031DD82846085C
:102130002F3C0318D7284608393C031CD7280A30FF
:10214000C8004208C900F701F801480803104918FF
:10215000F707F70CF80CC918F707F70CF80C491932
:10216000F707F70CF80CC919F707F70CF80C491A20
:10217000F707F70CF80CC91AF707F70CF80C491B0E
:10218000F707F70CF80CC91BF707F70CF80C7808E1
:10219000C800303046024807C2004508C50A40075B
:1021A00084000030413D85000008C60097282A2998
:1021B0004408103C031D2A294608603C0318E72800
:1021C00046087A3C031CE7284608DF39E828460819
:1021D000C60046082F3C0318F1284608393C03186E
:1021E000F9284608403C03182A294608463C031CA7
:1021F0002A2946082F3C03180A294608393C031CA3
:102200000A29420EC800F030C8053030460248079F
:10221000C2001329420EC800F030C8054130460202
:102220000A3E4807C2004508C50A4007840000303E
:10223000413D85000008C6004608603C0318272978
:1022400046087A3C031C27294608DF392829460816
:10225000C600E928430B322944080A3C031D3229F1
:10226000C209C20A4208F8007808F5007508003C67
:1022700003185D2975087F3C031C5D290310750D4B
:10228000C000240092000B08F7008B1303303100CC
:102290009100703092007508930015171515553090
:1022A0009600AA3096009514951854291511151307
:1022B00077088B0401006129230002302000D70039
:1022C00031006729210002302000D7003100903111
:1022D0002000462E20302300CD006030CC0020307E
:1022E000CF000E30CE0080312000A7239031F808B7
:1022F000031D1C2B2100B8080319802920001C2B6A
:10230000BE080319852920001C2B9D149D188629C1
:102310001C08FA001B082300C4007A08C500E1006D
:102320004408E00080312000502590317A082300D5
:10233000E3007908E2007808E1007708E000E701AF
:10234000C030E6007F30E5008830E40080312000B6
:102350006F2590316F302300EB001230EA0003301C
:10236000E9008030E8007A08EF007908EE0078088C
:10237000ED007708EC0080312000B42490319330D8
:102380002300EB002B30EA004830E9008030E80001
:102390007A08EF007908EE007808ED007708EC0085
:1023A00080312000B42490317A082300C2007908DB
:1023B000C1007808C0007708BF0001302000D700B6
:1023C00076083C3A0319F129023A0319232A213AE3
:1023D0000319552A103A0319862A343A0319B82AE0
:1023E000EA2A20302300B8003830B700A43031008A
:1023F000910000309200031008302300CC0080319F
:1024000020009F27903150302300D80080312000D9
:10241000922790312C302300D80080312000922761
:1024200090318930840023004208C9004108C80067
:102430004008C7003F08C6000230CA0088312000AB
:10244000BD2590311B2B20302300B8003830B70059
:10245000AC303100910000309200031008302300AE
:10246000CC00803120009F27903142302300D800DB
:1024700080312000922790312C302300D800803109
:102480002000922790318930840023004208C9003F
:102490004108C8004008C7003F08C6000230CA0013
:1024A00088312000BD2590311B2B20302300B8003F
:1024B0003830B700B4303100910000309200031082
:1024C00008302300CC00803120009F279031573006
:1024D0002300D80080312000922790312C30230037
:1024E000D800803120009227903189308400230069
:1024F0004208C9004108C8004008C7003F08C6009C
:102500000230CA0088312000BD25903120302300E0
:10251000B8003830B700BC30310091000030920074
:10252000031008302300CC00803120009F27903119
:1025300057302300D80080312000922790312C3072
:102540002300D80080312000922790318930840008
:1025500023004208C9004108C8004008C7003F08DE
:10256000C6000230CA0088312000BD2590311B2BE7
:1025700020302300B8003830B700C430310091005B
:1025800000309200031008302300CC00803120007E
:102590009F27903153302300D800803120009227AC
:1025A00090312C302300D8008031200092279031C8
:1025B0008930840023004208C9004108C80040084F
:1025C000C7003F08C6000230CA0088312000BD2580
:1025D00090311B2B20302300B8003830B700CC30AE
:1025E0003100910000309200031008302300CC002D
:1025F000803120009F27903155302300D800803152
:102600002000922790312C302300D8008031200008
:10261000922790318930840023004208C900410884
:10262000C8004008C7003F08C6000230CA00883111
:102630002000BD2590311E2B0230D7009031462E50
:1026400055303C008F00AA308F000F1014309D00D1
:1026500015309E001030A0001130A10018303D0050
:10266000A0001930A1001A30A4001B30A50055307D
:102670003C008F00AA308F000F1432009E019B0196
:102680009D0106309F0099017010F0107011F0113B
:102690000330FB002300B801B7018C018E0122003A
:1026A0009201910194019301DA2B02340034283411
:1026B000003400342B344034B034003403348034DC
:1026C0004534523452340534C03400340434803438
:1026D00042344134553444340434C0340034053475
:1026E0008034433441344C340034003417340134E2
:1026F00020340034003400344534583450344F34DE
:102700005234543400340034463441344334543465
:102710004F34523459340034463449344E344434FE
:102720000434C03400340134803449340734C034B4
:102730000034033480344934323443340534C034F3
:1027400000340934803449344D3450344F345234D9
:102750005434003400344C340734C0340034093469
:10276000803450344C344F3443344B3400340034D0
:10277000003452340734C0340034053480345334C8
:102780004C3445344534503412340134A0340034D0
:102790000034003453344C344F3450344534003416
:1027A00000340034533454344134543455345334A5
:1027B0000034003413308500553084008517120032
:1027C000F700003A0319F42B1200F800F81BEC2B69
:1027D0000F39870012008600781B1200781F120044
:1027E0001E00F70BEE2BDF2B31001B08CF39F70053
:1027F000030818390310890D7704891C0910091D75
:102800008916891D8916091B8916891B8916F700E7
:102810001F309B0077086400F60080312000D8202C
:102820009031803105229031230039106400701CF2
:10283000382C2000171A960195011508F700171A71
:102840001608FA00171EFA0177082300BE007A085E
:10285000BF00BF08031D332C3E083B3C031C332C38
:1028600020001D2C230039142000D60170102300F5
:10287000391CAB2E3910BA013A08283C031C6E2CC7
:1028800037303A078400203085000318850A80011C
:102890003A08073C031C542C60303A07840020306F
:1028A00085000318850A80013A08053C031C602C4A
:1028B00068303A078400203085000318850A8001BB
:1028C0003A081C3C031C6C2C6E303A078400203004
:1028D00085000318850A8001BA0A3C2C2030BF000D
:1028E0000E30BE00803120000E2A90312300B91036
:1028F0007818B914B91C472E2030BF006030BE00D4
:10290000C00140080E3C031CAD2C400DF700F70D34
:10291000F70DF830F70577088B3EF8002030FA0005
:102920000318FA0A7808C2007A08C3003F08CD00ED
:102930003E08CC004308CF004208CE008031200082
:10294000A7239031F808031DAA2C23004008F800A3
:10295000AF2C20002300C00A812C0030F80078083A
:10296000BB003B08BE003E08023A20000319D42CED
:10297000063A0319D82C023A0319DC2C013A031940
:10298000FF2C0C3A0319012D0E3A0319C12D0C3AF4
:102990000319112E073A0319152E023A0319172E9F
:1029A0000C3A0319442E462E883188299031462E40
:1029B0008831B12C9031462E0130D70020302300D1
:1029C000B8003830B7009E303100910000309200DE
:1029D000031007302300CC00803120009F27903166
:1029E000893084002300C901C801C7017F30C600B7
:1029F0000230CA0088312000BD259031462E0028C3
:102A0000462E20302300CD006030CC002030CF0097
:102A10000E30CE0080312000A7239031F808031D2E
:102A2000BD2D2100B8080319172D2000BD2DBE08AB
:102A300003191C2D2000BD2DF01501302300D800F6
:102A400088312000942090317A082300DB00790837
:102A5000DA007808D9007708D8005B08EB005A083C
:102A6000EA005908E9005808E800EF01EE017A3061
:102A7000ED008830EC0080312000B42490317A08D9
:102A80002300DB007908DA007808D9007708D8003D
:102A90000508DD000408DC0083145B08E3005A0825
:102AA000E2005908E1005808E0000A30E700D7309A
:102AB000E6008330E5007F30E400803120003B26D3
:102AC000903123005D0885005C0884007A08D300FB
:102AD0007908D2007808D1007708D0005008F700B4
:102AE0005108F8005208F9005308FA007A08C900A2
:102AF0007908C8007808C7007708C6000508CB0029
:102B00000408CA0083104908E3004808E2004708A7
:102B1000E1004608E0003608E7003508E600340822
:102B2000E5003308E400803120003B26903123008B
:102B30004B0885004A0884007A08C2007908C10061
:102B40007808C0007708BF0001302000D70020308F
:102B50002300B8003830B700893084004208C9002B
:102B60004108C8004008C7003F08C6000230CA003C
:102B700088312000BD259031C02D0230D700F011E2
:102B8000462E20302300CD006030CC002030CF0016
:102B90000E30CE0080312000A7239031F808031DAD
:102BA0000B2E2100B8080319D72D20000B2EBE08CC
:102BB0000319DC2D20000B2EF01401302000D7006B
:102BC000AE01AE08031DFC2D22008C100E118E11DB
:102BD00064302300BF0088312000BC2690312200E1
:102BE0008C140E158E1564302300BF008831200030
:102BF000BC2690316400E12DF4080319052E220053
:102C00008C140E118E11092E200022008C140E152A
:102C10008E150E2E20000230D7002200F01020006A
:102C2000462E8831D12E9031462E6A29462E2030EC
:102C30002300CD006030CC002030CF000E30CE001D
:102C400080312000A7239031F808031D412E210078
:102C5000B80803192D2E2000412EBE080319322E6C
:102C60002000412E701522008C140E158E15803117
:102C70002000D820903163007011803105229031FE
:102C8000432E0230D700462E0230D7002300BC016D
:102C90003C08283C031C562E0E303C078400203094
:102CA00085000318850A8001BC0A482EF408031920
:102CB000AB2EF01D902E2000171A960195011508D5
:102CC000F700171A1608FA00171EFA0177082300F2
:102CD000BE007A08BF003F080B3C031C8F2E031D6B
:102CE000752E3E08723C031C8F2EF01D8F2E220085
:102CF0008C140E118E1523302300BF008831200064
:102D0000BC26903122008C140E158E152330230022
:102D1000BF0088312000BC2690315F2E2300A52EF5
:102D200020005708023C031DA62E22008C100E1511
:102D30008E1502302300BE009630BF00883120007F
:102D4000BC2690312300BE0B9C2E200022008C1448
:0A2D50000E118E112300162C6300F3
:027FFE002C3421
:020000040001F9
:08000E00EC3FF83DFC1FFC3F34
:00000001FF
;PIC16F18326
;CRC=6C05  CREATED="25-jul-19 19:20"
