:060000009031612B0000AD
:0800080083018031200077081C
:10001000A0007808A1007908A2007A08A3003100A6
:1000200011082000A400310012082000A5003100B2
:1000300013082000A600310014082000A700850145
:1000400091308400801D262891193F282008F70050
:100050002108F8002208F9002308FA0024083100DA
:100060009100200025083100920020002608310070
:1000700093002000270831009400090020008031FF
:1000800041282400941A4728FB011419FB177B0808
:10009000FB0A2300CE00CE08031D562824001513AA
:1000A000141C502811081516F20123004E08803C3C
:1000B000031D5D28F101701970114E087F3C031873
:1000C00082287108153C031C8128243071078400A4
:1000D000203085000318850A0008D0005008D100A0
:1000E0002400110823005108240091001516200057
:1000F0009111240014187A28F801161FF80AF10A41
:100100002300A328CE080319A3287208153C031C5A
:10011000A328F01891287014FE302000C400932802
:1001200023002000C4010E307207840020308500B7
:100130000318850A24001513141C9C281108151691
:100140008000F20A23002000911180312628BF345C
:10015000AC275228AC122E196600BF29F430F43AAD
:100160007316A531AC122E196600BF29F430F43A8B
:100170007316A531AC122E196600BF29F430F43A7B
:100180007316A531AC122E196600BF29F430F43A6B
:100190007316A531AC122E196600BF29F430F43A5B
:1001A0007316A531AC122E196600BF29F430F43A4B
:1001B0007316A531AC122E196600BF216136AC1240
:1001C000640032001117111512141317931613152A
:1001D0009314941714179416141694151415941454
:1001E00014141616961516159614161420000800E9
:1001F00024009D132000921123003F082400990041
:1002000002309D1B0A292000921D04290030240081
:100210001E1B0130F8002000080019302100970053
:100220009115C0308B040E148E14240017109710F3
:100230009711C4309200363095001614961721009D
:100240000E168E1624001F109F109F1113309A0057
:1002500028309D009C131C1301302200EA0024006A
:100260001E141E183129031022006A0DD038EB002D
:100270002300BF002000F8201C302300BF00200016
:10028000F82024001E151E194329220097179714E1
:10029000171021001E169E161E139E171D141E10E9
:1002A0009E101E11043023008C0000308E00083098
:1002B000F80021001D08033978049D001E149E14C7
:1002C0001E119030200097004C30980021008C10B7
:1002D00023008C1024008C1025008C1426008C1018
:1002E00027008C1021000E118E1123000E118E118B
:1002F00024000E118E1125000E158E1526000E11EC
:100300008E1127000E118E1164302200EA00023097
:10031000EA02031C982920308500EA308400000896
:10032000031998299629942995290000800B93296F
:100330000130310091007030920015171514130828
:100340001513F400F4080319AB2922008C140E11C4
:100350008E11AF29310022008C140E158E150A3033
:100360003100910070309200151715141308151301
:100370002200DD000B303100910070309200151723
:100380001514130815132200DE000C303100910003
:100390007030920015171514130815132200DF0092
:1003A0000D303100910070309200151715141308AC
:1003B00015132200E00031009101703092001517F2
:1003C000151413081513F3000330910070309200D8
:1003D0001517151413081513F5007508003C0318BC
:1003E000FC2975087F3C031CFC290310750D2200B5
:1003F000EA002400920031002200E9016908153C5E
:10040000031C0C2A0E306907840020308500031875
:10041000850A8001E90AFE2980312000172A32006E
:100420001113111112101313931220000D2908003B
:100430002200EA01ED016D08680784000030693D83
:10044000850080080319862A6D086807F8000030C7
:10045000693DFA0078082300A2007A08A300220070
:100460006D08680784000030693D8500000823009E
:10047000A400603C0318432A24087A3C031C432A46
:100480002408DF39442A2408A40023088500220810
:1004900084002408800022006D0868078400003072
:1004A000693D850000082300A2003F303100920022
:1004B000FF30910020308500F330840001302300AC
:1004C000A5002508F70003103100151315140000CE
:1004D0000000130880000131910A0319920AF70BFA
:1004E000662A230023082202031D832A2200EA0A27
:1004F0006A0B7C2A6D08EB006A08023C031D822A05
:100500006D08EC0023002200ED0A1B2A6A08003A5D
:1005100020000319922A013A0319C02A033A031949
:10052000282BD52B2200EE016E08073C031CB72AAE
:100530003A306E07F8002030FA000318FA0A7808FB
:100540002300A2007A08A30022006E086807840036
:100550000030693D850000082300A40023088500C1
:1005600022088400240880002200EE0A942A3A30EF
:100570006E078400203085000318850A8001DB2B7C
:100580002200EF016F08680784000030693D850094
:10059000800803191D2B6B086F020318EC2A3A30F0
:1005A0006F07F8002030FA000318FA0A78082300D1
:1005B000A2007A08A30022006F08680784000030B8
:1005C000693D850000082300A40023088500220857
:1005D00084002408800022006B086F02031DF82AA3
:1005E0003A306F078400203085000318850A8001A7
:1005F0006F086B0203181B2B01306B076F02483E1C
:10060000F8002030FA000318FA0A78082300A20044
:100610007A08A30022006F08680784000030693D53
:10062000850000082300A400230885002208840018
:10063000240880002200EF0AC22A01306B076F02F3
:10064000483E8400203085000318850A8001DB2B9A
:100650002300A00120082200680784000030693DC3
:10066000850080080319C72B6B082300200203189C
:10067000542B3A302007F8002030FA000318FA0A09
:100680007808A2007A08A3002008220068078400E6
:100690000030693D850000082300A4002308850080
:1006A000220884002408800022006B082300200216
:1006B000031D622B3A302007840020308500031888
:1006C000850A8001200822006B0203188E2B6C081B
:1006D00023002002031C6E2B22008E2B01302200EF
:1006E0006B0723002002423EF8002030FA00031876
:1006F000FA0A7808A2007A08A300200822006807F6
:1007000084000030693D850000082300A400230810
:100710008500220884002408800022006C08230041
:100720002002031D9F2B013022006B0723002002B3
:10073000423E8400203085000318850A800120088D
:1007400022006C020318C32B01306C072300200227
:10075000483EF8002030FA000318FA0A7808A20090
:100760007A08A30020082200680784000030693D51
:10077000850000082300A4002308850022088400C7
:100780002408800022002300A00A2A2B2200013026
:100790006C0723002002483E8400203085000318A7
:1007A000850A80012200DB2B20000230C4000030CB
:1007B000F800DE2B22000130F80020009031B52C2B
:1007C00023002308FA00220884007A088500000824
:1007D000A6002508FA00240884007A08850000088D
:1007E0002602031D092C2308FA00220884007A0837
:1007F00085008008031DFF2B0030F8001F2C230804
:10080000FA002208A20A0319A30AA40A0319A50AD6
:10081000E12B2308FA002208840023088500000841
:10082000A6002508FA002408840025088500000891
:10083000260203181D2CFF301E2C0130F80020006A
:10084000080023002808AA002708A9002A08FA009F
:10085000290884007A08850080080319332CA90A26
:100860000319AA0A262C27082902F70028082A3B80
:10087000FA007708F800200008002300A401A50171
:10088000A6012608220784000030233D8500800849
:100890000319E82CA608031D742C220884002308E1
:1008A000850000310008A70027082F3C03185C2CA6
:1008B0002708393C0318652C22088400230885008A
:1008C000003100082D3C031D702C220884002308F1
:1008D0008500003100082D3C0319A50AE62C732C75
:1008E0000030F800EA2CE62C2608220784000030AD
:1008F000233D85000008A70027082F3C0318842CFF
:100900002708393C0318862C0030872C0130013C25
:1009100003199E2C2608220784000030233D850001
:1009200000082E3C03199E2C260822078400003064
:10093000233D850000082D3C031DE32C26082207DB
:1009400084000030233D850000082E3C031DB02CA0
:10095000A40A2408013C0318B02C0030F800EA2C4B
:100960002608220784000030233D850000082D3C26
:10097000031DBD2C0030F800EA2C2308A800220833
:10098000A7002000212401307802230022078400E0
:100990000030233D850000082E3C031DD22C003082
:1009A000F800EA2C2608220784000030233D850049
:1009B0000008A70027082F3C0318E22C2708393C21
:1009C0000318E62CE62C0030F800EA2CA60A412C8D
:1009D0000130F80088312000F02923003C08031979
:1009E0005E2DC800400803195E2DC8070318FF2CB0
:1009F0007F30C802031C5E2D03195E2D032D81304C
:100A0000C80703185E2D4808F700F801F901FA013C
:100A10003D08CC00CC173E08CB003F08CA00183078
:100A2000C800C9014A1C2C2D4308FA07031C1E2DBF
:100A3000F90A031D1E2DF80A0319C9174208F90700
:100A4000031C252DF80A0319C9174108BE00BE175B
:100A50003E08F8070318C917C90DF80CF90CFA0C71
:100A6000CC0CCB0CCA0C0310C80B112D0130F707AE
:100A700003185E2DF81B432DCC0DFA0DF90DF80D62
:100A8000F70303195E2DCC1F542DFA0A031D542DB4
:100A9000F90A031D542DF80A031D542DF80CF90C06
:100AA000FA0CF70A03195E2D3D08C9004108C90672
:100AB000C91F5C2DF817622DF813622DF701F8019C
:100AC000F901FA01200008008E30F70023003908F0
:100AD000F8003808F900FA01F808031D792D7908A3
:100AE000F800F9010830F702F808031D792DF70125
:100AF000812D0310F81B802DF90DF80DF703792DCA
:100B0000F81320000800230038080319492EC400F8
:100B10003C080319492EC402031C932D7F30C407DF
:100B20000318492E992D8130C402031C492E031944
:100B3000492E4408F700F801F901FA01C301390808
:100B4000C200C2173A08C1003B08C0001930C400F7
:100B50003F08C0020318BC2D0130C1020318BC2D90
:100B6000C2020318BC2DC3020318BC2DC30AC20A5B
:100B7000C10A3F08C007EE2D3E08C1020318D72D59
:100B80000130C2020318D72DC3020318D72DC30AA0
:100B9000C20A3E08C1073F08C007031CEE2DC10A68
:100BA000031DEE2DC20A031DEE2DC30AEE2D3D08D6
:100BB0008038C2020318ED2D0130C3020318ED2D59
:100BC000C30A3D088038C2073E08C107031CCB2D6D
:100BD000C20A031DCB2DC30ACB2D7A14C40BF12DF1
:100BE000FC2D0310C00DC10DC20DC30D0310FA0D75
:100BF000F90DF80DC50DA82D451C042E0310F80C99
:100C0000F90CFA0CC50C072EF7030319492EC51B66
:100C1000302E0310C00DC10DC20DC30D3F08C00220
:100C200003181C2E0130C10203181C2EC202031827
:100C30001C2EC302031C3F2E3E08C1020318272EA0
:100C40000130C2020318272EC302031C3F2E3D08A9
:100C50008038C2020318302E0130C302031C3F2E1D
:100C6000FA0A031D3F2EF90A031D3F2EF80A031D41
:100C70003F2EF70A0319492EF80CF90CFA0C390823
:100C8000C4003D08C406C41F472EF8174D2EF813A4
:100C90004D2EF701F801F901FA012000080080301B
:100CA000831C552E2300BD0620002300C201C30172
:100CB0003908C1003D08C10638080319462FC00095
:100CC000F7003C0803194F2FC0020319EA2E031C3A
:100CD000A72E3D08C600C6173E08C5003F08C40041
:100CE000C3010310C60CC50CC40CC30CC00B702E82
:100CF000C11F7D2E4214632F421040104216213036
:100D000085000B308400782F4212C11B912E401CAD
:100D10009C2EC60CC50CC40CC30CF70A03195E2F1D
:100D20009C2EC61B9F2E0310C30DC40DC50DC60DF2
:100D3000F70303195E2F912E42170B2F4213390828
:100D4000C100C11FA52EC617572FC613572F3C0829
:100D5000C000F7003808C0023908C600C6173A08B4
:100D6000C5003B08C400C3010310C60CC50CC40C6D
:100D7000C30CC00BB32EC11FC02EC214632FC210F0
:100D80004010C216213085000F308400782FC21227
:100D9000C11BD42E401CDF2EC60CC50CC40CC30CCA
:100DA000F70A03195E2FDF2EC61BE22E0310C30DB8
:100DB000C40DC50DC60DF70303195E2FD42EC2173F
:100DC0000B2FC2133D08C100C11FE82EC617572FB5
:100DD000C613572F3D08C600C6173E08C5003F087A
:100DE000C400C11FF72EC6134215632F4211C30161
:100DF0004010213085000B308400782FC11B212F3B
:100E00003908C100401C0B2FC60CC50CC40CC30C08
:100E1000F70A03195E2FC31F1C2FC40A031D1C2FC2
:100E2000C50A031D1C2FC60A031D1C2FC60CC50CAA
:100E3000C40CF70A03195E2F421B9E2EC21BE12E23
:100E4000402F8030C606C61F292F632F3D08C100E2
:100E5000362F3908C100C608031D362FC508031DEB
:100E6000362FC408031D362FF701572FC61B402FFE
:100E70000310C30DC40DC50DC60DF70B362F5E2F25
:100E8000C11F442FC617572FC613572F3C08F70012
:100E90003D08C6003E08C5003F08C400572F38086B
:100EA000F7003908C6003A08C5003B08C4004608E8
:100EB000F8004508F9004408FA00942FF701F801FA
:100EC000F901FA01942FC301C409C509C609C30970
:100ED000C30A031D712FC40A031D712FC50A03190C
:100EE000C60A42187C2EC218BF2E4219F62E262F93
:100EF0000008C407031C822FC50A031D822FC60ADF
:100F0000031940141100C507031C892FC60A0319D1
:100F100040141100801F803AC60703184014421A7B
:100F2000842EC21AC72EFE2E2000080024001D1396
:100F30009E159E19992F77189E12771C9E161E16C5
:100F40001E1AA02F1908F8002000080022006208CD
:100F5000850061088400230030081A008001220007
:100F6000E10A0319E20A2000080023002908F80119
:100F700028020318BE2F2808F700CA2FF7010830EF
:100F8000AA00A80DF70D290877020318F700F80D3D
:100F9000AA0BC12F2000080020308500E930840012
:100FA00000080319E02F0A30F800F701F70BD62FDD
:100FB000F80BD52F5F30F700F70BDC2F800BD32F0A
:020FC000080027
:1010000080302300BD0024001E141E180528031084
:101010002300380DD0380138BE00BF0080312000D9
:10102000F82088310130F700803196278831780820
:101030002300BB000130F700803120009627883163
:1010400078082300BA000130F7008031200096278D
:10105000883178082300B9000130F7008031200082
:101060009627883178082300BD00BD1F76280130FF
:10107000F700803120009627883178082300BD00D2
:10108000BD1B3728F701803120009627883178086A
:101090002300BD0024001E151E194C281E141E1806
:1010A0004F2803102300380DD0380138BE00BF0090
:1010B00080312000F82088310130F70080319627F8
:1010C000883178082300BB000130F7008031200010
:1010D0009627883178082300BA000130F700803164
:1010E00020009627883178082300B900F701803165
:1010F00020009627883178082300BD0024001E15A3
:101100001E1980282300BB1C8828FF30BC008928BA
:10111000BC013908F7003A08F8003B08F9003C0820
:10112000FA0088312000992823002E08B8002000FA
:1011300000287A082300B2007908B1007808B000CE
:101140007708AF003208BB003108BA003008B90098
:101150002F08B800B630F700FA01F901F8013C1089
:10116000BB1FC0283C14B809B909BA09BB09B80AA1
:10117000031DC028B90A031DC028BA0A0319BB0AF7
:10118000380839043A043B04031DC828F701D7285E
:101190000310F81BD428B80DB90DBA0DBB0DFA0D0C
:1011A000F90DF80DF70BC828F8133C18F8177A0852
:1011B000BB007908BA007808B9007708B8003B0886
:1011C000BF003A08BE003908BD003808BC006F30C7
:1011D000C3001230C2000330C1006F30C000803144
:1011E0002000ED2488317A082300B6007908B50084
:1011F0007808B4007708B3003308F7003408F80023
:101200003508F9003608FA00200008000B088B1397
:1012100031001513151400000000891B8B170318EB
:101220003B2913087F392300A50031001108230052
:10123000A600310012082300A7002508B000803165
:101240002000A627883123002608310091002300C2
:101250002708310092000B088B131513151400009A
:101260000000891B8B172300A20B37293929310075
:101270003B2960293100130D140D7F392300A5008F
:10128000310011082300A600310012082300A70036
:101290002508B00080312000A627883123002608C9
:1012A000310091002300270831009200910A0319B0
:1012B000920A03102300A20B5E2960292000062950
:1012C0002000080020302300231E3030A400220814
:1012D000F700A21F7329F709F70A7708A2002D303B
:1012E000A400A31723142208A8006430A9008031A9
:1012F0002000B527883177082300A2003030780716
:10130000A5002208A8000A30A90080312000B527D6
:101310008831303077072300A70030307807A600E7
:101320002408F7003030250203199A29A314A31BBF
:101330002315AE292408A5002030A4003030260251
:101340000319A6292314A31BA314AE29031D2314D8
:10135000031DAE292508A6002030A5002319B529B4
:10136000A318BC292318C329CA292408B000803136
:101370002000A627883123002508B00080312000F6
:10138000A627883123002608B00080312000A62738
:10139000883123002708B00080312000A62788313B
:1013A000080043302200E9004C30EA004530EB00F1
:1013B0004130EC005230ED00EE013F30EF002300F1
:1013C000A0012000E208031DF42CE8080319F42C06
:1013D00020302300A3004830A200803120003D2CA3
:1013E0008831F8080319372C20302300A300483037
:1013F000A200A501A401A901A801A7017F30A600B0
:10140000AD01AC01AB01AA012E14AE102E11B0013A
:1014100022082304031D112AF701F801F901FA013A
:10142000362B3008B00A220784000030233D8500A7
:101430000008AF00AF080319F62A2E1C312A2F0826
:10144000203C0319312A2E102F082B3C031D2B2A78
:10145000AE10EC2A312A2F082D3C031D312AAE1480
:10146000EC2A2E183B2A2F082E3C031D3B2A2E194E
:101470003B2A2E15EC2A2E18EA2A2F082F3C031897
:10148000EA2A2F08393C031CEA2A3030AF022E1D0D
:10149000A82A2908BF002808BE002708BD00260882
:1014A000BC00C301C2012030C1008230C0008031C5
:1014B0002000ED2488317A082300A9007908A800CB
:1014C0007808A7007708A600B9012F08B800803176
:1014D0002000642588317A082300B7007908B60017
:1014E0007808B5007708B4003708BB003608BA00A2
:1014F0003508B9003408B8002908BF002808BE0024
:101500002708BD002608BC008031200083258831D3
:10151000831023002D08BB002C08BA002B08B9004B
:101520002A08B8007A08BF007908BE007808BD0014
:101530007708BC00803120004F2688317A082300CC
:10154000AD007908AC007808AB007708AA00E92A5A
:10155000BF01BE012030BD008230BC002D08C30099
:101560002C08C2002B08C1002A08C00080312000CE
:10157000ED2488317A082300B7007908B60078088E
:10158000B5007708B400B9012F08B80080312000F9
:1015900064258831831023003708BB003608BA0061
:1015A0003508B9003408B8007A08BF007908BE00D1
:1015B0007808BD007708BC00803120004F268831B4
:1015C0007A082300AD007908AC007808AB007708F2
:1015D000AA00EC2A2E1CF62A3008B00A2207840042
:1015E0000030233D85000008AF001A2AAE1C132BE3
:1015F000BF01BE018030BD007F30BC002D08C3009C
:101600002C08C2002B08C1002A08C000803120002D
:10161000ED2488317A082300AD007908AC00780801
:10162000AB007708AA002408250403192E2BB00864
:101630000319262BB00324088400250885003008F0
:10164000220780000030233D813F2E2B2408840098
:1016500025088500220880002308813F2A08F7001A
:101660002B08F8002C08F9002D08FA007A08A500CC
:101670007908A4007808A3007708A2000130AE0022
:10168000200094207A082300B1007908B00078087F
:10169000AF007708AE003108BF003008BE002F0849
:1016A000BD002E08BC00C301C2017A30C1008830E1
:1016B000C00080312000ED2488317A082300B10079
:1016C0007908B0007808AF007708AE000508B300CD
:1016D0000408B20083143108BB003008BA002F0898
:1016E000B9002E08B8000A30BF00D730BE008330E2
:1016F000BD007F30BC00803120004F2688312300A0
:1017000033088500320884007A08A9007908A80007
:101710007808A7007708A6002608F7002708F80031
:101720002808F9002908FA000508A7000408A600FF
:1017300083142508BB002408BA002308B900220836
:10174000B8007A08BF007908BE007808BD007708A5
:10175000BC00803120004F268831230027088500F7
:10176000260884007A082200E0007908DF00780863
:10177000DE007708DD000B08F7008B130A3031001C
:1017800091007030920022005D083100930015171F
:10179000151555309600AA30960095149518CE2B45
:1017A0001511151377088B040B08F7008B130B30FA
:1017B00091007030920022005E08310093001517EE
:1017C000151555309600AA30960095149518E62BFD
:1017D0001511151377088B040B08F7008B130C30C9
:1017E00091007030920022005F08310093001517BD
:1017F000151555309600AA30960095149518FE2BB5
:101800001511151377088B040B08F7008B130D3097
:10181000910070309200220060083100930015178B
:10182000151555309600AA30960095149518162C6B
:101830001511151377088B040130F3000B08F7001E
:101840008B139101703092007308930015171515D2
:1018500055309600AA309600951495182D2C151128
:10186000151377088B0401302000C400F32C2030BE
:101870002300A3004830A2002030A500E930A400D6
:1018800080312000E0238831F808031DC72C220096
:10189000E001DF01DE01DD010B08F7008B130A30E8
:1018A000310091007030920022005D0831009300F9
:1018B0001517151555309600AA30960095149518F1
:1018C0005F2C1511151377088B040B08F7008B1389
:1018D0000B3091007030920022005E0831009300BE
:1018E0001517151555309600AA30960095149518C1
:1018F000772C1511151377088B040B08F7008B1341
:101900000C3091007030920022005F08310093008B
:101910001517151555309600AA3096009514951890
:101920008F2C1511151377088B040B08F7008B13F8
:101930000D30910070309200220060083100930059
:101940001517151555309600AA3096009514951860
:10195000A72C1511151377088B04F3010B08F7005A
:101960008B139101703092007308930015171515B1
:1019700055309600AA30960095149518BD2C151177
:10198000151377088B0401302000C400F32C20309D
:101990002300A3004830A2002030A500EF30A400AF
:1019A00080312000E0238831F808031DF12C01303C
:1019B000C40020302200E2002530E100DD3031009B
:1019C000910000309200031005302300A200200097
:1019D000062173082300A2001830A3002000622112
:1019E000F32C0230C400F62C0230C4009031892E52
:1019F00020302300A3003A30A2002030A5000E3092
:101A0000A40080312000E0238831F808031DAA2DAE
:101A1000E208031DAA2DE808031DAA2D2200E001FB
:101A2000DF01DE01DD010B08F7008B130A30310006
:101A300091007030920022005D083100930015176C
:101A4000151555309600AA30960095149518262D38
:101A50001511151377088B040B08F7008B130B3047
:101A600091007030920022005E083100930015173B
:101A7000151555309600AA309600951495183E2DF0
:101A80001511151377088B040B08F7008B130C3016
:101A900091007030920022005F083100930015170A
:101AA000151555309600AA30960095149518562DA8
:101AB0001511151377088B040B08F7008B130D30E5
:101AC00091007030920022006008310093001517D9
:101AD000151555309600AA309600951495186E2D60
:101AE0001511151377088B04F3010B08F7008B13FE
:101AF0009101703092007308930015171515553039
:101B00009600AA30960095149518842D151115137A
:101B100077088B0422008C140E118E110130F40012
:101B20000B08F7008B1301303100910070309200E8
:101B3000740893001517151555309600AA309600B5
:101B400095149518A12D1511151377088B04010014
:101B5000AD2D20000230C400310090312000892ECC
:101B60008318B62D2130850009308400F701F80173
:101B7000F901FA012300B901BA01BB01BC01370820
:101B80003604350434040319F52D2030BD0003104C
:101B9000B00DB10DB20DB30DB90DBA0DBB0DBC0D2D
:101BA00037083C02031DDE2D36083B02031DDE2DE7
:101BB00035083A02031DDE2D34083902031CEF2DCF
:101BC0003408B9023508031C350FBA023608031C65
:101BD000360FBB023708031C370FBC020314F70D86
:101BE000F80DF90DFA0DBD0BC72D390880003A0824
:101BF000813F3B08823F3C08833F200008000408E7
:101C00002300A8002608AA000319232E2508BF00D8
:101C10002408BE002308BD002208BC00C301C20185
:101C20002030C1008230C00080312000ED24883196
:101C30007A082300A5007908A4007808A300770893
:101C4000A200AA0B062E2508B3002408B200230820
:101C5000B1002208B0003008B63CB000FA013108EB
:101C6000B400B1170310B10CB20CB30CFA0CF90CA0
:101C7000F80CF70CB00B322EB41F492EF709F809F7
:101C8000F909FA09F70A0319F80A0319F90A0319F5
:101C9000FA0A7A08A5007908A4007808A300770852
:101CA000A200A51F602EA803A816A209A309A409D3
:101CB000A509A20A0319A30A0319A40A0319A50A6C
:101CC0003B30AF009A30AE00CA30AD00AC010A30F4
:101CD000AA0026080319A80A831420308500F230D0
:101CE00084002508B3002408B2002308B1002208AC
:101CF000B0002F08B7002E08B6002D08B5002C083C
:101D0000B4002000B0257808F708031D9E2E23009C
:101D1000260A2A02031D8E2E20009E2E2808031953
:101D2000A12E0F392A020319972E0318E12EA81BA2
:101D3000E12E281BA12E2030D92E20002030230098
:101D4000A805A81EB32EA8122608031DA80377080D
:101D5000A8002D30B00080312000A6278831230054
:101D60002808F700A80126082A02031DC52E7708B7
:101D7000A8002E30B00080312000A6278831230033
:101D80002808F7002030A80500303030A81ED92ED2
:101D9000A8122608031DA8037708A8002D30B0005C
:101DA00080312000A627883123002808F700A801E9
:101DB0003030F7077708B00080312000A62788313F
:101DC000230083102F08B3002E08B2002D08B100A5
:101DD0002C08B000B701B601B5010A30B4002000EC
:101DE000B0257A082300AF007908AE007808AD006E
:101DF0007708AC00AA0B6C2E20000800E208031D37
:101E00008A2FE80803198A2F20302300A8004830C1
:101E1000A7008031200021248831780B852F6808A5
:101E2000313A03191A2F013A03193A2F0F3A0319BD
:101E30005A2F802F22008C140E118E110130200099
:101E4000C400F4000B08F7008B130130310091003F
:101E500070309200740893001517151555309600D0
:101E6000AA30960095149518332F1511151377087D
:101E70008B04832F22008C140E158E150130200048
:101E8000C400F4010B08F7008B13013031009100FE
:101E90007030920074089300151715155530960090
:101EA000AA30960095149518532F1511151377081D
:101EB0008B04832F0130C40020302200E200253043
:101EC000E1004C302300B00080312000A62788318B
:101ED0002C302300B00080312000A62788313F300D
:101EE0002300B00080312000A62788317408230029
:101EF000A2001830A300200062213100832F2000AF
:101F00000230C4003100882F20000230C4003100AC
:101F10008D2F20000230C400310090312000892E26
:10200000E208031D7C29E80803197C292200E90164
:10201000483069078400203085000318850A80084D
:1020200003193028483069078400203085000318E0
:10203000850A0008EA006A082F3C031823286A086A
:10204000393C03182528003026280130003A031DAA
:102050002E2802302000C4007E292200E90A082828
:102060002030EB004830EA00EF01ED010A30EE00CD
:10207000EC016A086B04031D40280030F8004D296C
:102080006F08EF0A6A07840000306B3D8500000886
:102090002300A00020082D3C031D5C2801302200F5
:1020A000ED006F08EF0A6A07840000306B3D850081
:1020B00000082300A0006B2820082B3C031D6B2880
:1020C00022006F08EF0A6A07840000306B3D85002C
:1020D00000082300A00020082F3C031842292008F4
:1020E000393C031C42292008303C031D9B28220058
:1020F0006F086A07840000306B3D85000008783C5B
:1021000003198E286F086A07840000306B3D850034
:102110000008583C03198E2823009B281030EE003D
:10212000EF0A6F08EF0A6A07840000306B3D8500F4
:1021300000082300A00022006E080A3C031DE728C7
:10214000230020082F3C0318E5282008393C031CF5
:10215000E5280A30A20022006C082300A300F70142
:10216000F801220803102318F707F70CF80CA3183E
:10217000F707F70CF80C2319F707F70CF80CA3195D
:10218000F707F70CF80C231AF707F70CF80CA31A4B
:10219000F707F70CF80C231BF707F70CF80CA31B39
:1021A000F707F70CF80C7808A2003030200222075D
:1021B0002200EC006F08EF0A6A07840000306B3DD4
:1021C000850000082300A000A128422922006E08F3
:1021D000103C031D432923002008603C0318F72806
:1021E00020087A3C031CF7282008DF39F82820084B
:1021F000A00020082F3C031801292008393C0318AF
:1022000009292008403C031842292008463C031CA9
:10221000422920082F3C03181E292008393C031CA2
:102220001E2922006C0E2300A200F030A2053030DF
:10223000200222072200EC002A29230022006C0E33
:102240002300A200F030A205413020020A3E2207FE
:102250002200EC006F08EF0A6A07840000306B3D33
:10226000850000082300A0002008603C03183F29D7
:1022700020087A3C031C3F292008DF394029200828
:10228000A000F92822006D0B4B296E080A3C031DA3
:102290004B29EC09EC0A6C08F8007808F500750881
:1022A000003C0318762975087F3C031C762903102F
:1022B000750DEA00240092000B08F7008B13033021
:1022C00031009100703092007508930015171515B4
:1022D00055309600AA309600951495186D29151161
:1022E000151377088B0401007A29220002302000A0
:1022F000C40031007F2920000230C4003100903139
:102300002000892E20302300A3003A30A200203084
:10231000A5000E30A40080312000E0239031F808A1
:10232000031D5D2BE208031D5D2BE808031D5D2BDB
:1023300021009D149D189A291C08FA001B082200F0
:10234000EE007A08EF002300B90022006E08230097
:10235000B80080312000642590317A082300BB004A
:102360007908BA007808B9007708B800BF01C03012
:10237000BE007F30BD008830BC0080312000832546
:1023800090316F302300BF001230BE000330BD001B
:102390008030BC007A08C3007908C2007808C10008
:1023A0007708C00080312000ED2490319330230065
:1023B000BF002B30BE004830BD008030BC007A0822
:1023C000C3007908C2007808C1007708C0008031D6
:1023D0002000ED2490317A082200EC007908EB000F
:1023E0007808EA007708E90001302000C400760888
:1023F0003C3A0319082A023A0319412A213A0319DF
:102400007A2A103A0319B22A343A0319EB2A242BF8
:1024100020302200E2002530E100AD303100910093
:1024200000309200031008302300A2008831200001
:102430000621903150302300B00080312000A627C3
:1024400090312C302300B00080312000A62790313D
:102450008930840022006C082300A50022006B084C
:102460002300A40022006A082300A30022006908B8
:102470002300A2000230A60088312000FF25903101
:102480005C2B20302200E2002530E100B530310025
:10249000910000309200031008302300A200883120
:1024A00020000621903142302300B000803120000E
:1024B000A62790312C302300B00080312000A627C1
:1024C00090318930840022006C082300A50022008E
:1024D0006B082300A40022006A082300A300220046
:1024E00069082300A2000230A60088312000FF25E1
:1024F00090315C2B20302200E2002530E100BD301D
:102500003100910000309200031008302300A20037
:10251000883120000621903157302300B0008031EF
:102520002000A62790312C302300B00080312000FD
:10253000A62790318930840022006C082300A50072
:1025400022006B082300A40022006A082300A300D5
:10255000220069082300A2000230A6008831200072
:10256000FF25903120302200E2002530E100C53007
:102570003100910000309200031008302300A200C7
:10258000883120000621903157302300B00080317F
:102590002000A62790312C302300B000803120008D
:1025A000A62790318930840022006C082300A50002
:1025B00022006B082300A40022006A082300A30065
:1025C000220069082300A2000230A6008831200002
:1025D000FF2590315C2B20302200E2002530E10005
:1025E000CD303100910000309200031008302300FC
:1025F000A200883120000621903153302300B00022
:1026000080312000A62790312C302300B00080318B
:102610002000A62790318930840022006C08230016
:10262000A50022006B082300A40022006A082300F2
:10263000A300220069082300A2000230A60088310E
:102640002000FF2590315C2B20302200E200253055
:10265000E100D530310091000030920003100830C5
:102660002300A2008831200006219031553023003C
:10267000B00080312000A62790312C302300B0001C
:1026800080312000A62790318930840022006C0818
:102690002300A50022006B082300A40022006A0882
:1026A0002300A300220069082300A2000230A60034
:1026B00088312000FF2590315F2B0230C40090311B
:1026C000892E55303C008F00AA308F000F10143037
:1026D0009D0015309E001030A0001130A100183070
:1026E0003D00A0001930A1001A30A4001B30A50045
:1026F00055303C008F00AA308F000F1432009E012D
:102700009B019D0106309F0099017010F01070111F
:102710000330FB002200E201E10123008C018E0165
:10272000220092019101940193011A2C0234003489
:10273000283400340034163440345A34003415340C
:102740004034A0340034033480344534523452349D
:102750000534C034003404348034423441345534B8
:1027600044340434C03400340334803443344134BA
:102770004C340534C0340034143480344534583477
:1027800050344F34523454340034003446344134DD
:10279000433454344F345234593400344634493479
:1027A0004E3444340434C034003401348034493469
:1027B0000734C03400340334803449343234433471
:1027C00005344134203400340934803449344D34E4
:1027D00050344F3452345434003400344C340734C1
:1027E000C03400340934803450344C344F344334D2
:1027F0004B3400340034003452340734C0340034D5
:102800001734803453344C34453445345034003418
:102810000034003453344C344F3450344534003495
:102820000034003453345434413454345534533424
:102830000034003413308500963084008517120070
:10284000F700003A0319342C1200F800F81B2C2C66
:102850000F39870012008600781B1200781F1200C3
:102860001E00F70B2E2C1F2C31001B08CF39F70050
:10287000030818390310890D7704891C0910091DF4
:102880008916891D8916091B8916891B8916F70067
:102890001F309B0077086400F60080312000E120A3
:1028A000903180310F229031220063106400701C3F
:1028B000782C2000171A960195011508F700171AB1
:1028C0001608FA00171EFA0177082200E8007A08B5
:1028D000E900E908031D732C68089C3C031C732C59
:1028E00020005D2C220063142000C3017010220020
:1028F000631CF52E6310E4016408153C031CAE2C28
:10290000243064078400203085000318850A800184
:102910006408073C031C942C3A3064078400203080
:1029200085000318850A80016408053C031CA02C5F
:10293000423064078400203085000318850A800136
:1029400064081C3C031CAC2C483064078400203015
:1029500085000318850A8001E40A7C2C2030E900F8
:102960000E30E80080312000182A90312200E31058
:102970007818E314E31C9E2E2030E9003A30E8007A
:10298000EA016A080E3C031CF42C6A0DF700F70DEF
:10299000F70DF830F7057708653EF8002030FA00AB
:1029A0000318FA0A7808EC007A08ED006908230099
:1029B000A300220068082300A20022006D08230063
:1029C000A50022006C082300A40080312000E02331
:1029D0009031F808031DF12C22006A08F800F62C4B
:1029E00020002200EA0AC12C0030F8007808E50037
:1029F0006508E8006808023A200003191B2D063A12
:102A000003191F2D023A0319232D013A0319462DEC
:102A10000C3A0319482D0E3A0319132E0C3A0319D8
:102A20005B2E073A03195F2E023A0319612E0C3A06
:102A30000319872E892E8831D1299031892E88312A
:102A4000F82C9031892E0130C40020302200E200A1
:102A50002530E100A73031009100003092000310D2
:102A600007302300A20088312000062190318930F0
:102A700084002300A501A401A3017F30A20002303D
:102A8000A60088312000FF259031892E0028892E4C
:102A900020302300A3003A30A2002030A5000E30E1
:102AA000A40080312000E0239031F808031D0F2E90
:102AB000E208031D0F2EE808031D0F2E70150130CC
:102AC0002300AE0088312000942090317A08230042
:102AD000B1007908B0007808AF007708AE0031087F
:102AE000BF003008BE002F08BD002E08BC00C30187
:102AF000C2017A30C1008830C00080312000ED244E
:102B000090317A082300B1007908B0007808AF004E
:102B10007708AE000508B3000408B200831431083A
:102B2000BB003008BA002F08B9002E08B8000A30E0
:102B3000BF00D730BE008330BD007F30BC00803185
:102B400020004F269031230033088500320884008E
:102B50007A08A9007908A8007808A7007708A600D5
:102B60002608F7002708F8002808F9002908FA00C5
:102B70007A08A5007908A4007808A3007708A200C5
:102B80000508A7000408A60083102508BB00240838
:102B9000BA002308B9002208B80022006008230008
:102BA000BF0022005F082300BE0022005E08230051
:102BB000BD0022005D082300BC00803120004F26AC
:102BC0009031230027088500260884007A08220017
:102BD000EC007908EB007808EA007708E90001309A
:102BE0002000C40020302200E2002530E1008930BE
:102BF00084006C082300A50022006B082300A400B9
:102C000022006A082300A300220069082300A20012
:102C10000230A60088312000FF259031122E0230AC
:102C2000C4007011892E20302300A3003A30A20086
:102C30002030A5000E30A40080312000E023903128
:102C4000F808031D552EE208031D552EE808031D44
:102C5000552EF0140130C400AE01AE08031D462EFF
:102C600022008C100E118E113230E90080312000CC
:102C7000CC27903122008C140E158E153230E900CD
:102C800080312000CC27903164002D2EF4080319E8
:102C90004F2E22008C140E118E11532E2000220074
:102CA0008C140E158E15582E20000230C400220000
:102CB000F0102000892E8831FE2E9031892E822935
:102CC000892E20302300A3003A30A2002030A50036
:102CD0000E30A40080312000E0239031F808031D5D
:102CE000842EE208031D842EE808031D842E220092
:102CF0008C140E158E1580312000E1209031630078
:102D000080310F229031862E0230C400892E02308D
:102D1000C4002200E508031D9D2E8C140E158E158F
:102D20008C100E110230E800AF30E9008031200035
:102D3000CC2790312200E80B942EAD2E8C140E156A
:102D40008E158C100230E800AF30E9008031200091
:102D5000CC2790312200E80BA42EE6016608153C32
:102D6000031CBC2E0E30660784002030850003183B
:102D7000850A8001E60AAE2EF4080319F52E701DAF
:102D8000F22E2000171A960195011508F700171A60
:102D90001608FA00171EFA0177082200E8007A08E0
:102DA000E9006908033C031CF22E031DDB2E6808B2
:102DB0006F3C031CF22E701DF22E8C140E118E151A
:102DC0001430E90080312000CC27903122008C148F
:102DD0000E158E151430E90080312000CC2790317B
:0E2DE000C52E22008C140E118E11562C63008D
:027FFE002C3421
:020000040001F9
:08000E00EC3FF83DFC1FFC3F34
:00000001FF
;PIC16F18326
;CRC=7782  CREATED="26-jul-19 18:48"
