:060000008031B82D000064
:0800080083018031200077081C
:10001000A0007808A1007908A2007A08A3003100A6
:1000200011082000A400310012082000A5003100B2
:1000300013082000A600310014082000A700850145
:1000400091308400801D262891193F282008F70050
:100050002108F8002208F9002308FA0024083100DA
:100060009100200025083100920020002608310070
:1000700093002000270831009400090020008031FF
:1000800041282400941A4728F3011419F317730820
:10009000F30A2300E700E708031D6828240015136E
:1000A000141C502811081516F201F0185F28701959
:1000B0005F287014FE302000D70067282400F01C51
:1000C00064282000D701240070197011200023003B
:1000D0006708803C0319F10167087F3C03189128E9
:1000E0007108283C031C90283730710784002030A9
:1000F00085000318850A0008E8006808E900240064
:1001000011082300690824009100151620009111A0
:10011000240014188928F801161FF80AF10A230090
:10012000A828E7080319A8287208283C031CA82857
:100130000E3072078400203085000318850A2400E1
:100140001513141CA128110815168000F20A2300AB
:100150002000911180312628BF34AC275228AC12E0
:100160002E196600BF29F430F43A7316A531AC128B
:100170002E19660024009D132000921123005308BD
:100180002400990002309D1BCC282000921DC62817
:10019000003024001E1B0130F80020000800210060
:1001A0009115C0308B040E148E1424001710971074
:1001B0009711C4309200363095001614961721001E
:1001C0000E168E1624001F109F109F1109309A00E2
:1001D00028309D009C131C132300BC0124001E1416
:1001E0001E18F028031023003C0DD038BD00D300AA
:1001F0002000BA201C302300D3002000BA202400A5
:100200001E151E1901292200971797141710210097
:100210001E169E161E139E171D141E109E101E11D4
:10022000043023008C0000308E000830F8002100DC
:100230001D08033978049D001E149E141E11903071
:10024000200097004B30980021008C1022008C1069
:100250002300BA013A08283C031C38290E303A071B
:100260008400203085000318850A8001BA0A2A29F3
:10027000803120008E2E2300BC01BF013F083A07C9
:10028000840000303B3D850080080319A1293F0808
:100290003A07F80000303B3DFA007808C3007A08BE
:1002A000C4003F083A07840000303B3D8500000849
:1002B000C500603C0318632945087A3C031C632988
:1002C0004508DF3964294508C5004408850043080E
:1002D0008400450880003F083A07840000303B3D19
:1002E00085000008C3003F30310092008F3091003C
:1002F000213085001430840001302300C6004608F8
:10030000F700031031001513151400000000130846
:1003100080000131910A0319920AF70B8429230006
:1003200044084302031D9F29BC0A3C0B99293F083E
:10033000BD003C08023C031D9F293F08BE00BF0AC8
:100340003E293C08003A20000319AD29013A03195F
:10035000D729033A0319372AC92A2300C0014008C4
:10036000073C031CCE2960304007F8002030FA001B
:100370000318FA0A7808C3007A08C40040083A074C
:10038000840000303B3D85000008C500440885001E
:100390004308840045088000C00AAF296030400748
:1003A0008400203085000318850A8001CF2A2300AD
:1003B000C10141083A07840000303B3D85008008B8
:1003C00003192C2A3D0841020318FF296030410718
:1003D000F8002030FA000318FA0A7808C3007A08F7
:1003E000C40041083A07840000303B3D8500000806
:1003F000C5004408850043088400450880003D0886
:100400004102031D0B2A6030410784002030850023
:100410000318850A800141083D0203182A2A013089
:100420003D0741026E3EF8002030FA000318FA0A38
:100430007808C3007A08C40041083A0784000030F5
:100440003B3D85000008C500440885004308840042
:1004500045088000C10AD92901303D0741026E3E9E
:100460008400203085000318850A8001CF2A2300EC
:10047000C20142083A07840000303B3D85008008F5
:100480000319BD2A3D08420203185F2A6030420763
:10049000F8002030FA000318FA0A7808C3007A0836
:1004A000C40042083A07840000303B3D8500000844
:1004B000C5004408850043088400450880003D08C5
:1004C0004202031D6B2A6030420784002030850001
:1004D0000318850A800142083D0203188E2A3E084F
:1004E000420203188E2A01303D074202683EF8009E
:1004F0002030FA000318FA0A7808C3007A08C4000A
:1005000042083A07840000303B3D85000008C500E2
:100510004408850043088400450880003E084202E4
:10052000031D9C2A01303D074202683E84002030B2
:1005300085000318850A800142083E020318BB2A81
:1005400001303E0742026E3EF8002030FA000318E8
:10055000FA0A7808C3007A08C40042083A078400FF
:1005600000303B3D85000008C50044088500430875
:10057000840045088000C20A392A01303E07420241
:100580006E3E8400203085000318850A8001CF2A42
:1005900020000230D7000030F800D22A23000130BA
:1005A000F80020008031ED2E23004108FA004008B9
:1005B00084007A0885000008C4004308FA00420855
:1005C00084007A08850000084402031DFD2A4108C2
:1005D000FA00400884007A0885008008031DF32A89
:1005E0000030F800132B4108FA004008C00A031934
:1005F000C10AC20A0319C30AD52A4108FA004008F1
:100600008400410885000008C4004308FA0042083D
:10061000840043088500000844020318112BFF30B2
:10062000122B0130F800200008002300BC013C0818
:100630000E3C031C412B3C0DF700F70DF70DF83075
:10064000F70577088B3EF8002030FA000318FA0A05
:100650007808BE007A08BF003B08C1003A08C00015
:100660003F08C3003E08C2002000D422F808031D42
:100670003E2B23003C08F800432B20002300BC0A3B
:10068000172B0030F80080312000F92E23003408A9
:1006900085003308840050081A008001B30A03194A
:1006A000B40A200008000B088B1331001513151431
:1006B00000000000891B8B170318862B13087F3955
:1006C0002300C300310011082300C40031001208C8
:1006D0002300C5004308D00020004623230044081F
:1006E0003100910023004508310092000B088B1364
:1006F0001513151400000000891B8B172300C00B75
:10070000822B842B3100862BA92B3100130D140D65
:100710007F392300C300310011082300C4003100D9
:1007200012082300C5004308D00020004623230000
:100730004408310091002300450831009200910ADD
:100740000319920A03102300C00BA72BA92B20002A
:10075000532B200008002300500803191C2CDC0038
:10076000540803191C2CDC070318BD2B7F30DC0256
:10077000031C1C2C03191C2CC12B8130DC07031813
:100780001C2C5C08F700F801F901FA015108E0009F
:10079000E0175208DF005308DE001830DC00DD01EE
:1007A0005E1CEA2B5708FA07031CDC2BF90A031D11
:1007B000DC2BF80A0319DD175608F907031CE32B95
:1007C000F80A0319DD175508D200D2175208F807A6
:1007D0000318DD17DD0DF80CF90CFA0CE00CDF0C3A
:1007E000DE0C0310DC0BCF2B0130F70703181C2C99
:1007F000F81B012CE00DFA0DF90DF80DF7030319A4
:100800001C2CE01F122CFA0A031D122CF90A031DDE
:10081000122CF80A031D122CF80CF90CFA0CF70A2A
:1008200003191C2C5108DD005508DD06DD1F1A2CAC
:10083000F817202CF813202CF701F801F901FA0120
:10084000200008008318282C213085002C308400DB
:10085000F701F801F901FA012300DC01DD01DE01F5
:10086000DF0157085604550454040319672C20303F
:10087000E0000310D00DD10DD20DD30DDC0DDD0D38
:10088000DE0DDF0D57085F02031D502C56085E0277
:10089000031D502C55085D02031D502C54085C02AA
:1008A000031C612C5408DC025508031C550FDD02A3
:1008B0005608031C560FDE025708031C570FDF02B1
:1008C0000314F70DF80DF90DFA0DE00B392C5C0847
:1008D00080005D08813F5E08823F5F08833F200003
:1008E000080004082300C8004408CA000319932C18
:1008F0004308D3004208D2004108D1004008D0008C
:10090000D701D6012030D5008230D4002000AB239F
:100910007A082300C3007908C2007808C10077086C
:10092000C000CA0B782C4308D3004208D20041080B
:10093000D1004008D0005008B63CD000FA01510860
:10094000D400D1170310D10CD20CD30CFA0CF90C33
:10095000F80CF70CD00BA22CD41FB92CF709F8090E
:10096000F909FA09F70A0319F80A0319F90A031928
:10097000FA0A7A08C3007908C2007808C10077082B
:10098000C000C31FD02CC803C816C009C109C209C2
:10099000C309C00A0319C10A0319C20A0319C30A09
:1009A0003B30CF009A30CE00CA30CD00CC010A30A7
:1009B000CA0044080319C80A831421308500103086
:1009C00084004308D3004208D2004108D100400807
:1009D000D0004F08D7004E08D6004D08D5004C086F
:1009E000D400200022247808F708031D0E2D2300D0
:1009F000440A4A02031DFE2C20000E2D480803194C
:100A0000112D0F394A020319072D0318492DC81B50
:100A1000492D481B112D2030432D2000203023006C
:100A2000C805C81E212DC8124408031DC803770835
:100A3000C8002D30D0002000462323004808F700CE
:100A4000C80144084A02031D312D7708C8002E3022
:100A5000D0002000462323004808F7002030C805B6
:100A600000303030C81E432DC8124408031DC8038F
:100A70007708C8002D30D000200046232300480806
:100A8000F700C8013030F7077708D0002000462370
:100A9000230083104F08D3004E08D2004D08D10028
:100AA0004C08D000D701D601D5010A30D40020006F
:100AB00022247A082300CF007908CE007808CD00E0
:100AC0007708CC00CA0BDC2C2000080024001D1382
:100AD0009E159E19692D77189E12771C9E161E165C
:100AE0001E1A702D1908F80020000800213085001A
:100AF0000B308400000803198B2D0530F800F70136
:100B0000F70B802DF80B7F2D2E30F700F70B862D7D
:100B1000892D800B7D2D080023004508F801440233
:100B20000318952D4408F700A12DF7010830C600E1
:100B3000C40DF70D450877020318F700F80DC60B32
:100B4000982D2000080080080319B72D0508230000
:100B5000BD000408BC000008D0002000462323008C
:100B60003D0885003C08840001312000A32D0800C9
:100B700055303C008F00AA308F000F1014309D00BC
:100B800015309E001030A0001130A10018303D003B
:100B9000A0001930A1001A30A4001B30A500553068
:100BA0003C008F00AA308F000F1432009E019B0181
:100BB0009D0106309F00603099007010F010701198
:100BC0000330F3002300B401B3018C018E01220035
:100BD0009201910194019301722E02340034283461
:100BE000003400342B344034B034003403348034C7
:100BF0004534523452340534C03400340434803423
:100C000042344134553444340434C034003405345F
:100C10008034433441344C340034003417340134CC
:100C200020340034003400344534583450344F34C8
:100C30005234543400340034463441344334543450
:100C40004F34523459340034463449344E344434E9
:100C50000434C03400340134803449340734C0349F
:100C60000034033480344934323443340534C034DE
:100C700000340934803449344D3450344F345234C4
:100C80005434003400344C340734C0340034093454
:100C9000803450344C344F3443344B3400340034BB
:100CA000003452340734C0340034053480345334B3
:100CB0004C3445344534503412340134A0340034BB
:100CC0000034003453344C344F3450344534003401
:100CD0000034003453345434413454345534533490
:100CE0000034003405308500ED3084008517120093
:100CF000F700003A03198C2E1200F800F81B842E1E
:100D00000F39870012008600781B1200781F12002E
:100D10001E00F70B862E772E2000CF2823003510DB
:100D2000701CB12E2000171A960195011508F700C6
:100D3000171A1608FA00171EFA0177082300BA00DE
:100D40007A08BB00BB08031DAC2E3A083B3C031CD1
:100D5000AC2E2000962E230035142000D6017010F2
:100D60002300351C122F3510B6013608283C031C11
:100D7000E72E373036078400203085000318850AB7
:100D800080013608073C031CCD2E603036078400F6
:100D9000203085000318850A80013608053C031CB5
:100DA000D92E683036078400203085000318850A64
:100DB000800136081C3C031CE52E6E30360784008B
:100DC000203085000318850A8001B60AB52E203030
:100DD000BB000E30BA0020003B292300B510781864
:100DE000B514B51C032F2030BB006030BA002000C2
:100DF000152B78082300B7003708BA008831200087
:100E0000002880312300B8013808283C031C122F29
:100E10000E3038078400203085000318850A8001D1
:080E2000B80A042F902E6300B4
:1010000023003A08F13E0318772C0F3E20007A2C7B
:101010002300772C2300772C0130D70020302300C9
:10102000B4003830B300AC30310091000030920091
:10103000031007302300C000803120005323883183
:10104000893084002300C301C201C1017F30C00088
:101050000230C40080312000712488312300772CB5
:1010600020302300C1006030C0002030C3000E30AB
:10107000C20080312000D4228831F808031D942951
:101080002100B8080319462820009429BE08031936
:101090004B282000942901302000D7002300C001F4
:1010A0004008CC008030D10024001E141E185628A1
:1010B000031023004C0DD0380138D200D30080310A
:1010C0002000BA2088310130F70080316625883150
:1010D00078082300CF000130F7008031200066251A
:1010E000883178082300CE000130F70080312000DD
:1010F0006625883178082300CD000130F700803163
:1011000020006625883178082300D100D11FC72828
:101110000130F700803120006625883178082300EF
:10112000D100D11B8828F701803120006625883145
:1011300078082300D10024001E151E199D281E14B6
:101140001E18A028031023004C0DD0380138D200FF
:10115000D30080312000BA2088310130F70080317F
:101160006625883178082300CF000130F7008031F0
:1011700020006625883178082300CE000130F70072
:10118000803120006625883178082300CD00F701E2
:10119000803120006625883178082300D1002400A2
:1011A0001E151E19D1282300CF1CD928FF30D000CE
:1011B000DA28D0014D08F7004E08F8004F08F90072
:1011C0005008FA007A08C4007908C3007808C20001
:1011D0007708C1004408CF004308CE004208CD0084
:1011E0004108CC00B630F700FA01F901F8015010BF
:1011F000CF1F08295014CC09CD09CE09CF09CC0A3C
:10120000031D0829CD0A031D0829CE0A0319CF0A98
:101210004C084D044E044F04031D1029F7011F29EB
:101220000310F81B1C29CC0DCD0DCE0DCF0DFA0DE2
:10123000F90DF80DF70B1029F8135018F8177A0864
:10124000CF007908CE007808CD007708CC004F0891
:10125000D3004E08D2004D08D1004C08D0006F30AA
:10126000D7001230D6000330D5006F30D400803163
:101270002000AB2388317A082300C8007908C70012
:101280007808C6007708C5004508F7004608F8004A
:101290004708F9004808FA007A08C3007908C20034
:1012A0007808C1007708C0004308D3004208D20084
:1012B0004108D1004008D000D701D6017A30D500CE
:1012C0008830D40080312000AB2388317A08230095
:1012D000BF007908BE007808BD007708BC003C0854
:1012E000F7003D08F8003E08F9003F08FA007A08C8
:1012F000BF007908BE007808BD007708BC00203028
:10130000B4003830B300893084003F08C3003E0881
:10131000C2003D08C1003C08C0000230C40080315A
:1013200020007124883196290230D7002300772CC1
:1013300020302300C1006030C0002030C3000E30D8
:10134000C20080312000D4228831F808031DD12941
:101350002100B8080319AE292000D129BE080319BD
:10136000B3292000D129F01401302000D700AE01AC
:10137000AE08031DD029023022008C066430230001
:10138000BB008031200076258831023022008C0697
:1013900064302300BB008031200076258831B829D5
:1013A000D3290230D700F0102300772C2100B80891
:1013B000031DB22ABE080319B22A20302300BC0044
:1013C0006E30BB003C08BE003B08BD003E08FA0082
:1013D0003D0884007A08850080080319F329BD0AB6
:1013E0000319BE0AE6293B083D02F7003C083E3BD4
:1013F000FA007708F800780BAD2A21003E08313A50
:10140000200003190A2A013A0319102A0F3A031976
:10141000162AA82A22008C1401302000D700AB2AFB
:1014200022008C1001302000D700AB2A0130D700F9
:1014300000308C1801302300BB002030B40038305D
:10144000B3004C30D00080312000462388312C304E
:101450002300D00080312000462388313F30230014
:10146000D000803120004623883123003B08BC0097
:101470001830BD0020303D1E3030C0003C08F70061
:10148000BC1F4A2AF709F70A7708BC002D30C000B4
:10149000BD173D143C08C4006430C50080312000F5
:1014A0008C25883177082300BC0030307807C100D4
:1014B0003C08C4000A30C500803120008C258831EA
:1014C000303077072300C30030307807C20040086F
:1014D000F700303041020319712ABD14BD1B3D15C0
:1014E000852A4008C1002030C00030304202031974
:1014F0007D2A3D14BD1BBD14852A031D3D14031D0B
:10150000852A4108C2002030C1003D198C2ABD182F
:10151000932A3D189A2AA12A4008D0008031200041
:101520004623883123004108D00080312000462323
:10153000883123004208D0008031200046238831C2
:1015400023004308D0008031200046238831AB2A95
:101550000230D700AB2AB02A230002302000D70087
:10156000B52A210002302000D7002300772C20303C
:101570002300C1006030C0002030C3000E30C20024
:1015800080312000D4228831F808031D3C2C210032
:10159000B8080319CD2A20003C2CBE080319D22A12
:1015A00020003C2C9D149D18D32A1C08FA001B080F
:1015B0002300C0007A08C1004108C3004008C200EF
:1015C0008E30F7004308F8004208F900FA01F808E5
:1015D000031DF42A7908F800F9010830F702F80829
:1015E000031DF42AF701FC2A0310F81BFB2AF90D4E
:1015F000F80DF703F42AF8137A08C5007908C40037
:101600007808C3007708C200C901C030C8007F3025
:10161000C7008830C60042080319D12BD000460805
:101620000319D12BD0020318162B1B2B7F30D007A8
:101630000318D12B212B8130D002031CD12B03198D
:10164000D12B5008F700F801F901FA01CF01430846
:10165000CE00CE174408CD004508CC001930D0008C
:101660004908CC020318442B0130CD020318442B47
:10167000CE020318442BCF020318442BCF0ACE0A04
:10168000CD0A4908CC07762B4808CD0203185F2BFA
:101690000130CE0203185F2BCF0203185F2BCF0A55
:1016A000CE0A4808CD074908CC07031C762BCD0A83
:1016B000031D762BCE0A031D762BCF0A762B470807
:1016C0008038CE020318752B0130CF020318752B1A
:1016D000CF0A47088038CE074808CD07031C532B94
:1016E000CE0A031D532BCF0A532B7A14D00B792B20
:1016F000842B0310CC0DCD0DCE0DCF0D0310FA0DA4
:10170000F90DF80DD10D302B511C8C2B0310F80C5A
:10171000F90CFA0CD10C8F2BF7030319D12BD11B29
:10172000B82B0310CC0DCD0DCE0DCF0D4908CC023A
:101730000318A42B0130CD020318A42BCE020318EA
:10174000A42BCF02031CC72B4808CD020318AF2BD4
:101750000130CE020318AF2BCF02031CC72B470862
:101760008038CE020318B82B0130CF02031CC72BE0
:10177000FA0A031DC72BF90A031DC72BF80A031D1C
:10178000C72BF70A0319D12BF80CF90CFA0C4308F4
:10179000D0004708D006D01FCF2BF817D52BF81351
:1017A000D52BF701F801F901FA016F30D30012309F
:1017B000D2000330D1008030D0007A08D7007908F9
:1017C000D6007808D5007708D40080312000AB23FC
:1017D000883193302300D3002B30D2004830D10021
:1017E0008030D0007A08D7007908D6007808D50074
:1017F0007708D40080312000AB2388317A08230099
:10180000BE007908BD007808BC007708BB00013035
:101810002000D70020302300B4003830B300B230AD
:101820003100910000309200031008302300C00006
:10183000803120005323883155302300D00080317F
:101840002000462388312C302300D0008031200036
:10185000462388318930840023003E08C3003D08B8
:10186000C2003C08C1003B08C0000230C400803107
:101870002000712488313E2C0230D7002300772CC1
:101880007015D70120302300B4003830B30034087D
:10189000850033088400800120308500603084009A
:1018A00080312000A32588312300340885003308C7
:1018B0008400800120308500683084008031200061
:1018C000A325883123003408850033088400800173
:1018D000203085006E30840080312000A3258831BF
:1018E0002300772C0230D7002300772C230080318F
:1018F0002000012F0A108A100A158207722C08286E
:101900000A28762C762C98290C28762C762CD62929
:0A191000762C3028402C762CB72AE4
:027F1E002C3401
:107F20007F3400340034003482343534E4341B347C
:107F300083346734DB34A43483341E348C343334D8
:107F40007C34343489340A348134353479347C34A3
:107F50008334333402343F3483341E348C3433342A
:107F60007F340034003400348134B1348D340A3429
:107F7000813433345034EE347D347D34BF3437347F
:107F800081349334AA343D34813433345034EE3464
:107F90007B343A34F3344C347E34DF349D342B3428
:107FA0000034003400340034003400340034003431
:107FB0007F348A34473499348034003400340034B8
:107FC0000034003400340034003400340034003411
:107FD0007234593488347C34753426349734E03420
:107FE00078341E341D34C4347A34633450345E34EF
:107FF0007C347534FE341A347E343134723418349F
:020000040001F9
:08000E00EC3FF13FFC1FFC3F39
:00000001FF
;PIC16F18326
;CRC=C959  CREATED="04-jul-19 17:42"
