:060000009031672B0000A7
:0800080083018031200077081C
:10001000A0007808A1007908A2007A08A3003100A6
:1000200011082000A400310012082000A5003100B2
:1000300013082000A600310014082000A700850145
:1000400091308400801D262891193F282008F70050
:100050002108F8002208F9002308FA0024083100DA
:100060009100200025083100920020002608310070
:1000700093002000270831009400090020008031FF
:1000800041282400941A4728FB011419FB177B0808
:10009000FB0A2300CE00CE08031D602824001513A0
:1000A000141C502811081516F201F0185D28701460
:1000B000FE302000C4005F2824002000C40123007B
:1000C0004E08803C031D6728F101701970114E081D
:1000D0007F3C03188C287108153C031C8B282430A6
:1000E00071078400203085000318850A0008D000BD
:1000F0005008D10024001108230051082400910069
:10010000151620009111240014188428F801161FD8
:10011000F80AF10A2300A328CE080319A3287208BD
:10012000153C031CA3280E30720784002030850084
:100130000318850A24001513141C9C281108151691
:100140008000F20A23002000911180312628BF345C
:10015000AC275228AC122E196600BF29F430F43AAD
:100160007316A531AC122E196600BF29F430F43A8B
:100170007316A531AC122E196600BF29F430F43A7B
:100180007316A531AC122E196600BF29F430F43A6B
:100190007316A531AC122E196600BF29F430F43A5B
:1001A0007316A531AC122E196600BF29F430F43A4B
:1001B0007316A531AC122E196600BF216136AC1240
:1001C000640032001117111512141317931613152A
:1001D0009314941714179416141694151415941454
:1001E00014141616961516159614161420000800E9
:1001F00024009D132000921123003F082400990041
:1002000002309D1B0A292000921D04290030240081
:100210001E1B0130F8002000080019302100970053
:100220009115C0308B040E148E14240017109710F3
:100230009711C4309200363095001614961721009D
:100240000E168E1624001F109F109F1113309A0057
:1002500028309D009C131C1301302200EA0024006A
:100260001E141E183129031022006A0DD038EB002D
:100270002300BF002000F8201C302300BF00200016
:10028000F82024001E151E194329220097179714E1
:10029000171021001E169E161E139E171D141E10E9
:1002A0009E101E11043023008C0000308E00083098
:1002B000F80021001D08033978049D001E149E14C7
:1002C0001E119030200097004C30980021008C10B7
:1002D00023008C1024008C1025008C1426008C1018
:1002E00027008C1021000E118E1123000E118E118B
:1002F00024000E118E1125000E158E1526000E11EC
:100300008E1127000E118E1164302200EA00023097
:10031000EA02031C982920308500EA308400000896
:10032000031998299629942995290000800B93296F
:100330000130310091007030920015171514130828
:100340001513F400F4080319AB2922008C140E15C0
:100350008E11AF29310022008C140E158E150A3033
:100360003100910070309200151715141308151301
:100370002200DD000B303100910070309200151723
:100380001514130815132200DE000C303100910003
:100390007030920015171514130815132200DF0092
:1003A0000D303100910070309200151715141308AC
:1003B00015132200E00031009101703092001517F2
:1003C000151413081513F3000330910070309200D8
:1003D0001517151413081513F5007508003C0318BC
:1003E000FC2975087F3C031CFC290310750D2200B5
:1003F000EA0024009200310080312000072A3200F8
:100400001113111112101313931220000D2908005B
:100410002200EA01ED016D08680784000030693DA3
:10042000850080080319762A6D086807F8000030F7
:10043000693DFA0078082300A2007A08A300220090
:100440006D08680784000030693D850000082300BE
:10045000A400603C0318332A24087A3C031C332A86
:100460002408DF39342A2408A40023088500220840
:1004700084002408800022006D0868078400003092
:10048000693D850000082300A2003F303100920042
:10049000FF30910020308500F330840001302300CC
:1004A000A5002508F70003103100151315140000EE
:1004B0000000130880000131910A0319920AF70B1A
:1004C000562A230023082202031D732A2200EA0A67
:1004D0006A0B6C2A6D08EB006A08023C031D722A45
:1004E0006D08EC0023002200ED0A0B2A6A08003A8E
:1004F00020000319822A013A0319B02A033A03198A
:10050000182BC52B2200EE016E08073C031CA72AFE
:100510003A306E07F8002030FA000318FA0A78081B
:100520002300A2007A08A30022006E086807840056
:100530000030693D850000082300A40023088500E1
:1005400022088400240880002200EE0A842A3A301F
:100550006E078400203085000318850A8001CB2BAC
:100560002200EF016F08680784000030693D8500B4
:10057000800803190D2B6B086F020318DC2A3A3030
:100580006F07F8002030FA000318FA0A78082300F1
:10059000A2007A08A30022006F08680784000030D8
:1005A000693D850000082300A40023088500220877
:1005B00084002408800022006B086F02031DE82AD3
:1005C0003A306F078400203085000318850A8001C7
:1005D0006F086B0203180B2B01306B076F02483E4C
:1005E000F8002030FA000318FA0A78082300A20065
:1005F0007A08A30022006F08680784000030693D74
:10060000850000082300A400230885002208840038
:10061000240880002200EF0AB22A01306B076F0223
:10062000483E8400203085000318850A8001CB2BCA
:100630002300A00120082200680784000030693DE3
:10064000850080080319B72B6B08230020020318CC
:10065000442B3A302007F8002030FA000318FA0A39
:100660007808A2007A08A300200822006807840006
:100670000030693D850000082300A40023088500A0
:10068000220884002408800022006B082300200236
:10069000031D522B3A3020078400203085000318B8
:1006A000850A8001200822006B0203187E2B6C084B
:1006B00023002002031C5E2B22007E2B013022002F
:1006C0006B0723002002423EF8002030FA00031896
:1006D000FA0A7808A2007A08A30020082200680716
:1006E00084000030693D850000082300A400230831
:1006F0008500220884002408800022006C08230062
:100700002002031D8F2B013022006B0723002002E3
:10071000423E8400203085000318850A80012008AD
:1007200022006C020318B32B01306C072300200257
:10073000483EF8002030FA000318FA0A7808A200B0
:100740007A08A30020082200680784000030693D71
:10075000850000082300A4002308850022088400E7
:100760002408800022002300A00A1A2B2200013056
:100770006C0723002002483E8400203085000318C7
:10078000850A80012200CB2B20000230C4000030FB
:10079000F800CE2B22000130F80020009031CB2C45
:1007A00023002308FA00220884007A088500000844
:1007B000A6002508FA00240884007A0885000008AD
:1007C0002602031DF92B2308FA00220884007A0868
:1007D00085008008031DEF2B0030F8000F2C230844
:1007E000FA002208A20A0319A30AA40A0319A50AF7
:1007F000D12B2308FA002208840023088500000872
:10080000A6002508FA0024088400250885000008B1
:10081000260203180D2CFF300E2C0130F8002000AA
:10082000080023002808AA002708A9002A08FA00BF
:10083000290884007A08850080080319232CA90A56
:100840000319AA0A162C27082902F70028082A3BB0
:10085000FA007708F800200008002300A401A50191
:10086000A6012608220784000030233D8500800869
:100870000319D82CA608031D642C22088400230821
:10088000850000310008A70027082F3C03184C2CD6
:100890002708393C0318552C2208840023088500BA
:1008A000003100082D3C031D602C22088400230821
:1008B0008500003100082D3C0319A50AD62C632CB5
:1008C0000030F800DA2CD62C2608220784000030ED
:1008D000233D85000008A70027082F3C0318742C2F
:1008E0002708393C0318762C0030772C0130013C66
:1008F00003198E2C2608220784000030233D850032
:1009000000082E3C03198E2C260822078400003094
:10091000233D850000082D3C031DD32C260822070B
:1009200084000030233D850000082E3C031DA02CD0
:10093000A40A2408013C0318A02C0030F800DA2C8B
:100940002608220784000030233D850000082D3C46
:10095000031DAD2C0030F800DA2C2308A800220873
:10096000A700200011240130780223002207840010
:100970000030233D850000082E3C031DC22C0030B2
:10098000F800DA2C2608220784000030233D850079
:100990000008A70027082F3C0318D22C2708393C51
:1009A0000318D62CD62C0030F800DA2CA60A312CED
:1009B0000130F80088312000A72923003C080319E2
:1009C0004E2DC800400803194E2DC8070318EF2C00
:1009D0007F30C802031C4E2D03194E2DF32C81309D
:1009E000C80703184E2D4808F700F801F901FA016D
:1009F0003D08CC00CC173E08CB003F08CA00183099
:100A0000C800C9014A1C1C2D4308FA07031C0E2DFF
:100A1000F90A031D0E2DF80A0319C9174208F90730
:100A2000031C152DF80A0319C9174108BE00BE178B
:100A30003E08F8070318C917C90DF80CF90CFA0C91
:100A4000CC0CCB0CCA0C0310C80B012D0130F707DE
:100A500003184E2DF81B332DCC0DFA0DF90DF80DA2
:100A6000F70303194E2DCC1F442DFA0A031D442D04
:100A7000F90A031D442DF80A031D442DF80CF90C46
:100A8000FA0CF70A03194E2D3D08C9004108C906A2
:100A9000C91F4C2DF817522DF813522DF701F801EC
:100AA000F901FA01200008008E30F7002300390810
:100AB000F8003808F900FA01F808031D692D7908D3
:100AC000F800F9010830F702F808031D692DF70155
:100AD000712D0310F81B702DF90DF80DF703692D1A
:100AE000F81320000800230038080319392EC40029
:100AF0003C080319392EC402031C832D7F30C40720
:100B00000318392E892D8130C402031C392E031994
:100B1000392E4408F700F801F901FA01C301390838
:100B2000C200C2173A08C1003B08C0001930C40017
:100B30003F08C0020318AC2D0130C1020318AC2DD0
:100B4000C2020318AC2DC3020318AC2DC30AC20A9B
:100B5000C10A3F08C007DE2D3E08C1020318C72D99
:100B60000130C2020318C72DC3020318C72DC30AE0
:100B7000C20A3E08C1073F08C007031CDE2DC10A98
:100B8000031DDE2DC20A031DDE2DC30ADE2D3D0826
:100B90008038C2020318DD2D0130C3020318DD2D99
:100BA000C30A3D088038C2073E08C107031CBB2D9D
:100BB000C20A031DBB2DC30ABB2D7A14C40BE12D41
:100BC000EC2D0310C00DC10DC20DC30D0310FA0DA5
:100BD000F90DF80DC50D982D451CF42D0310F80CDA
:100BE000F90CFA0CC50CF72DF7030319392EC51BA8
:100BF000202E0310C00DC10DC20DC30D3F08C00251
:100C000003180C2E0130C10203180C2EC202031867
:100C10000C2EC302031C2F2E3E08C1020318172EF0
:100C20000130C2020318172EC302031C2F2E3D08E9
:100C30008038C2020318202E0130C302031C2F2E5D
:100C4000FA0A031D2F2EF90A031D2F2EF80A031D81
:100C50002F2EF70A0319392EF80CF90CFA0C390863
:100C6000C4003D08C406C41F372EF8173D2EF813E4
:100C70003D2EF701F801F901FA012000080080304B
:100C8000831C452E2300BD0620002300C201C301A2
:100C90003908C1003D08C10638080319362FC000C5
:100CA000F7003C0803193F2FC0020319DA2E031C7A
:100CB000972E3D08C600C6173E08C5003F08C40071
:100CC000C3010310C60CC50CC40CC30CC00B602EB2
:100CD000C11F6D2E4214532F421040104216213076
:100CE00085000B308400682F4212C11B812E401CEE
:100CF0008C2EC60CC50CC40CC30CF70A03194E2F5E
:100D00008C2EC61B8F2E0310C30DC40DC50DC60D32
:100D1000F70303194E2F812E4217FB2E4213390879
:100D2000C100C11F952EC617472FC613472F3C0879
:100D3000C000F7003808C0023908C600C6173A08D4
:100D4000C5003B08C400C3010310C60CC50CC40C8D
:100D5000C30CC00BA32EC11FB02EC214532FC21040
:100D60004010C216213085000F308400682FC21257
:100D7000C11BC42E401CCF2EC60CC50CC40CC30C0A
:100D8000F70A03194E2FCF2EC61BD22E0310C30D08
:100D9000C40DC50DC60DF70303194E2FC42EC2177F
:100DA000FB2EC2133D08C100C11FD82EC617472F06
:100DB000C613472F3D08C600C6173E08C5003F08AA
:100DC000C400C11FE72EC6134215532F4211C301A1
:100DD0004010213085000B308400682FC11B112F7B
:100DE0003908C100401CFB2EC60CC50CC40CC30C3A
:100DF000F70A03194E2FC31F0C2FC40A031D0C2F13
:100E0000C50A031D0C2FC60A031D0C2FC60CC50CEA
:100E1000C40CF70A03194E2F421B8E2EC21BD12E73
:100E2000302F8030C606C61F192F532F3D08C10032
:100E3000262F3908C100C608031D262FC508031D2B
:100E4000262FC408031D262FF701472FC61B302F5E
:100E50000310C30DC40DC50DC60DF70B262F4E2F65
:100E6000C11F342FC617472FC613472F3C08F70062
:100E70003D08C6003E08C5003F08C400472F38089B
:100E8000F7003908C6003A08C5003B08C400460808
:100E9000F8004508F9004408FA00842FF701F8012A
:100EA000F901FA01842FC301C409C509C609C309A0
:100EB000C30A031D612FC40A031D612FC50A03194C
:100EC000C60A42186C2EC218AF2E4219E62E162FF3
:100ED0000008C407031C722FC50A031D722FC60A1F
:100EE000031940141100C507031C792FC60A031902
:100EF00040141100801F803AC60703184014421A9C
:100F0000742EC21AB72EEE2E2000080024001D13E6
:100F10009E159E19892F77189E12771C9E161E16F5
:100F20001E1A902F1908F8002000080022006208FD
:100F3000850061088400230030081A008001220027
:100F4000E10A0319E20A200008000B088B133100A4
:100F50001513151400000000891B8B170318D82FD8
:100F600013087F392300A500310011082300A600D3
:100F7000310012082300A7002508B00020009627A2
:100F80002300260831009100230027083100920039
:100F90000B088B131513151400000000891B8B1709
:100FA0002300A20BD42FD62F3100D82FFB2F3100D6
:100FB000130D140D7F392300A50031001108230003
:100FC000A600310012082300A7002508B000200069
:100FD00096272300260831009100230027083100BE
:100FE0009200910A0319920A03102300A20BF92F11
:0A0FF000FB2F2000A52F20000800B1
:1010000080302300BD0024001E141E180528031084
:101010002300380DD0380138BE00BF0080312000D9
:10102000F82088310130F700803186278831780830
:101030002300BB000130F700803120008627883173
:1010400078082300BA000130F7008031200086279D
:10105000883178082300B9000130F7008031200082
:101060008627883178082300BD00BD1F762801300F
:10107000F700803120008627883178082300BD00E2
:10108000BD1B3728F701803120008627883178087A
:101090002300BD0024001E151E194C281E141E1806
:1010A0004F2803102300380DD0380138BE00BF0090
:1010B00080312000F82088310130F7008031862708
:1010C000883178082300BB000130F7008031200010
:1010D0008627883178082300BA000130F700803174
:1010E00020008627883178082300B900F701803175
:1010F00020008627883178082300BD0024001E15B3
:101100001E1980282300BB1C8828FF30BC008928BA
:10111000BC013908F7003A08F8003B08F9003C0820
:10112000FA0088312000992823002E08B8002000FA
:1011300000287A082300B2007908B1007808B000CE
:101140007708AF003208BB003108BA003008B90098
:101150002F08B800B630F700FA01F901F8013C1089
:10116000BB1FC0283C14B809B909BA09BB09B80AA1
:10117000031DC028B90A031DC028BA0A0319BB0AF7
:10118000380839043A043B04031DC828F701D7285E
:101190000310F81BD428B80DB90DBA0DBB0DFA0D0C
:1011A000F90DF80DF70BC828F8133C18F8177A0852
:1011B000BB007908BA007808B9007708B8003B0886
:1011C000BF003A08BE003908BD003808BC006F30C7
:1011D000C3001230C2000330C1006F30C000803144
:1011E0002000DD2488317A082300B6007908B50094
:1011F0007808B4007708B3003308F7003408F80023
:101200003508F9003608FA002000080023002908F4
:10121000F801280203180F292808F7001B29F701F5
:101220000830AA00A80DF70D290877020318F70067
:10123000F80DAA0B12292000080020302300231EDD
:101240003030A4002208F700A21F2E29F709F70A60
:101250007708A2002D30A400A31723142208A800A9
:101260006430A9002000062177082300A200303056
:101270007807A5002208A8000A30A900200006214E
:10128000303077072300A70030307807A600240805
:10129000F7003030250203195129A314A31B23158D
:1012A00065292408A5002030A40030302602031947
:1012B0005D292314A31BA3146529031D2314031DF7
:1012C00065292508A6002030A50023196C29A3183C
:1012D000732923187A2981292408B000803120003D
:1012E0009627883123002508B000803120009627FA
:1012F000883123002608B0008031200096278831ED
:1013000023002708B000803120009627883108008C
:1013100043302200E9004C30EA004530EB00413018
:10132000EC005230ED00EE013F30EF002300A00151
:101330002000E208031DAD2CE8080319AD2C203075
:101340002300A3004830A200803120002D2C8831DA
:10135000F8080319EE2B20302300A3004830A20028
:10136000A501A401A901A801A7017F30A600AD0134
:10137000AC01AB01AA012E14AE102E11B00122084F
:101380002304031DC829F701F801F901FA01ED2A28
:101390003008B00A220784000030233D8500000891
:1013A000AF00AF080319AD2A2E1CE8292F08203CF6
:1013B0000319E8292E102F082B3C031DE229AE103B
:1013C000A32AE8292F082D3C031DE829AE14A32ADF
:1013D0002E18F2292F082E3C031DF2292E19F2296E
:1013E0002E15A32A2E18A12A2F082F3C0318A12A54
:1013F0002F08393C031CA12A3030AF022E1D5F2A72
:101400002908BF002808BE002708BD002608BC0028
:10141000C301C2012030C1008230C00080312000F1
:10142000DD2488317A082300A9007908A80078080B
:10143000A7007708A600B9012F08B8008031200066
:10144000542588317A082300B7007908B600780857
:10145000B5007708B4003708BB003608BA00350875
:10146000B9003408B8002908BF002808BE002708C2
:10147000BD002608BC008031200073258831831010
:1014800023002D08BB002C08BA002B08B9002A083D
:10149000B8007A08BF007908BE007808BD00770858
:1014A000BC00803120003F2688317A082300AD003F
:1014B0007908AC007808AB007708AA00A02ABF0121
:1014C000BE012030BD008230BC002D08C3002C08B6
:1014D000C2002B08C1002A08C00080312000DD2492
:1014E00088317A082300B7007908B6007808B5007B
:1014F0007708B400B9012F08B800803120005425C6
:101500008831831023003708BB003608BA0035083D
:10151000B9003408B8007A08BF007908BE0078081E
:10152000BD007708BC00803120003F2688317A0852
:101530002300AD007908AC007808AB007708AA005A
:10154000A32A2E1CAD2A3008B00A220784000030DE
:10155000233D85000008AF00D129AE1CCA2ABF0177
:10156000BE018030BD007F30BC002D08C3002C08B8
:10157000C2002B08C1002A08C00080312000DD24F1
:1015800088317A082300AD007908AC007808AB00F8
:101590007708AA00240825040319E52AB0080319CE
:1015A000DD2AB003240884002508850030082207BE
:1015B00080000030233D813FE52A2408840025086F
:1015C0008500220880002308813F2A08F7002B08A5
:1015D000F8002C08F9002D08FA007A08A50079080F
:1015E000A4007808A3007708A2000130AE00200014
:1015F00094207A082300B1007908B0007808AF0081
:101600007708AE003108BF003008BE002F08BD00CB
:101610002E08BC00C301C2017A30C1008830C0006E
:1016200080312000DD2488317A082300B100790858
:10163000B0007808AF007708AE000508B3000408D2
:10164000B20083143108BB003008BA002F08B9007B
:101650002E08B8000A30BF00D730BE008330BD006E
:101660007F30BC00803120003F26883123003308C2
:101670008500320884007A08A9007908A800780853
:10168000A7007708A6002608F7002708F800280812
:10169000F9002908FA000508A7000408A600831429
:1016A0002508BB002408BA002308B9002208B800A6
:1016B0007A08BF007908BE007808BD007708BC0032
:1016C000803120003F268831230027088500260826
:1016D00084007A082200E0007908DF007808DE0044
:1016E0007708DD000B08F7008B130A3031009100FA
:1016F0007030920022005D08310093001517151517
:1017000055309600AA30960095149518852B151122
:10171000151377088B040B08F7008B130B3091001F
:101720007030920022005E083100930015171515E5
:1017300055309600AA309600951495189D2B1511DA
:10174000151377088B040B08F7008B130C309100EE
:101750007030920022005F083100930015171515B4
:1017600055309600AA30960095149518B52B151192
:10177000151377088B040B08F7008B130D309100BD
:101780007030920022006008310093001517151583
:1017900055309600AA30960095149518CD2B15114A
:1017A000151377088B040130F3000B08F7008B1337
:1017B000910170309200730893001517151555307C
:1017C0009600AA30960095149518E42B1511151360
:1017D00077088B0401302000C400AC2C203023009B
:1017E000A3004830A2002030A500E930A4008031D9
:1017F0002000D0238831F808031D7E2C2200E00150
:10180000DF01DE01DD010B08F7008B130A30310028
:1018100091007030920022005D083100930015178E
:10182000151555309600AA30960095149518162C6B
:101830001511151377088B040B08F7008B130B3069
:1018400091007030920022005E083100930015175D
:10185000151555309600AA309600951495182E2C23
:101860001511151377088B040B08F7008B130C3038
:1018700091007030920022005F083100930015172C
:10188000151555309600AA30960095149518462CDB
:101890001511151377088B040B08F7008B130D3007
:1018A00091007030920022006008310093001517FB
:1018B000151555309600AA309600951495185E2C93
:1018C0001511151377088B04F3010B08F7008B1320
:1018D000910170309200730893001517151555305B
:1018E0009600AA30960095149518742C15111513AE
:1018F00077088B0401302000C400AC2C203023007A
:10190000A3004830A2002030A500EF30A4008031B1
:101910002000D0238831F808031DAA2C0130C40010
:1019200020302200E2002530E100DD30310091005E
:1019300000309200031005302300A2008031200007
:10194000A527883173082300A2001830A3002000C7
:101950001D21AC2C0230C400AF2C0230C4009031E9
:10196000AF2E20302300A3003A30A2002030A50083
:101970000E30A40080312000D0238831F808031DE8
:10198000632DE208031D632DE808031D632D22006B
:10199000E001DF01DE01DD010B08F7008B130A30E7
:1019A000310091007030920022005D0831009300F8
:1019B0001517151555309600AA30960095149518F0
:1019C000DF2C1511151377088B040B08F7008B1308
:1019D0000B3091007030920022005E0831009300BD
:1019E0001517151555309600AA30960095149518C0
:1019F000F72C1511151377088B040B08F7008B13C0
:101A00000C3091007030920022005F08310093008A
:101A10001517151555309600AA309600951495188F
:101A20000F2D1511151377088B040B08F7008B1376
:101A30000D30910070309200220060083100930058
:101A40001517151555309600AA309600951495185F
:101A5000272D1511151377088B04F3010B08F700D8
:101A60008B139101703092007308930015171515B0
:101A700055309600AA309600951495183D2D1511F5
:101A8000151377088B0422008C140E158E1101306B
:101A9000F4000B08F7008B13013031009100703017
:101AA0009200740893001517151555309600AA304A
:101AB0009600951495185A2D1511151377088B0457
:101AC0000100662D20000230C4003100903120005A
:101AD000AF2E83186F2D2130850009308400F70167
:101AE000F801F901FA012300B901BA01BB01BC01F7
:101AF00037083604350434040319AE2D2030BD00F8
:101B00000310B00DB10DB20DB30DB90DBA0DBB0D73
:101B1000BC0D37083C02031D972D36083B02031D00
:101B2000972D35083A02031D972D34083902031CFE
:101B3000A82D3408B9023508031C350FBA0236083F
:101B4000031C360FBB023708031C370FBC020314FB
:101B5000F70DF80DF90DFA0DBD0B802D3908800039
:101B60003A08813F3B08823F3C08833F2000080041
:101B700004082300A8002608AA000319DC2D250864
:101B8000BF002408BE002308BD002208BC00C3011A
:101B9000C2012030C1008230C00080312000DD242D
:101BA00088317A082300A5007908A4007808A300EA
:101BB0007708A200AA0BBF2D2508B3002408B200A5
:101BC0002308B1002208B0003008B63CB000FA018A
:101BD0003108B400B1170310B10CB20CB30CFA0CFD
:101BE000F90CF80CF70CB00BEB2DB41F022EF70913
:101BF000F809F909FA09F70A0319F80A0319F90AA1
:101C00000319FA0A7A08A5007908A4007808A30045
:101C10007708A200A51F192EA803A816A209A309D8
:101C2000A409A509A20A0319A30A0319A40A0319FE
:101C3000A50A3B30AF009A30AE00CA30AD00AC010F
:101C40000A30AA0026080319A80A83142030850048
:101C5000F23084002508B3002408B2002308B10044
:101C60002208B0002F08B7002E08B6002D08B500D6
:101C70002C08B400200069257808F708031D572EAA
:101C80002300260A2A02031D472E2000572E28086B
:101C900003195A2E0F392A020319502E03189A2EAF
:101CA000A81B9A2E281B5A2E2030922E200020305E
:101CB0002300A805A81E6C2EA8122608031DA80341
:101CC0007708A8002D30B000803120009627883199
:101CD00023002808F700A80126082A02031D7E2EEB
:101CE0007708A8002E30B000803120009627883178
:101CF00023002808F7002030A80500303030A81E47
:101D0000922EA8122608031DA8037708A8002D30DC
:101D1000B000803120009627883123002808F70082
:101D2000A8013030F7077708B000803120009627EF
:101D30008831230083102F08B3002E08B2002D082D
:101D4000B1002C08B000B701B601B5010A30B400EB
:101D5000200069257A082300AF007908AE007808D2
:101D6000AD007708AC00AA0B252E2000080020301B
:101D70008500EA30840000080319CB2E0A30F800F1
:101D8000F701F70BC12EF80BC02E5F30F700F70BF1
:101D9000C72E800BBE2E0800E208031D582FE8084E
:101DA0000319582F20302300A8004830A7008031A5
:101DB000200011248831780B532F6808313A031919
:101DC000E82E013A0319082F0F3A0319282F4E2F36
:101DD00022008C140E158E1101302000C400F40076
:101DE0000B08F7008B130130310091007030920026
:101DF000740893001517151555309600AA309600F3
:101E000095149518012F1511151377088B04512F70
:101E100022008C140E158E1501302000C400F40130
:101E20000B08F7008B1301303100910070309200E5
:101E3000740893001517151555309600AA309600B2
:101E400095149518212F1511151377088B04512F10
:101E50000130C40020302200E2002530E1004C3087
:101E60002300B00080312000962788312C302300D9
:101E7000B00080312000962788313F302300B00029
:101E8000803120009627883174082300A200183082
:101E9000A30020001D213100512F20000230C4007A
:101EA0003100562F20000230C40031005B2F20008B
:0C1EB0000230C400310090312000AF2E41
:10200000E208031D8429E808031984292200E90154
:10201000483069078400203085000318850A80084D
:1020200003193028483069078400203085000318E0
:10203000850A0008EA006A082F3C031823286A086A
:10204000393C03182528003026280130003A031DAA
:102050002E2802302000C40086292200E90A082820
:102060002030EB004830EA00EF01ED010A30EE00CD
:10207000EC016A086B04031D40280030F8004D296C
:102080006F08EF0A6A07840000306B3D8500000886
:102090002300A00020082D3C031D5C2801302200F5
:1020A000ED006F08EF0A6A07840000306B3D850081
:1020B00000082300A0006B2820082B3C031D6B2880
:1020C00022006F08EF0A6A07840000306B3D85002C
:1020D00000082300A00020082F3C031842292008F4
:1020E000393C031C42292008303C031D9B28220058
:1020F0006F086A07840000306B3D85000008783C5B
:1021000003198E286F086A07840000306B3D850034
:102110000008583C03198E2823009B281030EE003D
:10212000EF0A6F08EF0A6A07840000306B3D8500F4
:1021300000082300A00022006E080A3C031DE728C7
:10214000230020082F3C0318E5282008393C031CF5
:10215000E5280A30A20022006C082300A300F70142
:10216000F801220803102318F707F70CF80CA3183E
:10217000F707F70CF80C2319F707F70CF80CA3195D
:10218000F707F70CF80C231AF707F70CF80CA31A4B
:10219000F707F70CF80C231BF707F70CF80CA31B39
:1021A000F707F70CF80C7808A2003030200222075D
:1021B0002200EC006F08EF0A6A07840000306B3DD4
:1021C000850000082300A000A128422922006E08F3
:1021D000103C031D432923002008603C0318F72806
:1021E00020087A3C031CF7282008DF39F82820084B
:1021F000A00020082F3C031801292008393C0318AF
:1022000009292008403C031842292008463C031CA9
:10221000422920082F3C03181E292008393C031CA2
:102220001E2922006C0E2300A200F030A2053030DF
:10223000200222072200EC002A29230022006C0E33
:102240002300A200F030A205413020020A3E2207FE
:102250002200EC006F08EF0A6A07840000306B3D33
:10226000850000082300A0002008603C03183F29D7
:1022700020087A3C031C3F292008DF394029200828
:10228000A000F92822006D0B4B296E080A3C031DA3
:102290004B29EC09EC0A6C08F8007808F500750881
:1022A000003C0318802975087F3C031C802903101B
:1022B000750DEA00240092000B08F7008B13033021
:1022C00031009100703092007508930015171515B4
:1022D00055309600AA309600951495186D29151161
:1022E000151377088B0422008C100E158E11C83040
:1022F000EA0088312000B7269031010083292200AE
:1023000002302000C40086290230C4009031AF2E74
:1023100020302300A3003A30A2002030A5000E3068
:10232000A40080312000D0239031F808031D632BD6
:10233000E208031D632BE808031D632B21009D1495
:102340009D18A0291C08FA001B082200EE007A083C
:10235000EF002300B90022006E082300B80080318E
:102360002000542590317A082300BB007908BA0078
:102370007808B9007708B800BF01C030BE007F30D0
:10238000BD008830BC0080312000732590316F3053
:102390002300BF001230BE000330BD008030BC00FF
:1023A0007A08C3007908C2007808C1007708C00025
:1023B00080312000DD24903193302300BF002B308A
:1023C000BE004830BD008030BC007A08C3007908E8
:1023D000C2007808C1007708C00080312000DD24E9
:1023E00090317A082200EC007908EB007808EA00C6
:1023F0007708E90001302000C40076083C3A031950
:102400000E2A023A0319472A213A0319802A103A60
:102410000319B82A343A0319F12A2A2B2030220052
:10242000E2002530E100AD30310091000030920033
:10243000031008302300A20080312000A52790312E
:1024400050302300B00080312000962790312C308E
:102450002300B0008031200096279031893084001D
:1024600022006C082300A50022006B082300A400B2
:1024700022006A082300A300220069082300A200AA
:102480000230A60088312000B8259031622B203020
:102490002200E2002530E100B5303100910000302B
:1024A0009200031008302300A20080312000A527ED
:1024B000903142302300B0008031200096279031C7
:1024C0002C302300B00080312000962790318930D5
:1024D000840022006C082300A50022006B08230062
:1024E000A40022006A082300A30022006908230038
:1024F000A2000230A60088312000B8259031622B5E
:1025000020302200E2002530E100BD303100910092
:1025100000309200031008302300A2008031200018
:10252000A527903157302300B00080312000962736
:1025300090312C302300B00080312000962790315C
:102540008930840022006C082300A50022006B085B
:102550002300A40022006A082300A30022006908C7
:102560002300A2000230A60088312000B825903157
:1025700020302200E2002530E100C530310091001A
:1025800000309200031008302300A20080312000A8
:10259000A527903157302300B000803120009627C6
:1025A00090312C302300B0008031200096279031EC
:1025B0008930840022006C082300A50022006B08EB
:1025C0002300A40022006A082300A3002200690857
:1025D0002300A2000230A60088312000B8259031E7
:1025E000622B20302200E2002530E100CD303100A6
:1025F000910000309200031008302300A2008031C7
:102600002000A527903153302300B00080312000F6
:10261000962790312C302300B0008031200096277F
:1026200090318930840022006C082300A50022002C
:102630006B082300A40022006A082300A3002200E4
:1026400069082300A2000230A60088312000B825C6
:102650009031622B20302200E2002530E100D5309D
:102660003100910000309200031008302300A200D6
:1026700080312000A527903155302300B0008031F3
:102680002000962790312C302300B00080312000AC
:10269000962790318930840022006C082300A50021
:1026A00022006B082300A40022006A082300A30074
:1026B000220069082300A2000230A6008831200011
:1026C000B8259031652B0230C4009031AF2E5530C3
:1026D0003C008F00AA308F000F1014309D00153081
:1026E0009E001030A0001130A10018303D00A00065
:1026F0001930A1001A30A4001B30A50055303C0051
:102700008F00AA308F000F1432009E019B019D01A3
:1027100006309F0099017010F0107011F011033015
:10272000FB002200E201E10123008C018E01220066
:102730009201910194019301212C02340034283438
:1027400000340034163440345A34003415344034E4
:10275000A0340034033480344534523452340534C8
:10276000C034003404348034423441345534443469
:102770000434C034003403348034433441344C34A2
:102780000534C03400341434803445345834503463
:102790004F345234543400340034463441344334DA
:1027A00054344F34523459340034463449344E345E
:1027B00044340434C03400340134803449340734A0
:1027C000C034003403348034493432344334053463
:1027D0004134203400340934803449344D34503489
:1027E0004F3452345434003400344C340734C03441
:1027F00000340934803450344C344F3443344B3437
:1028000000340034003452340734C03400341734F8
:10281000803453344C34453445345034003400341F
:10282000003453344C344F34503445340034003485
:102830000034533454344134543455345334003414
:102840000034133085009D30840085171200F70096
:10285000003A03193B2C1200F800F81B332C0F39F7
:10286000870012008600781B1200781F12001E00DD
:10287000F70B352C262C31001B08CF39F700030845
:1028800018390310890D7704891C0910091D891650
:10289000891D8916091B8916891B8916F7001F30A7
:1028A0009B0077086400F60080312000E120903121
:1028B0008031FF21903122006310E4016408153C4F
:1028C000031C6C2C0E306407840020308500031834
:1028D000850A8001E40A5E2C6400701C8E2C2000A6
:1028E000171A960195011508F700171A1608FA002D
:1028F000171EFA0177082200E8007A08E900E908C3
:10290000031D892C68083B3C031C892C2000732C78
:10291000220063142000C30170102200631C1A2FD0
:102920006310E5016508153C031CC42C24306507C1
:102930008400203085000318850A80016508073C63
:10294000031CAA2C3A306507840020308500031848
:10295000850A80016508053C031CB62C42306507DA
:102960008400203085000318850A800165081C3C1E
:10297000031CC22C483065078400203085000318F2
:10298000850A8001E50A922C2030E9000E30E8002B
:1029900080312000082A90312200E3107818E314D7
:1029A000E31CB02E2030E9003A30E800EA016A0862
:1029B0000E3C031C0A2D6A0DF700F70DF70DF830D9
:1029C000F7057708653EF8002030FA000318FA0A88
:1029D0007808EC007A08ED0069082300A3002200C3
:1029E00068082300A20022006D082300A500220031
:1029F0006C082300A40080312000D0239031F80817
:102A0000031D072D22006A08F8000C2D200022006B
:102A1000EA0AD72C0030F8007808E6006608E800DB
:102A20006808023A20000319312D063A0319352DA2
:102A3000023A0319392D013A03195C2D0C3A031996
:102A40005E2D0E3A0319292E0C3A0319712E073AFE
:102A50000319752E023A0319772E0C3A0319AD2E7D
:102A6000AF2E883188299031AF2E8831B12C90312A
:102A7000AF2E0130C40020302200E2002530E100FA
:102A8000A73031009100003092000310073023007E
:102A9000A20080312000A5279031893084002300D6
:102AA000A501A401A3017F30A2000230A600883155
:102AB0002000B8259031AF2E0028AF2E2030230003
:102AC000A3003A30A2002030A5000E30A4008031CF
:102AD0002000D0239031F808031D252EE208031DA5
:102AE000252EE808031D252E701501302300AE00A9
:102AF00088312000942090317A082300B1007908B1
:102B0000B0007808AF007708AE003108BF00300889
:102B1000BE002F08BD002E08BC00C301C2017A30E0
:102B2000C1008830C00080312000DD2490317A0857
:102B30002300B1007908B0007808AF007708AE0034
:102B40000508B3000408B20083143108BB00300844
:102B5000BA002F08B9002E08B8000A30BF00D730DD
:102B6000BE008330BD007F30BC00803120003F2696
:102B70009031230033088500320884007A08A900C8
:102B80007908A8007808A7007708A6002608F700AB
:102B90002708F8002808F9002908FA007A08A50093
:102BA0007908A4007808A3007708A2000508A70008
:102BB0000408A60083102508BB002408BA002308D7
:102BC000B9002208B800220060082300BF002200DC
:102BD0005F082300BE0022005E082300BD00220023
:102BE0005D082300BC00803120003F269031230087
:102BF00027088500260884007A082200EC0079085E
:102C0000EB007808EA007708E90001302000C400F2
:102C100020302200E2002530E100893084006C0879
:102C20002300A50022006B082300A40022006A08EC
:102C30002300A300220069082300A2000230A6009E
:102C400088312000B8259031282E0230C400701140
:102C5000AF2E20302300A3003A30A2002030A50080
:102C60000E30A40080312000D0239031F808031DDD
:102C70006B2EE208031D6B2EE808031D6B2EF0146B
:102C80000130C400AE01AE08031D5C2E22008C1082
:102C90000E118E113230EA0088312000B7269031B3
:102CA00022008C140E158E153230EA008831200077
:102CB000B72690316400432EF4080319652E2200D4
:102CC0008C140E158E11692E200022008C140E1506
:102CD0008E156E2E20000230C4002200F01020005D
:102CE000AF2E8831CC2E9031AF2E8829AF2E2030D8
:102CF0002300A3003A30A2002030A5000E30A4002B
:102D000080312000D0239031F808031DAA2EE2085C
:102D1000031DAA2EE808031DAA2E22008C140E15EE
:102D20008E15E9016908153C031CA02E0E306907B9
:102D30008400203085000318850A8001E90A922E5C
:102D400080312000E12090316300F0158031FF21B7
:102D50009031AC2E0230C400AF2E0230C4002200ED
:102D6000F019192FE7016708153C031CC12E0E301E
:102D700067078400203085000318850A8001E70A70
:102D8000B32EF4080319182F701DF82E2000171AFF
:102D9000960195011508F700171A1608FA00171E74
:102DA000FA0177082200E8007A08E9006908033C84
:102DB000031CF72E031DE02E68086F3C031CF72E42
:102DC000701DF72E8C140E118E151430EA00883108
:102DD0002000B726903122008C140E158E15143069
:102DE000EA0088312000B7269031CA2E2200152F24
:102DF00020004408023C031D082F22008C100E15F1
:102E00008E159630EA0088312000B7269031142FB5
:102E1000440B142F22008C140E118E159630EA00EC
:102E200088312000B726903122008C140E158E11A7
:082E30001A2FF0116C2C630055
:027FFE002C3421
:020000040001F9
:08000E00EC3FF83DFC1FFC3F34
:00000001FF
;PIC16F18326
;CRC=2843  CREATED="29-jul-19 17:22"
