:060000008831E629000032
:0800080083018031200077081C
:10001000A0007808A1007908A2007A08A3003100A6
:1000200011082000A400310012082000A5003100B2
:1000300013082000A600310014082000A700850145
:1000400091308400801D262891193F282008F70050
:100050002108F8002208F9002308FA0024083100DA
:100060009100200025083100920020002608310070
:1000700093002000270831009400090020008031FF
:1000800041282400941A4728F4011419F41774081D
:10009000F40AA800A808031D5E281513141C4E2896
:1000A00011081516F201F0185B287014FE302000BC
:1000B000D7005D2824002000D70124002808803CB8
:1000C0000319F10128087F3C031882287108283C95
:1000D000031C812837307107840020308500031805
:1000E000850A0008AA002A08AB002B089100151603
:1000F00020009111240014187B28F801161FF80A1B
:10010000F10A9728A808031997287208283C031CAD
:1001100097280E3072078400203085000318850A66
:100120001513141C9128110815168000F20A2000DE
:10013000911180312628BF34AC275228AC122E19D9
:100140006600BF29F430F43A7316A531AC122E19AB
:100150006600BF216136AC126400E432F634E3324B
:1001600020396531EF377400320011171115121460
:100170001317931613159314941714179416141633
:100180009415141594141414161696151615961421
:1001900016142000080024009D1320009211230053
:1001A00067082400990002309D1BDD282000921D65
:1001B000D728003024001E1B0130F8002000080062
:1001C0003200111311111210131393122100911503
:1001D000C0308B040E148E14240017109710971142
:1001E000C4309200363095001614961721000E1672
:1001F0008E1624001F109F109F1109309A0028307E
:100200009D009C131C132300C00124001E141E1803
:10021000072903102300400DD038C100E70020005B
:10022000CB201C302300E7002000CB2024001E152B
:100230001E191829220097179714171021001E164F
:100240009E161E139E171D141E109E101E110430A4
:1002500023008C0000308E000830F80021001D08BB
:10026000033978049D001E149E141E119030200046
:1002700097004B30980021008C1022008C140A301B
:1002800031009100703092001517151413081513E2
:100290002300B3000B30310091007030920015172D
:1002A0001514130815132300B4000C30310091000D
:1002B0007030920015171514130815132300B5009C
:1002C0000D3031009100703092001517151413088D
:1002D00015132300B60031009101703092001517FC
:1002E000151413081513F3002300BF013F08283C21
:1002F000031C84290E303F0784002030850003183A
:10030000850A8001BF0A7629200008002300C00169
:10031000C30143083E07840000303F3D850080084C
:100320000319EC2943083E07F80000303F3DFA006E
:100330007808C9007A08CA0043083E0784000030E4
:100340003F3D85000008CB00603C0318AE294B08F8
:100350007A3C031CAE294B08DF39AF294B08CB0090
:100360004A088500490884004B08800043083E077E
:10037000840000303F3D85000008C9003F30310057
:1003800092008F309100213085001A3084000130B6
:100390002300CC004C08F70003103100151315148E
:1003A00000000000130880000131910A0319920A2D
:1003B000F70BCF2923004A084902031DEA29C00A86
:1003C000400BE4294308C1004008023C031DEA2910
:1003D0004308C200C30A89294008003A20000319D3
:1003E000F829013A0319222A033A0319822A142B05
:1003F0002300C4014408073C031C192A6030440749
:10040000F8002030FA000318FA0A7808C9007A08C0
:10041000CA0044083E07840000303F3D85000008C4
:10042000CB004A088500490884004B088000C40AB4
:10043000FA29603044078400203085000318850ABB
:1004400080011A2B2300C50145083E0784000030B7
:100450003F3D850080080319772A410845020318AB
:100460004A2A60304507F8002030FA000318FA0ADB
:100470007808C9007A08CA0045083E0784000030A1
:100480003F3D85000008CB004A08850049088400EC
:100490004B08800041084502031D562A603045077D
:1004A0008400203085000318850A80014508410238
:1004B0000318752A0130410745026E3EF8002030CE
:1004C000FA000318FA0A7808C9007A08CA00450831
:1004D0003E07840000303F3D85000008CB004A08FD
:1004E0008500490884004B088000C50A242A013091
:1004F000410745026E3E8400203085000318850ABE
:1005000080011A2B2300C60146083E0784000030F4
:100510003F3D850080080319082B41084602031857
:10052000AA2A60304607F8002030FA000318FA0AB9
:100530007808C9007A08CA0046083E0784000030DF
:100540003F3D85000008CB004A088500490884002B
:100550004B08800041084602031DB62A603046075A
:100560008400203085000318850A80014608410276
:100570000318D92A420846020318D92A0130410734
:100580004602683EF8002030FA000318FA0A78089C
:10059000C9007A08CA0046083E07840000303F3D83
:1005A00085000008CB004A088500490884004B08F4
:1005B000800042084602031DE72A01304107460237
:1005C000683E8400203085000318850A80014608B3
:1005D00042020318062B0130420746026E3EF80025
:1005E0002030FA000318FA0A7808C9007A08CA000D
:1005F00046083E07840000303F3D85000008CB00E0
:100600004A088500490884004B088000C60A842AED
:100610000130420746026E3E8400203085000318F8
:10062000850A80011A2B20000230D7000030F80024
:100630001D2B23000130F80020008831212B2300DE
:100640004D08FA004C0884007A0885000008D000A4
:100650004F08FA004E0884007A088500000850020E
:10066000031D482B4D08FA004C0884007A088500C9
:100670008008031D3E2B0030F8005E2B4D08FA0069
:100680004C08CC0A0319CD0ACE0A0319CF0A202B35
:100690004D08FA004C0884004D0885000008D00081
:1006A0004F08FA004E0884004F08850000085002E9
:1006B00003185C2BFF305D2B0130F8002000080090
:1006C0002300C00140080E3C031C8C2B400DF7009A
:1006D000F70DF70DF830F70577088B3EF80020305E
:1006E000FA000318FA0A7808C2007A08C3003F0823
:1006F000CD003E08CC004308CF004208CE002000C9
:100700001F23F808031D892B23004008F8008E2BB7
:1007100020002300C00A622B0030F800883120003E
:100720002F2B23005208D4005108D3005408FA009C
:10073000530884007A08850080080319A32BD30A84
:100740000319D40A962B51085302F7005208543B60
:10075000FA007708F8002000080023006408031955
:10076000422C2400A000230068080319422C240016
:10077000A0070318C62B7F30A0020318C12B23004B
:10078000422C031DC52B2300422CCC2B8130A0070B
:10079000031CCC2B2300422C2008F700F801F901A0
:1007A000FA01230065082400A400A41723006608AA
:1007B0002400A300230067082400A2001830A00032
:1007C000A101221C062C23006B08FA07031CF12B45
:1007D000F90A031DF12BF80A031DF12B2400A117C0
:1007E00023006A08F907031CFB2BF80A031DFB2BE7
:1007F0002400A11723006908E600E6176608F80739
:10080000031C052C2400A11723002400A10DF80CC3
:10081000F90CFA0CA40CA30CA20C0310A00BE02BF7
:100820000130F707031C162C2300422CF81B202C48
:10083000A40DFA0DF90DF80DF70B202C2300422C16
:10084000A41F332CFA0A031D332CF90A031D332C81
:10085000F80A031D332CF80CF90CFA0CF70A031DE7
:10086000332C2300422C230065082400A100230020
:1008700069082400A106A11F3F2CF817472CF81384
:10088000472C2300F701F801F901FA0124002000A8
:1008900008008E30F70023006108F8006008F900B6
:1008A000FA01F808031D5E2C7908F800F9010830F8
:1008B000F702F808031D5E2CF701662C0310F81BE5
:1008C000652CF90DF80DF7035E2CF81320000800D5
:1008D0002300600803192E2DEE00640803192E2D45
:1008E000EE02031C782C7F30EE0703182E2D7E2C91
:1008F0008130EE02031C2E2D03192E2D6E08F700F9
:10090000F801F901FA01ED016108EC00EC17620849
:10091000EB006308EA001930EE006708EA020318EA
:10092000A12C0130EB020318A12CEC020318A12C1E
:10093000ED020318A12CED0AEC0AEB0A6708EA079E
:10094000D32C6608EB020318BC2C0130EC02031810
:10095000BC2CED020318BC2CED0AEC0A6608EB0770
:100960006708EA07031CD32CEB0A031DD32CEC0AFF
:10097000031DD32CED0AD32C65088038EC02031834
:10098000D22C0130ED020318D22CED0A6508803814
:10099000EC076608EB07031CB02CEC0A031DB02C17
:1009A000ED0AB02C7A14EE0BD62CE12C0310EA0DD4
:1009B000EB0DEC0DED0D0310FA0DF90DF80DEF0D2B
:1009C0008D2C6F1CE92C0310F80CF90CFA0CEF0CB1
:1009D000EC2CF70303192E2DEF1B152D0310EA0D38
:1009E000EB0DEC0DED0D6708EA020318012D013047
:1009F000EB020318012DEC020318012DED02031C7C
:100A0000242D6608EB0203180C2D0130EC020318AC
:100A10000C2DED02031C242D65088038EC02031810
:100A2000152D0130ED02031C242DFA0A031D242D7F
:100A3000F90A031D242DF80A031D242DF70A0319B2
:100A40002E2DF80CF90CFA0C6108EE006508EE0684
:100A5000EE1F2C2DF817322DF813322DF701F80167
:100A6000F901FA01200008008030831C3A2D230090
:100A7000E50620002300EA01EB016108E9006508B2
:100A8000E906600803192B2EE800F7006408031933
:100A9000342EE8020319CF2D031C8C2D6508EE00BF
:100AA000EE176608ED006708EC00EB010310EE0C92
:100AB000ED0CEC0CEB0CE80B552DE91F622D6A14C4
:100AC000482E6A1068106A16213085003330840081
:100AD0005D2E6A12E91B762D681C812DEE0CED0C43
:100AE000EC0CEB0CF70A0319432E812DEE1B842D21
:100AF0000310EB0DEC0DED0DEE0DF7030319432E76
:100B0000762D6A17F02D6A136108E900E91F8A2D16
:100B1000EE173C2EEE133C2E6408E800F700600848
:100B2000E8026108EE00EE176208ED006308EC00D1
:100B3000EB010310EE0CED0CEC0CEB0CE80B982D1C
:100B4000E91FA52DEA14482EEA106810EA16213094
:100B50008500373084005D2EEA12E91BB92D681C30
:100B6000C42DEE0CED0CEC0CEB0CF70A0319432E24
:100B7000C42DEE1BC72D0310EB0DEC0DED0DEE0D8E
:100B8000F7030319432EB92DEA17F02DEA13650870
:100B9000E900E91FCD2DEE173C2EEE133C2E650823
:100BA000EE00EE176608ED006708EC00E91FDC2D8B
:100BB000EE136A15482E6A11EB016810213085008A
:100BC000333084005D2EE91B062E6108E900681CA5
:100BD000F02DEE0CED0CEC0CEB0CF70A0319432E88
:100BE000EB1F012EEC0A031D012EED0A031D012E41
:100BF000EE0A031D012EEE0CED0CEC0CF70A0319A6
:100C0000432E6A1B832DEA1BC62D252E8030EE064F
:100C1000EE1F0E2E482E6508E9001B2E6108E90024
:100C2000EE08031D1B2EED08031D1B2EEC08031DF3
:100C30001B2EF7013C2EEE1B252E0310EB0DEC0DA9
:100C4000ED0DEE0DF70B1B2E432EE91F292EEE178F
:100C50003C2EEE133C2E6408F7006508EE00660893
:100C6000ED006708EC003C2E6008F7006108EE001C
:100C70006208ED006308EC006E08F8006D08F900EA
:100C80006C08FA00792EF701F801F901FA01792EC2
:100C9000EB01EC09ED09EE09EB09EB0A031D562EF9
:100CA000EC0A031D562EED0A0319EE0A6A18612D8F
:100CB000EA18A42D6A19DB2D0B2E0008EC07031C83
:100CC000672EED0A031D672EEE0A03196814110042
:100CD000ED07031C6E2EEE0A031968141100801F25
:100CE000803AEE07031868146A1A692DEA1AAC2DC7
:100CF000E32D2000080024001D139E159E197E2E52
:100D000077189E12771C9E161E161E1A852E19081D
:100D1000F800200008002300D4015408E0008030CF
:100D2000E50024001E141E18932E03102300600DEE
:100D3000D0380138E600E7002000CB200130F70072
:100D40007B2678082300E3000130F70020007B2693
:100D500078082300E2000130F70020007B267808A5
:100D60002300E1000130F70020007B2678082300F3
:100D7000E500E51FEE2E0130F70020007B26780805
:100D80002300E500E51BBB2EF70120007B26780839
:100D90002300E50024001E151E19CC2E1E141E185B
:100DA000CF2E03102300600DD0380138E600E70095
:100DB0002000CB200130F7007B2678082300E300D9
:100DC0000130F70020007B2678082300E200013084
:100DD000F70020007B2678082300E100F7012000BF
:100DE0007B2678082300E50024001E151E19F62E28
:100DF0002300E31CFE2EFF30E400FF2EE401610817
:100E0000F7006208F8006308F9006408FA007A083D
:100E1000D8007908D7007808D6007708D500580898
:100E2000E3005708E2005608E1005508E000B6303C
:100E3000F700FA01F901F8016410E31F2D2F641483
:100E4000E009E109E209E309E00A031D2D2FE10AA7
:100E5000031D2D2FE20A0319E30A600861046204EE
:100E60006304031D352FF701442F0310F81B412F96
:100E7000E00DE10DE20DE30DFA0DF90DF80DF70BA4
:100E8000352FF8136418F8177A08E3007908E200A0
:100E90007808E1007708E0006308E7006208E600F0
:100EA0006108E5006008E4006F30EB001230EA00F2
:100EB0000330E9006F30E8002000AD237A082300FA
:100EC000DC007908DB007808DA007708D9005908D7
:100ED000F7005A08F8005B08F9005C08FA007A0885
:100EE000D7007908D6007808D5007708D4005708CD
:100EF000E7005608E6005508E5005408E400EB0159
:100F0000EA017A30E9008830E8002000AD237A0851
:100F10002300D3007908D2007808D1007708D000E8
:100F20005008F7005108F8005208F9005308FA0079
:100F3000200008002300380885003708840058087E
:100F40001A008001B70A0319B80A200008000B082C
:100F50008B1331001513151400000000891B8B172B
:100F60000318DA2F13087F392300CF00310011084E
:100F70002300D000310012082300D1004F08D80010
:100F800020009A27230050083100910023005108C7
:100F9000310092000B088B1315131514000000008C
:100FA000891B8B172300CC0BD62FD82F3100DA2FBB
:100FB000FD2F3100130D140D7F392300CF003100B8
:100FC00011082300D000310012082300D1004F087F
:100FD000D80020009A2723005008310091002300F8
:100FE000510831009200910A0319920A031023005C
:0E0FF000CC0BFB2FFD2F2000A72F20000800A8
:1010000023005508F8015402031809285408F70072
:101010001528F7010830D600D40DF70D55087702D2
:101020000318F700F80DD60B0C282000080020301C
:1010300023004D1E3030D0004C08F700CC1F28286C
:10104000F709F70A7708CC002D30D000CD174D14E2
:101050004C08D4006430D50020000020770823001D
:10106000CC0030307807D1004C08D4000A30D500CD
:1010700020000020303077072300D300303078077D
:10108000D2005008F7003030510203194B28CD141C
:10109000CD1B4D155F285008D1002030D0003030D6
:1010A0005202031957284D14CD1BCD145F28031D80
:1010B0004D14031D5F285108D2002030D1004D1976
:1010C0006628CD186D284D1874287B285008D80044
:1010D000803120009A27883123005108D8008031C0
:1010E00020009A27883123005208D8008031200040
:1010F0009A27883123005308D800803120009A278E
:101100008831080083188828213085003130840018
:10111000F701F801F901FA012300E101E201E3011D
:10112000E4015F085E045D045C040319C7282030F5
:10113000E5000310D80DD90DDA0DDB0DE10DE20D40
:10114000E30DE40D5F086402031DB0285E0863022E
:10115000031DB0285D086202031DB0285C0861020F
:10116000031CC1285C08E1025D08031C5D0FE2025C
:101170005E08031C5E0FE3025F08031C5F0FE402BE
:101180000314F70DF80DF90DFA0DE50B9928610818
:1011900080006208813F6308823F6408833F20002B
:1011A000080004082300D0004A08D2000319F528DB
:1011B0004908E7004808E6004708E5004608E4005B
:1011C000EB01EA012030E9008230E80080312000A4
:1011D000AD2388317A082300C9007908C80078084F
:1011E000C7007708C600D20BD8284908DB0048089A
:1011F000DA004708D9004608D8005808B63CD8009D
:10120000FA015908DC00D9170310D90CDA0CDB0CF1
:10121000FA0CF90CF80CF70CD80B0429DC1F1B296D
:10122000F709F809F909FA09F70A0319F80A03197D
:10123000F90A0319FA0A7A08C9007908C800780877
:10124000C7007708C600C91F3229D003D016C609C7
:10125000C709C809C909C60A0319C70A0319C80A70
:101260000319C90A3B30D7009A30D600CA30D500DE
:10127000D4010A30D2004A080319D00A831421305D
:101280008500163084004908DB004808DA0047086A
:10129000D9004608D8005708DF005608DE00550878
:1012A000DD005408DC00200082207808F708031DC8
:1012B000702923004A0A5202031D60292000702968
:1012C0005008031973290F395202031969290318A9
:1012D000B329D01BB329501B73292030AB29200020
:1012E00020302300D005D01E8529D0124A08031DC6
:1012F000D0037708D0002D30D800803120009A2705
:10130000883123005008F700D0014A085202031D1B
:1013100097297708D0002E30D800803120009A27F6
:10132000883123005008F7002030D00500303030DD
:10133000D01EAB29D0124A08031DD0037708D00075
:101340002D30D800803120009A27883123005008A2
:10135000F700D0013030F7077708D800803120003F
:101360009A278831230083105708DB005608DA00DB
:101370005508D9005408D800DF01DE01DD010A302C
:10138000DC00200082207A082300D7007908D600EC
:101390007808D5007708D400D20B3E292000080039
:1013A000213085000F30840000080319E52905303D
:1013B000F800F701F70BDA29F80BD9292E30F700DE
:1013C000F70BE029E329800BD729080055303C00B2
:1013D0008F00AA308F000F1014309D0015309E0032
:1013E0001030A0001130A10018303D00A0001930CD
:1013F000A1001A30A4001B30A50055303C008F001E
:10140000AA308F000F1432009E019B019D0106300F
:101410009F00603099007010F01070110330F400DC
:101420002300B801B7018C018E01220092019101C5
:1014300094019301A02A023400342834003400348B
:101440002B344034B03400340334803445345234C7
:1014500052340534C03400340434803442344134CE
:10146000553444340434C0340034053480344334B7
:1014700041344C3400340034173401342034003407
:10148000003400344534583450344F3452345434DA
:101490000034003446344134433454344F345234ED
:1014A00059340034463449344E3444340434C0345E
:1014B00000340134803449340734C03400340334F8
:1014C00080344934323443340534C0340034093470
:1014D000803449344D3450344F3452345434003411
:1014E00000344C340734C034003409348034503470
:1014F0004C344F3443344B340034003400345234D1
:101500000734C03400340534803453344C3445340B
:101510004534503412340134A034003400340034E3
:1015200053344C344F345034453400340034003498
:101530005334543441345434553453340034003427
:101540000A3085001B30840085171200F700003A2E
:101550000319BA2A1200F800F81BB22A0F398700C3
:1015600012008600781B1200781F12001E00F70B75
:10157000B42AA52A80312000B42088318031E020AF
:10158000883123003910701CE42A2000171A9601B4
:1015900095011508F700171A1608FA00171EFA0128
:1015A00077082300BE007A08BF00BF08031DDF2AAA
:1015B0003E083B3C031CDF2A2000C92A23003914C3
:1015C0002000D60170102300391C492B3910BA01B4
:1015D0003A08283C031C1A2B37303A078400203085
:1015E00085000318850A80013A08073C031C002B7C
:1015F00060303A078400203085000318850A800196
:101600003A08053C031C0C2B68303A078400203054
:1016100085000318850A80013A081C3C031C182B1E
:101620006E303A078400203085000318850A800157
:10163000BA0AE82A2030BF000E30BE0080312000F8
:10164000862988312300B9107818B914B91C3A2BAF
:101650002030BF006030BE0080312000602B883118
:1016600078082300BB003B08BE0090312000002812
:1016700088312300BC013C08283C031C492B0E3058
:101680003C078400203085000318850A8001BC0ACD
:061690003B2BC32A63009E
:1020000023003E08F13E0318922E0F3E2000952E2D
:102010002300922E43302300BF004C30C0004530D7
:10202000C1004130C2005230C300C4013F30C5007E
:10203000C6012100B808031D8B2BBE0803198B2B8A
:1020400020302300CD006E30CC00CE01CF01D00176
:1020500050084C07840000304D3D8500800803196E
:10206000D328D008031D5C284C0884004D08850047
:1020700000310008D10051082F3C031843285108B3
:10208000393C03184C284C0884004D088500003169
:1020900000082D3C031D58284C0884004D0885007D
:1020A000003100082D3C031D5628CF0AD1285B289B
:1020B0000030F800D528D12850084C0784000030A3
:1020C0004D3D85000008D10051082F3C03186C28B5
:1020D0005108393C03186E2800306F280130013C4C
:1020E0000319862850084C07840000304D3D8500B8
:1020F00000082E3C0319862850084C078400003045
:102100004D3D850000082D3C031DCE2850084C078E
:10211000840000304D3D850000082E3C031D9828AA
:10212000CE0A4E08013C031898280030F800D52844
:1021300050084C07840000304D3D850000082D3CC0
:10214000031DA5280030F800D5284D08D2004C0802
:10215000D10080312000912390310130780223009A
:102160004C07840000304D3D850000082E3C031DC7
:10217000BC280030F800D52850084C0784000030F7
:102180004D3D85000008D10051082F3C0318CD2893
:102190005108393C031CCD28D128D1280030F80043
:1021A000D528D00A28280130F800F8080319CA2ACF
:1021B0002030CD006E30CC00CF01CE01D301D20152
:1021C000D1017F30D000D701D601D501D4015814F8
:1021D000D8105811DA014C084D04031DF428F701FA
:1021E000F801F901FA011A2A5A08DA0A4C078400A0
:1021F00000304D3D85000008D900D9080319DA29BF
:10220000581C14295908203C03191429581059083E
:102210002B3C031D0E29D810D029142959082D3C18
:10222000031D1429D814D02958181E2959082E3CEA
:10223000031D1E2958191E295815D0295818CD29B3
:1022400059082F3C0318CD295908393C031CCD29C6
:102250003030D902581D8B295308E7005208E60098
:102260005108E5005008E400EB01EA012030E900E4
:102270008230E80080312000AD2390317A082300BD
:10228000D3007908D2007808D1007708D000E101A6
:102290005908E00080312000492490317A08230059
:1022A000DF007908DE007808DD007708DC005F08D1
:1022B000E3005E08E2005D08E1005C08E00053080E
:1022C000E7005208E6005108E5005008E4008031BC
:1022D000200068249031831023005708E30056083B
:1022E000E2005508E1005408E0007A08E7007908A8
:1022F000E6007808E5007708E40080312000342506
:1023000090317A082300D7007908D6007808D500E4
:102310007708D400CC29E701E6012030E5008230BF
:10232000E4005708EB005608EA005508E900540895
:10233000E80080312000AD2390317A082300DF00CF
:102340007908DE007808DD007708DC00E101590833
:10235000E0008031200049249031831023005F0881
:10236000E3005E08E2005D08E1005C08E0007A0836
:10237000E7007908E6007808E5007708E400803196
:102380002000342590317A082300D7007908D60040
:102390007808D5007708D400D0295818D029DA2930
:1023A0005A08DA0A4C07840000304D3D85000008C9
:1023B000D900FD28D81CF729E701E6018030E500A7
:1023C0007F30E4005708EB005608EA005508E900A2
:1023D0005408E80080312000AD2390317A082300B2
:1023E000D7007908D6007808D5007708D4004E08C1
:1023F0004F040319122ADA0803190A2ADA034E08CD
:1024000084004F0885005A084C07800000304D3D7D
:10241000813F122A4E0884004F0885004C08800036
:102420004D08813F5408F7005508F8005608F90098
:102430005708FA007A08CF007908CE007808CD0056
:102440007708CC00803120008B26903105082300CE
:10245000D1000408D00083144F08E3004E08E200C6
:102460004D08E1004C08E0007A08E7007908E60032
:102470007808E5007708E4008031200034259031A9
:10248000230051088500500884007A08B6007908B6
:10249000B5007808B4007708B3000B08F7008B1379
:1024A0000A3031009100703092002300330831006F
:1024B00093001517151555309600AA3096009514FF
:1024C0009518602A1511151377088B040B08F7006F
:1024D0008B130B30910070309200230034083100D0
:1024E00093001517151555309600AA3096009514CF
:1024F0009518782A1511151377088B040B08F70027
:102500008B130C309100703092002300350831009D
:1025100093001517151555309600AA30960095149E
:102520009518902A1511151377088B040B08F700DE
:102530008B130D309100703092002300360831006B
:1025400093001517151555309600AA30960095146E
:102550009518A82A1511151377088B040130F3007C
:102560000B08F7008B1391017030920073089300F1
:102570001517151555309600AA3096009514951824
:10258000BF2A1511151377088B0401302000D700DE
:10259000892B23002030CD006E30CC002130CF00BD
:1025A0000F30CE00803120001F239031F808031D2A
:1025B000592B2300B601B501B401B3010B08F70094
:1025C0008B130A30310091007030920023003308E1
:1025D000310093001517151555309600AA30960056
:1025E00095149518F12A1511151377088B040B080B
:1025F000F7008B130B3091007030920023003408E9
:10260000310093001517151555309600AA30960025
:1026100095149518092B1511151377088B040B08C1
:10262000F7008B130C3091007030920023003508B6
:10263000310093001517151555309600AA309600F5
:1026400095149518212B1511151377088B040B0879
:10265000F7008B130D309100703092002300360884
:10266000310093001517151555309600AA309600C5
:1026700095149518392B1511151377088B04F30150
:102680000B08F7008B1391017030920073089300D0
:102690001517151555309600AA3096009514951803
:1026A0004F2B1511151377088B0401302000D7002C
:1026B000892B20302300CD006E30CC002130CF009C
:1026C0001530CE00803120001F239031F808031D03
:1026D000872B0130D70020302300B8003830B700F6
:1026E000A930310091000030920003100530230022
:1026F000CC0080312000A727903173082300CC0044
:102700001830CD008831200017209031892B0230FD
:10271000D7008E2B210002302000D7002300922EFC
:1027200020302300CD006030CC002030CF000E30B0
:10273000CE00803120001F239031F808031D822C29
:102740002100B8080319A62B2000822CBE0803190B
:10275000AB2B2000822C2300B601B501B401B301DC
:102760000B08F7008B130A30310091007030920093
:1027700023003308310093001517151555309600C6
:10278000AA30960095149518C32B151115137708C8
:102790008B040B08F7008B130B3091007030920004
:1027A0002300340831009300151715155530960095
:1027B000AA30960095149518DB2B15111513770880
:1027C0008B040B08F7008B130C30910070309200D3
:1027D0002300350831009300151715155530960064
:1027E000AA30960095149518F32B15111513770838
:1027F0008B040B08F7008B130D30910070309200A2
:102800002300360831009300151715155530960032
:10281000AA309600951495180B2C151115137708EE
:102820008B04F3010B08F7008B13910170309200B9
:10283000730893001517151555309600AA309600A9
:1028400095149518212C1511151377088B04220067
:102850008C1420302300B8003730B700AD30310081
:102860009100003092000B088B1315131514000013
:102870000000891B8B1713087F390319802C230054
:10288000C000310011082300C100310012082300EC
:10289000C2004008D800803120009A2790312300E0
:1028A00041083100910023004208310092000B08DA
:1028B0008B131513151400000000891B8B17130DC3
:1028C000140D7F390319802C2300C000310011083A
:1028D0002300C100310012082300C2004008D800C4
:1028E000803120009A279031230041083100910067
:1028F0002300420831009200910A0319920A332CF6
:10290000852C20000230D70031002300922E0130A8
:10291000D70020302300B8003830B7009B3031009A
:10292000910000309200031007302300CC0080316A
:102930002000A7279031893084002300C901C801F5
:10294000C7017F30C6000230CA0088312000D12084
:1029500090312300922E20302300CD006030CC0037
:102960002030CF000E30CE00803120001F23903168
:10297000F808031D122D2100B8080319C12C2000EE
:10298000122DBE080319C62C2000122D8031200004
:102990008B2690317A082300C9007908C80078088E
:1029A000C7007708C6000508CB000408CA008310DA
:1029B0004908E3004808E2004708E1004608E00053
:1029C0003608E7003508E6003408E5003308E4007F
:1029D000803120003425903123004B0885004A08BF
:1029E00084007A08C2007908C1007808C00077081E
:1029F000BF0001302000D70020302300B80038305D
:102A0000B700893084004208C9004108C800400866
:102A1000C7003F08C6000230CA0088312000D1201C
:102A20009031142D0230D7002300922E2030230045
:102A3000CD006030CC002030CF000E30CE00803191
:102A400020001F239031F808031D4F2D2100B808E6
:102A500003192C2D20004F2DBE080319312D200005
:102A60004F2DF01401302000D700AE01AE08031D39
:102A70004E2D023022008C0664302300BF008831C6
:102A80002000D0219031023022008C0664302300D7
:102A9000BF0088312000D0219031362D512D0230D9
:102AA000D700F0102300922E2100B808031DB02D8E
:102AB000BE080319B02D20302300D2006E30D100A3
:102AC0008031200091239031780BAC2D21003E08FD
:102AD000313A20000319732D013A0319792D0F3A69
:102AE00003197F2DA82D22008C1401302000D7005F
:102AF000AB2D22008C1001302000D700AB2D01300F
:102B0000D70000308C1801302300BF002030B800FF
:102B10003830B7004C30D800803120009A279031EF
:102B20002C302300D800803120009A2790313F308C
:102B30002300D800803120009A27903123003F08DD
:102B4000CC001830CD008831200017209031AB2DFB
:102B50000230D700AB2DAE2D0230D700B32D2100AF
:102B600002302000D7002300922E20302300CD0019
:102B70006030CC002030CF000E30CE0080312000FD
:102B80001F239031F808031D5D2E2100B80803199A
:102B9000CB2D20005D2EBE080319D02D20005D2E08
:102BA0009D149D18D12D1C08FA001B082300C40099
:102BB0007A08C500E1004408E00080312000492483
:102BC00090317A082300E3007908E2007808E100F8
:102BD0007708E000E701C030E6007F30E50088308C
:102BE000E40080312000682490316F302300E7003A
:102BF0001230E6000330E5008030E4007A08EB0094
:102C00007908EA007808E9007708E80080312000B8
:102C1000AD23903193302300E7002B30E60048309D
:102C2000E5008030E4007A08EB007908EA007808D3
:102C3000E9007708E80080312000AD2390317A0860
:102C40002300C2007908C1007808C0007708BF00DF
:102C500001302000D70020302300B8003830B70002
:102C6000A1303100910000309200031008302300A1
:102C7000CC0080312000A727903155302300D800A8
:102C8000803120009A2790312C302300D8008031E9
:102C900020009A2790318930840023004208C9001F
:102CA0004108C8004008C7003F08C6000230CA00FB
:102CB00088312000D12090315F2E0230D7002300D0
:102CC000922E20302300CD006030CC002030CF0089
:102CD0000E30CE00803120001F239031F808031DF4
:102CE000892E2100B8080319772E2000892EBE08EE
:102CF00003197C2E2000892E701522008C10803143
:102D00002000B4209031630070118031E0209031B8
:102D10008B2E0230D7002300922E0230D7002300E2
:102D2000922E230088312000382B0A108A140A15AD
:102D300082078D2E08280A28912E902B162D872C7D
:102D4000912E912E542D912EAB2C612E912EB52DBE
:027F1E002C3401
:107F20007F3400340034003482343534E4341B347C
:107F300083346734DB34A43483341E348C343334D8
:107F40007C34343489340A348134353479347C34A3
:107F50008334333402343F3483341E348C3433342A
:107F60007F340034003400348134B1348D340A3429
:107F7000813433345034EE347D347D34BF3437347F
:107F800081349334AA343D34813433345034EE3464
:107F90007B343A34F3344C347E34DF349D342B3428
:107FA0000034003400340034003400340034003431
:107FB0007F348A34473499348034003400340034B8
:107FC0000034003400340034003400340034003411
:107FD0007234593488347C34753426349734E03420
:107FE00078341E341D34C4347A34633450345E34EF
:107FF0007C347534FE341A347E343134723418349F
:020000040001F9
:08000E00EC3FF13FFC1FFC3F39
:00000001FF
;PIC16F18326
;CRC=2E73  CREATED="10-jul-19 16:23"
