:0600000088312F2A0000E8
:0800080083018031200077081C
:10001000A0007808A1007908A2007A08A3003100A6
:1000200011082000A400310012082000A5003100B2
:1000300013082000A600310014082000A700850145
:1000400091308400801D262891193F282008F70050
:100050002108F8002208F9002308FA0024083100DA
:100060009100200025083100920020002608310070
:1000700093002000270831009400090020008031FF
:1000800041282400941A4728F6011419F617760817
:10009000F60AA800A808031D5E281513141C4E2894
:1000A00011081516F201F0185B287014FE302000BC
:1000B000D7005D2824002000D70124002808803CB8
:1000C0000319F10128087F3C031882287108283C95
:1000D000031C812837307107840020308500031805
:1000E000850A0008AA002A08AB002B089100151603
:1000F00020009111240014187B28F801161FF80A1B
:10010000F10A9728A808031997287208283C031CAD
:1001100097280E3072078400203085000318850A66
:100120001513141C9128110815168000F20A2000DE
:10013000911180312628BF34AC275228AC122E19D9
:100140006600BF29F430F43A7316A531AC122E19AB
:100150006600BF29F430F43A7316A531AC122E199B
:100160006600BF29F430F43A7316A531AC122E198B
:100170006600BF29F430F43A7316A531AC122E197B
:100180006600BF29F430F43A7316A531AC122E196B
:100190006600BF29F430F43A7316A531AC122E195B
:1001A0006600BF216136AC126400320011171115D0
:1001B00012141317931613159314941714179416F7
:1001C0001416941514159414141416169615161561
:1001D000961416142000080024009D13200092118C
:1001E000230067082400990002309D1BFE28200090
:1001F000921DF828003024001E1B0130F80020005A
:100200000800320011131111121013139312193038
:10021000210097009115C0308B040E148E14240019
:10022000171097109711C4309200363095001614AD
:10023000961721000E168E1624001F109F109F1176
:1002400009309A0028309D009C131C132300C00124
:1002500024001E141E182A2903102300400DD03834
:10026000C100E7002000EC201C302300E700200044
:10027000EC2024001E151E193B2922009717971405
:10028000171021001E169E161E139E171D141E10F9
:100290009E101E11043023008C0000308E000830A8
:1002A000F80021001D08033978049D001E149E14D7
:1002B0001E119030200097004B30980021008C10C8
:1002C0000130310091007030920015171514130899
:1002D0001513F40022008C1074188C140A303100AD
:1002E0009100703092001517151413081513230090
:1002F000B3000B30310091007030920015171514C7
:10030000130815132300B4000C3031009100703035
:10031000920015171514130815132300B5000D309E
:100320003100910070309200151715141308151341
:100330002300B6003100910170309200151715149A
:1003400013081513F3002300BF013F08283C031CCA
:10035000B3290E303F078400203085000318850A3A
:100360008001BF0AA529200008002300C001C301A5
:1003700043083E07840000303F3D85008008031994
:100380001B2A43083E07F80000303F3DFA0078087A
:10039000C9007A08CA0043083E07840000303F3D88
:1003A00085000008CB00603C0318DD294B087A3C2F
:1003B000031CDD294B08DF39DE294B08CB004A0836
:1003C0008500490884004B08800043083E078400EC
:1003D00000303F3D85000008C9003F3031009200E9
:1003E0008F309100213085001A30840001302300C5
:1003F000CC004C08F7000310310015131514000051
:100400000000130880000131910A0319920AF70BCA
:10041000FE2923004A084902031D192AC00A400B7D
:10042000132A4308C1004008023C031D192A43084F
:10043000C200C30AB8294008003A20000319272A3D
:10044000013A0319512A033A0319B12A432B230015
:10045000C4014408073C031C482A60304407F800E4
:100460002030FA000318FA0A7808C9007A08CA008E
:1004700044083E07840000303F3D85000008CB0063
:100480004A088500490884004B088000C40A292ACC
:10049000603044078400203085000318850A8001FD
:1004A000492B2300C50145083E07840000303F3D2D
:1004B000850080080319A62A410845020318792AF5
:1004C00060304507F8002030FA000318FA0A78086F
:1004D000C9007A08CA0045083E07840000303F3D45
:1004E00085000008CB004A088500490884004B08B5
:1004F000800041084502031D852A603045078400BD
:10050000203085000318850A800145084102031840
:10051000A42A0130410745026E3EF8002030FA005F
:100520000318FA0A7808C9007A08CA0045083E0785
:10053000840000303F3D85000008CB004A0885005C
:10054000490884004B088000C50A532A013041073E
:1005500045026E3E8400203085000318850A800124
:10056000492B2300C60146083E07840000303F3D6A
:10057000850080080319372B410846020318D92A41
:1005800060304607F8002030FA000318FA0A7808AD
:10059000C9007A08CA0046083E07840000303F3D83
:1005A00085000008CB004A088500490884004B08F4
:1005B000800041084602031DE52A6030460784009A
:1005C000203085000318850A80014608410203187F
:1005D000082B420846020318082B01304107460247
:1005E000683EF8002030FA000318FA0A7808C900BB
:1005F0007A08CA0046083E07840000303F3D850067
:100600000008CB004A088500490884004B08800098
:1006100042084602031D162B013041074602683E80
:100620008400203085000318850A800146084202B4
:100630000318352B0130420746026E3EF800203089
:10064000FA000318FA0A7808C9007A08CA004608AE
:100650003E07840000303F3D85000008CB004A087B
:100660008500490884004B088000C60AB32A01307F
:10067000420746026E3E8400203085000318850A3A
:100680008001492B20000230D7000030F8004C2BAD
:1006900023000130F80020008831842B23004D080E
:1006A000FA004C0884007A0885000008D0004F0842
:1006B000FA004E0884007A08850000085002031DE5
:1006C000772B4D08FA004C0884007A0885008008D2
:1006D000031D6D2B0030F8008D2B4D08FA004C08DF
:1006E000CC0A0319CD0ACE0A0319CF0A4F2B4D08A5
:1006F000FA004C0884004D0885000008D0004F081F
:10070000FA004E0884004F088500000850020318C4
:100710008B2BFF308C2B0130F800200008002300C9
:10072000C00140080E3C031CBB2B400DF700F70D29
:10073000F70DF830F70577088B3EF8002030FA0007
:100740000318FA0A7808C2007A08C3003F08CD00EF
:100750003E08CC004308CF004208CE0020004E23C4
:10076000F808031DB82B23004008F800BD2B20001B
:100770002300C00A912B0030F80088312000922B12
:1007800023005208D4005108D3005408FA0053083B
:1007900084007A08850080080319D22BD30A031934
:1007A000D40AC52B51085302F7005208543BFA00F3
:1007B0007708F80020000800230064080319712C52
:1007C0002400A000230068080319712C2400A0074E
:1007D0000318F52B7F30A0020318F02B2300712C97
:1007E000031DF42B2300712CFB2B8130A007031C6D
:1007F000FB2B2300712C2008F700F801F901FA0106
:10080000230065082400A400A41723006608240020
:10081000A300230067082400A2001830A000A10153
:10082000221C352C23006B08FA07031C202CF90A24
:10083000031D202CF80A031D202C2400A1172300DF
:100840006A08F907031C2A2CF80A031D2A2C240025
:10085000A11723006908E600E6176608F807031CDD
:10086000342C2400A11723002400A10DF80CF90C4E
:10087000FA0CA40CA30CA20C0310A00B0F2C01303B
:10088000F707031C452C2300712CF81B4F2CA40DDB
:10089000FA0DF90DF80DF70B4F2C2300712CA41F46
:1008A000622CFA0A031D622CF90A031D622CF80A55
:1008B000031D622CF80CF90CFA0CF70A031D622CCC
:1008C0002300712C230065082400A100230069087F
:1008D0002400A106A11F6E2CF817762CF813762C95
:1008E0002300F701F801F901FA01240020000800B3
:1008F0008E30F70023006108F8006008F900FA0163
:10090000F808031D8D2C7908F800F9010830F7026A
:10091000F808031D8D2CF701952C0310F81B942C5F
:10092000F90DF80DF7038D2CF813200008002300B3
:10093000600803195D2DEE00640803195D2DEE02B9
:10094000031CA72C7F30EE0703185D2DAD2C8130E2
:10095000EE02031C5D2D03195D2D6E08F700F801F2
:10096000F901FA01ED016108EC00EC176208EB00F7
:100970006308EA001930EE006708EA020318D02C79
:100980000130EB020318D02CEC020318D02CED023E
:100990000318D02CED0AEC0AEB0A6708EA07022DCF
:1009A0006608EB020318EB2C0130EC020318EB2C69
:1009B000ED020318EB2CED0AEC0A6608EB0767085A
:1009C000EA07031C022DEB0A031D022DEC0A031D8E
:1009D000022DED0A022D65088038EC020318012D66
:1009E0000130ED020318012DED0A65088038EC078F
:1009F0006608EB07031CDF2CEC0A031DDF2CED0A55
:100A0000DF2C7A14EE0B052D102D0310EA0DEB0DE3
:100A1000EC0DED0D0310FA0DF90DF80DEF0DBC2CDA
:100A20006F1C182D0310F80CF90CFA0CEF0C1B2D91
:100A3000F70303195D2DEF1B442D0310EA0DEB0D99
:100A4000EC0DED0D6708EA020318302D0130EB02C2
:100A50000318302DEC020318302DED02031C532D2A
:100A60006608EB0203183B2D0130EC0203183B2D06
:100A7000ED02031C532D65088038EC020318442D49
:100A80000130ED02031C532DFA0A031D532DF90A00
:100A9000031D532DF80A031D532DF70A03195D2D6D
:100AA000F80CF90CFA0C6108EE006508EE06EE1F72
:100AB0005B2DF817612DF813612DF701F801F9018D
:100AC000FA01200008008030831C692D2300E50610
:100AD00020002300EA01EB016108E9006508E9064E
:100AE000600803195A2EE800F70064080319632E02
:100AF000E8020319FE2D031CBB2D6508EE00EE175E
:100B00006608ED006708EC00EB010310EE0CED0C3D
:100B1000EC0CEB0CE80B842DE91F912D6A14772E59
:100B20006A1068106A1621308500333084008C2EDC
:100B30006A12E91BA52D681CB02DEE0CED0CEC0C17
:100B4000EB0CF70A0319722EB02DEE1BB32D031018
:100B5000EB0DEC0DED0DEE0DF7030319722EA52D27
:100B60006A171F2E6A136108E900E91FB92DEE17F5
:100B70006B2EEE136B2E6408E800F7006008E802A5
:100B80006108EE00EE176208ED006308EC00EB016F
:100B90000310EE0CED0CEC0CEB0CE80BC72DE91F71
:100BA000D42DEA14772EEA106810EA162130850059
:100BB000373084008C2EEA12E91BE82D681CF32DD7
:100BC000EE0CED0CEC0CEB0CF70A0319722EF32D66
:100BD000EE1BF62D0310EB0DEC0DED0DEE0DF703F6
:100BE0000319722EE82DEA171F2EEA136508E90093
:100BF000E91FFC2DEE176B2EEE136B2E6508EE0031
:100C0000EE176608ED006708EC00E91F0B2EEE13E7
:100C10006A15772E6A11EB01681021308500333098
:100C200084008C2EE91B352E6108E900681C1F2EFC
:100C3000EE0CED0CEC0CEB0CF70A0319722EEB1F0B
:100C4000302EEC0A031D302EED0A031D302EEE0A65
:100C5000031D302EEE0CED0CEC0CF70A0319722E6E
:100C60006A1BB22DEA1BF52D542E8030EE06EE1FC6
:100C70003D2E772E6508E9004A2E6108E900EE084E
:100C8000031D4A2EED08031D4A2EEC08031D4A2EB3
:100C9000F7016B2EEE1B542E0310EB0DEC0DED0D3A
:100CA000EE0DF70B4A2E722EE91F582EEE176B2E03
:100CB000EE136B2E6408F7006508EE006608ED0081
:100CC0006708EC006B2E6008F7006108EE00620810
:100CD000ED006308EC006E08F8006D08F9006C0880
:100CE000FA00A82EF701F801F901FA01A82EEB018C
:100CF000EC09ED09EE09EB09EB0A031D852EEC0A60
:100D0000031D852EED0A0319EE0A6A18902DEA18C4
:100D1000D32D6A190A2E3A2E0008EC07031C962ED2
:100D2000ED0A031D962EEE0A031968141100ED0753
:100D3000031C9D2EEE0A031968141100801F803ACF
:100D4000EE07031868146A1A982DEA1ADB2D122E82
:100D50002000080024001D139E159E19AD2E771843
:100D60009E12771C9E161E161E1AB42E1908F80025
:100D7000200008002300D4015408E0008030E50082
:100D800024001E141E18C22E03102300600DD0383C
:100D90000138E600E7002000EC200130F700AA2629
:100DA00078082300E3000130F7002000AA26780825
:100DB0002300E2000130F7002000AA267808230073
:100DC000E1000130F7002000AA2678082300E500A2
:100DD000E51F1D2F0130F7002000AA267808230008
:100DE000E500E51BEA2EF7012000AA26780823007B
:100DF000E50024001E151E19FB2E1E141E18FE2EC3
:100E000003102300600DD0380138E600E700200011
:100E1000EC200130F700AA2678082300E300013017
:100E2000F7002000AA2678082300E2000130F7002E
:100E30002000AA2678082300E100F7012000AA2656
:100E400078082300E50024001E151E19252F230015
:100E5000E31C2D2FFF30E4002E2FE4016108F70082
:100E60006208F8006308F9006408FA007A08D800FC
:100E70007908D7007808D6007708D5005808E3002D
:100E80005708E2005608E1005508E000B630F700C8
:100E9000FA01F901F8016410E31F5C2F6414E00902
:100EA000E109E209E309E00A031D5C2FE10A031DE1
:100EB0005C2FE20A0319E30A600861046204630418
:100EC000031D642FF701732F0310F81B702FE00D23
:100ED000E10DE20DE30DFA0DF90DF80DF70B642F9E
:100EE000F8136418F8177A08E3007908E200780824
:100EF000E1007708E0006308E7006208E6006108A7
:100F0000E5006008E4006F30EB001230EA000330C7
:100F1000E9006F30E8002000DC237A082300DC00C1
:100F20007908DB007808DA007708D9005908F7005B
:100F30005A08F8005B08F9005C08FA007A08D70044
:100F40007908D6007808D5007708D4005708E7005C
:100F50005608E6005508E5005408E400EB01EA01F4
:100F60007A30E9008830E8002000DC237A0823008A
:100F7000D3007908D2007808D1007708D000500853
:100F8000F7005108F8005208F9005308FA00200051
:100F900008002300380885003708840058081A0024
:100FA0008001B70A0319B80A200008002300550879
:100FB000F80154020318DF2F5408F700EB2FF70154
:100FC0000830D600D40DF70D550877020318F70046
:0A0FD000F80DD60BE22F20000800F8
:101000000B088B1331001513151400000000891B09
:101010008B170318352813087F392300CF003100C0
:1010200011082300D000310012082300D1004F081E
:10103000D80080312000C9278831230050083100B2
:10104000910023005108310092000B088B131513F7
:10105000151400000000891B8B172300CC0B3128CE
:101060003328310035285A283100130D140D7F39EB
:101070002300CF00310011082300D00031001208F6
:101080002300D1004F08D80080312000C9278831C3
:1010900023005008310091002300510831009200D4
:1010A000910A0319920A03102300CC0B58285A28DE
:1010B0002000002820000800203023004D1E303082
:1010C000D0004C08F700CC1F6D28F709F70A770805
:1010D000CC002D30D000CD174D144C08D400643016
:1010E000D50080312000D627883177082300CC0036
:1010F00030307807D1004C08D4000A30D500803158
:101100002000D6278831303077072300D3003030D5
:101110007807D2005008F7003030510203199428A4
:10112000CD14CD1B4D15A8285008D1002030D0007B
:10113000303052020319A0284D14CD1BCD14A8281D
:10114000031D4D14031DA8285108D2002030D100E2
:101150004D19AF28CD18B6284D18BD28C428500801
:10116000D80080312000C927883123005108D800D9
:1011700080312000C927883123005208D8008031EF
:101180002000C927883123005308D800803120006F
:10119000C927883108008318D128213085003130D3
:1011A0008400F701F801F901FA012300E101E201ED
:1011B000E301E4015F085E045D045C040319102987
:1011C0002030E5000310D80DD90DDA0DDB0DE10D4F
:1011D000E20DE30DE40D5F086402031DF9285E08CB
:1011E0006302031DF9285D086202031DF9285C08EB
:1011F0006102031C0A295C08E1025D08031C5D0F03
:10120000E2025E08031C5E0FE3025F08031C5F0F2F
:10121000E4020314F70DF80DF90DFA0DE50BE228C1
:10122000610880006208813F6308823F6408833F51
:101230002000080004082300D0004A08D200031947
:101240003E294908E7004808E6004708E500460847
:10125000E400EB01EA012030E9008230E80080314F
:101260002000DC2388317A082300C9007908C800EF
:101270007808C7007708C600D20B21294908DB008F
:101280004808DA004708D9004608D8005808B63C94
:10129000D800FA015908DC00D9170310D90CDA0C70
:1012A000DB0CFA0CF90CF80CF70CD80B4D29DC1FF1
:1012B0006429F709F809F909FA09F70A0319F80A7C
:1012C0000319F90A0319FA0A7A08C9007908C8004B
:1012D0007808C7007708C600C91F7B29D003D0163D
:1012E000C609C709C809C909C60A0319C70A0319E3
:1012F000C80A0319C90A3B30D7009A30D600CA3051
:10130000D500D4010A30D2004A080319D00A831448
:1013100021308500163084004908DB004808DA00D7
:101320004708D9004608D8005708DF005608DE00F5
:101330005508DD005408DC002000CB207808F708B1
:10134000031DB92923004A0A5202031DA9292000BE
:10135000B92950080319BC290F3952020319B229BF
:101360000318FC29D01BFC29501BBC292030F42970
:10137000200020302300D005D01ECE29D0124A08EC
:10138000031DD0037708D0002D30D8008031200015
:10139000C927883123005008F700D0014A085202BB
:1013A000031DE0297708D0002E30D80080312000BE
:1013B000C927883123005008F7002030D0050030BD
:1013C0003030D01EF429D0124A08031DD00377080C
:1013D000D0002D30D80080312000C927883123006B
:1013E0005008F700D0013030F7077708D800803177
:1013F0002000C9278831230083105708DB005608D6
:10140000DA005508D9005408D800DF01DE01DD01FB
:101410000A30DC002000CB207A082300D7007908AE
:10142000D6007808D5007708D400D20B8729200091
:101430000800213085000F308400000803192E2A8F
:101440000530F800F701F70B232AF80B222A2E307B
:10145000F700F70B292A2C2A800B202A0800553088
:101460003C008F00AA308F000F1014309D00153003
:101470009E001030A0001130A10018303D00A000E7
:101480001930A1001A30A4001B30A50055303C00D3
:101490008F00AA308F000F1432009E019B019D0126
:1014A00006309F00603099007010F010701103300A
:1014B000F6002300B801B7018C018E0122009201D1
:1014C000910194019301E92A023400342834003454
:1014D00000342B344034B034003403348034453489
:1014E000523452340534C03400340434803442342D
:1014F0004134553444340434C03400340534803429
:10150000433441344C340034003417340134203433
:101510000034003400344534583450344F3452349D
:1015200054340034003446344134433454344F345A
:10153000523459340034463449344E34443404343B
:10154000C03400340134803449340734C0340034AA
:10155000033480344934323443340534C0340034E5
:101560000934803449344D3450344F345234543477
:10157000003400344C340734C0340034093480342F
:1015800050344C344F3443344B3400340034003442
:1015900052340734C03400340534803453344C346E
:1015A00045344534503412340134A034003400340E
:1015B000003453344C344F34503445340034003408
:1015C0000034533454344134543455345334003497
:1015D00000340A3085006430840085171200F7005B
:1015E000003A0319032B1200F800F81BFB2A0F39ED
:1015F000870012008600781B1200781F12001E0060
:10160000F70BFD2AEE2A31001B08CF39F70003083B
:1016100018390310890D7704891C0910091D8916D2
:10162000891D8916091B8916891B8916F7001F3029
:101630009B0077086400F50080312000D5208831B8
:10164000803101218831230039106400701C472B40
:101650002000171A960195011508F700171A1608A9
:10166000FA00171EFA0177082300BE007A08BF00AF
:10167000BF08031D422B3E083B3C031C422B2000AD
:101680002C2B230039142000D60170102300391CA4
:10169000AC2B3910BA013A08283C031C7D2B37309B
:1016A0003A078400203085000318850A80013A0833
:1016B000073C031C632B60303A0784002030850010
:1016C0000318850A80013A08053C031C6F2B68301B
:1016D0003A078400203085000318850A80013A0803
:1016E0001C3C031C7B2B6E303A07840020308500A5
:1016F0000318850A8001BA0A4B2B2030BF000E3038
:10170000BE0080312000B52988312300B910781837
:10171000B914B91C9D2B2030BF006030BE00803151
:1017200020008F2B883178082300BB003B08BE00C7
:1017300090312000002888312300BC013C08283C5F
:10174000031CAC2B0E303C078400203085000318AE
:0C175000850A8001BC0A9E2B252B63003B
:1020000023003E08F13E0318962F0F3E2000992F23
:102010002300962F43302300BF004C30C0004530D2
:10202000C1004130C2005230C300C4013F30C5007E
:10203000C6012100B808031D8B2BBE0803198B2B8A
:1020400020302300CD006E30CC00CE01CF01D00176
:1020500050084C07840000304D3D8500800803196E
:10206000D328D008031D5C284C0884004D08850047
:1020700000310008D10051082F3C031843285108B3
:10208000393C03184C284C0884004D088500003169
:1020900000082D3C031D58284C0884004D0885007D
:1020A000003100082D3C031D5628CF0AD1285B289B
:1020B0000030F800D528D12850084C0784000030A3
:1020C0004D3D85000008D10051082F3C03186C28B5
:1020D0005108393C03186E2800306F280130013C4C
:1020E0000319862850084C07840000304D3D8500B8
:1020F00000082E3C0319862850084C078400003045
:102100004D3D850000082D3C031DCE2850084C078E
:10211000840000304D3D850000082E3C031D9828AA
:10212000CE0A4E08013C031898280030F800D52844
:1021300050084C07840000304D3D850000082D3CC0
:10214000031DA5280030F800D5284D08D2004C0802
:10215000D10080312000C02390310130780223006B
:102160004C07840000304D3D850000082E3C031DC7
:10217000BC280030F800D52850084C0784000030F7
:102180004D3D85000008D10051082F3C0318CD2893
:102190005108393C031CCD28D128D1280030F80043
:1021A000D528D00A28280130F800F8080319CA2ACF
:1021B0002030CD006E30CC00CF01CE01D301D20152
:1021C000D1017F30D000D701D601D501D4015814F8
:1021D000D8105811DA014C084D04031DF428F701FA
:1021E000F801F901FA011A2A5A08DA0A4C078400A0
:1021F00000304D3D85000008D900D9080319DA29BF
:10220000581C14295908203C03191429581059083E
:102210002B3C031D0E29D810D029142959082D3C18
:10222000031D1429D814D02958181E2959082E3CEA
:10223000031D1E2958191E295815D0295818CD29B3
:1022400059082F3C0318CD295908393C031CCD29C6
:102250003030D902581D8B295308E7005208E60098
:102260005108E5005008E400EB01EA012030E900E4
:102270008230E80080312000DC2390317A0823008E
:10228000D3007908D2007808D1007708D000E101A6
:102290005908E00080312000782490317A0823002A
:1022A000DF007908DE007808DD007708DC005F08D1
:1022B000E3005E08E2005D08E1005C08E00053080E
:1022C000E7005208E6005108E5005008E4008031BC
:1022D000200097249031831023005708E30056080C
:1022E000E2005508E1005408E0007A08E7007908A8
:1022F000E6007808E5007708E400803120006325D7
:1023000090317A082300D7007908D6007808D500E4
:102310007708D400CC29E701E6012030E5008230BF
:10232000E4005708EB005608EA005508E900540895
:10233000E80080312000DC2390317A082300DF00A0
:102340007908DE007808DD007708DC00E101590833
:10235000E0008031200078249031831023005F0852
:10236000E3005E08E2005D08E1005C08E0007A0836
:10237000E7007908E6007808E5007708E400803196
:102380002000632590317A082300D7007908D60011
:102390007808D5007708D400D0295818D029DA2930
:1023A0005A08DA0A4C07840000304D3D85000008C9
:1023B000D900FD28D81CF729E701E6018030E500A7
:1023C0007F30E4005708EB005608EA005508E900A2
:1023D0005408E80080312000DC2390317A08230083
:1023E000D7007908D6007808D5007708D4004E08C1
:1023F0004F040319122ADA0803190A2ADA034E08CD
:1024000084004F0885005A084C07800000304D3D7D
:10241000813F122A4E0884004F0885004C08800036
:102420004D08813F5408F7005508F8005608F90098
:102430005708FA007A08CF007908CE007808CD0056
:102440007708CC0080312000BA269031050823009F
:10245000D1000408D00083144F08E3004E08E200C6
:102460004D08E1004C08E0007A08E7007908E60032
:102470007808E5007708E40080312000632590317A
:10248000230051088500500884007A08B6007908B6
:10249000B5007808B4007708B3000B08F7008B1379
:1024A0000A3031009100703092002300330831006F
:1024B00093001517151555309600AA3096009514FF
:1024C0009518602A1511151377088B040B08F7006F
:1024D0008B130B30910070309200230034083100D0
:1024E00093001517151555309600AA3096009514CF
:1024F0009518782A1511151377088B040B08F70027
:102500008B130C309100703092002300350831009D
:1025100093001517151555309600AA30960095149E
:102520009518902A1511151377088B040B08F700DE
:102530008B130D309100703092002300360831006B
:1025400093001517151555309600AA30960095146E
:102550009518A82A1511151377088B040130F3007C
:102560000B08F7008B1391017030920073089300F1
:102570001517151555309600AA3096009514951824
:10258000BF2A1511151377088B0401302000D700DE
:10259000892B23002030CD006E30CC002130CF00BD
:1025A0000F30CE00803120004E239031F808031DFB
:1025B000592B2300B601B501B401B3010B08F70094
:1025C0008B130A30310091007030920023003308E1
:1025D000310093001517151555309600AA30960056
:1025E00095149518F12A1511151377088B040B080B
:1025F000F7008B130B3091007030920023003408E9
:10260000310093001517151555309600AA30960025
:1026100095149518092B1511151377088B040B08C1
:10262000F7008B130C3091007030920023003508B6
:10263000310093001517151555309600AA309600F5
:1026400095149518212B1511151377088B040B0879
:10265000F7008B130D309100703092002300360884
:10266000310093001517151555309600AA309600C5
:1026700095149518392B1511151377088B04F30150
:102680000B08F7008B1391017030920073089300D0
:102690001517151555309600AA3096009514951803
:1026A0004F2B1511151377088B0401302000D7002C
:1026B000892B20302300CD006E30CC002130CF009C
:1026C0001530CE00803120004E239031F808031DD4
:1026D000872B0130D70020302300B8003830B700F6
:1026E000D1303100910000309200031005302300FA
:1026F000CC00883120000020903173082300CC00EA
:102700001830CD00883120005C209031892B0230B8
:10271000D7008E2B210002302000D7002300962FF7
:1027200020302300CD006030CC002030CF000E30B0
:10273000CE00803120004E239031F808031D462C36
:102740002100B8080319A62B2000462CBE08031947
:10275000AB2B2000462C2300B601B501B401B30118
:102760000B08F7008B130A30310091007030920093
:1027700023003308310093001517151555309600C6
:10278000AA30960095149518C32B151115137708C8
:102790008B040B08F7008B130B3091007030920004
:1027A0002300340831009300151715155530960095
:1027B000AA30960095149518DB2B15111513770880
:1027C0008B040B08F7008B130C30910070309200D3
:1027D0002300350831009300151715155530960064
:1027E000AA30960095149518F32B15111513770838
:1027F0008B040B08F7008B130D30910070309200A2
:102800002300360831009300151715155530960032
:10281000AA309600951495180B2C151115137708EE
:102820008B04F3010B08F7008B13910170309200B9
:10283000730893001517151555309600AA309600A9
:1028400095149518212C1511151377088B04220067
:102850008C140130F4000B08F7008B1301303100A9
:1028600091007030920074089300151715155530BB
:102870009600AA309600951495183C2C1511151346
:1028800077088B0401302000D700482C0230D70095
:102890002300962F0130D70020302300B8003830B5
:1028A000B7009B30310091000030920003100730D8
:1028B0002300CC0088312000002090318930840032
:1028C0002300C901C801C7017F30C6000230CA0019
:1028D000883120001A2190312300962F20302300C8
:1028E000CD006030CC002030CF000E30CE008031E3
:1028F00020004E239031F808031DD52C2100B80884
:102900000319842C2000D52CBE080319892C200023
:10291000D52C80312000BA2690317A082300C900D6
:102920007908C8007808C7007708C6000508CB00FA
:102930000408CA0083104908E3004808E200470879
:10294000E1004608E0003608E7003508E6003408F4
:10295000E5003308E4008031200063259031230036
:102960004B0885004A0884007A08C2007908C10033
:102970007808C0007708BF0001302000D700203061
:102980002300B8003830B700893084004208C900FD
:102990004108C8004008C7003F08C6000230CA000E
:1029A000883120001A219031D72C0230D700230023
:1029B000962F20302300CD006030CC002030CF0097
:1029C0000E30CE00803120004E239031F808031DD8
:1029D000132D2100B8080319EF2C2000132DBE0879
:1029E0000319F42C2000132DF01401302000D7001F
:1029F000AE01AE08031D122D023022008C06643099
:102A00002300BF00883120001922903102302200BB
:102A10008C0664302300BF008831200019229031D9
:102A20006400F92C152D0230D700F0102300962FEA
:102A30002100B808031DA92DBE080319A92D2030B7
:102A40002300D2006E30D10080312000C0239031AD
:102A5000780BA42D21003E08313A20000319372DB0
:102A6000013A0319552D0F3A0319732D9E2D22009B
:102A70008C1401302000D700F4000B08F7008B13F2
:102A800001303100910070309200740893001517E6
:102A9000151555309600AA309600951495184E2DB0
:102AA0001511151377088B04A22D22008C1001300C
:102AB0002000D700F4010B08F7008B130130310020
:102AC0009100703092007408930015171515553059
:102AD0009600AA309600951495186C2D15111513B3
:102AE00077088B04A22D0130D70000308C180130FC
:102AF0002300BF002030B8003830B7004C30D80079
:102B000080312000C92790312C302300D80080313B
:102B10002000C92790313F302300D80080312000A9
:102B2000C927903123003F08CC001830CD008831F0
:102B300020005C2090313100A22D20000230D7000F
:102B40003100A22DA72D20000230D7003100AD2D7D
:102B5000210002302000D70031002300962F2030C2
:102B60002300CD006030CC002030CF000E30CE00EE
:102B7000803120004E239031F808031D612F210081
:102B8000B8080319C52D2000612FBE080319CA2DEE
:102B90002000612F9D149D18CB2D1C08FA001B08E6
:102BA0002300C4007A08C500E1004408E000803139
:102BB0002000782490317A082300E3007908E200AD
:102BC0007808E1007708E000E701C030E6007F30D8
:102BD000E5008830E40080312000972490316F3088
:102BE0002300E7001230E6000330E5008030E40007
:102BF0007A08EB007908EA007808E9007708E8002D
:102C000080312000DC23903193302300E7002B300B
:102C1000E6004830E5008030E4007A08EB007908EF
:102C2000EA007808E9007708E80080312000DC231A
:102C300090317A082300C2007908C1007808C000EA
:102C40007708BF0001302000D70075083C3A03190F
:102C5000362E023A0319682E213A03199A2E103A99
:102C60000319CB2E343A0319FD2E2F2F20302300C9
:102C7000B8003830B700A130310091000030920028
:102C8000031008302300CC00883120000020903150
:102C900050302300D80080312000C92790312C30DB
:102CA0002300D80080312000C9279031893084006A
:102CB00023004208C9004108C8004008C7003F0877
:102CC000C6000230CA00883120001A219031602FDE
:102CD00020302300B8003830B700A930310091000F
:102CE00000309200031008302300CC00883120000F
:102CF0000020903142302300D80080312000C927C5
:102D000090312C302300D80080312000C927903129
:102D10008930840023004208C9004108C8004008E7
:102D2000C7003F08C6000230CA00883120001A21BF
:102D30009031602F20302300B8003830B700B13018
:102D40003100910000309200031008302300CC00C5
:102D5000883120000020903157302300D800803186
:102D60002000C92790312C302300D800803120006A
:102D7000C92790318930840023004208C9004108E6
:102D8000C8004008C7003F08C6000230CA008831AA
:102D900020001A21903120302300B8003830B700CD
:102DA000B930310091000030920003100830230048
:102DB000CC00883120000020903157302300D8000B
:102DC00080312000C92790312C302300D800803179
:102DD0002000C92790318930840023004208C900AF
:102DE0004108C8004008C7003F08C6000230CA00BA
:102DF000883120001A219031602F20302300B80044
:102E00003830B700C130310091000030920003101B
:102E100008302300CC00883120000020903153304E
:102E20002300D80080312000C92790312C302300A6
:102E3000D80080312000C9279031893084002300D8
:102E40004208C9004108C8004008C7003F08C60042
:102E50000230CA00883120001A219031602F2030C2
:102E60002300B8003830B700C9303100910000307D
:102E70009200031008302300CC008831200000208D
:102E8000903155302300D80080312000C92790317F
:102E90002C302300D80080312000C92790318930A0
:102EA000840023004208C9004108C8004008C70048
:102EB0003F08C6000230CA00883120001A21903134
:102EC000632F0230D7002300962F20302300CD003F
:102ED0006030CC002030CF000E30CE00803120009A
:102EE0004E239031F808031D8D2F2100B8080319D7
:102EF0007B2F20008D2FBE080319802F20008D2FDF
:102F0000701522008C1080312000D5209031630094
:102F100070118031012190318F2F0230D7002300B2
:102F2000962F0230D7002300962F230088312000EF
:102F30009B2B0A148A140A158207912F08280A2845
:102F4000952F902BD92C4A2C952F952F182D952FF6
:082F50006E2C652F952FAF2DAB
:027F1E002C3401
:107F20007F3400340034003482343534E4341B347C
:107F300083346734DB34A43483341E348C343334D8
:107F40007C34343489340A348134353479347C34A3
:107F50008334333402343F3483341E348C3433342A
:107F60007F340034003400348134B1348D340A3429
:107F7000813433345034EE347D347D34BF3437347F
:107F800081349334AA343D34813433345034EE3464
:107F90007B343A34F3344C347E34DF349D342B3428
:107FA0000034003400340034003400340034003431
:107FB0007F348A34473499348034003400340034B8
:107FC0000034003400340034003400340034003411
:107FD0007234593488347C34753426349734E03420
:107FE00078341E341D34C4347A34633450345E34EF
:107FF0007C347534FE341A347E343134723418349F
:020000040001F9
:08000E00EC3FF83DFC1FFC3F34
:00000001FF
;PIC16F18326
;CRC=9576  CREATED="11-jul-19 18:06"
