:0600000000008031B72D65
:0800080083018031200077081C
:10001000A0007808A1007908A2007A08A3003100A6
:1000200011082000A400310012082000A5003100B2
:1000300013082000A600310014082000A700850145
:1000400091308400801D262891193F282008F70050
:100050002108F8002208F9002308FA0024083100DA
:100060009100200025083100920020002608310070
:1000700093002000270831009400090020008031FF
:1000800041282400941A4728F3011419F317730820
:10009000F30A2300E700E708031D60282400151376
:1000A000141C502811081516F201F0185D28701460
:1000B000FE302000D7005F2824002000D701230055
:1000C0006708803C0319F10167087F3C0318892801
:1000D0007108283C031C88283730710784002030C1
:1000E00085000318850A0008E8006808E900240074
:1000F00011082300690824009100151620009111B1
:10010000240014188128F801161FF80AF10A2300A8
:10011000A028E7080319A0287208283C031CA0287F
:100120000E3072078400203085000318850A2400F1
:100130001513141C9928110815168000F20A2300C3
:100140002000911180312628BF34AC275228AC12F0
:100150002E196600BF29F430F43A7316A531AC129B
:100160002E19660032001117111512141317931669
:100170001315931494171417941614169415141534
:1001800094141414161696151615961416142000A9
:10019000080024009D13200092112300530824001E
:1001A000990002309D1BDB282000921DD5280030CD
:1001B00024001E1B0130F80020000800320011133B
:1001C000111112101313931221009115C0308B04DA
:1001D0000E148E142400171097109711C43092003B
:1001E000363095001614961721000E168E16240030
:1001F0001F109F109F1109309A0028309D009C13FA
:100200001C132300BC0124001E141E180529031012
:1002100023003C0DD038BD00D3002000C9201C3085
:100220002300D3002000C92024001E151E19162902
:10023000220097179714171021001E169E161E13E2
:100240009E171D141E109E101E11043023008C00DA
:1002500000308E000830F80021001D0803397804B2
:100260009D001E149E141E119030200097004B30EC
:10027000980021008C1022008C102300BB013B0849
:10028000283C031C4D290E303B078400203085009C
:100290000318850A8001BB0A3F29200008002300BB
:1002A000BC01BF013F083A07840000303B3D850098
:1002B00080080319B5293F083A07F80000303B3D94
:1002C000FA007808C3007A08C4003F083A0784009F
:1002D00000303B3D85000008C500603C03187729CD
:1002E00045087A3C031C77294508DF3978294508F9
:1002F000C5004408850043088400450880003F0885
:100300003A07840000303B3D85000008C3003F30C1
:10031000310092008F30910021308500143084002C
:1003200001302300C6004608F70003103100151302
:10033000151400000000130880000131910A031910
:10034000920AF70B9829230044084302031DB3299E
:10035000BC0A3C0BAD293F08BD003C08023C031D14
:10036000B3293F08BE00BF0A52293C08003A2000CA
:100370000319C129013A0319EB29033A03194B2A3E
:10038000DD2A2300C0014008073C031CE22960303D
:100390004007F8002030FA000318FA0A7808C30072
:1003A0007A08C40040083A07840000303B3D8500CD
:1003B0000008C50044088500430884004508800003
:1003C000C00AC3296030400784002030850003182C
:1003D000850A8001E32A2300C10141083A0784000D
:1003E00000303B3D850080080319402A3D0841024A
:1003F0000318132A60304107F8002030FA00031870
:10040000FA0A7808C3007A08C40041083A07840051
:1004100000303B3D85000008C500440885004308C6
:100420008400450880003D084102031D1F2A6030FA
:1004300041078400203085000318850A80014108A7
:100440003D0203183E2A01303D0741026E3EF8008E
:100450002030FA000318FA0A7808C3007A08C400AA
:1004600041083A07840000303B3D85000008C50084
:10047000440885004308840045088000C10AED292E
:1004800001303D0741026E3E840020308500031894
:10049000850A8001E32A2300C20142083A0784004A
:1004A00000303B3D850080080319D12A3D084202F7
:1004B0000318732A60304207F8002030FA0003184E
:1004C000FA0A7808C3007A08C40042083A07840090
:1004D00000303B3D85000008C50044088500430806
:1004E0008400450880003D084202031D7F2A6030D9
:1004F00042078400203085000318850A80014208E5
:100500003D020318A22A3E0842020318A22A013023
:100510003D074202683EF8002030FA000318FA0A4C
:100520007808C3007A08C40042083A078400003003
:100530003B3D85000008C500440885004308840051
:10054000450880003E084202031DB02A01303D07E5
:100550004202683E8400203085000318850A80012D
:1005600042083E020318CF2A01303E0742026E3E87
:10057000F8002030FA000318FA0A7808C3007A0855
:10058000C40042083A07840000303B3D8500000863
:10059000C500440885004308840045088000C20A5D
:1005A0004D2A01303E0742026E3E84002030850015
:1005B0000318850A8001E32A20000230D7000030AA
:1005C000F800E62A23000130F80020008031ED2EEB
:1005D00023004108FA00400884007A0885000008DA
:1005E000C4004308FA00420884007A088500000825
:1005F0004402031D112B4108FA00400884007A08C8
:1006000085008008031D072B0030F800272B4108C8
:10061000FA004008C00A0319C10AC20A0319C30A32
:10062000E92A4108FA0040088400410885000008D2
:10063000C4004308FA00420884004308850000080B
:1006400044020318252BFF30262B0130F800200030
:1006500008002300BC013C080E3C031C552B3C0D3C
:10066000F700F70DF70DF830F70577088B3EF80027
:100670002030FA000318FA0A7808BE007A08BF0092
:100680003B08C1003A08C0003F08C3003E08C20052
:100690002000E822F808031D522B23003C08F80034
:1006A000572B20002300BC0A2B2B0030F800803190
:1006B0002000F92E230034088500330884005008F8
:1006C0001A008001B30A0319B40A200008000B08BD
:1006D0008B1331001513151400000000891B8B17B4
:1006E00003189A2B13087F392300C3003100110827
:1006F0002300C400310012082300C5004308D000C5
:1007000020005A23230044083100910023004508AB
:10071000310092000B088B13151315140000000014
:10072000891B8B172300C00B962B982B31009A2B1B
:10073000BD2B3100130D140D7F392300C300310090
:1007400011082300C400310012082300C50043082B
:10075000D00020005A2323004408310091002300D8
:10076000450831009200910A0319920A03102300F0
:10077000C00BBB2BBD2B2000672B200008002300E3
:1007800050080319302CDC0054080319302CDC0706
:100790000318D12B7F30DC02031C302C0319302CC2
:1007A000D52B8130DC070318302C5C08F700F801EA
:1007B000F901FA015108E000E0175208DF00530880
:1007C000DE001830DC00DD015E1CFE2B5708FA0746
:1007D000031CF02BF90A031DF02BF80A0319DD178F
:1007E0005608F907031CF72BF80A0319DD175508FB
:1007F000D200D2175208F8070318DD17DD0DF80CE8
:10080000F90CFA0CE00CDF0CDE0C0310DC0BE32B14
:100810000130F7070318302CF81B152CE00DFA0DEA
:10082000F90DF80DF7030319302CE01F262CFA0AF6
:10083000031D262CF90A031D262CF80A031D262C5D
:10084000F80CF90CFA0CF70A0319302C5108DD00EA
:100850005508DD06DD1F2E2CF817342CF813342C28
:10086000F701F801F901FA012000080083183C2C77
:10087000213085002C308400F701F801F901FA01DC
:100880002300DC01DD01DE01DF01570856045504B9
:10089000540403197B2C2030E0000310D00DD10D3F
:1008A000D20DD30DDC0DDD0DDE0DDF0D57085F021F
:1008B000031D642C56085E02031D642C55085D025E
:1008C000031D642C54085C02031C752C5408DC02C4
:1008D0005508031C550FDD025608031C560FDE0297
:1008E0005708031C570FDF020314F70DF80DF90D1D
:1008F000FA0DE00B4D2C5C0880005D08813F5E081E
:10090000823F5F08833F2000080004082300C800DE
:100910004408CA000319A72C4308D3004208D20098
:100920004108D1004008D000D701D6012030D500C1
:100930008230D4002000BF237A082300C300790846
:10094000C2007808C1007708C000CA0B8C2C43088D
:10095000D3004208D2004108D1004008D00050081E
:10096000B63CD000FA015108D400D1170310D10CC5
:10097000D20CD30CFA0CF90CF80CF70CD00BB62CEB
:10098000D41FCD2CF709F809F909FA09F70A031958
:10099000F80A0319F90A0319FA0A7A08C300790850
:1009A000C2007808C1007708C000C31FE42CC80348
:1009B000C816C009C109C209C309C00A0319C10A7E
:1009C0000319C20A0319C30A3B30CF009A30CE0084
:1009D000CA30CD00CC010A30CA0044080319C80A45
:1009E000831421308500103084004308D30042086E
:1009F000D2004108D1004008D0004F08D7004E086F
:100A0000D6004D08D5004C08D400200036247808C4
:100A1000F708031D222D2300440A4A02031D122D4C
:100A20002000222D48080319252D0F394A020319E9
:100A30001B2D03185D2DC81B5D2D481B252D203057
:100A4000572D200020302300C805C81E352DC812A0
:100A50004408031DC8037708C8002D30D0002000CB
:100A60005A2323004808F700C80144084A02031D1E
:100A7000452D7708C8002E30D00020005A232300CF
:100A80004808F7002030C80500303030C81E572D08
:100A9000C8124408031DC8037708C8002D30D000D1
:100AA00020005A2323004808F700C8013030F70718
:100AB0007708D00020005A23230083104F08D3006A
:100AC0004E08D2004D08D1004C08D000D701D60105
:100AD000D5010A30D400200036247A082300CF0044
:100AE0007908CE007808CD007708CC00CA0BF02C2E
:100AF0002000080024001D139E159E197D2D7718D7
:100B00009E12771C9E161E161E1A842D1908F800B8
:100B100020000800213085000B30840000080319F4
:100B20009F2D0530F800F701F70B942DF80B932D4E
:100B30002E30F700F70B9A2D9D2D800B912D08007C
:100B400023004508F80144020318A92D4408F700C2
:100B5000B52DF7010830C600C40DF70D4508770222
:100B60000318F700F80DC60BAC2D20000800553017
:100B70003C008F00AA308F000F1014309D001530FC
:100B80009E001030A0001130A10018303D00A000E0
:100B90001930A1001A30A4001B30A50055303C00CC
:100BA0008F00AA308F000F1432009E019B019D011F
:100BB00006309F00603099007010F0107011033003
:100BC000F3002300B401B3018C018E0122009201D5
:100BD000910194019301712E0234003428340034C1
:100BE00000342B344034B034003403348034453482
:100BF000523452340534C034003404348034423426
:100C00004134553444340434C03400340534803421
:100C1000433441344C34003400341734013420342C
:100C20000034003400344534583450344F34523496
:100C300054340034003446344134433454344F3453
:100C4000523459340034463449344E344434043434
:100C5000C03400340134803449340734C0340034A3
:100C6000033480344934323443340534C0340034DE
:100C70000934803449344D3450344F345234543470
:100C8000003400344C340734C03400340934803428
:100C900050344C344F3443344B340034003400343B
:100CA00052340734C03400340534803453344C3467
:100CB00045344534503412340134A0340034003407
:100CC000003453344C344F34503445340034003401
:100CD0000034533454344134543455345334003490
:100CE000003405308500EC30840085171200F700D1
:100CF000003A03198B2E1200F800F81B832E0F39CF
:100D0000870012008600781B1200781F12001E0058
:100D1000F70B852E762E2000B220DE202300351022
:100D2000701CB12E2000171A960195011508F700C6
:100D3000171A1608FA00171EFA0177082300BA00DE
:100D40007A08BB00BB08031DAC2E3A083B3C031CD1
:100D5000AC2E2000962E230035142000D6017010F2
:100D60002300351C122F3510B6013608283C031C11
:100D7000E72E373036078400203085000318850AB7
:100D800080013608073C031CCD2E603036078400F6
:100D9000203085000318850A80013608053C031CB5
:100DA000D92E683036078400203085000318850A64
:100DB000800136081C3C031CE52E6E30360784008B
:100DC000203085000318850A8001B60AB52E203030
:100DD000BB000E30BA0020004F292300B510781850
:100DE000B514B51C032F2030BB006030BA002000C2
:100DF000292B78082300B7003708BA008831200073
:100E0000002880312300B8013808283C031C122F29
:100E10000E3038078400203085000318850A8001D1
:080E2000B80A042F902E132FD5
:1010000023003A08F13E0318732C0F3E2000762C83
:101010002300732C2300732C0130D70020302300D1
:10102000B4003830B300A430310091000030920099
:10103000031007302300C00080312000672388316F
:10104000893084002300C301C201C1017F30C00088
:101050000230C40080312000852488310000230044
:10106000732C20302300C1006030C0002030C3004A
:101070000E30C20080312000E8228831F808031DBC
:1010800095292100B8080319472820009529BE0892
:1010900003194C282000952901302000D700230097
:1010A000C0014008CC008030D10024001E141E185E
:1010B0005728031023004C0DD0380138D200D3003C
:1010C00080312000C92088310130F70080317A2535
:1010D000883178082300CF000130F70080312000EC
:1010E0007A25883178082300CE000130F70080315E
:1010F00020007A25883178082300CD000130F700E0
:10110000803120007A25883178082300D100D11F52
:10111000C8280130F700803120007A25883178080E
:101120002300D100D11B8928F701803120007A25C6
:10113000883178082300D10024001E151E199E282E
:101140001E141E18A128031023004C0DD03801389E
:10115000D200D30080312000C92088310130F7004F
:1011600080317A25883178082300CF000130F700DC
:10117000803120007A25883178082300CE000130A4
:10118000F700803120007A25883178082300CD00CF
:10119000F701803120007A25883178082300D100BA
:1011A00024001E151E19D2282300CF1CDA28FF3078
:1011B000D000DB28D0014D08F7004E08F8004F089A
:1011C000F9005008FA007A08C4007908C3007808CA
:1011D000C2007708C1004408CF004308CE0042088F
:1011E000CD004108CC00B630F700FA01F901F80152
:1011F0005010CF1F09295014CC09CD09CE09CF09B1
:10120000CC0A031D0929CD0A031D0929CE0A031999
:10121000CF0A4C084D044E044F04031D1129F70159
:1012200020290310F81B1D29CC0DCD0DCE0DCF0D9F
:10123000FA0DF90DF80DF70B1129F8135018F817DE
:101240007A08CF007908CE007808CD007708CC0066
:101250004F08D3004E08D2004D08D1004C08D000F2
:101260006F30D7001230D6000330D5006F30D40075
:1012700080312000BF2388317A082300C800790814
:10128000C7007808C6007708C5004508F70046087B
:10129000F8004708F9004808FA007A08C3007908FE
:1012A000C2007808C1007708C0004308D300420894
:1012B000D2004108D1004008D000D701D6017A30D1
:1012C000D5008830D40080312000BF2388317A08CF
:1012D0002300BF007908BE007808BD007708BC0075
:1012E0003C08F7003D08F8003E08F9003F08FA0006
:1012F0007A08BF007908BE007808BD007708BC00F6
:101300002030B4003830B300893084003F08C30077
:101310003E08C2003D08C1003C08C0000230C400C5
:10132000803120008524883197290230D70023009E
:10133000732C20302300C1006030C0002030C30077
:101340000E30C20080312000E8228831F808031DE9
:10135000D2292100B8080319AF292000D229BE08DC
:101360000319B4292000D229F01401302000D7003D
:10137000AE01AE08031DD129023022008C06643074
:101380002300BB00803120008A25883102302200F2
:101390008C0664302300BB00803120008A25883110
:1013A000B929D4290230D700F0102300732C210072
:1013B000B808031DB42ABE080319B42A203023003C
:1013C000BC006E30BB003C08BE003B08BD003E08C0
:1013D000FA003D0884007A08850080080319F42982
:1013E000BD0A0319BE0AE7293B083D02F7003C0885
:1013F0003E3BFA007708F800780BAF2A21003E0840
:10140000313A200003190B2A013A0319112A0F3A25
:101410000319172AAA2A22008C1401302000D700B1
:10142000AD2A22008C1001302000D700AD2A0130F7
:10143000D70000308C1801302300BB002030B400EE
:101440003830B3004C30D000803120005A2388312E
:101450002C302300D000803120005A2388313F30C7
:101460002300D000803120005A23883123003B081C
:10147000BC001830BD0020303D1E3030C0003C089C
:10148000F700BC1F4B2AF709F70A7708BC002D307C
:10149000C000BD173D143C08C4006430C500803155
:1014A0002000A025883177082300BC003030780761
:1014B000C1003C08C4000A30C50080312000A025CE
:1014C0008831303077072300C30030307807C200FE
:1014D0004008F700303041020319722ABD14BD1BC9
:1014E0003D15862A4008C1002030C000303042023D
:1014F00003197E2A3D14BD1BBD14862A031D3D140D
:10150000031D862A4108C2002030C1003D198D2AE2
:10151000BD18942A3D189B2AA22A4008D000803189
:1015200020005A23883123004108D0008031200058
:101530005A23883123004208D000803120005A23EA
:10154000883123004308D000803120005A2388319D
:101550000000AD2A0230D700AD2AB22A23000230A3
:101560002000D700B72A210002302000D700230036
:10157000732C20302300C1006030C0002030C30035
:101580000E30C20080312000E8228831F808031DA7
:101590003E2C2100B8080319CF2A20003E2CBE089B
:1015A0000319D42A20003E2C9D149D18D52A1C080E
:1015B000FA001B082300C0007A08C1004108C300DC
:1015C0004008C2008E30F7004308F8004208F900D6
:1015D000FA01F808031DF62A7908F800F901083025
:1015E000F702F808031DF62AF701FE2A0310F81B7C
:1015F000FD2AF90DF80DF703F62AF8137A08C5004D
:101600007908C4007808C3007708C200C901C03057
:10161000C8007F30C7008830C60042080319D32BAA
:10162000D00046080319D32BD0020318182B1D2B0A
:101630007F30D0070318D32B232B8130D002031C1B
:10164000D32B0319D32B5008F700F801F901FA0145
:10165000CF014308CE00CE174408CD004508CC008A
:101660001930D0004908CC020318462B0130CD02B6
:101670000318462BCE020318462BCF020318462B25
:10168000CF0ACE0ACD0A4908CC07782B4808CD02EC
:101690000318612B0130CE020318612BCF0203180F
:1016A000612BCF0ACE0A4808CD074908CC07031C96
:1016B000782BCD0A031D782BCE0A031D782BCF0A79
:1016C000782B47088038CE020318772B0130CF02E1
:1016D0000318772BCF0A47088038CE074808CD0774
:1016E000031C552BCE0A031D552BCF0A552B7A14FC
:1016F000D00B7B2B862B0310CC0DCD0DCE0DCF0D3B
:101700000310FA0DF90DF80DD10D322B511C8E2B53
:101710000310F80CF90CFA0CD10C912BF7030319F8
:10172000D32BD11BBA2B0310CC0DCD0DCE0DCF0D6D
:101730004908CC020318A62B0130CD020318A62BB2
:10174000CE020318A62BCF02031CC92B4808CD02DA
:101750000318B12B0130CE020318B12BCF02031CAA
:10176000C92B47088038CE020318BA2B0130CF02AC
:10177000031CC92BFA0A031DC92BF90A031DC92B27
:10178000F80A031DC92BF70A0319D32BF80CF90C1F
:10179000FA0C4308D0004708D006D01FD12BF81709
:1017A000D72BF813D72BF701F801F901FA016F30A5
:1017B000D3001230D2000330D1008030D0007A083C
:1017C000D7007908D6007808D5007708D400803192
:1017D0002000BF23883193302300D3002B30D20068
:1017E0004830D1008030D0007A08D7007908D60080
:1017F0007808D5007708D40080312000BF238831D5
:101800007A082300BE007908BD007808BC0077087C
:10181000BB0001302000D70020302300B400383056
:10182000B300AA303100910000309200031008305C
:101830002300C00080312000672388315530230009
:10184000D000803120005A2388312C302300D00072
:10185000803120005A2388318930840023003E08DB
:10186000C3003D08C2003C08C1003B08C000023074
:10187000C4008031200085248831402C0230D700FC
:101880002300732C20302300C1006030C0002030C2
:10189000C3000E30C20080312000E8228831F808F1
:1018A000031D6A2C2100B8080319582C20006A2C4B
:1018B000BE0803195D2C20006A2C701522008C10C4
:1018C00080312000B2208831630070118031DE2029
:1018D00088316C2C0230D7002300732C0230D700E3
:1018E0002300732C230080312000012F0A108A105E
:1018F0000A1582076E2C08280A28722C722C992946
:101900000C28722C722CD729722C3128422C722C64
:02191000B92AF2
:027F1E002C3401
:107F20007F3400340034003482343534E4341B347C
:107F300083346734DB34A43483341E348C343334D8
:107F40007C34343489340A348134353479347C34A3
:107F50008334333402343F3483341E348C3433342A
:107F60007F340034003400348134B1348D340A3429
:107F7000813433345034EE347D347D34BF3437347F
:107F800081349334AA343D34813433345034EE3464
:107F90007B343A34F3344C347E34DF349D342B3428
:107FA0000034003400340034003400340034003431
:107FB0007F348A34473499348034003400340034B8
:107FC0000034003400340034003400340034003411
:107FD0007234593488347C34753426349734E03420
:107FE00078341E341D34C4347A34633450345E34EF
:107FF0007C347534FE341A347E343134723418349F
:020000040001F9
:08000E00EC1F331FFC1FFF3F34
:00000001FF
;PIC16F18326
;CRC=1BDF  CREATED="08-jul-19 17:30"
